:020000040800F2
:1000000000800120A1DA0008496F0108796E01081B
:100010007D6E0108816E0108856E010800000000F8
:100020000000000000000000000000004D6F01080B
:10003000516F010800000000556F01085D6F010855
:10004000896E01088D6E0108916E0108956E010898
:10005000996E01089D6E010871BC010879BC010808
:1000600081BC010889BC010891BC0108A16E01088E
:10007000A56E0108A96E0108AD6E0108B16E0108F8
:10008000B56E0108B96E0108BD6E0108C16E0108A8
:10009000C56E0108C96E0108CD6E010899BC010842
:1000A0000116020881FB0008011602080116020869
:1000B00089FB000891FB000899FB00085DAE010870
:1000C00069AE010875AE010881AE0108D16E010864
:1000D000D56E010801160208011602080116020871
:1000E000B1BC0108D96E0108DD6E0108E16E01089E
:1000F00001160208E56E010801160208E96E010802
:10010000ED6E0108F16E0108A1FB0008F56E010813
:10011000011602080116020801160208011602085B
:10012000F96E0108FD6E0108016F0108056F0108F5
:10013000096F01080D6F0108116F0108156F0108A3
:10014000196F01081D6F0108216F010869E5010899
:10015000256F0108296F0108011602082D6F01089B
:100160008DAE010899AE0108316F0108356F0108A5
:10017000396F01083D6F0108000000000000000019
:08018000416F0108456F010801
:1001900001F0FF01102A2BDB10F0070F08D010F838
:1001A000013B013A8B422DD010F0070F42B3F6D13C
:1001B000F0B441EA012141EA014122F007047FF055
:1001C00000070023F0E80256083C85EA010586EAAC
:1001D000010685FA47F5A3FA87F586FA47F6A5FAE8
:1001E00087F68EB9EED1F0BC01F0FF0102F00702F4
:1001F00032B110F8013B013A83EA010313B1F8D19F
:100200000020704701387047002D06BF354603387F
:10021000073815F0010F07D1013015F4807F02BFB8
:10022000013015F4C03F0130F0BC0138704700BF09
:1002300010B5054C237833B9044B13B10448AFF320
:1002400000800123237010BD08040020000000007E
:10025000542902080C4B43B10C480D4910B5AFF3BB
:1002600000800C48036823B910BD0A48036833B9FD
:100270007047094B002BF7D0BDE810401847064BDC
:10028000002BF5D0184700BF0000000054290208D9
:100290000C0400200404002000000000002815D0F9
:1002A000006041608260C360046145618661C7612E
:1002B000444604624C464462544684625C46C462CE
:1002C000644604636E46466374468463002906D020
:1002D000C46B043C043925680D60B442F9D1946BB9
:1002E000A646566BB546002B06D0D46B043C043BA7
:1002F0001D682560B442F9D1146BA446D46AA346A4
:10030000946AA246546AA146146AA046D7699669BF
:1003100055691469D3685168106892687047006025
:1003200041608260C360046145618661C761444683
:1003300004624C464462544684625C46C46264462D
:1003400004636E46466374468463C46B043C04399C
:1003500025680D60B442F9D1C769866945690469A9
:100360007047006041608260C360046145618661DE
:10037000C761444604624C464462544684625C460B
:10038000C462644604636C464463744684630469CF
:100390007047846BA646446BA546046BA446C46AAA
:1003A000A346846AA246446AA146046AA046C76975
:1003B000866945690469C368826800684168704756
:1003C00081F0004102E000BF83F0004330B54FEA06
:1003D00041044FEA430594EA050F08BF90EA020F73
:1003E0001FBF54EA000C55EA020C7FEA645C7FEA06
:1003F000655C00F0E2804FEA5454D4EB5555B8BF29
:100400006D420CDD2C4480EA020281EA030382EA99
:10041000000083EA010180EA020281EA0303362D2B
:1004200088BF30BD11F0004F4FEA01314FF4801CFE
:100430004CEA113102D0404261EB410113F0004F10
:100440004FEA03334CEA133302D0524263EB4303C7
:1004500094EA050F00F0A780A4F10104D5F1200E65
:100460000DDB02FA0EFC22FA05F2801841F10001C0
:1004700003FA0EF2801843FA05F359410EE0A5F194
:1004800020050EF1200E012A03FA0EFC28BF4CF0C5
:10049000020C43FA05F3C01851EBE37101F000457B
:1004A00007D54FF0000EDCF1000C7EEB00006EEB88
:1004B0000101B1F5801F1BD3B1F5001F0CD3490812
:1004C0005FEA30004FEA3C0C04F101044FEA445269
:1004D00012F5800F80F09A80BCF1004F08BF5FEAF0
:1004E000500C50F1000041EB045141EA050130BDD0
:1004F0005FEA4C0C404141EB010111F4801FA4F173
:100500000104E9D191F0000F04BF01460020B1FAC7
:1005100081F308BF2033A3F10B03B3F120020CDAFF
:100520000C3208DD02F1140CC2F10C0201FA0CF0DD
:1005300021FA02F10CE002F11402D8BFC2F1200C42
:1005400001FA02F120FA0CFCDCBF41EA0C019040F8
:10055000E41AA2BF01EB0451294330BD6FEA040441
:100560001F3C1CDA0C340EDC04F11404C4F120022C
:1005700020FA04F001FA02F340EA030021FA04F33E
:1005800045EA030130BDC4F10C04C4F1200220FA95
:1005900002F001FA04F340EA0300294630BD21FAD3
:1005A00004F0294630BD94F0000F83F4801306BF99
:1005B00081F480110134013D4EE77FEA645C18BF8D
:1005C0007FEA655C29D094EA050F08BF90EA020F24
:1005D00005D054EA000C04BF1946104630BD91EA1C
:1005E000030F1EBF0021002030BD5FEA545C05D11F
:1005F0004000494128BF41F0004130BD14F580045E
:100600003CBF01F5801130BD01F0004545F0FE41D1
:1006100041F470014FF0000030BD7FEA645C1ABF06
:10062000194610467FEA655C1CBF0B46024650EA3D
:10063000013406BF52EA033591EA030F41F4002169
:1006400030BD00BF90F0000F04BF0021704730B5EF
:100650004FF4806404F132044FF000054FF00001C4
:1006600050E700BF90F0000F04BF0021704730B585
:100670004FF4806404F1320410F0004548BF40425A
:100680004FF000013EE700BF42004FEAE2014FEAAF
:1006900031014FEA02701FBF12F07F4393F07F4F8A
:1006A00081F06051704792F0000F14BF93F07F4FBC
:1006B000704730B54FF4607401F0004521F00041FF
:1006C00020E700BF50EA010208BF704730B54FF085
:1006D00000050AE050EA010208BF704730B511F08A
:1006E000004502D5404261EB41014FF4806404F1C2
:1006F00032045FEA915C3FF4DCAE4FF003025FEA44
:10070000DC0C18BF03325FEADC0C18BF033202EBCB
:10071000DC02C2F1200300FA03FC20FA02F001FA25
:1007200003FE40EA0E0021FA02F11444C1E600BFC4
:1007300070B54FF0FF0C4CF4E06C1CEA11541DBF77
:100740001CEA135594EA0C0F95EA0C0F00F0DEF842
:100750002C4481EA030621EA4C5123EA4C5350EA27
:10076000013518BF52EA033541F4801143F4801378
:1007700038D0A0FB02CE4FF00005E1FB02E506F009
:100780000042E0FB03E54FF00006E1FB03569CF05E
:10079000000F18BF4EF0010EA4F1FF04B6F5007F64
:1007A00064F5407404D25FEA4E0E6D4146EB0606D6
:1007B00042EAC62141EA55514FEAC52040EA5E505F
:1007C0004FEACE2EB4F1FD0C88BFBCF5E06F1ED809
:1007D000BEF1004F08BF5FEA500E50F1000041EB40
:1007E000045170BD06F0004646EA010140EA0200ED
:1007F00081EA0301B4EB5C04C2BFD4EB0C0541EA0F
:10080000045170BD41F480114FF0000E013C00F323
:10081000AB8014F1360FDEBF002001F0004170BD47
:10082000C4F10004203C35DA0C341BDC04F1140460
:10083000C4F1200500FA05F320FA04F001FA05F2EC
:1008400040EA020001F0004221F0004110EBD370B9
:1008500021FA04F642EB06015EEA430E08BF20EAE5
:10086000D37070BDC4F10C04C4F1200500FA04F388
:1008700020FA05F001FA04F240EA020001F000411A
:1008800010EBD37041F100015EEA430E08BF20EA8D
:10089000D37070BDC4F1200500FA05F24EEA020ED5
:1008A00020FA04F301FA05F243EA020321FA04F004
:1008B00001F0004121FA04F220EA020000EBD370BB
:1008C0005EEA430E08BF20EAD37070BD94F0000FBB
:1008D0000FD101F00046400041EB010111F4801FEF
:1008E00008BF013CF7D041EA060195F0000F18BFA0
:1008F000704703F00046520043EB030313F4801FDC
:1009000008BF013DF7D043EA0603704794EA0C0F95
:100910000CEA135518BF95EA0C0F0CD050EA4106AB
:1009200018BF52EA4306D1D181EA030101F0004128
:100930004FF0000070BD50EA410606BF1046194650
:1009400052EA430619D094EA0C0F02D150EA01365C
:1009500013D195EA0C0F05D152EA03361CBF10469D
:1009600019460AD181EA030101F0004141F0FE413C
:1009700041F470014FF0000070BD41F0FE4141F4C0
:10098000780170BD70B54FF0FF0C4CF4E06C1CEAC0
:1009900011541DBF1CEA135594EA0C0F95EA0C0F75
:1009A00000F0A7F8A4EB050481EA030E52EA033530
:1009B0004FEA013100F088804FEA03334FF0805551
:1009C00045EA131343EA12634FEA022245EA11157E
:1009D00045EA10654FEA00260EF000419D4208BF2F
:1009E000964244F1FD0404F5407402D25B084FEADC
:1009F0003202B61A65EB03055B084FEA32024FF488
:100A000080104FF4002CB6EB020E75EB030E22BFE4
:100A1000B61A754640EA0C005B084FEA3202B6EBA4
:100A2000020E75EB030E22BFB61A754640EA5C0053
:100A30005B084FEA3202B6EB020E75EB030E22BFE3
:100A4000B61A754640EA9C005B084FEA3202B6EBE4
:100A5000020E75EB030E22BFB61A754640EADC00A3
:100A600055EA060E18D04FEA051545EA16754FEA05
:100A700006164FEAC30343EA52734FEAC2025FEA23
:100A80001C1CC0D111F4801F0BD141EA00014FF0B2
:100A900000004FF0004CB6E711F4801F04BF014383
:100AA0000020B4F1FD0C88BFBCF5E06F3FF6AFAE9F
:100AB000B5EB030C04BFB6EB020C5FEA500C50F12F
:100AC000000041EB045170BD0EF0004E4EEA1131B2
:100AD00014EB5C04C2BFD4EB0C0541EA045170BDB9
:100AE00041F480114FF0000E013C90E645EA060EFD
:100AF0008DE60CEA135594EA0C0F08BF95EA0C0F2B
:100B00003FF43BAF94EA0C0F0AD150EA01347FF472
:100B100034AF95EA0C0F7FF425AF104619462CE749
:100B200095EA0C0F06D152EA03353FF4FDAE1046AC
:100B3000194622E750EA410618BF52EA43067FF4FD
:100B4000C5AE50EA41047FF40DAF52EA43057FF48D
:100B5000EBAE12E74FF0FF3C06E000BF4FF0010C98
:100B600002E000BF4FF0010C4DF804CD4FEA410CFC
:100B70007FEA6C5C4FEA430C18BF7FEA6C5C1BD0C9
:100B800001B050EA410C0CBF52EA430C91EA030F4A
:100B900002BF90EA020F0020704710F1000F91EAA7
:100BA000030F58BF994208BF90422CBFD8176FEA75
:100BB000E37040F0010070474FEA410C7FEA6C5C43
:100BC00002D150EA013C07D14FEA430C7FEA6C5C4A
:100BD000D6D152EA033CD3D05DF8040B704700BF76
:100BE0008446104662468C461946634600E000BFC4
:100BF00001B5FFF7B7FF002848BF10F1000F01BD96
:100C00004DF808EDFFF7F4FF0CBF012000205DF860
:100C100008FB00BF4DF808EDFFF7EAFF34BF0120E5
:100C200000205DF808FB00BF4DF808EDFFF7E0FF7E
:100C300094BF012000205DF808FB00BF4DF808EDCF
:100C4000FFF7CEFF94BF012000205DF808FB00BF36
:100C50004DF808EDFFF7C4FF34BF012000205DF818
:100C600008FB00BF4FEA410C7FEA6C5C02D150EAFE
:100C7000013C0AD14FEA430C7FEA6C5C02D152EA94
:100C8000033C02D14FF0000070474FF00100704765
:100C90004FEA410212F5001215D211D56FF47873A4
:100CA000B3EB625212D94FEAC12343F0004343EA47
:100CB000505311F0004F23FA02F018BF4042704722
:100CC0004FF00000704750EA013005D111F00040AC
:100CD00008BF6FF0004070474FF00000704700BF42
:100CE0004A0011D212F5001211D20DD56FF47873AB
:100CF000B3EB62520ED44FEAC12343F0004343EA00
:100D0000505323FA02F070474FF00000704750EA4A
:100D1000013002D14FF0FF3070474FF000007047B4
:100D20004FEA4102B2F1E04324BFB3F5001CDCF10D
:100D3000FE5C0DD901F0004C4FEAC0024CEA507045
:100D4000B2F1004F40EB830008BF20F00100704774
:100D500011F0804F21D113F13872BCBF01F0004077
:100D6000704741F480114FEA5252C2F11802C2F1A9
:100D7000200C10FA0CF320FA02F018BF40F001002A
:100D80004FEAC1234FEAD32303FA0CFC40EA0C00DC
:100D900023FA02F34FEA4303CCE77FEA625307D119
:100DA00050EA01331EBF4FF0FE4040F44000704750
:100DB00001F0004040F0FE4040F40000704700BFEA
:100DC00053B94AB9002908BF00281CBF4FF0FF31B2
:100DD0004FF0FF3000F0DAB9ADF1080C6DE904CE48
:100DE00000F066F8DDF804E0DDE9022304B07047A6
:100DF0002DE9F84380EAE074A4EBE074E20757ECD5
:100E0000106B58BFDFF85C90054652BF4FF00008EA
:100E1000B046B946640832463B463046394613D0A0
:100E2000FFF786FCE30706460F46F3D540464946E2
:100E300032463B46FFF77CFC6408804689463246D2
:100E40003B4630463946EBD1002D07DA42464B4649
:100E500000200449FFF796FD8046894649EC108B37
:100E6000BDE8F8830000F03FD0B500220E4B0646E7
:100E70000F46FFF75DFCFFF733FF0446FFF7E2FB89
:100E800000220A4BFFF754FC02460B463046394617
:100E9000FFF79AFAFFF724FF2346002242EA0002F6
:100EA00010461946D0BD00BF0000F03D0000F041E3
:100EB0002DE9F0478C460D460446089E002B51D183
:100EC0008A4217466DD9B2FA82FEBEF1000F0BD0EE
:100ED000CEF1200C01FA0EF520FA0CFC02FA0EF706
:100EE0004CEA050C00FA0EF44FEA174A250CBCFB3D
:100EF000FAF81FFA87F90AFB18CC45EA0C4508FBFB
:100F000009F3AB420AD9ED1908F1FF3280F02381D1
:100F1000AB4240F22081A8F102083D44ED1AA4B290
:100F2000B5FBFAF00AFB105544EA054400FB09F949
:100F3000A14509D9E41900F1FF3380F00A81A145E8
:100F400040F2078102383C44A4EB090440EA08401F
:100F50000021002E61D024FA0EF400233460736067
:100F6000BDE8F0878B4207D9002E54D0002186E8D7
:100F700021000846BDE8F087B3FA83F1002940F06C
:100F80008E80AB4202D3824200F2FA80841A65EB73
:100F900003050120AC46002E3FD086E81010BDE8C6
:100FA000F08712B90127B7FBF2F7B7FA87FEBEF157
:100FB000000F34D1EB1B3A0C1FFA87FC0121B3FB65
:100FC000F2F8250C02FB183345EA03450CFB08F345
:100FD000AB4207D9ED1908F1FF3002D2AB4200F263
:100FE000D1808046ED1AA3B2B5FBF2F002FB10559A
:100FF00043EA05440CFB00FCA44507D9E41900F1C1
:10100000FF3302D2A44500F2B8801846A4EB0C04CA
:1010100040EA08409DE731463046BDE8F087CEF112
:10102000200405FA0EF307FA0EF720FA04F83A0C3A
:1010300025FA04F448EA0308B4FBF2F14FEA184534
:1010400002FB11441FFA87FC45EA044501FB0CF33F
:10105000AB4200FA0EF409D9ED1901F1FF3080F02E
:101060008A80AB4240F2878002393D44EB1A1FFA76
:1010700088F5B3FBF2F002FB103345EA034500FBB1
:101080000CF3AB4207D9ED1900F1FF386FD2AB4238
:101090006DD902383D44EB1A40EA01418FE7C1F1B6
:1010A000200722FA07F88B4005FA01F448EA030307
:1010B00020FA07FE4FEA134CFD404EEA040EB5FB42
:1010C000FCF94FEA1E440CFB19551FFA83F844EA59
:1010D000054509FB08F4AC4202FA01F200FA01FAF4
:1010E00008D9ED1809F1FF3043D2AC4241D9A9F13A
:1010F00002091D442D1B1FFA8EFEB5FBFCF00CFBF4
:1011000010554EEA054400FB08F8A04507D9E4183D
:1011100000F1FF3529D2A04527D902381C4440EA06
:101120000940A4EB0804A0FB02894C45C6464D4685
:1011300015D312D056B1BAEB0E0364EB050404FAD2
:1011400007F7CB401F43CC40376074600021BDE8F7
:10115000F0871846F8E69046E0E6C245EAD2B8EBDA
:10116000020E69EB03050138E4E72846D7E740465D
:1011700091E78146BEE7014678E702383C4445E7FF
:10118000084608E7A8F102083D442BE7704700BF76
:1011900010F8012B11F8013B012A28BF9A42F7D021
:1011A000D01A7047034613F8012B002AFBD1181AF6
:1011B00001387047000000002DE9F04F85B0039121
:1011C0000778A7F10903042B044607F07F0200F11A
:1011D0000100F5D9202AF3D02B2F04BF67780446ED
:1011E0002D2F71D09FED407B8DED007B4FF00008DF
:1011F0004FF000098FB34FF0000E4FF0000ADFF8F8
:1012000000B1754619E0FFF793FA804689463046EB
:10121000FFF728FA42464B46FFF7D8F85246804679
:1012200089465B46DDE9000135B3FFF7ABFBCDE94D
:101230000001AE4614F8017F7FB1A7F13006092EF8
:1012400052465B4640464946DDD9C5B92E2F16D1D8
:1012500014F8017F0125002FEFD142464B46DDE90E
:101260000001FFF765FA80468946039B49EC108B25
:101270001C6005B0BDE8F08F4FF0010EDAE7BEF15B
:10128000000F28D042464B46DDE90001FFF750FA37
:1012900007F0DF07452F80468946E6D103990A22E9
:1012A000601C20F025F89FED120BFFF7A1FD4046D2
:1012B00053EC102B4946FFF73BFA8046894649EC30
:1012C000108B05B0BDE8F08F9FED0B7B67788DED3F
:1012D000007B01348AE7DFF82C904FF0000849ECDE
:1012E000108B05B0BDE8F08F000000000000F03F5B
:1012F0000000000000002440000000000000F0BFDB
:10130000000024400000F87F00B52DED028B83B073
:1013100006F064F901A9FFF74FFF0022002351EC0A
:10132000100BB0EE408AF0EE608AFFF769FC40B91E
:10133000B0EE480AF0EE680A06F024FD08B99FED09
:10134000068BB0EE480AF0EE680A06F091FF03B093
:10135000BDEC028B5DF804FB000000000000F87F8C
:101360002DE9F84F55EC104B06460022002310EEF5
:10137000100A2946FFF74EFC002840F09F8000220B
:10138000002320462946FFF73BFC28B130220023EA
:1013900032707370BDE8F88F45EC104B1EF0D4FF2F
:1013A00051EC100BFFF774FC7BA3D3E900238146BB
:1013B00029462046FFF72EFC002800F08680B9F170
:1013C000000FC0F2BE8048469FED6D0BFFF710FD89
:1013D0002046294653EC102BFFF7D4FA04460D465D
:1013E0006FA1D1E9000101274FF0000822462B46EA
:1013F000FFF79EF90022664BFEF7E8FFFFF734FD8A
:10140000002FCC464FF0FF3AC1464FF0000840F3A2
:101410008580DFF894E15F4C0122AEF1700945F65A
:10142000F3254FF02E0BA94208BFA0424FF0300326
:1014300009D3001B61EB0501A94208BFA04203F1DB
:101440000103F6D2DBB2337050EA010306F1010466
:1014500009D1BA4210DACE4502F101020CD026467B
:101460007EE80245DFE7BA4204BF86F801B0B41C4B
:10147000CE4502F10102F2D1B8F1000F0DD02246A3
:10148000302102F8011BC2F1010353442344002B15
:10149000F7DC2AEAEA7301331C44BCF1010F4CD09B
:1014A0006523BCF1000F2370C5BF2B236370611C43
:1014B000A11C6046BDE8F84F0AF09EBC05F1004350
:1014C0001D462D233370013659E72FA3D3E900239E
:1014D00020462946FFF7BCFB00287FF470AFB9F126
:1014E0000E0F09F101073DDDA9F10E0840469FED01
:1014F000240BFFF77DFC204653EC102B2946FFF709
:1015000041FA0022224BFEF761FFFFF7ADFC002FEE
:10151000A9F10F0A4FF0010C3FF77BAF33463022A1
:101520002E2403F8022B74707FEA090618D01E449B
:1015300003F8012BB342FBD16BE700232370BDE816
:10154000F88FC9F100009FED0E0BFFF751FC20460C
:10155000294653EC102BFFF7EBF804460D463FE706
:101560001E4656E7C9F10E009FED050BFFF740FC44
:10157000C84651EC100B4FF0010937E7AFF300807C
:10158000000000000000244050EFE2D6E41A4B4473
:101590000000E03F00407A108DEDB5A0F7C6B03EE8
:1015A0000000901EC4BCD642F82D020800000000C6
:1015B00070B54FF0FF3006F05FFD04466FF07F40DE
:1015C00006F05AFD06462046FFF73CF800220E4B77
:1015D000FFF7AEF8044630460D46FFF733F808A390
:1015E000D3E90023FFF7CEF902460B4620462946F1
:1015F000FEF7ECFE41EC100B70BD00BFAFF30080B6
:101600000000E0DFFFFF6F430000F03D000000003E
:1016100038B52DED028B044606F0F4FBC8B9204620
:1016200006F0FAFB30B1A30914BF01200020BDEC85
:10163000028B38BD4CB1204607F008F8B0EE408A66
:10164000F0EE608A06F09EFB48B9BDEC028B0020EC
:1016500038BD204606F0F6FBBDEC028B38BDB0EE7F
:10166000480AF0EE680A1EF0BBFB9FED0F1B1EF050
:1016700081FD55EC104B0022002310EE100A294684
:10168000FFF7C8FA20B920462946FFF729FBCEE725
:10169000204629460022064BFEF798FE04460D46DA
:1016A000F1E700BFAFF30080000000000000F04150
:1016B0000000F041000000002DE9704355EC104B94
:1016C000554A25F00043934258DC544A93422E4633
:1016D00013DC4DA3D3E9002310EE100A2946FEF7D0
:1016E00075FE00224E4BFFF7B3FA00285DD020466E
:1016F000294641EC100BBDE870834A4A934248DC0E
:10170000B3F1804F51DD1EF0D7FA22462B4620461A
:10171000294659EC108BFFF70BF80022404BFEF7DF
:1017200055FE41EC100B1FF089F8404653EC102B8E
:101730004946FEF74BFE02460B4600203849FFF7AC
:1017400021F9424604460D464B4640464946FEF7BF
:101750003DFE02460B4620462946FEF737FE41EC89
:10176000100B02F03DFA51EC100B002E0DDC01F1D4
:101770000043194641EC100BBDE8708310EE102AAF
:101780002B4620462946FEF721FE41EC100BBDE812
:1017900070831EF091FA02F023FA1DA3D3E900230F
:1017A00051EC100BFEF712FEDFE722462B462046D7
:1017B0002946FEF7BDFF45EC104B804689461EF0DA
:1017C0007BFA0022164B4046494655EC104BFEF77B
:1017D000FDFD41EC100B1FF031F8002251EC100B15
:1017E0000F4BFEF7F3FD02460B4640464946FFF716
:1017F000C9F822462B46FEF7E9FD41EC100B00F03C
:101800004BFB51EC100BB0E79C7500883CE4377E35
:10181000EF39FAFE422EE63FFFFFEF7FFFFF2F3E3C
:101820000000F03F0000B0412DE9F84F55EC104B9F
:10183000CD4B25F000469E42AA4610DDCB4B9E4282
:1018400000F3B38000F0AE80BAF1000F40F3F780F0
:10185000A9A1D1E9000141EC100BBDE8F88FC44B00
:101860009E4200F3C180A3F1DE739E4240F3A78045
:101870004FF0FF3B22462B4620462946FEF758FFF5
:1018800002460B4680468946FEF752FF9CA3D3E9E9
:10189000002306460F46FEF74BFF9BA3D3E9002328
:1018A000FEF794FD32463B46FEF742FF98A3D3E98C
:1018B0000023FEF78BFD32463B46FEF739FF96A329
:1018C000D3E90023FEF782FD32463B46FEF730FFA8
:1018D00093A3D3E90023FEF779FD32463B46FEF79A
:1018E00027FF91A3D3E90023FEF770FD42464B4644
:1018F000FEF71EFF8EA3D3E90023804689463046BB
:101900003946FEF715FF8CA3D3E90023FEF75CFDF3
:1019100032463B46FEF70CFF89A3D3E90023FEF7CE
:1019200053FD32463B46FEF703FF87A3D3E900236E
:10193000FEF74AFD32463B46FEF7FAFE84A3D3E9A2
:101940000023FEF741FD32463B46FEF7F1FEBBF1B8
:10195000FF3F02460B4676D040464946FEF736FD2D
:1019600022462B46FEF7E4FE824E834B4FEACB0B1A
:101970005E449B44DBE90023FEF726FD22462B460E
:10198000FEF722FD02460B46D6E90001FEF71CFDDC
:10199000BAF1000F0FDA01F10043194641EC100BC8
:1019A000BDE8F88F002C3FF44FAF22462B4620466F
:1019B0002946FEF70BFD41EC100BBDE8F88F66A33E
:1019C000D3E9002310EE100A2946FEF7FFFC00229F
:1019D0006A4BFFF73DF900283FF44AAF20462946FD
:1019E00041EC100BBDE8F88F1EF066F9644B9E4287
:1019F00055EC104B36DCA3F550239E425FDC10EE15
:101A0000102A10EE100A2B462946FEF7DFFC0022B2
:101A10005A4BFEF7D9FC002206460F464FF0804392
:101A200020462946FEF7D2FC02460B463046394690
:101A3000FEF7A8FF4FF0000B04460D461AE748A139
:101A4000D1E90001B7E740464946FEF7BFFC224610
:101A50002B46FEF76DFE02460B4620462946FEF752
:101A6000B3FCA8E7474B9E421DDC10EE100A002293
:101A7000454B2946FEF7A8FC002206460F46424B7E
:101A800020462946FEF754FE00223C4BFEF79EFC02
:101A900002460B4630463946FEF774FF4FF0020B04
:101AA00004460D46E6E62B4610EE102A0020374984
:101AB000FEF768FF4FF0030B04460D46DAE610EE22
:101AC000100A00222D4B2946FEF77EFC0022064616
:101AD0000F462A4B20462946FEF778FC02460B4665
:101AE00030463946FEF74EFF4FF0010B04460D46D7
:101AF000C0E600BFAFF30080182D4454FB21F93F2E
:101B000011DA22E33AAD903FEB0D76244B7BA93FEF
:101B1000513DD0A0660DB13F6E204CC5CD45B73FBD
:101B2000FF8300922449C23F0D5555555555D53F69
:101B30002F6C6A2C44B4A2BF9AFDDE522DDEAD3F5D
:101B40006D9A74AFF2B0B33F711623FEC671BC3FFD
:101B5000C4EB98999999C93F9C7500883CE4377EFD
:101B6000182D4454FB21F9BFFFFF0F440000F07F04
:101B7000FFFFDB3F082E0208282E02080000F03F7E
:101B8000FFFFF23FFF7F03400000F83F0000F0BF7F
:101B900051EC100B2DE9F843C1F30A59A9F2FF35B6
:101BA000132D0C4610EE106A884610EE107A22DCD7
:101BB000002D52DB3E4B43FA05F901EA09030343CA
:101BC0001ED039A3D3E90023FEF700FC0022002336
:101BD000FFF73EF848B1002C04DD4FF4801343FAC0
:101BE00005F5A84428EA0904002723463A4643ECB1
:101BF000102BBDE8F883332D06DDB5F5806F3FD09F
:101C000041EC100BBDE8F883A9F213494FF0FF3304
:101C100023FA09F910EA090FF2D023A3D3E900232C
:101C2000FEF7D4FB00220023FFF712F80028DCD0D7
:101C3000002C09DD142D32D00127C5F1340507FA37
:101C400005F5AE1928BFB844444626EA09072346DD
:101C50003A4643EC102BBDE8F88313A3D3E90023E5
:101C6000FEF7B4FB00220023FEF7F2FF0028BCD0F1
:101C7000002C10DB54EA06070BD000270D4CB4E70C
:101C800010EE102A0B46FEF7A1FB41EC100BBDE84D
:101C9000F8833C46A9E700274FF00044A5E704F18C
:101CA0000108D1E7AFF300809C7500883CE4377EE3
:101CB000FFFF0F000000F03F00B551EC100B2C4A65
:101CC00021F00043934285B020DD2A4A934209DD8A
:101CD00010EE102A0B46FEF777FB41EC100B05B017
:101CE0005DF804FB684602F093FF00F00300012852
:101CF00028D0022815D060B301209DED021B9DED78
:101D0000000B04F00DF851EC100BE6E79FED161BED
:101D100003F08AFA51EC100B41EC100B05B05DF8A2
:101D200004FB9DED021B9DED000B03F07DFA53ECCF
:101D3000102B10EE100A03F1004141EC100B05B01E
:101D40005DF804FB9DED021B9DED000B03F0E8FF29
:101D5000EDE79DED021B9DED000B03F065FA51ECE4
:101D6000100BBAE7AFF30080000000000000000095
:101D7000FB21E93FFFFFEF7F51EC100BC1F30A534A
:101D80002DE9F041A3F2FF35132D0C460F4610EE5E
:101D9000106A1DDC002D43DB3D4B43FA05F801EAD8
:101DA0000803034319D038A3D3E90023FEF70EFB41
:101DB00000220023FEF74CFF20B1002C49DB27EA6C
:101DC000080400262346324643EC102BBDE8F08180
:101DD000332D06DDB5F5806F32D041EC100BBDE838
:101DE000F081A3F213434FF0FF3828FA03F810EA0A
:101DF000080FF2D024A3D3E90023FEF7E7FA00226C
:101E00000023FEF725FF0028DCD0002C27DB3C4612
:101E100026EA08062346324643EC102BBDE8F08143
:101E200019A3D3E90023FEF7D1FA00220023FEF71D
:101E30000FFF0028C6D0002C1CDB00263446C1E76B
:101E400010EE102A0B46FEF7C1FA41EC100BBDE86C
:101E5000F0814FF4801343FA05F52F44AFE7142DBA
:101E600010D00123C5F1340503FA05F5AE1928BFDA
:101E7000FF18CCE724F00042064B324318BF1C4643
:101E800000269FE70137C2E79C7500883CE4377E57
:101E9000FFFF0F000000F0BF2DE9F04FDA4B59ECC7
:101EA000108B994587B04E4619DCD84B29F0004479
:101EB0009C4222DD0022D64B10EE100A4946FEF766
:101EC0009FFE002800F08180002200230020D149DD
:101ED000FEF758FD41EC100B07B0BDE8F08FCE4B7C
:101EE000994534DD42464B4640464946FEF76EFA78
:101EF00041EC100B07B0BDE8F08FC84B9C4273DD7E
:101F0000C74B1E449E4200F284800022C54B4046CF
:101F10004946FEF75BFA4FEA215AAAF2FF3ABAF1B4
:101F2000000F04460D460E4640F3EE8142464B46F6
:101F3000FEF74AFA02460B460020BA49FEF744FA79
:101F400022462B46FEF71EFDCDE902010BE0B64B03
:101F50009E42DADD9FED967B8DED027B4FEA265A9D
:101F60004446AAF2FF3AB14BC6F313069E4246F02E
:101F70007F5500F3F18045F44015204629460022A4
:101F8000A84BFEF721FA002204460D46A84BFEF7A7
:101F9000CFFB22462B46FEF7CBFBA046CDE9040142
:101FA000A946CDE90001002E42D10022002320469F
:101FB0002946FEF725FE002800F0D880BAF1000F70
:101FC00040F082819FED7A0B94E742464B464046B3
:101FD0003146FEF7F9F902460B46FEF7D3FC41EC19
:101FE000100B07B0BDE8F08F0022924B10EE100AE4
:101FF0004946FEF7EBF900220023FEF729FE0028F0
:1020000000F01C818C4B9C4200F3188149EC108B32
:1020100070E70022864B10EE100A4946FEF788FB57
:1020200042464B46FEF784FBCDE900014FF0000A23
:1020300000224FF0804340464946FEF7C7F902466A
:102040000B4640464946FEF79DFC02460B460646B7
:102050000F46FEF76DFB58A3D3E9002304460D4657
:10206000FEF766FB56A3D3E90023FEF7AFF922463D
:102070002B46FEF75DFB54A3D3E90023FEF7A6F938
:1020800022462B46FEF754FB51A3D3E90023FEF76B
:102090009DF922462B46FEF74BFB4FA3D3E90023C5
:1020A000FEF794F922462B46FEF742FB4CA3D3E9F8
:1020B0000023FEF78BF922462B46FEF739FB4AA395
:1020C000D3E90023FEF782F922462B46FEF730FBC8
:1020D00004460D46BAF1000F00F0C5805046FEF7E9
:1020E000C1FA43A3D3E9002382468B46FEF720FBC7
:1020F000DDE90023CDE9040120462946FEF766F913
:1021000032463B46FEF714FB3BA3D3E900230446CB
:102110000D4650465946FEF70BFBDDE90223FEF75C
:1021200055F902460B4620462946FEF74FF902466E
:102130000B46DDE90001FEF747F942464B46FEF744
:1021400043F902460B46DDE90401FEF73DF941EC97
:10215000100B07B0BDE8F08F45F40015C6F58016EA
:1021600020462946B6100AF1010A08E724A3D3E95C
:10217000002320462946FEF7DBFA02460B460020E4
:102180002849FEF721F9DDE90423FEF7D1FA0646D6
:102190000F46BAF1000F77D102460B46204629467A
:1021A000FEF712F941EC100BA4E600BFAFF300807C
:1021B000000000000000000044523EDF12F1C23F68
:1021C0009FC678D0099AC33FDE03CB966446C73FCB
:1021D000AF788E1DC571CC3F599322942449D23FCC
:1021E00004FA97999999D93F935555555555E53F17
:1021F0000000E0FE422EE63F763C7935EF39EA3DBD
:10220000555555555555E53F7982DA3FFFFFEF3F6C
:102210000000F0BF000050C3FFFFEF7FFFFF1F3E35
:102220003C412D400000F03FFFFF3F439DA00600D2
:102230000000E03F00005043FFFF8F3C42464B460A
:1022400040464946FEF774FA0022394BFEF770FA11
:1022500002460B4640464946FEF7B6F841EC100BE5
:1022600007B0BDE8F08FDDE9004522462B46FEF7BA
:10227000ADF832463B46FEF75BFA02460B46204677
:102280002946FEF7A1F8E3E75046FEF7EBF924A351
:10229000D3E9002382468B46FEF74AFA22A3D3E90C
:1022A00000238046894650465946FEF741FADDE94B
:1022B0000223FEF78BF802460B4630463946FEF7FE
:1022C00083F822462B46DCE75046FEF7CBF916A3EF
:1022D000D3E9002306460F46FEF72AFADDE902237A
:1022E000FEF774F80EA3D3E9002304460D463046EA
:1022F0003946FEF71DFA02460B4620462946FEF7F0
:1023000065F841EC100BF5E500220A4BFEF75CF88E
:1023100002460B4640464946FEF756F810E600BF17
:102320000000E0FE422EE63F763C7935EF39EA3D8B
:102330000000E03F0000F03F08B51DF081FF06A35C
:10234000D3E9002351EC100BFEF71CFB41EC100B02
:1023500008BD00BFAFF30080EF39FAFE422EE63F22
:1023600000B551EC100B2C4A21F00043934285B08C
:1023700027DD2A4A934209DD10EE102A0B46FEF7AC
:1023800023F841EC100B05B05DF804FB684602F041
:102390003FFC00F00300012827D002281DD068B3BD
:1023A0009DED021B9DED000B02F03EFF53EC102B48
:1023B00010EE100A03F1004141EC100B05B05DF87E
:1023C00004FB00209FED121B03F0AAFC51EC100B44
:1023D00041EC100B05B05DF804FB01209DED021BE4
:1023E0009DED000B03F09CFCE0E79DED021B9DEDD5
:1023F000000B02F019FF51EC100BC2E701209DED1C
:10240000021B9DED000B03F08BFC51EC100BB8E7A9
:102410000000000000000000FB21E93FFFFFEF7F0C
:1024200000B551EC100B184A21F00043934285B0DF
:102430001DDD164A934209DD10EE102A0B46FDF70A
:10244000C3FF41EC100B05B05DF804FB684602F0D9
:10245000DFFB400000F00200C0F101009DED021B17
:102460009DED000B03F028FD05B05DF804FB012095
:102470009FED031B03F020FD05B05DF804FB00BFDA
:102480000000000000000000FB21E93FFFFFEF7F9C
:1024900030B52DED048BB0EE408AF0EE608A2C4C06
:1024A0008BB001F055F994F90030B0EE409AF0EE9F
:1024B000609A01332ED053EC182B51EC180BFEF719
:1024C000D1FB054630BBB0EE480AF0EE680A1DF0BD
:1024D000F3FB1DA3D3E9002351EC100BFEF7B8FB6F
:1024E000C0B11C4A94F90030089503218DED048B8E
:1024F0008DED028B8DE80600A3B9174B4FF06042BB
:10250000CDE9062368461EF06DFA88B1089BB3B981
:102510009DED069BB0EE490AF0EE690A0BB0BDECEA
:10252000048B30BD0D490020022BCDE90601E9D115
:102530001EF008FB22230360089B002BE8D01EF04E
:1025400001FB089B0360E3E77DF8B98FCE3386403B
:102550000104002000490208FFFFEF470000F07F60
:10256000F0B52DED048BB0EE408AF0EE608A384C69
:102570008BB001F0A1F994F90030B0EE409AF0EE82
:10258000609A013334D0B0EE480AF0EE680A1EF0CB
:1025900021FA68B32AA3D3E9002351EC180BFEF704
:1025A00057FB054660BB28A3D3E9002351EC180B69
:1025B000FEF730FBE0B194F90030264A089500267A
:1025C00000270421022B8DED048B8DED028BCDE9CC
:1025D00006678DE806002CD068461EF003FA40B36B
:1025E000089B1BB11EF0AEFA089B03609DED069B95
:1025F000B0EE490AF0EE690A0BB0BDEC048BF0BDF9
:10260000144A94F900300192032100228DED048BCD
:102610008DED028B009108922BB90F4B4FF0604269
:10262000CDE90623D8E70D490020022BCDE90601AC
:10263000D2D11EF087FA22230360D1E7AFF30080E6
:10264000EF39FAFE422E864051302DD5104987C011
:102650000104002008490208FFFFEF470000F07F57
:102660002DE9F04F2DED028BDFF80CA38BB057EC6A
:10267000106B55EC114B01F05BFD9AF90080B0EE48
:10268000408AF0EE608AB8F1FF3F34D022462B46F4
:1026900020462946FEF7E6FA834660BB32463B46B3
:1026A00030463946FEF7DEFA8146002840F09F802A
:1026B0003046394600220023FEF7A2FA20B300225A
:1026C000002320462946FEF79BFA8346002867D060
:1026D0009FED9F7B0122A44BCDF820900092CDE985
:1026E0000267CDE904458DED067B0193B8F1000F3B
:1026F00049D09FED998BB0EE480AF0EE680A0BB016
:10270000BDEC028BBDE8F08FB0EE480AF0EE680A2F
:102710001EF060F98046002800F084804FF0000829
:102720004FF0000951EC180B42464B46FEF768FA91
:102730000028E0D047EC106B1EF04CF90028DAD0EE
:1027400045EC104B1EF046F90028D4D09AF9003021
:10275000854A019204210022022BCDE90267CDE9CE
:102760000445CDE906890091089203D068461EF021
:1027700039F960B91EF0E6F92223036007E09FED06
:10278000747B8DED067B68461EF02CF950B3089BD8
:102790001BB11EF0D7F9089B03609DED068BAAE7DD
:1027A00045EC104B1EF016F90028A4D0002200239F
:1027B00020462946FEF72EFA00289CD06A4A9AF94C
:1027C0000030CDF820B00121CDE90267CDE9044504
:1027D0008DE80600002BD2D064490020022BCDE901
:1027E0000601D0D11EF0AEF921230360CFE700220D
:1027F000002320462946FEF703FA00283FF47BAF6A
:102800009FED558B584BCDF820B00122B8F1020F47
:10281000CDE90267CDE904458DED068B8DE80C000E
:10282000B1D168E747EC106B1EF0D4F800283FF4F4
:1028300075AF45EC104B1EF0CDF800283FF46EAF9D
:1028400053EC182B18EE100A1946FEF70BFA002865
:1028500061D103239AF900800093434B0890CDE99E
:102860000267CDE904450193B8F1000F2DD1DFF8DF
:102870000C914FF060480022002330463946CDE9E4
:102880000689FEF7C7F900283FF470AF0022384BE5
:1028900020462946FDF74CFF04460D4645EC104BFB
:1028A0001EF0A2F8204653EC102B2946FEF7A8F99B
:1028B00070BB304B9AF900804FF06042CDE906239F
:1028C000B8F1020F7FF452AF54E79FED257B002251
:1028D0000023304639468DED067BFEF79BF9002834
:1028E000EED00022224B20462946FDF721FF044668
:1028F0000D4645EC104B1EF077F8204653EC102B9C
:102900002946FEF77DF918B9184B0022CDE90623B8
:102910009AF90080D4E7144B9AF90090CDF8208002
:102920000122CDE90267CDE904458DE80C00B9F13B
:10293000000F3FF424AF0022002310461946FEF793
:1029400021F8B9F1020FCDE906013FF44BAF1AE7C8
:102950000000000000000000000000000000F03F48
:10296000000000000000F07F204902080000F0FF96
:102970000000E03FFFFFEFC701040020FFFFEF472B
:102980002DE9F84F55EC104BCD4925F000438B4213
:102990000DDD03F1404303F58013234340F0BD8078
:1029A000002D40F34F819FEDAA0BBDE8F88FC5497C
:1029B0008B4240F3AB80002DC0F28C8110EE102AC8
:1029C0002B460020C049FDF7FFFC0022BF4BFDF75E
:1029D000AFFE04460D4645EC104B1DF02FFF204680
:1029E00029469DA3D3E9002359EC108BFDF7A0FEE7
:1029F0009BA3D3E90023FDF7E9FC22462B46FDF714
:102A000097FE99A3D3E90023FDF7DEFC22462B466F
:102A1000FDF78EFE96A3D3E90023FDF7D7FC2246EF
:102A20002B46FDF785FE94A3D3E90023FDF7CCFCEC
:102A300022462B46FDF77CFE91A3D3E90023FDF748
:102A4000C5FC22462B46FDF773FE8FA3D3E9002376
:102A500082468B4620462946FDF76AFE8CA3D3E9C1
:102A60000023FDF7B1FC22462B46FDF761FE8AA349
:102A7000D3E90023FDF7AAFC22462B46FDF758FEBA
:102A800087A3D3E90023FDF79FFC22462B46FDF7E1
:102A90004FFE00228C4BFDF799FC02460B46504638
:102AA0005946FDF76FFF42464B46FDF741FE0026B3
:102AB00082468B4632464B4630464946FDF738FE45
:102AC00002460B4620462946FDF77EFC3246044668
:102AD0000D464B4640464946FDF778FC02460B46FC
:102AE00020462946FDF74EFF02460B465046594602
:102AF000FDF76CFC32464B46FDF768FC02460B4680
:102B0000FDF764FC41EC100BBDE8F88F704A93426E
:102B100012DC9FED650BBDE8F88F10EE102A2B46F6
:102B200020462946FDF750FC02460B46FDF72AFFDA
:102B300041EC100BBDE8F88F10EE102A10EE100AD1
:102B40002B462946FDF7F4FD43A3D3E900230646AF
:102B50000F46FDF7EDFD42A3D3E90023FDF736FC58
:102B600032463B46FDF7E4FD3FA3D3E90023FDF7E2
:102B70002BFC32463B46FDF7DBFD3DA3D3E90023AA
:102B8000FDF724FC32463B46FDF7D2FD3AA3D3E9DC
:102B90000023FDF719FC32463B46FDF7C9FD38A37B
:102BA000D3E90023FDF712FC32463B46FDF7C0FD9A
:102BB00035A3D3E900238046894630463946FDF7E0
:102BC000B7FD33A3D3E90023FDF7FEFB32463B46B6
:102BD000FDF7AEFD30A3D3E90023FDF7F7FB324646
:102BE0003B46FDF7A5FD2EA3D3E90023FDF7ECFB43
:102BF00032463B46FDF79CFD0022334BFDF7E6FBDA
:102C000002460B4640464946FDF7BCFE22462B468F
:102C1000FDF78EFD02460B4625A1D1E90001FDF727
:102C2000D3FB02460B4620462946FDF7CDFB024664
:102C30000B461DA1D1E90001FDF7C6FB41EC100BCD
:102C4000BDE8F88F9FED1C0BBDE8F88FAFF3008057
:102C5000000000000000000009F7FD0DE13D023F0B
:102C600088B20175E0EF493F3B8F68B52882A43FE9
:102C70005544880E55C1C93F7D6FEB0312D6D43F32
:102C8000555555555555C53F82922EB1C5B8B33FE0
:102C900059018D1B6C06E63FC88A599CE52A004005
:102CA0004B2D8A1C273A0340182D4454FB21F93F31
:102CB000075C143326A6913C182D4454FB2109408F
:102CC000FFFFEF3FFFFFDF3F0000F03F0000E03F6E
:102CD0000000603C10EE100A294600225E4BFDF712
:102CE00075FB00225D4BFDF723FD43A3D3E90023D1
:102CF00004460D46FDF71CFD41A3D3E90023FDF773
:102D000065FB22462B46FDF713FD3FA3D3E90023C5
:102D1000FDF75AFB22462B46FDF70AFD3CA3D3E9FB
:102D20000023FDF753FB22462B46FDF701FD3AA396
:102D3000D3E90023FDF748FB22462B46FDF7F8FCBC
:102D400037A3D3E90023FDF741FB22462B46FDF7CD
:102D5000EFFC45EC104B804689461DF06FFD204688
:102D6000294631A3D3E9002357EC106BFDF7E0FCB3
:102D70002FA3D3E90023FDF727FB22462B46FDF7BF
:102D8000D7FC2DA3D3E90023FDF720FB22462B46D9
:102D9000FDF7CEFC2AA3D3E90023FDF715FB22465D
:102DA0002B46FDF7C5FC00222B4BFDF70FFB02461F
:102DB0000B4640464946FDF7E5FD32463B46FDF7EA
:102DC000B7FC21A3D3E90023FDF7FEFA32463B46C8
:102DD000FDF7FCFA02460B46FDF7F8FA02460B46F1
:102DE0001BA1D1E90001FDF7EFFA41EC100BBDE8A2
:102DF000F88F00BFAFF3008009F7FD0DE13D023F02
:102E000088B20175E0EF493F3B8F68B52882A43F47
:102E10005544880E55C1C93F7D6FEB0312D6D43F90
:102E2000555555555555C53F82922EB1C5B8B33F3E
:102E300059018D1B6C06E63FC88A599CE52A004063
:102E40004B2D8A1C273A0340075C143326A6913C7D
:102E5000182D4454FB2109400000F03F0000E03FE2
:102E6000F0B5554A55EC104B954283B046DD534AB8
:102E700095420EDD02F17952954252DD10EE102A94
:102E80002B4620462946FDF7A1FA41EC100B03B072
:102E9000F0BD05F1404202F5801222433DD0B5F16C
:102EA000804F4ADC10EE100A29460022444BFDF701
:102EB0008BFA02460B4604460D46FDF787FA22467A
:102EC00006460F462B4620462946FDF731FC0246B2
:102ED0000B4630463946FDF779FA41EC100B1DF0F0
:102EE000ADFC204653EC102B2946FDF76FFA41EC60
:102EF000100B03B0BDE8F040FEF7CEBF10EE102A75
:102F00002B4620462946FDF75FFA02460B46FDF7A1
:102F100039FD41EC100B03B0F0BD9FED230B03B066
:102F2000F0BD00F05DFE22A3D3E9002351EC100BAD
:102F3000FDF74CFA41EC100BA9E710EE102A2B46D6
:102F400010EE100A2946FDF7F3FB00221C4BFDF79B
:102F50003BFA41EC100B1DF071FC22462B4620463B
:102F600029468DED000BFDF731FA9DED000B06466D
:102F700053EC102B0F4620462946FDF727FA024650
:102F80000B4600200E49FDF7FDFC02460B4630467D
:102F90003946FDF719FA41EC100B03B0BDE8F040DB
:102FA00000F01EBEAFF30080000000000000000033
:102FB000EF39FAFE422EE63FFFFFEF3FFFFFAF4142
:102FC0000000F03F000000002DE9F04F57EC106BBF
:102FD000C74B27F000459D4283B017DD05F1404502
:102FE00010EE103A05F580152B432BD010EE102A69
:102FF0003B4630463946FDF7E7F902460B46FDF7FA
:10300000C1FC41EC100B03B0BDE8F08FB94B9D4201
:103010003C4633DCB5F1795F80F2748198A3D3E943
:10302000002310EE100A3946FDF7D0F90022B24B0A
:10303000FDF70EFE10B33046394641EC100B03B0DD
:10304000BDE8F08F10EE100A8FA3D3E900233946B4
:10305000FDF76EFB8EA3D3E9002304460D463046F0
:103060003946FDF765FB02460B4620462946FDF72B
:10307000ADF941EC100B03B0BDE8F08F47EC106BDD
:103080001CF01AFE002053EC102B9B49FDF79CF915
:1030900000229A4BFDF74CFB7FA3D3E900230646A1
:1030A0000F46FDF745FB7EA3D3E90023FDF78EF91C
:1030B00032463B46FDF73CFB7BA3D3E90023FDF7FB
:1030C00083F932463B46FDF733FB79A3D3E900236E
:1030D000FDF77CF932463B46FDF72AFB76A3D3E9A0
:1030E0000023FDF771F932463B46FDF721FB74A33F
:1030F000D3E90023FDF76AF932463B46FDF718FB9A
:1031000071A3D3E900238046894630463946FDF74E
:103110000FFB6FA3D3E90023FDF756F932463B4678
:10312000FDF706FB6CA3D3E90023FDF74FF9324608
:103130003B46FDF7FDFA6AA3D3E90023FDF744F906
:1031400032463B46FDF7F4FA6B4B0022FDF73EF9A1
:1031500047EC106BCDE900011DF070FB684B9D4200
:103160005BEC10ABDDE9000169DC02460B46404632
:1031700049460025CDE900AB0095FDF703FCDDE9EC
:1031800000895246CDE900015B4650465946FDF79D
:103190001DF902460B46DDE90001FDF7C9FA42467A
:1031A000CDE900014B4640464946FDF7C1FA0246CB
:1031B0000B4630463946FDF707F9424606460F46AC
:1031C0004B4650465946FDF701F902460B4630463C
:1031D0003946FDF7D7FB02460B46FDF7F7F80246E6
:1031E0000B462BA1D1E90001FDF7EEF802460B4694
:1031F000DDE90001FDF7E8F8424606460F464B467A
:1032000040464946FDF7E2F802460B4636A1D1E9B1
:103210000001FDF7D9F802460B4630463946FDF766
:10322000D3F802460B4630A1D1E90001FDF7CCF8F6
:10323000002C3FF7E6AE01F100431946E1E60246F5
:103240000B4640464946FDF79DFB52465B46FDF75F
:103250006FFA52465B46FDF7B9F802460B46FDF79A
:10326000B5F80BA3D3E90023FDF7AEF802460B46F1
:1032700005A1D1E90001FDF7A7F8D9E7AFF3008078
:103280009C7500883CE4377E182D4454FB21F93F9F
:10329000075C143326A6913C09F7FD0DE13D023F82
:1032A00088B20175E0EF493F3B8F68B52882A43FA3
:1032B0005544880E55C1C93F7D6FEB0312D6D43FEC
:1032C000555555555555C53F82922EB1C5B8B33F9A
:1032D00059018D1B6C06E63FC88A599CE52A0040BF
:1032E0004B2D8A1C273A0340182D4454FB21E93FFB
:1032F000FFFFEF3FFFFFDF3F0000F03F0000E03F38
:103300003233EF3F10EE102A10EE100A3B463946DA
:10331000FDF70EFA39A3D3E9002304460D46FDF765
:1033200007FA38A3D3E90023FDF750F822462B46CD
:10333000FDF7FEF935A3D3E90023FDF745F8224652
:103340002B46FDF7F5F933A3D3E90023FDF73EF84B
:1033500022462B46FDF7ECF930A3D3E90023FDF715
:1033600033F822462B46FDF7E3F92EA3D3E90023D9
:10337000FDF72CF822462B46FDF7DAF92BA3D3E90B
:1033800000238046894620462946FDF7D1F929A326
:10339000D3E90023FDF718F822462B46FDF7C8F9BC
:1033A00026A3D3E90023FDF711F822462B46FDF7AB
:1033B000BFF924A3D3E90023FDF706F822462B46E4
:1033C000FDF7B6F900220C4BFDF700F802460B465C
:1033D00040464946FDF7D6FA32463B46FDF7A8F986
:1033E00032463B46FCF7F2FF41EC100B03B0BDE860
:1033F000F08F00BFAFF300800000F03F09F7FD0D34
:10340000E13D023F88B20175E0EF493F3B8F68B56F
:103410002882A43F5544880E55C1C93F7D6FEB03F8
:1034200012D6D43F555555555555C53F82922EB1AC
:10343000C5B8B33F59018D1B6C06E63FC88A599C3D
:10344000E52A00404B2D8A1C273A0340000000006B
:1034500051EC110B43422DE9F047034321F00048A2
:103460006B4F48EAD373BB4255EC104B45D86342CF
:10347000234325F0004A4AEAD373BB42A9463CD80D
:1034800001F1404303F5801303438E464CD08E1761
:1034900006F0020654EA0A0346EAD57635D050EA29
:1034A00008033AD0B84553D0BA4536D0AAEB08083D
:1034B0004FEA2858B8F13C0F3EDC002964DB024695
:1034C0000B4620462946FDF75DFA41EC100B1CF037
:1034D000F3FBFEF7A9F951EC100B012E51D0022E8F
:1034E00042D076B138A3D3E90023FCF76DFF38A3AF
:1034F000D3E90023FCF768FF03E022462B46FCF7E4
:1035000065FF41EC100BBDE8F087022E18D0032EAA
:103510000ED131A1D1E90001F3E7B9F1000F13DBBE
:103520002FA1D1E90001ECE7BDE8F047FEF77CB937
:1035300010EE100A2946E4E729A1D1E90001CCE701
:1035400023A1D1E90001DCE727A1D1E90001D8E7F7
:10355000C2451FD0022EF3D0032EDAD0012E4FF039
:10356000000021D00021CCE717A3D3E90023FCF70A
:103570002BFF02460B4616A1D1E90001FCF724FF00
:10358000BFE701F10041BCE718F13C0F97DA0020DA
:103590000021A2E7022E12D0032E0CD0012E06D05D
:1035A00013A1D1E90001ACE74FF00041A9E712A156
:1035B000D1E90001A5E712A1D1E90001A1E712A11B
:1035C000D1E900019DE700BF075C143326A6A13CAA
:1035D000182D4454FB210940182D4454FB2109C0E7
:1035E000182D4454FB21F93F182D4454FB21F9BFF9
:1035F000182D4454FB21E93F182D4454FB21E9BF09
:10360000D221337F7CD902C0D221337F7CD90240C2
:103610000000F07F000000002DE9F04755EC104B52
:103620006342234325F00046454A46EAD37393425A
:1036300019D8964252D0434B9E42AA4622DC3EA362
:10364000D3E9002310EE100A2946FCF7BFFE002242
:103650000023FDF7FDFA00284BD02046294641EC17
:10366000100BBDE8F08710EE102A2B4620462946A5
:10367000FCF7AAFE02460B46FDF784F941EC100B5D
:10368000BDE8F087304B9E42354633DD3346224657
:1036900031462046FCF79AFE224606460F462B4648
:1036A00000202749FCF790FE02460B46304639467B
:1036B000FDF768F941EC100BFEF7EEFB0022234BFF
:1036C00051EC100BFDF734F8BAF1000FD6DA01F126
:1036D0000043194641EC100BBDE8F08710EE100ACC
:1036E000294600220023FDF74DF941EC100BBDE8FF
:1036F000F087354622462B4620462946FCF766FED3
:1037000022462B4606460F46FDF712F82246804613
:1037100089462B4600200A49FCF756FE02460B4616
:1037200040464946FDF72EF932463B46FCF74EFE31
:10373000C0E700BFAFF300809C7500883CE4377E93
:103740000000F03FFFFF2F3EFFFFDF3F0000E03FA4
:103750002DE9F84353EC102B4F4923F000448C42E1
:1037600011DC4E498C4218DD4D498C4263DD4D49D8
:103770008C427EDD4C498C423FDD01318C4239D098
:1037800043A3D3E9002310461946FCF7D1FF0646B0
:103790000F4647EC106BBDE8F8831CF08DFA02F081
:1037A00073FD59EC108B0022404B10EE100A494675
:1037B000FCF70CFEB4F1725F06460F46E9DB4246A9
:1037C0004B4640464946FCF7B3FF32463B4604466B
:1037D0000D4630463946FCF7F9FD02460B462046B9
:1037E0002946FDF7CFF80022304BFCF7EFFD0646E7
:1037F0000F46CEE72E498A42C2D843EC102B1CF06C
:103800005BFA00222B4B51EC100BFCF791FF41ECC3
:10381000100B00F051F855EC104B0022254B10EE28
:10382000100A2946FCF784FF22462B46FCF780FF4E
:1038300006460F46ADE71CF03FFA00F03DF855ECA8
:10384000104B10EE100A00221A4B2946FCF770FFAD
:10385000224606460F462B4600201649FDF792F8F1
:1038600002460B4630463946FCF7B0FD06460F4689
:103870008FE71CF021FA00F01FF800220D4B51ECED
:10388000100BFCF755FF06460F4682E7AFF30080AA
:103890009C7500883CE4377EFFFFEF7F422ED63FC9
:1038A000FFFF3540412E8640CD3386400000F03F7B
:1038B0007DF8B98F0000E03F2DE9F04F55EC104B3B
:1038C000BD4925F000428A4283B04FEAD5770DD931
:1038D000BA498A422AD9C5F31303234340F0FA8038
:1038E0000FB19FED9D0B03B0BDE8F08FB44B9A4232
:1038F00000F2D580B34B9A4200F2EA8098A3D3E954
:10390000002310EE100A2946FCF760FD0022AE4BA2
:10391000FDF79EF9002800F01C8120462946002270
:10392000A94BFCF753FD41EC100BDCE78EA3D3E968
:10393000002310EE100A2946FDF78AF9002840F00E
:10394000D3808BA3D3E9002320462946FDF762F9F3
:103950000028C6D19D4E88A3D3E9002306EBC706F5
:1039600020462946FCF7E4FED6E90023FCF72EFDAD
:10397000FDF78EF90646FCF775FE81A3D3E9002317
:1039800080468946FCF7D4FE02460B46204629466F
:10399000FCF71AFD7CA3D3E90023CDE900014046E2
:1039A0004946FCF7C5FE82468B4652465B46DDE93A
:1039B0000001FCF709FD04460D4622462B46204631
:1039C0002946FCF7B5FE72A3D3E900238046894659
:1039D000FCF7AEFE70A3D3E90023FCF7F5FC4246EA
:1039E0004B46FCF7A5FE6EA3D3E90023FCF7EEFCE3
:1039F00042464B46FCF79CFE6BA3D3E90023FCF741
:103A0000E3FC42464B46FCF793FE69A3D3E900234F
:103A1000FCF7DCFC42464B46FCF78AFE02460B46AE
:103A200020462946FCF7D0FC80468946002E65D00A
:103A30002046294642464B46FCF77AFE424604465B
:103A40000D464B4600204FF08041FCF7BDFC02467E
:103A50000B4620462946FCF795FF02460B4650468A
:103A60005946FCF7B1FCDDE90023FCF7ADFC0B4641
:103A7000024655490020FCF7A7FC6FF47F739E4275
:103A800060DA06F57A7601EB065100224FF0B87342
:103A9000FCF74EFE41EC100B03B0BDE8F08F4C4B31
:103AA0009A423FF657AF4B4B4FEAC7084344D3E91E
:103AB000002310EE100A2946FCF786FC464BC7F19E
:103AC00001064344CDE90001D3E900ABF61B6CE7E6
:103AD000002672E710EE102A2B4620462946FCF7F6
:103AE00075FC41EC100BFEE61DA3D3E90023104644
:103AF0001946FCF71DFE41EC100BF4E602460B469E
:103B000020462946FCF714FE002206460F464FF0D9
:103B1000804340464946FCF757FC02460B46304678
:103B20003946FCF72FFF22462B46FCF74DFC024698
:103B30000B4600202449FCF747FC41EC100B03B076
:103B4000BDE8F08F01EB065141EC100B03B0BDE86E
:103B5000F08F064631E700BF0000000000000000C3
:103B60009C7500883CE4377EEF39FAFE422E864091
:103B700051302DD5104987C0FE822B654715F73F80
:103B80000000E0FE422EE63F763C7935EF39EA3D13
:103B9000D0A4BE726937663EF16BD2C541BDBB3E53
:103BA0002CDE25AF6A56113F93BDBE166CC1663F31
:103BB0003E5555555555C53F412E8640FFFFEF7F79
:103BC000422ED63FFFFF2F3E0000F03F482E020856
:103BD000B1A2F03F582E0208682E02080000000033
:103BE0002DE9F04F51EC100BB1F5801F85B00B465D
:103BF00059DA10EE102A21F00044224300F0F88038
:103C00000029C0F280810022DD4BFCF791FDDD4AE6
:103C10000B4693426FF035074ADCC3F3130505F5F5
:103C2000152606F6647606F4801686F07F5282F436
:103C3000401242EA05011C150022D34BFCF7C4FBDD
:103C4000AB1CA4F2FF34C3F313033C44022B04EB7C
:103C5000165482468B464FF0000232DC0023FCF7FC
:103C6000CFFF002800F0CF80002C00F058812046C4
:103C7000FCF7F8FCACA3D3E9002306460F46FCF79B
:103C800057FDABA3D3E9002304460D463046394621
:103C9000FCF74EFD02460B4620462946FCF796FBF4
:103CA00041EC100B0AE0B74A93424FF00007B4DD35
:103CB00002460B46FCF78AFB41EC100B05B0BDE851
:103CC000F08F4FF08043FCF781FB02460B465046D5
:103CD0005946FCF757FE064620460F46FCF7C2FC45
:103CE0003246CDE900013B4630463946CDE9026710
:103CF000FCF71EFD02460B4680468946FCF718FD80
:103D00008DA3D3E9002306460F46FCF711FD8CA3D3
:103D1000D3E90023FCF75AFB32463B46FCF708FD8B
:103D200089A3D3E90023FCF751FB32463B46FCF75D
:103D3000FFFC87A3D3E90023FCF748FB42464B4630
:103D4000FCF7F6FC84A3D3E900238046894630467D
:103D50003946FCF7EDFC82A3D3E90023FCF736FBE0
:103D600032463B46FCF7E4FC7FA3D3E90023FCF793
:103D70002DFB32463B46FCF7DBFC0B460246494630
:103D80004046FCF723FBA5F5C223C5F5D725A3F2D2
:103D90007A4351351D43002D804689465CDD002263
:103DA0007A4B50465946FCF7C3FC52465B46FCF73B
:103DB000BFFC06460F46002C6ED132463B464046BD
:103DC0004946FCF703FBDDE90223FCF7B1FC0246A0
:103DD0000B4630463946FCF7F7FA02460B4650468A
:103DE0005946FCF7F1FA41EC100B05B0BDE8F08F35
:103DF0000022002300206649FCF7C4FD41EC100BB3
:103E000005B0BDE8F08F5AA3D3E9002350465946C8
:103E1000FCF78EFC02460B4600205C49FCF7D4FA06
:103E2000524606460F465B4650465946FCF780FC14
:103E300002460B4630463946FCF77AFC06460F46EA
:103E4000002C40F0A78002460B4650465946FCF72E
:103E5000BBFA41EC100B31E7002C00F0AF8032A32D
:103E6000D3E90023DDE90001FCF762FC42464B4642
:103E700004460D4650465946FCF7A6FADDE90223F2
:103E8000FCF756FC2AA3D3E9002306460F46DDE9DA
:103E90000001FCF74DFC21E023A3D3E90023DDE979
:103EA0000001FCF745FC32463B4604460D464046C1
:103EB0004946FCF78BFADDE90223FCF739FC1CA329
:103EC000D3E9002380468946DDE90001FCF730FC98
:103ED00002460B4640464946FCF778FA02460B4636
:103EE00030463946FCF770FA52465B46FCF76CFAEE
:103EF00002460B4620462946FCF766FA41EC100BB9
:103F000005B0BDE8F08F10EE102A0B46FCF75CFA06
:103F100000220023FCF736FD41EC100BCEE69FEDAE
:103F2000160BCBE6AFF300800000E0FE422EE63F2A
:103F3000763C7935EF39EA3D44523EDF12F1C23F1B
:103F4000DE03CB966446C73F599322942449D23F5F
:103F5000935555555555E53F9FC678D0099AC33FAF
:103F6000AF788E1DC571CC3F04FA97999999D93FC6
:103F7000555555555555D53F00000000000000002F
:103F800000005043FFFFEF7F0000F03F0000E03FE4
:103F9000000050C32046FCF765FB0FA3D3E90023C4
:103FA00080468946FCF7C4FB0DA3D3E900230446F1
:103FB0000D4640464946FCF7BBFB8FE702460B46E1
:103FC00050465946FCF700FADDE90223FCF7B0FB46
:103FD00003E700BFAFF300800000E0FE422EE63FA3
:103FE000763C7935EF39EA3D2DE9F04355EC104B3D
:103FF000B5F5801F83B02B4621DA10EE102A25F08C
:1040000000410A4364D0002D6DDB29460022444B59
:1040100010EE100AFCF78CFB424A0D462B469342E9
:1040200004466FF035010FDD22462B462046294617
:10403000FCF7CCF941EC100B03B0BDE8F083394A32
:1040400093424FF00001EFDC1815A0F2FF30084456
:104050004FEAD0794844C3F31308FCF703FBC9F5D2
:104060007F73033348EA035545EC104B06460F4671
:10407000FFF7B6FD3046394623A3D3E900238DED83
:10408000000BFCF755FB9DED000B04460D4620A3ED
:10409000D3E9002351EC100BFCF74AFB02460B4618
:1040A00020462946FCF792F91BA3D3E900230446D6
:1040B0000D4630463946FCF73BFB02460B46204690
:1040C0002946FCF783F941EC100B03B0BDE8F083FF
:1040D0000022002300201449FCF754FC41EC100B93
:1040E00003B0BDE8F08310EE102A2B462046294687
:1040F000FCF76AF900220023FCF744FC41EC100BAA
:104100009AE700BFAFF30080362BF111F3FE593D63
:104110000EE526157BCBDB3F00609F501344D33F59
:1041200000005043FFFFEF7F000050C3000000007D
:104130002DE9F04F51EC110B21F0004858EA000432
:1041400093B03ED053EC102B714E23F00044B44298
:1041500010EE10AA1D462DDC894611EE10EA28D07B
:10416000B04527DC6A4EB04500F08380002D16462E
:104170001F46CDE90001C0F281804FF0000BBEF177
:10418000000F2FD1624B984500F09580614B984508
:1041900068D0B9F1804F00F0D1835F4B994521D1B0
:1041A000002D1FDB47EC106B13B0BDE8F04F1CF087
:1041B00045BB6AB104F1404404F5801454EA0A0393
:1041C00008D15449002041EC100B13B0BDE8F08F2A
:1041D000A045C7DD514813B0BDE8F04F02F0BCBAAE
:1041E0004FF0000B47EC106B1BF066FD51EC100B11
:1041F000BAF1000F1AD124B1464B25F040429A4241
:1042000014D1B9F1000FC0F2D383002DDBDA04F131
:10421000404404F5801454EA0B0300F0AF84BBF172
:10422000010FD0D101F100431946CCE7ED0F05F1A4
:10423000FF3A5BEA0A0353D0394B984576DD03F128
:104240000473984540F30684364B9C4253DDB9F124
:10425000000F53DD2CA3D3E9002310461946FCF7C9
:1042600067FAB0E7B9F1000FC0F25A843046394618
:10427000A9E7BEF1000F3FF479AF9BE72A4B9845C1
:104280002BDCA3F1547398457FF777AF4FEA28539F
:10429000A3F2FF33142B40F35984C3F134032EFAF5
:1042A00003F202FA03F39E457FF467AF02F00102C6
:1042B000C2F1020B63E704F1404303F5801353EAB4
:1042C0000A033FF47EAF174B9C4240F33E83B9F1A3
:1042D000000F13DBDDE9000175E74FF0020B4EE73D
:1042E00032463B4610461946FCF76EF802460B462E
:1042F000FCF748FB67E7B9F1000FABDB00200021BA
:1043000061E700BFAFF300809C7500883CE4377E16
:104310000000F07F0000F03F0000E03FC0350208E1
:104320000000E041FFFFEF3FFFFF3F43B4F5801F78
:104330004FF0000205DAD64BFCF7FAF96FF03402C1
:104340000C462315D34EC4F31304A3F2FF331344D6
:1043500044F07F55B4421A460D9345F4401540F39E
:104360002E83CD4B9C4240F30D849FEDB37B8DEDAE
:10437000087B8DED0E7B9FEDB27B13468DED067BAA
:1043800001330D93A5F580154FF00008DDE90623F4
:104390002946CDE90A01FCF717F8DDE906230646B0
:1043A0000F46DDE90A01FCF711F802460B46002032
:1043B000BA49FCF7E7FA03460C46CDE91034024649
:1043C0000B4630463946FCF7B3F96B1043F0005307
:1043D00003F5002303EB08050A4600230146CDE957
:1043E00002120293DDE902890024CDE904122B4672
:1043F000224640464946FCF79BF902460B463046AA
:104400003946FBF7E1FFDDE9062306460F46204665
:104410002946FBF7D9FF02460B46DDE90A01FBF707
:10442000D3FF42464B46FCF783F902460B46304623
:104430003946FBF7C9FFDDE91023FCF779F9DDE91F
:104440000445CDE9060122462B4620462946FCF7C5
:104450006FF97DA3D3E9002304460D46FCF768F904
:104460007BA3D3E90023FBF7B1FF22462B46FCF7E1
:104470005FF979A3D3E90023FBF7A8FF22462B4677
:10448000FCF756F976A3D3E90023FBF79FFF2246FA
:104490002B46FCF74DF974A3D3E90023FBF796FFF5
:1044A00022462B46FCF744F971A3D3E90023FBF71E
:1044B0008DFF224606460F462B4620462946FCF72E
:1044C00037F902460B4630463946FCF731F9424689
:1044D00004460D464B46DDE90401FBF777FFDDE9B5
:1044E0000623FCF725F922462B46FBF76FFF4246D1
:1044F00006460F464B4640464946FCF719F900224E
:10450000674BCDE90A01FBF761FF32463B46FBF7FB
:104510005DFF02980D46044622462B46404649461A
:10452000FCF706F90022804689465D4B2046294665
:10453000FBF74AFFDDE90A23FBF746FF02460B467D
:1045400030463946FBF740FFDDE90423FCF7F0F87D
:10455000224606460F462B46DDE90601FCF7E8F841
:1045600002460B4630463946FBF730FF06460F46FB
:1045700002460B4640464946CDE90489FBF726FF33
:1045800002983DA3D3E9002304460D46FCF7D0F87A
:10459000DDE904238046894620462946FBF714FFBF
:1045A00002460B4630463946FBF70EFF34A3D3E9EB
:1045B0000023FCF7BDF834A3D3E9002306460F46D9
:1045C00020462946FCF7B4F802460B4630463946E9
:1045D000FBF7FCFEDDE90E23FBF7F8FE06460D981F
:1045E0000F46FCF73FF8324604460D463B46404630
:1045F0004946FBF7EBFEDDE90823FBF7E7FE224621
:104600002B46FBF7E3FE029822462B46CDE902013A
:10461000FBF7DAFEDDE90823FBF7D6FE42464B4600
:10462000FBF7D2FE02460B4630463946FBF7CCFE7E
:104630008046894636E000BF000000000000000010
:10464000000000000000F03FEF4E454A287ECA3FC0
:1046500065DBC9934A86CD3F01411DA96074D13FF6
:104660004D268F515555D53FFFAB6FDBB66DDB3F08
:10467000033333333333E33F000000E009C7EE3F39
:10468000FD033ADC09C7EE3FF5015B14E02F3EBEA7
:10469000000040438E98030079B60B000000F03F05
:1046A000000008400BF1FF3353EA0A0300F07B815E
:1046B0009FEDC97B8DED067BDDE900AB53465C4683
:1046C000CDE9003400230093DDE900455046224641
:1046D0002B465946FBF778FEDDE90223FCF728F864
:1046E000524606460F465B4640464946FCF720F8D0
:1046F00002460B4630463946FBF768FE22468046A6
:1047000089462B46DDE90201CDE90489FCF710F862
:104710000B46024606460F4640464946FBF756FE04
:10472000C74B994204460D468A4640F3188101F171
:104730003F4303F5E003034340F0FA81A8A3D3E924
:104740000023DDE90401FBF741FE3246804689463D
:104750003B4620462946FBF737FE02460B464046BD
:104760004946FCF775FA002840F0E281A8464FEA76
:1047700028534FF48012A3F2FE3342FA03F353445A
:10478000C3F30A52AF4DA2F2FF321541C3F3130433
:1047900023EA05010020C2F1140B44F48014BAF19D
:1047A000000F02460B4644FA0BFB30463946B8BFB1
:1047B000CBF1000BFBF708FE02460B4606460F4600
:1047C000DDE90401FBF702FE4FEA0B5A0D46002417
:1047D00085A3D3E9002320462946FBF7A9FF3246EB
:1047E000804689463B4620462946FBF7EDFD0246BA
:1047F0000B46DDE90401FBF7E7FD7DA3D3E90023C8
:10480000FBF796FF7CA3D3E9002306460F4620461C
:104810002946FBF78DFF02460B4630463946FBF72B
:10482000D5FD06460F4602460B4640464946FBF775
:10483000CDFD42464B4604460D46FBF7C5FD0246FC
:104840000B4630463946FBF7BFFD22468046894677
:104850002B4620462946FBF76BFF69A3D3E90023CB
:1048600006460F46FBF764FF67A3D3E90023FBF777
:10487000ABFD32463B46FBF75BFF65A3D3E9002364
:10488000FBF7A4FD32463B46FBF752FF62A3D3E998
:104890000023FBF799FD32463B46FBF749FF60A337
:1048A000D3E90023FBF792FD32463B46FBF740FF7E
:1048B00002460B4620462946FBF786FD06460F4674
:1048C00002460B4620462946FBF732FF0022CDE97F
:1048D00000014FF0804330463946FBF775FD024634
:1048E0000B46DDE90001FCF74DF8424606460F464F
:1048F0004B4620462946FBF71BFF42464B46FBF73B
:1049000065FD02460B4630463946FBF75DFD224603
:104910002B46FBF759FD02460B4600204A49FBF7A0
:1049200053FD8A44BAF5801F02460B46C0F23A8115
:104930005146DDE90623FBF7FBFE44E432463B46E5
:1049400030463946FBF7F4FE3DE4B9F1000FBFF6FF
:10495000D5ACDDE90034184604F1004133E43B4BAB
:1049600021F00048984540F30081394B0B44034344
:104970000CD132463B46FBF727FD02460B46DDE9EC
:104980000401FCF751F900283FF4F1AEDDE906011E
:1049900025A3D3E90023FBF7CBFE23A3D3E9002310
:1049A000FBF7C6FE0FE49FED227B8DED067B83E6D1
:1049B00002460B4600202449FBF7E4FF25E49FED67
:1049C0001E7B8DED087B8DED0E7B9FED037B4FF005
:1049D00000088DED067BD9E4000000000000F03FE8
:1049E000FE822B654715973C00000000432EE63FF2
:1049F000EF39FAFE422EE63F396CA80C615C20BE0E
:104A0000D0A4BE726937663EF16BD2C541BDBB3ED4
:104A10002CDE25AF6A56113F93BDBE166CC1663FB2
:104A20003E5555555555C53F59F3F8C21F6EA50162
:104A3000000000000000F0BF0000000000000000C7
:104A4000FFFF8F40FFFF0F000000F03FFFCB9040C3
:104A500000346F3F6A4B9C427FF74DAC694B9C42E0
:104A60003FF7F5AB0022674BFBF7AEFC54A3D3E94D
:104A7000002304460D46FBF75BFE53A3D3E9002356
:104A80008046894620462946FBF752FE0022CDE9A2
:104A900002015D4B20462946FBF74AFE02460B46C3
:104AA0004BA1D1E90001FBF78FFC22462B46FBF717
:104AB0003FFE02460B4600205449FBF785FC224688
:104AC0002B4606460F4620462946FBF731FE024696
:104AD0000B4630463946FBF72BFE3FA3D3E90023B4
:104AE000FBF726FE02460B46DDE90201FBF76CFCF4
:104AF00002460B4604460D4640464946FBF766FC17
:104B000042464B460020CDE90201FBF75DFC024620
:104B10000B4620462946FBF757FC80468946C1E5EF
:104B200032463B4600203749FBF72CFFFFF74BBBD3
:104B3000DDE906012AA3D3E90023FBF7F9FD28A349
:104B4000D3E90023FBF7F4FDFFF73DBBBEF1000FF7
:104B50007FF446ABC3F1140348FA03F202FA03F3FD
:104B6000984527D0F346FFF711BB284B98453FF7F0
:104B7000FEADDDE900239246934628E602460B4649
:104B8000FFF7B0BB9FED187B8DED087B9FED187B89
:104B90008DED0E7B9FED187B4FF480288DED067B0D
:104BA000FFF7F4BB584643EC102B01F0DDFD51EC50
:104BB000100BBEE602F00102C2F1020BFFF7E6BAEB
:104BC000000000604715F73F44DF5DF80BAE543E30
:104BD000555555555555D53FFE822B654715F73F21
:104BE0009C7500883CE4377E0000004003B8E23F3B
:104BF00006D0CF43EBFD4C3E000000000000F83F24
:104C0000FEFFEF3F0000F03F0000D03F0000E03F1C
:104C10002DE9F04753EC102B9D4923F000478F42BC
:104C200090B040F391809B498F421C46824629DC1C
:104C3000002C194610EE100A8BA3D3E9002340F391
:104C4000B181FBF7C1FB944B9F4204460D4600F037
:104C5000918087A3D3E90023FBF7B6FB02460B46FE
:104C6000CAE9002320462946FBF7AEFB80A3D3E91F
:104C70000023FBF7A9FB0125CAE90201284610B071
:104C8000BDE8F08785498F4240F3918084498F4287
:104C900065DC3D15A5F21645A7EB055110461646F5
:104CA0000F46FBF7F5FFFBF7DDFC804689464246E1
:104CB0004B4630463946CDE90A89FBF785FB002291
:104CC000784BFBF735FD89468046FBF7E1FFFBF7A4
:104CD000C9FC06460F4632463B4640464946CDE9AA
:104CE0000C67FBF771FB00226E4BFBF721FD0022E6
:104CF0000023CDE90E01FBF783FF002800F070814F
:104D00000023304639460022FBF77AFF002814BF03
:104D100001230223644A019202212A4600910AA833
:104D2000514600F0C5FB002C054614DADAF80420E1
:104D3000DAF80C3002F1004203F100434542CAF8B0
:104D40000420CAF80C3006E080ED000B002500249A
:104D5000C0E902450025284610B0BDE8F08710EEF6
:104D6000100A1946FBF730FB0025CAE90201CAE91F
:104D70000001F0E740A3D3E90023FBF725FB40A3A4
:104D8000D3E900230D460446FBF71EFB02460B4603
:104D9000CAE9002329462046FBF716FB38A3D3E9CE
:104DA0000023FBF711FB0125CAE90201D3E71AF042
:104DB00083FF59EC108B10EE100A33A3D3E90023C4
:104DC0004946FBF7B5FC0022384BFBF7FFFAFBF72F
:104DD0005FFF0546FBF746FC23A3D3E90023CDE99B
:104DE0000601FBF7A5FC02460B4640464946FBF789
:104DF000EBFA1FA3D3E90023CDE90201DDE90601A7
:104E0000FBF796FC1F2D80468946CDE9048951DCCD
:104E1000274B6A1E53F822309F424BD002460B4666
:104E2000DDE90201FBF7D0FA80468946CAE900892C
:104E300042464B46DDE90201FBF7C6FADDE90423F1
:104E4000FBF7C2FA002CCAE9020184DA09F1004436
:104E500001F100436D42CAF80080CAF80440CAF864
:104E60000800CAF80C3076E700004054FB21F93FF7
:104E70003163621A61B4D03D0000601A61B4D03D64
:104E80007370032E8A19A33B83C8C96D305FE43F5A
:104E9000FB21E93F7BD90240FB21F93FFB2139414E
:104EA000FFFFEF7F00007041B44902080000E03FBF
:104EB00034490208DDE90423DDE90201FBF784FA45
:104EC0003F15C1F30A53FB1A80468946102BCAE9E5
:104ED0000089ADDD58A3D3E90023DDE90601FBF726
:104EE00027FC8046894602460B46DDE90201FBF7B6
:104EF0006BFA02460B46DDE90201CDE90823FBF718
:104F000063FA42464B46FBF75FFA4DA3D3E9002311
:104F100080468946DDE90601FBF70AFC42464B461E
:104F2000FBF752FA0B46CDE904010246DDE9080120
:104F3000FBF74AFAC1F30A53FF1A80468946312F1C
:104F4000CAE900896CDD41A3D3E90023DDE906014C
:104F5000FBF7EEFBDDE9088906460F4602460B46E5
:104F600040464946FBF730FA02460B464046494662
:104F7000CDE90223FBF728FA32463B46FBF724FA39
:104F800034A3D3E9002306460F46DDE90601FBF70B
:104F9000CFFB32463B46FBF717FA02460B46CDE9FC
:104FA00004233DE7FBF712FA274B9F4204460D46C8
:104FB00018D01FA3D3E90023FBF708FA02460B46DB
:104FC000CAE9002329462046FBF7FEF918A3D3E9D6
:104FD0000023FBF7FBF94FF0FF35CAE90201BAE6FF
:104FE000032397E614A3D3E90023FBF7EFF914A3F7
:104FF000D3E900230D460446FBF7E8F902460B46C9
:10500000CAE9002329462046FBF7DEF90CA3D3E9C1
:105010000023FBF7DBF94FF0FF35CAE902019AE6FE
:105020009DED087B8DED027B02E700BFAFF30080B2
:105030003163621A61B4D03D0000601A61B4D03DA2
:105040007370032E8A19A33BFB21F93F0000002E49
:105050008A19A33BC14920259A837B3900000000AF
:105060002DE9F84F57EC106B654A27F00048904542
:1050700032DC644B002FB4BF634D644D98454FF054
:10508000000414DC624B984500F385805AA3D3E9F1
:10509000002310EE100A3946FBF798F900225D4B09
:1050A000FBF7D6FD18B347EC106BBDE8F88F5A4BF1
:1050B000984540F39280594B98454DDD0133984512
:1050C00047D0304639464CA3D3E90023FBF730FBE9
:1050D00041EC100BBDE8F88F10EE102A3B4630462D
:1050E0003946FBF773F941EC100BBDE8F88F47EC3C
:1050F000106B1AF0E1FD01F0C7F857EC106B324667
:105100003B4630463946FBF761F9324682468B46CC
:105110003B4630463946FBF70BFB0022804689466A
:105120003C4B30463946FBF751F902460B464046A8
:105130004946FBF727FC02460B4650465946FBF70B
:1051400043F922462B46FBF7F3FA41EC100BBDE87E
:10515000F88F334B9E42B4D847EC106B1AF0ACFD7D
:1051600000222A4B51EC100BFBF7E2FA41EC100B3A
:10517000FEF7A2FB57EC106B10EE102A3B462046C0
:105180002946FBF7D5FA32463B46FBF7D1FA41EC0C
:10519000100BBDE8F88F1AF08FFD01F075F8214B68
:1051A000984557EC106BAADD10EE100A0022194B3F
:1051B0003946FBF70BF902460B4630463946FBF7FA
:1051C000E1FB32463B46FBF701F922462B46FBF753
:1051D000AFFA41EC100BBDE8F88F1AF06DFDFEF749
:1051E0006BFB204653EC102B2946FBF7A1FA41EC50
:1051F000100BBDE8F88F00BF3374AC3C1F7BAC7F55
:10520000FFFFEF7FFFFF35400000E0BF0000E03F01
:10521000FFFF2F3E0000F03F412E8640CD338640F9
:105220007DF8B98FFFFFEF3F2DE9F04F57EC106B82
:105230002DED028BB0EE418AF0EE618A27F0004935
:10524000B9F1795F83B072DA10EE100A3946FBF7D4
:105250001FFD002800F0F68032463B4630463946B6
:10526000FBF766FA7CA3D3E9002304460D46FBF75F
:105270005FFA7BA3D3E90023FBF7A8F822462B466D
:10528000FBF756FA78A3D3E90023FBF79DF82246F3
:105290002B46FBF74DFA76A3D3E90023FBF796F8EC
:1052A00022462B46FBF744FA73A3D3E90023FBF70E
:1052B0008BF822462B46FBF73BFA71A3D3E9002378
:1052C000FBF784F822462B46FBF732FA82468B46E0
:1052D0000022714B20462946FBF72AFA52468046A7
:1052E00089465B4620462946FBF722FA53EC182BE9
:1052F00004460D4630463946FBF71AFA02460B467D
:1053000020462946FBF760F802460B4640464946D0
:10531000FBF75AF802460B4600206049FBF754F8A9
:1053200041EC100B03B0BDEC028BBDE8F08F10EE2A
:10533000102A10EE100A3B463946FBF7F9F946A34E
:10534000D3E9002304460D46FBF7F2F944A3D3E961
:105350000023FBF73BF822462B46FBF7E9F942A373
:10536000D3E90023FBF730F822462B46FBF7E0F9A0
:105370003FA3D3E90023FBF729F822462B46FBF78E
:10538000D7F93DA3D3E90023FBF71EF822462B46AD
:10539000FBF7CEF93AA3D3E90023FBF717F82B4626
:1053A0002246FBF7C5F93E4B994582468B468FDD79
:1053B0003C4B99453DDC0022A9F5001300203749FC
:1053C00090469946FBF700F8CDE900010022324BE8
:1053D00020462946FBF7ACF942464B46FAF7F4FF64
:1053E0005246804689465B4620462946FBF7A0F98F
:1053F00053EC182B04460D4630463946FBF798F916
:1054000002460B4620462946FAF7DEFF02460B46C7
:1054100040464946FAF7D8FF02460B46DDE900014F
:10542000FAF7D2FF41EC100B03B0BDEC028BBDE8E4
:10543000F08F9FED157B4FF000088DED007BDFF8BE
:105440006890C3E79FED120B03B0BDEC028BBDE883
:10545000F08F00BFAFF30080D43888BEE9FAA8BD52
:10546000C4B1B4BD9EEE213EAD529C804F7E923EB3
:105470009015CB19A001FA3E7751C1166CC1563F69
:105480004C5555555555A53F000000000000E73F1D
:10549000000000000000F03F0000E03F0000F03F8F
:1054A0003233D33F0000E93F0000D23F000000004C
:1054B0002DE9F04FADF51B7DA34CA49EA34D54F8F0
:1054C000264007942646D41E85FB0475E417C4EBDA
:1054D000A50424EAE4741D460A93631CA3EB83032A
:1054E000013D02EBC30306932B460B940395651B0A
:1054F000F418049008911AD42C4400260027013493
:105500000DF18808DDF8949208E059F82500FBF7C2
:10551000A9F80135A542E8E8020108D0002DF4DA27
:10552000013530463946A542E8E80201F6D1079B2D
:10553000002BC0F2EB83079B03F1010B0A9B22A90E
:10554000DB001A4601EB03090093049B0DF5E47A96
:1055500019460AEBCB0B01EB0208039B002BC0F2B0
:105560000183049C4D460026002775E90223F4E8D8
:105570000201FBF7DDF802460B4630463946FAF7E2
:1055800025FF444506460F46EFD1EAE80267DA45B3
:1055900009F10809E1D107990098049C009101F1F3
:1055A0008043013B9B0020441A1F83460EA80244FF
:1055B00003440C920D93009A9AA901EBC203002AAE
:1055C00053E9284529DD0DF5E47A0AEBC2080DF10F
:1055D000340900225E4B20462946FBF7A9F8FBF769
:1055E00057FBFBF73FF800225A4B06460F46FBF7E6
:1055F0009FF802460B4620462946FAF7E5FEFBF7E0
:1056000047FB78E9022349F8040F39463046FAF798
:10561000DDFED04504460D46DBD1DDF8189045ECA3
:10562000104B484601F0A0F855EC104B00224FF00B
:105630007F5310EE100A2946FBF77AF841EC100B65
:10564000FCF79AFB002251EC100B434BFBF770F870
:1056500002460B4620462946FAF7B6FE0D4604469A
:10566000FBF716FB8046FAF7FDFF0B46024629467C
:105670002046FAF7A9FE4B46002B06460F4640F39C
:10568000FA80009A0EA9013AC9F1180351F8225084
:1056900045FA03F101FA03F30EA8EB1A40F82230A1
:1056A000C9F11705884443FA05F5002D6EDD009B0E
:1056B000002B08F1010840F374820E9C002C40F08E
:1056C0001B83009B012B40F394820EAA012352F806
:1056D000044F002C00F08882581C0EAAC4F180747C
:1056E00042F82340009A824219DD0EAA0EAC52F80D
:1056F00020106FF07F42511A44F8201000990233B5
:1057000099420CDD1046009A0EA901EB830301EBD0
:1057100082011A68821A43F8042B8B42F9D1069B46
:10572000002B1BDD069B012B4FF0010440F0418252
:10573000009B5A1E0EAB0EA953F82230C3F316037A
:1057400041F8223041E200BFBC4A0208ABAAAA2AB3
:105750000000703E0000704100002040022D15D175
:1057600032463B4600209449FAF72EFE06460F4685
:1057700006989FED8D0B00F0F7FF3046394653EC4D
:10578000102BFAF721FE022506460F4600220023C1
:1057900030463946FBF734FA002800F03B82009A85
:1057A000079B501E83420FDC02F18043013B0EAA8F
:1057B0000D9C02EB8303002253F80419A34242EA32
:1057C0000102F9D1002A67D1079B0EAA013B52F8CA
:1057D0002330002B40F01C820C9A012352F804194C
:1057E00001330029FAD0009AD31802F1010A9A4530
:1057F00009933DDC009B0A990B9A0B4409990AEB2B
:105800000208994622AB08F1804803EBC9098B18BE
:10581000A59A08F1FF3802EB880872AA02EBCA0ABF
:10582000A59A02EB8303009358F8040FFAF71AFFC6
:10583000039B002BE9E802014FF000064FF0000740
:1058400011DB049C4D4675E90223F4E80201FAF7E6
:105850006FFF02460B4630463946FAF7B7FD5C4506
:1058600006460F46EFD1009B9845EAE80267DBD178
:10587000099B00939FE606D1009B0EAA013B52F8BC
:105880002350ED1511E700224C4BFBF7D7F9002808
:1058900040F07281054679E70EA9039551F8203052
:1058A0000699CDF8248018390246009006916BB90C
:1058B00000F18043013B0EA800EB830353F8040979
:1058C000013A18390028F9D00092069106989FED08
:1058D000360B00F049FF009B002B55EC104BC0F23B
:1058E000FC81DA0072A901EB020B06920EAA02EB10
:1058F0008306DFF8CC904FF000080BF10807043660
:1059000056F8040DFAF7AEFE22462B46FAF710FFC2
:105910004B4667E90201424620462946FAF708FF4E
:105920000EAB9E4204460D46EAD14AACDDF81C900F
:1059300004944FF0000AB9F1000FC0F22F81DFF894
:1059400084805D461AA1D1E90001002600270024C9
:1059500003E0544510DCF8E80201F5E80223FAF709
:10596000E7FE02460B4630463946FAF72FFD013472
:10597000A14506460F46ECDA049B03EBCA03ABF1E4
:10598000080BC3E9006770AB9B450AF1010AD2D14D
:10599000A49B049C032B00F28D80DFE813F0C90068
:1059A00092009200150000BF000000000000F03FD0
:1059B00000000040FB21F93F0000F03F0000E03F05
:1059C0000000703E902E0208009B002B40F3828165
:1059D000069A04EB020ADAE9008902F10805254477
:1059E0000DF5987B1AED027B42464B4651EC170BA6
:1059F0008DED047BFAF7EAFC06460F4602460B469D
:105A0000DDE90401FAF7E0FC42464B46FAF7DEFC1A
:105A100065E902015D45B046B9466AE90267E1D130
:105A2000009B012B40F35681069BE518D5E90089C0
:105A300003F1080B04EB0B0A15ED027B42464B46C3
:105A400051EC170B8DED007BFAF7C0FC06460F46B4
:105A500002460B46DDE90001FAF7B6FC4B4642462A
:105A6000FAF7B4FC6AE902014EAB5345B046B946B9
:105A700065E90267E0D10020002104EB0B0575E920
:105A80000223FAF7A3FCAA45F9D1039B002B00F0EF
:105A90000B816268E368089F2568A4683D6002F195
:105AA000004203F1004301F100417A60FB60BC60F9
:105AB00038617961099B03F007000DF51B7DBDE896
:105AC000F08F069D083525440020002175E902234A
:105AD000FAF77CFCA542F9D1039B002B00F0D380A0
