:020000040800F2
:1000000000800120A9F2000821300108592F0108C1
:100010005D2F0108612F0108652F01080000000015
:100020000000000000000000000000002530010872
:1000300029300108000000002D300108353001088A
:10004000692F01086D2F0108712F0108752F010814
:10005000792F01087D2F0108E52B0108ED2B010800
:10006000F52B0108FD2B0108052C0108812F010843
:10007000852F0108892F0108F11D01088D2F010826
:10008000912F0108952F0108992F01089D2F010834
:10009000A12F0108A52F0108A92F01080D2C010887
:1000A0003924020875FF000839240208392402089F
:1000B0007DFF000885FF00088DFF000839760108E4
:1000C00045760108517601085D760108AD2F0108DB
:1000D000B12F010839240208392402083924020802
:1000E000252C0108B52F0108B92F0108BD2F0108E3
:1000F00039240208C12F010839240208C52F01083C
:10010000C92F0108CD2F010895FF0008D12F010844
:100110003924020839240208392402083924020843
:10012000D52F0108D92F0108DD2F01083924020835
:10013000E12F0108E52F0108E92F0108ED2F010843
:10014000F12F0108F52F0108F92F010881E10108BD
:10015000FD2F01080130010839240208053001088B
:100160006976010875760108093001080D3001082B
:1001700011300108153001080000000000000000E7
:08018000193001081D300108CF
:1001880010B5054C237833B9044B13B10448AFF3C9
:1001980000800123237010BDC0060020000000006D
:1001A800603002080C4B43B10C480D4910B5AFF351
:1001B80000800C48036823B910BD0A48036833B9A6
:1001C8007047094B002BF7D0BDE810401847064B85
:1001D800002BF5D0184700BF00000000603002086F
:1001E800C4060020C006002000000000002815D02A
:1001F800006041608260C360046145618661C761D7
:10020800444604624C464462544684625C46C46276
:10021800644604636E46466374468463002906D0C8
:10022800C46B043C043925680D60B442F9D1946B61
:10023800A646566BB546002B06D0D46B043C043B4F
:100248001D682560B442F9D1146BA446D46AA3464C
:10025800946AA246546AA146146AA046D769966968
:1002680055691469D36851681068926870470060CE
:1002780041608260C360046145618661C76144462C
:1002880004624C464462544684625C46C4626446D6
:1002980004636E46466374468463C46B043C043945
:1002A80025680D60B442F9D1C76986694569046952
:1002B8007047006041608260C36004614561866187
:1002C800C761444604624C464462544684625C46B4
:1002D800C462644604636C46446374468463046978
:1002E8007047846BA646446BA546046BA446C46A53
:1002F800A346846AA246446AA146046AA046C7691E
:10030800866945690469C3688268006841687047FE
:1003180081F0004102E000BF83F0004330B54FEAAE
:1003280041044FEA430594EA050F08BF90EA020F1B
:100338001FBF54EA000C55EA020C7FEA645C7FEAAE
:10034800655C00F0E2804FEA5454D4EB5555B8BFD1
:100358006D420CDD2C4480EA020281EA030382EA42
:10036800000083EA010180EA020281EA0303362DD4
:1003780088BF30BD11F0004F4FEA01314FF4801CA7
:100388004CEA113102D0404261EB410113F0004FB9
:100398004FEA03334CEA133302D0524263EB430370
:1003A80094EA050F00F0A780A4F10104D5F1200E0E
:1003B8000DDB02FA0EFC22FA05F2801841F1000169
:1003C80003FA0EF2801843FA05F359410EE0A5F13D
:1003D80020050EF1200E012A03FA0EFC28BF4CF06E
:1003E800020C43FA05F3C01851EBE37101F0004524
:1003F80007D54FF0000EDCF1000C7EEB00006EEB31
:100408000101B1F5801F1BD3B1F5001F0CD34908BA
:100418005FEA30004FEA3C0C04F101044FEA445211
:1004280012F5800F80F09A80BCF1004F08BF5FEA98
:10043800500C50F1000041EB045141EA050130BD78
:100448005FEA4C0C404141EB010111F4801FA4F11B
:100458000104E9D191F0000F04BF01460020B1FA70
:1004680081F308BF2033A3F10B03B3F120020CDAA8
:100478000C3208DD02F1140CC2F10C0201FA0CF086
:1004880021FA02F10CE002F11402D8BFC2F1200CEB
:1004980001FA02F120FA0CFCDCBF41EA0C019040A1
:1004A800E41AA2BF01EB0451294330BD6FEA0404EA
:1004B8001F3C1CDA0C340EDC04F11404C4F12002D5
:1004C80020FA04F001FA02F340EA030021FA04F3E7
:1004D80045EA030130BDC4F10C04C4F1200220FA3E
:1004E80002F001FA04F340EA0300294630BD21FA7C
:1004F80004F0294630BD94F0000F83F4801306BF42
:1005080081F480110134013D4EE77FEA645C18BF35
:100518007FEA655C29D094EA050F08BF90EA020FCC
:1005280005D054EA000C04BF1946104630BD91EAC4
:10053800030F1EBF0021002030BD5FEA545C05D1C7
:100548004000494128BF41F0004130BD14F5800406
:100558003CBF01F5801130BD01F0004545F0FE417A
:1005680041F470014FF0000030BD7FEA645C1ABFAF
:10057800194610467FEA655C1CBF0B46024650EAE6
:10058800013406BF52EA033591EA030F41F4002112
:1005980030BD00BF90F0000F04BF0021704730B598
:1005A8004FF4806404F132044FF000054FF000016D
:1005B80050E700BF90F0000F04BF0021704730B52E
:1005C8004FF4806404F1320410F0004548BF404203
:1005D8004FF000013EE700BF42004FEAE2014FEA58
:1005E80031014FEA02701FBF12F07F4393F07F4F33
:1005F80081F06051704792F0000F14BF93F07F4F65
:10060800704730B54FF4607401F0004521F00041A7
:1006180020E700BF50EA010208BF704730B54FF02D
:1006280000050AE050EA010208BF704730B511F032
:10063800004502D5404261EB41014FF4806404F16A
:1006480032045FEA915C3FF4DCAE4FF003025FEAEC
:10065800DC0C18BF03325FEADC0C18BF033202EB74
:10066800DC02C2F1200300FA03FC20FA02F001FACE
:1006780003FE40EA0E0021FA02F11444C1E600BF6D
:1006880070B54FF0FF0C4CF4E06C1CEA11541DBF20
:100698001CEA135594EA0C0F95EA0C0F00F0DEF8EB
:1006A8002C4481EA030621EA4C5123EA4C5350EAD0
:1006B800013518BF52EA033541F4801143F4801321
:1006C80038D0A0FB02CE4FF00005E1FB02E506F0B2
:1006D8000042E0FB03E54FF00006E1FB03569CF007
:1006E800000F18BF4EF0010EA4F1FF04B6F5007F0D
:1006F80064F5407404D25FEA4E0E6D4146EB06067F
:1007080042EAC62141EA55514FEAC52040EA5E5007
:100718004FEACE2EB4F1FD0C88BFBCF5E06F1ED8B1
:10072800BEF1004F08BF5FEA500E50F1000041EBE8
:10073800045170BD06F0004646EA010140EA020095
:1007480081EA0301B4EB5C04C2BFD4EB0C0541EAB7
:10075800045170BD41F480114FF0000E013C00F3CC
:10076800AB8014F1360FDEBF002001F0004170BDF0
:10077800C4F10004203C35DA0C341BDC04F1140409
:10078800C4F1200500FA05F320FA04F001FA05F295
:1007980040EA020001F0004221F0004110EBD37062
:1007A80021FA04F642EB06015EEA430E08BF20EA8E
:1007B800D37070BDC4F10C04C4F1200500FA04F331
:1007C80020FA05F001FA04F240EA020001F00041C3
:1007D80010EBD37041F100015EEA430E08BF20EA36
:1007E800D37070BDC4F1200500FA05F24EEA020E7E
:1007F80020FA04F301FA05F243EA020321FA04F0AD
:1008080001F0004121FA04F220EA020000EBD37063
:100818005EEA430E08BF20EAD37070BD94F0000F63
:100828000FD101F00046400041EB010111F4801F97
:1008380008BF013CF7D041EA060195F0000F18BF48
:10084800704703F00046520043EB030313F4801F84
:1008580008BF013DF7D043EA0603704794EA0C0F3E
:100868000CEA135518BF95EA0C0F0CD050EA410654
:1008780018BF52EA4306D1D181EA030101F00041D1
:100888004FF0000070BD50EA410606BF10461946F9
:1008980052EA430619D094EA0C0F02D150EA013605
:1008A80013D195EA0C0F05D152EA03361CBF104646
:1008B80019460AD181EA030101F0004141F0FE41E5
:1008C80041F470014FF0000070BD41F0FE4141F469
:1008D800780170BD70B54FF0FF0C4CF4E06C1CEA69
:1008E80011541DBF1CEA135594EA0C0F95EA0C0F1E
:1008F80000F0A7F8A4EB050481EA030E52EA0335D9
:100908004FEA013100F088804FEA03334FF08055F9
:1009180045EA131343EA12634FEA022245EA111526
:1009280045EA10654FEA00260EF000419D4208BFD7
:10093800964244F1FD0404F5407402D25B084FEA84
:100948003202B61A65EB03055B084FEA32024FF430
:1009580080104FF4002CB6EB020E75EB030E22BF8D
:10096800B61A754640EA0C005B084FEA3202B6EB4D
:10097800020E75EB030E22BFB61A754640EA5C00FC
:100988005B084FEA3202B6EB020E75EB030E22BF8C
:10099800B61A754640EA9C005B084FEA3202B6EB8D
:1009A800020E75EB030E22BFB61A754640EADC004C
:1009B80055EA060E18D04FEA051545EA16754FEAAE
:1009C80006164FEAC30343EA52734FEAC2025FEACC
:1009D8001C1CC0D111F4801F0BD141EA00014FF05B
:1009E80000004FF0004CB6E711F4801F04BF01432C
:1009F8000020B4F1FD0C88BFBCF5E06F3FF6AFAE48
:100A0800B5EB030C04BFB6EB020C5FEA500C50F1D7
:100A1800000041EB045170BD0EF0004E4EEA11315A
:100A280014EB5C04C2BFD4EB0C0541EA045170BD61
:100A380041F480114FF0000E013C90E645EA060EA5
:100A48008DE60CEA135594EA0C0F08BF95EA0C0FD3
:100A58003FF43BAF94EA0C0F0AD150EA01347FF41B
:100A680034AF95EA0C0F7FF425AF104619462CE7F2
:100A780095EA0C0F06D152EA03353FF4FDAE104655
:100A8800194622E750EA410618BF52EA43067FF4A6
:100A9800C5AE50EA41047FF40DAF52EA43057FF436
:100AA800EBAE12E74FF0FF3C06E000BF4FF0010C41
:100AB80002E000BF4FF0010C4DF804CD4FEA410CA5
:100AC8007FEA6C5C4FEA430C18BF7FEA6C5C1BD072
:100AD80001B050EA410C0CBF52EA430C91EA030FF3
:100AE80002BF90EA020F0020704710F1000F91EA50
:100AF800030F58BF994208BF90422CBFD8176FEA1E
:100B0800E37040F0010070474FEA410C7FEA6C5CEB
:100B180002D150EA013C07D14FEA430C7FEA6C5CF2
:100B2800D6D152EA033CD3D05DF8040B704700BF1E
:100B38008446104662468C461946634600E000BF6C
:100B480001B5FFF7B7FF002848BF10F1000F01BD3E
:100B58004DF808EDFFF7F4FF0CBF012000205DF809
:100B680008FB00BF4DF808EDFFF7EAFF34BF01208E
:100B780000205DF808FB00BF4DF808EDFFF7E0FF27
:100B880094BF012000205DF808FB00BF4DF808ED78
:100B9800FFF7CEFF94BF012000205DF808FB00BFDF
:100BA8004DF808EDFFF7C4FF34BF012000205DF8C1
:100BB80008FB00BF4FEA410C7FEA6C5C02D150EAA7
:100BC800013C0AD14FEA430C7FEA6C5C02D152EA3D
:100BD800033C02D14FF0000070474FF0010070470E
:100BE8004FEA410212F5001215D211D56FF478734D
:100BF800B3EB625212D94FEAC12343F0004343EAF0
:100C0800505311F0004F23FA02F018BF40427047CA
:100C18004FF00000704750EA013005D111F0004054
:100C280008BF6FF0004070474FF00000704700BFEA
:100C38004A0011D212F5001211D20DD56FF4787353
:100C4800B3EB62520ED44FEAC12343F0004343EAA8
:100C5800505323FA02F070474FF00000704750EAF3
:100C6800013002D14FF0FF3070474FF0000070475D
:100C78004FEA4102B2F1E04324BFB3F5001CDCF1B6
:100C8800FE5C0DD901F0004C4FEAC0024CEA5070EE
:100C9800B2F1004F40EB830008BF20F0010070471D
:100CA80011F0804F21D113F13872BCBF01F0004020
:100CB800704741F480114FEA5252C2F11802C2F152
:100CC800200C10FA0CF320FA02F018BF40F00100D3
:100CD8004FEAC1234FEAD32303FA0CFC40EA0C0085
:100CE80023FA02F34FEA4303CCE77FEA625307D1C2
:100CF80050EA01331EBF4FF0FE4040F440007047F9
:100D080001F0004040F0FE4040F40000704700BF92
:100D180053B94AB9002908BF00281CBF4FF0FF315A
:100D28004FF0FF3000F0DAB9ADF1080C6DE904CEF0
:100D380000F066F8DDF804E0DDE9022304B070474E
:100D48002DE9F84380EAE074A4EBE074E20757EC7D
:100D5800106B58BFDFF85C90054652BF4FF0000893
:100D6800B046B946640832463B463046394613D049
:100D7800FFF786FCE30706460F46F3D5404649468B
:100D880032463B46FFF77CFC64088046894632467B
:100D98003B4630463946EBD1002D07DA42464B46F2
:100DA80000200449FFF796FD8046894649EC108BE0
:100DB800BDE8F8830000F03FD0B500220E4B064690
:100DC8000F46FFF75DFCFFF733FF0446FFF7E2FB32
:100DD80000220A4BFFF754FC02460B4630463946C0
:100DE800FFF79AFAFFF724FF2346002242EA00029F
:100DF80010461946D0BD00BF0000F03D0000F0418C
:100E08002DE9F0478C460D460446089E002B51D12B
:100E18008A4217466DD9B2FA82FEBEF1000F0BD096
:100E2800CEF1200C01FA0EF520FA0CFC02FA0EF7AE
:100E38004CEA050C00FA0EF44FEA174A250CBCFBE5
:100E4800FAF81FFA87F90AFB18CC45EA0C4508FBA3
:100E580009F3AB420AD9ED1908F1FF3280F023817A
:100E6800AB4240F22081A8F102083D44ED1AA4B239
:100E7800B5FBFAF00AFB105544EA054400FB09F9F2
:100E8800A14509D9E41900F1FF3380F00A81A14591
:100E980040F2078102383C44A4EB090440EA0840C8
:100EA8000021002E61D024FA0EF400233460736010
:100EB800BDE8F0878B4207D9002E54D0002186E880
:100EC80021000846BDE8F087B3FA83F1002940F015
:100ED8008E80AB4202D3824200F2FA80841A65EB1C
:100EE80003050120AC46002E3FD086E81010BDE86F
:100EF800F08712B90127B7FBF2F7B7FA87FEBEF100
:100F0800000F34D1EB1B3A0C1FFA87FC0121B3FB0D
:100F1800F2F8250C02FB183345EA03450CFB08F3ED
:100F2800AB4207D9ED1908F1FF3002D2AB4200F20B
:100F3800D1808046ED1AA3B2B5FBF2F002FB105542
:100F480043EA05440CFB00FCA44507D9E41900F169
:100F5800FF3302D2A44500F2B8801846A4EB0C0473
:100F680040EA08409DE731463046BDE8F087CEF1BB
:100F7800200405FA0EF307FA0EF720FA04F83A0CE3
:100F880025FA04F448EA0308B4FBF2F14FEA1845DD
:100F980002FB11441FFA87FC45EA044501FB0CF3E8
:100FA800AB4200FA0EF409D9ED1901F1FF3080F0D7
:100FB8008A80AB4240F2878002393D44EB1A1FFA1F
:100FC80088F5B3FBF2F002FB103345EA034500FB5A
:100FD8000CF3AB4207D9ED1900F1FF386FD2AB42E1
:100FE8006DD902383D44EB1A40EA01418FE7C1F15F
:100FF800200722FA07F88B4005FA01F448EA0303B0
:1010080020FA07FE4FEA134CFD404EEA040EB5FBEA
:10101800FCF94FEA1E440CFB19551FFA83F844EA01
:10102800054509FB08F4AC4202FA01F200FA01FA9C
:1010380008D9ED1809F1FF3043D2AC4241D9A9F1E2
:1010480002091D442D1B1FFA8EFEB5FBFCF00CFB9C
:1010580010554EEA054400FB08F8A04507D9E418E6
:1010680000F1FF3529D2A04527D902381C4440EAAF
:101078000940A4EB0804A0FB02894C45C6464D462E
:1010880015D312D056B1BAEB0E0364EB050404FA7B
:1010980007F7CB401F43CC40376074600021BDE8A0
:1010A800F0871846F8E69046E0E6C245EAD2B8EB83
:1010B800020E69EB03050138E4E72846D7E7404606
:1010C80091E78146BEE7014678E702383C4445E7A8
:1010D800084608E7A8F102083D442BE7704700BF1F
:1010E800034613F8012B002AFBD1181A0138704760
:1010F8002DE9F04F85B003910778A7F10903042B78
:10110800044607F07F0200F10100F5D9202AF3D048
:101118002B2F04BF677804462D2F71D09FED407B9D
:101128008DED007B4FF000084FF000098FB34FF0B2
:10113800000E4FF0000ADFF800B1754619E0FFF71E
:101148009FFA804689463046FFF734FA42464B46B6
:10115800FFF7E4F85246804689465B46DDE9000120
:1011680035B3FFF7B7FBCDE90001AE4614F8017FB0
:101178007FB1A7F13006092E52465B4640464946E4
:10118800DDD9C5B92E2F16D114F8017F0125002FFE
:10119800EFD142464B46DDE90001FFF771FA804680
:1011A8008946039B49EC108B1C6005B0BDE8F08FA5
:1011B8004FF0010EDAE7BEF1000F28D042464B4649
:1011C800DDE90001FFF75CFA07F0DF07452F8046ED
:1011D8008946E6D103990A22601C20F05FFF9FED43
:1011E800120BFFF7ADFD404653EC102B4946FFF7B5
:1011F80047FA8046894649EC108B05B0BDE8F08F68
:101208009FED0B7B67788DED007B01348AE7DFF873
:101218002C904FF0000849EC108B05B0BDE8F08F1A
:10122800000000000000F03F000000000000244023
:10123800000000000000F0BF000024400000F87F1C
:1012480000B52DED028B83B006F0FAFC01A9FFF77B
:101258004FFF0022002351EC100BB0EE408AF0EE55
:10126800608AFFF775FC40B9B0EE480AF0EE680AEC
:1012780007F0BAF808B99FED068BB0EE480AF0EE11
:10128800680A07F027FB03B0BDEC028B5DF804FB8E
:10129800000000000000F87F2DE9F84F55EC104BD6
:1012A80006460022002310EE100A2946FFF75AFCD2
:1012B800002840F09F800022002320462946FFF79F
:1012C80047FC28B13022002332707370BDE8F88FD4
:1012D80045EC104B1EF01AFE51EC100BFFF780FC8A
:1012E8007BA3D3E90023814629462046FFF73AFC31
:1012F800002800F08680B9F1000FC0F2BE80484691
:101308009FED6D0BFFF71CFD2046294653EC102B73
:10131800FFF7E0FA04460D466FA1D1E90001012765
:101328004FF0000822462B46FFF7AAF90022664B29
:10133800FEF7F4FFFFF740FD002FCC464FF0FF3AD1
:10134800C1464FF0000840F38580DFF894E15F4C18
:101358000122AEF1700945F6F3254FF02E0BA94294
:1013680008BFA0424FF0300309D3001B61EB050111
:10137800A94208BFA04203F10103F6D2DBB23370E1
:1013880050EA010306F1010409D1BA4210DACE4548
:1013980002F101020CD026467EE80245DFE7BA4298
:1013A80004BF86F801B0B41CCE4502F10102F2D1A7
:1013B800B8F1000F0DD02246302102F8011BC2F10E
:1013C800010353442344002BF7DC2AEAEA73013370
:1013D8001C44BCF1010F4CD06523BCF1000F2370F5
:1013E800C5BF2B236370611CA11C6046BDE8F84F84
:1013F8000BF010B905F100431D462D23337001365B
:1014080059E72FA3D3E9002320462946FFF7C8FB55
:1014180000287FF470AFB9F10E0F09F101073DDD27
:10142800A9F10E0840469FED240BFFF789FC2046E2
:1014380053EC102B2946FFF74DFA0022224BFEF7FA
:101448006DFFFFF7B9FC002FA9F10F0A4FF0010C4F
:101458003FF77BAF334630222E2403F8022B7470FB
:101468007FEA090618D01E4403F8012BB342FBD1CA
:101478006BE700232370BDE8F88FC9F100009FEDEA
:101488000E0BFFF75DFC2046294653EC102BFFF7A7
:10149800F7F804460D463FE71E4656E7C9F10E0029
:1014A8009FED050BFFF74CFCC84651EC100B4FF0B5
:1014B800010937E7AFF30080000000000000244076
:1014C80050EFE2D6E41A4B440000E03F00407A10A7
:1014D8008DEDB5A0F7C6B03E0000901EC4BCD64244
:1014E800103502080000000070B54FF0FF3007F01B
:1014F800F5F804466FF07F4007F0F0F806462046FE
:10150800FFF748F800220E4BFFF7BAF804463046BA
:101518000D46FFF73FF808A3D3E90023FFF7DAF9F0
:1015280002460B4620462946FEF7F8FE41EC100B12
:1015380070BD00BFAFF300800000E0DFFFFF6F4326
:101548000000F03D0000000038B52DED028B044688
:1015580006F08AFFC8B9204606F090FF30B1A3090B
:1015680014BF01200020BDEC028B38BD4CB12046D1
:1015780007F09EFBB0EE408AF0EE608A06F034FF7A
:1015880048B9BDEC028B002038BD204606F08CFF20
:10159800BDEC028B38BDB0EE480AF0EE680A1EF0CA
:1015A8006FF99FED0F1B1EF0C7FB55EC104B002287
:1015B800002310EE100A2946FFF7D4FA20B9204676
:1015C8002946FFF735FBCEE7204629460022064B81
:1015D800FEF7A4FE04460D46F1E700BFAFF3008016
:1015E800000000000000F0410000F0410000000091
:1015F8002DE9D04F04462DED028BC068FEF7DAFFC7
:10160800804620698946FEF7D5FF824660698B4689
:10161800FEF7D0FF024601F1004343EC112B49ECE1
:10162800108B06460F461EF009FB51EC100BFFF716
:101638001FFBE06200EE100A08EE100A0BF09AFF9A
:1016480010EE100AFEF7C8FF42464B46FFF718F89F
:10165800B0EE480A804689460BF08AFF10EE100A61
:10166800FEF7BAFF32463B46FFF70AF802460B463A
:1016780040464946FEF750FE4BEC10AB41EC110BCF
:101688001EF0DCFA51EC100BFFF7F2FA002208EE1C
:10169800100A002330463946FFF782FA20B3B5EE28
:1016A800C08AF1EE10FA1BDD11A7D7E9006718EE22
:1016B800100AFEF791FF02460B4630463946FEF700
:1016C8002BFE32463B46FEF729FEFFF7D1FAA06211
:1016D800BDEC028BE38843F00203E380BDE8D08FC2
:1016E80005A7D7E90067E2E784ED0A8AF0E700BFBB
:1016F800EA2E4454FB21F93FEA2E4454FB21F9BF5A
:1017080008B50CF0FFF8DFED0A7A60EE277A17EEDD
:10171800900AFEF761FF04A3D3E90023FFF7DAF884
:10172800FFF75EFA08BD00BFEA2E4454FB211940BA
:101738000000B4430000000008B50CF0F7F8DFED36
:101748000A7A60EE277A17EE900AFEF745FF04A39F
:10175800D3E90023FFF7BEF8FFF742FA08BD00BF40
:10176800EA2E4454FB2119400000B4430000000055
:1017780010B52DED088B044684B0406C9FED34BA4B
:101788000CF0D4F8606CB0EE409A0CF0BBF821462F
:10179800022201A8F0EE40AA0CF0E8F9DDED027A89
:1017A800B8EEE78ADDED037AB0EE490AF8EEE78A8B
:1017B8000BF0E0FEF0EE409AB0EE490A0BF0D8FECE
:1017C800B0EE40AAB0EE6A0A0BF0D4FEB0EE409A32
:1017D800B0EE6A0A0BF0CCFE68EE097A9DED017A4C
:1017E80067EEA97AB8EEC77A28EE899AE7EE007A0A
:1017F8006AEE480AB0EE670AE8EEA90AAAEE090AF4
:101808000CF022F960EE0B7A17EE900AFEF7E4FE70
:101818000DA3D3E90023FFF75DF8FFF729FADFED01
:101828000D7A07EE100A77EEC77AF5EEC07AF1EE78
:1018380010FA48BF77EE8B7AFDEEE77A17EE900A3A
:1018480004B0BDEC088B10BDEA2E4454FB211940AE
:101858000000B4430000B44200B585B0014601223F
:1018680001A80CF083F9DDED027AF8EEE70ADDED68
:10187800017AB8EEE70A0CF0E7F8DFED137A60EECC
:10188800277A17EE900AFEF7A7FE0DA3D3E90023E7
:10189800FFF720F8FFF7ECF907EE900AF5EEC07AAB
:1018A800F1EE10FA44BF9FED097A77EE877AFDEEE4
:1018B800E77A17EE900A05B05DF804FBAFF30080F5
:1018C800EA2E4454FB210940000034430000B4438D
:1018D8002DE9704355EC104B554A25F000439342CF
:1018E80058DC544A93422E4613DC4DA3D3E9002317
:1018F80010EE100A2946FEF711FD00224E4BFFF7A5
:101908004FF900285DD02046294641EC100BBDE870
:1019180070834A4A934248DCB3F1804F51DD1DF091
:101928001BFF22462B462046294659EC108BFEF712
:10193800A7FE0022404BFEF7F1FC41EC100B1EF015
:10194800B7FD404653EC102B4946FEF7E7FC02462C
:101958000B4600203849FEF7BDFF424604460D46B7
:101968004B4640464946FEF7D9FC02460B46204600
:101978002946FEF7D3FC41EC100B02F03DFA51EC7E
:10198800100B002E0DDC01F10043194641EC100B41
:10199800BDE8708310EE102A2B4620462946FEF734
:1019A800BDFC41EC100BBDE870831DF0D5FE02F0C4
:1019B80023FA1DA3D3E9002351EC100BFEF7AEFC6C
:1019C800DFE722462B4620462946FEF759FE45EC1E
:1019D800104B804689461DF0BFFE0022164B40463C
:1019E800494655EC104BFEF799FC41EC100B1EF0E4
:1019F8005FFD002251EC100B0F4BFEF78FFC0246E7
:101A08000B4640464946FEF765FF22462B46FEF741
:101A180085FC41EC100B00F04BFB51EC100BB0E7D0
:101A28009C7500883CE4377EEF39FAFE422EE63F8B
:101A3800FFFFEF7FFFFF2F3E0000F03F0000B041A7
:101A48002DE9F84F55EC104BCD4B25F000469E4242
:101A5800AA4610DDCB4B9E4200F3B38000F0AE8067
:101A6800BAF1000F40F3F780A9A1D1E9000141ECD8
:101A7800100BBDE8F88FC44B9E4200F3C180A3F160
:101A8800DE739E4240F3A7804FF0FF3B22462B4671
:101A980020462946FEF7F4FD02460B468046894655
:101AA800FEF7EEFD9CA3D3E9002306460F46FEF79A
:101AB800E7FD9BA3D3E90023FEF730FC32463B4603
:101AC800FEF7DEFD98A3D3E90023FEF727FC324694
:101AD8003B46FEF7D5FD96A3D3E90023FEF71EFC8F
:101AE80032463B46FEF7CCFD93A3D3E90023FEF72D
:101AF80015FC32463B46FEF7C3FD91A3D3E900230C
:101B0800FEF70CFC42464B46FEF7BAFD8EA3D3E91E
:101B180000238046894630463946FEF7B1FD8CA33E
:101B2800D3E90023FEF7F8FB32463B46FEF7A8FD53
:101B380089A3D3E90023FEF7EFFB32463B46FEF7C5
:101B48009FFD87A3D3E90023FEF7E6FB32463B4619
:101B5800FEF796FD84A3D3E90023FEF7DDFB3246AA
:101B68003B46FEF78DFDBBF1FF3F02460B4676D0A4
:101B780040464946FEF7D2FB22462B46FEF780FD3B
:101B8800824E834B4FEACB0B5E449B44DBE9002338
:101B9800FEF7C2FB22462B46FEF7BEFB02460B466B
:101BA800D6E90001FEF7B8FBBAF1000F0FDA01F130
:101BB8000043194641EC100BBDE8F88F002C3FF4A8
:101BC8004FAF22462B4620462946FEF7A7FB41EC9D
:101BD800100BBDE8F88F66A3D3E9002310EE100AB6
:101BE8002946FEF79BFB00226A4BFEF7D9FF002827
:101BF8003FF44AAF2046294641EC100BBDE8F88F68
:101C08001DF0AAFD644B9E4255EC104B36DCA3F543
:101C180050239E425FDC10EE102A10EE100A2B466D
:101C28002946FEF77BFB00225A4BFEF775FB002284
:101C380006460F464FF0804320462946FEF76EFBC6
:101C480002460B4630463946FEF744FE4FF0000B7D
:101C580004460D461AE748A1D1E90001B7E7404616
:101C68004946FEF75BFB22462B46FEF709FD024676
:101C78000B4620462946FEF74FFBA8E7474B9E42F6
:101C88001DDC10EE100A0022454B2946FEF744FBE6
:101C9800002206460F46424B20462946FEF7F0FC36
:101CA80000223C4BFEF73AFB02460B4630463946CB
:101CB800FEF710FE4FF0020B04460D46E6E62B46F3
:101CC80010EE102A00203749FEF704FE4FF0030BF0
:101CD80004460D46DAE610EE100A00222D4B29467E
:101CE800FEF71AFB002206460F462A4B20462946D5
:101CF800FEF714FB02460B4630463946FEF7EAFD6E
:101D08004FF0010B04460D46C0E600BFAFF300805C
:101D1800182D4454FB21F93F11DA22E33AAD903FE4
:101D2800EB0D76244B7BA93F513DD0A0660DB13F0A
:101D38006E204CC5CD45B73FFF8300922449C23F72
:101D48000D5555555555D53F2F6C6A2C44B4A2BF37
:101D58009AFDDE522DDEAD3F6D9A74AFF2B0B33FFF
:101D6800711623FEC671BC3FC4EB98999999C93F77
:101D78009C7500883CE4377E182D4454FB21F9BF3C
:101D8800FFFF0F440000F07FFFFFDB3F2035020814
:101D9800403502080000F03FFFFFF23FFF7F03409D
:101DA8000000F83F0000F0BF51EC100B2DE9F8439C
:101DB800C1F30A59A9F2FF35132D0C4610EE106A2B
:101DC800884610EE107A22DC002D52DB3E4B43FA97
:101DD80005F901EA090303431ED039A3D3E9002317
:101DE800FEF79CFA00220023FEF7DAFE48B1002C29
:101DF80004DD4FF4801343FA05F5A84428EA0904E2
:101E0800002723463A4643EC102BBDE8F883332DD0
:101E180006DDB5F5806F3FD041EC100BBDE8F883C7
:101E2800A9F213494FF0FF3323FA09F910EA090F11
:101E3800F2D023A3D3E90023FEF770FA002200238F
:101E4800FEF7AEFE0028DCD0002C09DD142D32D0C0
:101E58000127C5F1340507FA05F5AE1928BFB844BE
:101E6800444626EA090723463A4643EC102BBDE8C8
:101E7800F88313A3D3E90023FEF750FA00220023C6
:101E8800FEF78EFE0028BCD0002C10DB54EA0607B3
:101E98000BD000270D4CB4E710EE102A0B46FEF7C6
:101EA8003DFA41EC100BBDE8F8833C46A9E7002752
:101EB8004FF00044A5E704F10108D1E7AFF3008033
:101EC8009C7500883CE4377EFFFF0F000000F03F60
:101ED80000B551EC100B2C4A21F00043934285B019
:101EE80020DD2A4A934209DD10EE102A0B46FEF740
:101EF80013FA41EC100B05B05DF804FB684602F0DC
:101F080093FF00F00300012828D0022815D060B301
:101F180001209DED021B9DED000B04F00DF851EC26
:101F2800100BE6E79FED161B03F08AFA51EC100B35
:101F380041EC100B05B05DF804FB9DED021B9DED17
:101F4800000B03F07DFA53EC102B10EE100A03F18E
:101F5800004141EC100B05B05DF804FB9DED021B40
:101F68009DED000B03F0E8FFEDE79DED021B9DEDF5
:101F7800000B03F065FA51EC100BBAE7AFF30080E1
:101F88000000000000000000FB21E93FFFFFEF7F99
:101F980051EC100BC1F30A532DE9F041A3F2FF35C0
:101FA800132D0C460F4610EE106A1DDC002D43DB86
:101FB8003D4B43FA05F801EA0803034319D038A357
:101FC800D3E90023FEF7AAF900220023FEF7E8FD73
:101FD80020B1002C49DB27EA0804002623463246B4
:101FE80043EC102BBDE8F081332D06DDB5F5806F8D
:101FF80032D041EC100BBDE8F081A3F213434FF04F
:10200800FF3828FA03F810EA080FF2D024A3D3E91E
:102018000023FEF783F900220023FEF7C1FD002804
:10202800DCD0002C27DB3C4626EA0806234632464D
:1020380043EC102BBDE8F08119A3D3E90023FEF788
:102048006DF900220023FEF7ABFD0028C6D0002C56
:102058001CDB00263446C1E710EE102A0B46FEF7BB
:102068005DF941EC100BBDE8F0814FF4801343FAA1
:1020780005F52F44AFE7142D10D00123C5F1340521
:1020880003FA05F5AE1928BFFF18CCE724F0004283
:10209800064B324318BF1C4600269FE70137C2E7AC
:1020A8009C7500883CE4377EFFFF0F000000F0BFFE
:1020B8002DE9F04FDA4B59EC108B994587B04E4615
:1020C80019DCD84B29F000449C4222DD0022D64B73
:1020D80010EE100A4946FEF73BFD002800F081800B
:1020E800002200230020D149FEF7F4FB41EC100B3D
:1020F80007B0BDE8F08FCE4B994534DD42464B46DC
:1021080040464946FEF70AF941EC100B07B0BDE816
:10211800F08FC84B9C4273DDC74B1E449E4200F2B1
:1021280084800022C54B40464946FEF7F7F84FEA3F
:10213800215AAAF2FF3ABAF1000F04460D460E469C
:1021480040F3EE8142464B46FEF7E6F802460B4660
:102158000020BA49FEF7E0F822462B46FEF7BAFB04
:10216800CDE902010BE0B64B9E42DADD9FED967B8E
:102178008DED027B4FEA265A4446AAF2FF3AB14B4C
:10218800C6F313069E4246F07F5500F3F18045F4EE
:102198004015204629460022A84BFEF7BDF800222C
:1021A80004460D46A84BFEF76BFA22462B46FEF76F
:1021B80067FAA046CDE90401A946CDE90001002E41
:1021C80042D10022002320462946FEF7C1FC002800
:1021D80000F0D880BAF1000F40F082819FED7A0BB1
:1021E80094E742464B4640463146FEF795F802468C
:1021F8000B46FEF76FFB41EC100B07B0BDE8F08F04
:102208000022924B10EE100A4946FEF787F800228A
:102218000023FEF7C5FC002800F01C818C4B9C4273
:1022280000F3188149EC108B70E70022864B10EE02
:10223800100A4946FEF724FA42464B46FEF720FAB2
:10224800CDE900014FF0000A00224FF080434046DC
:102258004946FEF763F802460B4640464946FEF7F4
:1022680039FB02460B4606460F46FEF709FA58A305
:10227800D3E9002304460D46FEF702FA56A3D3E934
:102288000023FEF74BF822462B46FEF7F9F954A334
:10229800D3E90023FEF742F822462B46FEF7F0F971
:1022A80051A3D3E90023FEF739F822462B46FEF75F
:1022B800E7F94FA3D3E90023FEF730F822462B466F
:1022C800FEF7DEF94CA3D3E90023FEF727F82246F0
:1022D8002B46FEF7D5F94AA3D3E90023FEF71EF8EB
:1022E80022462B46FEF7CCF904460D46BAF1000FFC
:1022F80000F0C5805046FEF75DF943A3D3E90023FB
:1023080082468B46FEF7BCF9DDE90023CDE90401DE
:1023180020462946FEF702F832463B46FEF7B0F95A
:102328003BA3D3E9002304460D4650465946FEF721
:10233800A7F9DDE90223FDF7F1FF02460B46204627
:102348002946FDF7EBFF02460B46DDE90001FDF7E4
:10235800E3FF42464B46FDF7DFFF02460B46DDE949
:102368000401FDF7D9FF41EC100B07B0BDE8F08F71
:1023780045F40015C6F5801620462946B6100AF120
:10238800010A08E724A3D3E9002320462946FEF7DB
:1023980077F902460B4600202849FDF7BDFFDDE925
:1023A8000423FEF76DF906460F46BAF1000F77D100
:1023B80002460B4620462946FDF7AEFF41EC100BBE
:1023C800A4E600BFAFF3008000000000000000009A
:1023D80044523EDF12F1C23F9FC678D0099AC33FEC
:1023E800DE03CB966446C73FAF788E1DC571CC3FE0
:1023F800599322942449D23F04FA97999999D93F3D
:10240800935555555555E53F0000E0FE422EE63FF1
:10241800763C7935EF39EA3D555555555555E53FE3
:102428007982DA3FFFFFEF3F0000F0BF000050C3A2
:10243800FFFFEF7FFFFF1F3E3C412D400000F03FB4
:10244800FFFF3F439DA006000000E03F000050430F
:10245800FFFF8F3C42464B4640464946FEF710F97F
:102468000022394BFEF70CF902460B464046494616
:10247800FDF752FF41EC100B07B0BDE8F08FDDE926
:10248800004522462B46FDF749FF32463B46FEF7FC
:10249800F7F802460B4620462946FDF73DFFE3E7DD
:1024A8005046FEF787F824A3D3E9002382468B46DB
:1024B800FEF7E6F822A3D3E9002380468946504672
:1024C8005946FEF7DDF8DDE90223FDF727FF02464E
:1024D8000B4630463946FDF71FFF22462B46DCE700
:1024E8005046FEF767F816A3D3E9002306460F46C1
:1024F800FEF7C6F8DDE90223FDF710FF0EA3D3E9C6
:10250800002304460D4630463946FEF7B9F8024620
:102518000B4620462946FDF701FF41EC100BF5E577
:1025280000220A4BFDF7F8FE02460B464046494694
:10253800FDF7F2FE10E600BF0000E0FE422EE63F87
:10254800763C7935EF39EA3D0000E03F0000F03F86
:1025580008B51DF057FC06A3D3E9002351EC100B76
:10256800FEF7B8F941EC100B08BD00BFAFF30080CF
:10257800EF39FAFE422EE63F00B551EC100B2C4A1B
:1025880021F00043934285B027DD2A4A934209DDB2
:1025980010EE102A0B46FDF7BFFE41EC100B05B0FC
:1025A8005DF804FB684602F03FFC00F003000128D8
:1025B80027D002281DD068B39DED021B9DED000BAE
:1025C80002F03EFF53EC102B10EE100A03F100410D
:1025D80041EC100B05B05DF804FB00209FED121BC9
:1025E80003F0AAFC51EC100B41EC100B05B05DF8A0
:1025F80004FB01209DED021B9DED000B03F09CFCEC
:10260800E0E79DED021B9DED000B02F019FF51EC78
:10261800100BC2E701209DED021B9DED000B03F09E
:102628008BFC51EC100BB8E7000000000000000024
:10263800FB21E93FFFFFEF7F00B551EC100B184A73
:1026480021F00043934285B01DDD164A934209DD0F
:1026580010EE102A0B46FDF75FFE41EC100B05B09B
:102668005DF804FB684602F0DFFB400000F0020062
:10267800C0F101009DED021B9DED000B03F028FD4C
:1026880005B05DF804FB01209FED031B03F020FD5E
:1026980005B05DF804FB00BF00000000000000006A
:1026A800FB21E93FFFFFEF7F30B52DED048BB0EE46
:1026B800408AF0EE608A2C4C8BB001F055F994F901
:1026C8000030B0EE409AF0EE609A01332ED053EC11
:1026D800182B51EC180BFEF76DFA054630BBB0EE1F
:1026E800480AF0EE680A1DF037F81DA3D3E9002365
:1026F80051EC100BFEF754FAC0B11C4A94F90030A3
:10270800089503218DED048B8DED028B8DE8060075
:10271800A3B9174B4FF06042CDE9062368461EF077
:1027280005FE88B1089BB3B99DED069BB0EE490A3A
:10273800F0EE690A0BB0BDEC048B30BD0D490020EA
:10274800022BCDE90601E9D11FF03CF822230360F2
:10275800089B002BE8D01FF035F8089B0360E3E7DF
:102768007DF8B98FCE338640BD060020A84D0208FB
:10277800FFFFEF470000F07FF0B52DED048BB0EEC2
:10278800408AF0EE608A384C8BB001F0A1F994F9D8
:102798000030B0EE409AF0EE609A013334D0B0EEDB
:1027A800480AF0EE680A1EF0B9FD68B32AA3D3E917
:1027B800002351EC180BFEF7F3F9054660BB28A37C
:1027C800D3E9002351EC180BFEF7CCF9E0B194F9EA
:1027D8000030264A0895002600270421022B8DED9B
:1027E800048B8DED028BCDE906678DE806002CD0B1
:1027F80068461EF09BFD40B3089B1BB11EF0E2FF2C
:10280800089B03609DED069BB0EE490AF0EE690A4D
:102818000BB0BDEC048BF0BD144A94F90030019262
:10282800032100228DED048B8DED028B009108921F
:102838002BB90F4B4FF06042CDE90623D8E70D497D
:102848000020022BCDE90601D2D11EF0BBFF2223C6
:102858000360D1E7AFF30080EF39FAFE422E8640DD
:1028680051302DD5104987C0BD060020B04D020853
:10287800FFFFEF470000F07F2DE9F04F2DED028BB1
:10288800DFF80CA38BB057EC106B55EC114B01F033
:102898005BFD9AF90080B0EE408AF0EE608AB8F1EC
:1028A800FF3F34D022462B4620462946FEF782F9C0
:1028B800834660BB32463B4630463946FEF77AF9D6
:1028C8008146002840F09F80304639460022002388
:1028D800FEF73EF920B30022002320462946FEF7E2
:1028E80037F98346002867D09FED9F7B0122A44BD0
:1028F800CDF820900092CDE90267CDE904458DED31
:10290800067B0193B8F1000F49D09FED998BB0EE8B
:10291800480AF0EE680A0BB0BDEC028BBDE8F08FF8
:10292800B0EE480AF0EE680A1EF0F8FC804600286F
:1029380000F084804FF000084FF0000951EC180BAC
:1029480042464B46FEF704F90028E0D047EC106BEE
:102958001EF0E4FC0028DAD045EC104B1EF0DEFC3B
:102968000028D4D09AF90030854A01920421002227
:10297800022BCDE90267CDE90445CDE9068900912E
:10298800089203D068461EF0D1FC60B91EF01AFF09
:102998002223036007E09FED747B8DED067B68467C
:1029A8001EF0C4FC50B3089B1BB11EF00BFF089B24
:1029B80003609DED068BAAE745EC104B1EF0AEFCBC
:1029C8000028A4D00022002320462946FEF7CAF892
:1029D80000289CD06A4A9AF90030CDF820B001212D
:1029E800CDE90267CDE904458DE80600002BD2D079
:1029F80064490020022BCDE90601D0D11EF0E2FE89
:102A080021230360CFE70022002320462946FEF752
:102A18009FF800283FF47BAF9FED558B584BCDF8BE
:102A280020B00122B8F1020FCDE90267CDE90445D3
:102A38008DED068B8DE80C00B1D168E747EC106B83
:102A48001EF06CFC00283FF475AF45EC104B1EF0EF
:102A580065FC00283FF46EAF53EC182B18EE100AF3
:102A68001946FEF7A7F8002861D103239AF90080D8
:102A78000093434B0890CDE90267CDE904450193E3
:102A8800B8F1000F2DD1DFF80C914FF0604800220B
:102A9800002330463946CDE90689FEF763F8002859
:102AA8003FF470AF0022384B20462946FDF7E8FD79
:102AB80004460D4645EC104B1EF03AFC204653ECFC
:102AC800102B2946FEF744F870BB304B9AF900806A
:102AD8004FF06042CDE90623B8F1020F7FF452AF00
:102AE80054E79FED257B00220023304639468DEDC3
:102AF800067BFEF737F80028EED00022224B20464E
:102B08002946FDF7BDFD04460D4645EC104B1EF069
:102B18000FFC204653EC102B2946FEF719F818B97C
:102B2800184B0022CDE906239AF90080D4E7144B0C
:102B38009AF90090CDF820800122CDE90267CDE90D
:102B480004458DE80C00B9F1000F3FF424AF0022D2
:102B5800002310461946FDF7BDFEB9F1020FCDE975
:102B680006013FF44BAF1AE7000000000000000028
:102B7800000000000000F03F000000000000F07FAF
:102B8800C84D02080000F0FF0000E03FFFFFEFC75C
:102B9800BD060020FFFFEF472DE9F84F55EC104B1D
:102BA800CD4925F000438B420DDD03F1404303F589
:102BB8008013234340F0BD80002D40F34F819FEDEB
:102BC800AA0BBDE8F88FC5498B4240F3AB80002DB6
:102BD800C0F28C8110EE102A2B460020C049FDF768
:102BE8009BFB0022BF4BFDF74BFD04460D4645EC11
:102BF800104B1DF05DFC204629469DA3D3E9002318
:102C080059EC108BFDF73CFD9BA3D3E90023FDF79E
:102C180085FB22462B46FDF733FD99A3D3E9002314
:102C2800FDF77AFB22462B46FDF72AFD96A3D3E94A
:102C38000023FDF773FB22462B46FDF721FD94A3E5
:102C4800D3E90023FDF768FB22462B46FDF718FD64
:102C580091A3D3E90023FDF761FB22462B46FDF73C
:102C68000FFD8FA3D3E9002382468B4620462946D1
:102C7800FDF706FD8CA3D3E90023FDF74DFB2246A3
:102C88002B46FDF7FDFC8AA3D3E90023FDF746FB9D
:102C980022462B46FDF7F4FC87A3D3E90023FDF772
:102CA8003BFB22462B46FDF7EBFC00228C4BFDF745
:102CB80035FB02460B4650465946FDF70BFE424689
:102CC8004B46FDF7DDFC002682468B4632464B46D6
:102CD80030464946FDF7D4FC02460B4620462946B5
:102CE800FDF71AFB324604460D464B464046494618
:102CF800FDF714FB02460B4620462946FDF7EAFD80
:102D080002460B4650465946FDF708FB32464B46ED
:102D1800FDF704FB02460B46FDF700FB41EC100BE8
:102D2800BDE8F88F704A934212DC9FED650BBDE851
:102D3800F88F10EE102A2B4620462946FDF7ECFAAC
:102D480002460B46FDF7C6FD41EC100BBDE8F88FB7
:102D580010EE102A10EE100A2B462946FDF790FCBB
:102D680043A3D3E9002306460F46FDF789FC42A397
:102D7800D3E90023FDF7D2FA32463B46FDF780FC43
:102D88003FA3D3E90023FDF7C7FA32463B46FDF7D8
:102D980077FC3DA3D3E90023FDF7C0FA32463B4652
:102DA800FDF76EFC3AA3D3E90023FDF7B5FA3246E6
:102DB8003B46FDF765FC38A3D3E90023FDF7AEFADF
:102DC80032463B46FDF75CFC35A3D3E90023804639
:102DD800894630463946FDF753FC33A3D3E900232F
:102DE800FDF79AFA32463B46FDF74AFC30A3D3E991
:102DF8000023FDF793FA32463B46FDF741FC2EA32C
:102E0800D3E90023FDF788FA32463B46FDF738FC44
:102E18000022334BFDF782FA02460B4640464946EC
:102E2800FDF758FD22462B46FDF72AFC02460B46C5
:102E380025A1D1E90001FDF76FFA02460B462046AD
:102E48002946FDF769FA02460B461DA1D1E90001A2
:102E5800FDF762FA41EC100BBDE8F88F9FED1C0BF3
:102E6800BDE8F88FAFF3008000000000000000000C
:102E780009F7FD0DE13D023F88B20175E0EF493FDA
:102E88003B8F68B52882A43F5544880E55C1C93F79
:102E98007D6FEB0312D6D43F555555555555C53F53
:102EA80082922EB1C5B8B33F59018D1B6C06E63F1F
:102EB800C88A599CE52A00404B2D8A1C273A0340B2
:102EC800182D4454FB21F93F075C143326A6913C86
:102ED800182D4454FB210940FFFFEF3FFFFFDF3F60
:102EE8000000F03F0000E03F0000603C10EE100AD8
:102EF800294600225E4BFDF711FA00225D4BFDF7D3
:102F0800BFFB43A3D3E9002304460D46FDF7B8FBF6
:102F180041A3D3E90023FDF701FA22462B46FDF72A
:102F2800AFFB3FA3D3E90023FDF7F6F922462B4672
:102F3800FDF7A6FB3CA3D3E90023FDF7EFF92246F2
:102F48002B46FDF79DFB3AA3D3E90023FDF7E4F9EF
:102F580022462B46FDF794FB37A3D3E90023FDF760
:102F6800DDF922462B46FDF78BFB45EC104B8046DE
:102F780089461DF09DFA2046294631A3D3E900234E
:102F880057EC106BFDF77CFB2FA3D3E90023FDF76B
:102F9800C3F922462B46FDF773FB2DA3D3E9002383
:102FA800FDF7BCF922462B46FDF76AFB2AA3D3E9B5
:102FB8000023FDF7B1F922462B46FDF761FB0022FD
:102FC8002B4BFDF7ABF902460B4640464946FDF749
:102FD80081FC32463B46FDF753FB21A3D3E900238E
:102FE800FDF79AF932463B46FDF798F902460B463B
:102FF800FDF794F902460B461BA1D1E90001FDF744
:103008008BF941EC100BBDE8F88F00BFAFF30080DF
:1030180009F7FD0DE13D023F88B20175E0EF493F38
:103028003B8F68B52882A43F5544880E55C1C93FD7
:103038007D6FEB0312D6D43F555555555555C53FB1
:1030480082922EB1C5B8B33F59018D1B6C06E63F7D
:10305800C88A599CE52A00404B2D8A1C273A034010
:10306800075C143326A6913C182D4454FB210940D3
:103078000000F03F0000E03FF0B5554A55EC104B1A
:10308800954283B046DD534A95420EDD02F17952EE
:10309800954252DD10EE102A2B4620462946FDF7B0
:1030A8003DF941EC100B03B0F0BD05F1404202F5CB
:1030B800801222433DD0B5F1804F4ADC10EE100A51
:1030C80029460022444BFDF727F902460B460446E1
:1030D8000D46FDF723F9224606460F462B462046A5
:1030E8002946FDF7CDFA02460B4630463946FDF72C
:1030F80015F941EC100B1DF0DBF9204653EC102BB1
:103108002946FDF70BF941EC100B03B0BDE8F04080
:10311800FEF7CEBF10EE102A2B4620462946FDF7B3
:10312800FBF802460B46FDF7D5FB41EC100B03B04C
:10313800F0BD9FED230B03B0F0BD00F05DFE22A3B0
:10314800D3E9002351EC100BFDF7E8F841EC100B24
:10315800A9E710EE102A2B4610EE100A2946FDF7B3
:103168008FFA00221C4BFDF7D7F841EC100B1DF02D
:103178009FF922462B46204629468DED000BFDF788
:10318800CDF89DED000B064653EC102B0F4620465C
:103198002946FDF7C3F802460B4600200E49FDF705
:1031A80099FB02460B4630463946FDF7B5F841EC27
:1031B800100B03B0BDE8F04000F01EBEAFF3008076
:1031C8000000000000000000EF39FAFE422EE63F42
:1031D800FFFFEF3FFFFFAF410000F03F000000009E
:1031E8002DE9F04F57EC106BC74B27F000459D4277
:1031F80083B017DD05F1404510EE103A05F580154E
:103208002B432BD010EE102A3B4630463946FDF7AB
:1032180083F802460B46FDF75DFB41EC100B03B04B
:10322800BDE8F08FB94B9D423C4633DCB5F1795F80
:1032380080F2748198A3D3E9002310EE100A39466E
:10324800FDF76CF80022B24BFDF7AAFC10B330462C
:10325800394641EC100B03B0BDE8F08F10EE100AB0
:103268008FA3D3E900233946FDF70AFA8EA3D3E9E1
:10327800002304460D4630463946FDF701FA02465A
:103288000B4620462946FDF749F841EC100B03B0E0
:10329800BDE8F08F47EC106B1CF05EFA002053EC91
:1032A800102B9B49FDF738F800229A4BFDF7E8F9F7
:1032B8007FA3D3E9002306460F46FDF7E1F97EA375
:1032C800D3E90023FDF72AF832463B46FDF7D8F943
:1032D8007BA3D3E90023FDF71FF832463B46FDF7F1
:1032E800CFF979A3D3E90023FDF718F832463B4616
:1032F800FDF7C6F976A3D3E90023FDF70DF83246AA
:103308003B46FDF7BDF974A3D3E90023FDF706F8A2
:1033180032463B46FDF7B4F971A3D3E90023804652
:10332800894630463946FDF7ABF96FA3D3E9002348
:10333800FCF7F2FF32463B46FDF7A2F96CA3D3E94E
:103348000023FCF7EBFF32463B46FDF799F96AA3E9
:10335800D3E90023FCF7E0FF32463B46FDF790F93E
:103368006B4B0022FCF7DAFF47EC106BCDE900014C
:103378001DF09EF8684B9D425BEC10ABDDE9000147
:1033880069DC02460B46404649460025CDE900ABBC
:103398000095FDF79FFADDE900895246CDE9000165
:1033A8005B4650465946FCF7B9FF02460B46DDE935
:1033B8000001FDF765F94246CDE900014B4640465C
:1033C8004946FDF75DF902460B4630463946FCF79B
:1033D800A3FF424606460F464B4650465946FCF761
:1033E8009DFF02460B4630463946FDF773FA024602
:1033F8000B46FCF793FF02460B462BA1D1E90001CF
:10340800FCF78AFF02460B46DDE90001FCF784FF62
:10341800424606460F464B4640464946FCF77EFF65
:1034280002460B4636A1D1E90001FCF775FF0246BA
:103438000B4630463946FCF76FFF02460B4630A173
:10344800D1E90001FCF768FF002C3FF7E6AE01F177
:1034580000431946E1E602460B4640464946FDF759
:1034680039FA52465B46FDF70BF952465B46FCF7C4
:1034780055FF02460B46FCF751FF0BA3D3E9002387
:10348800FCF74AFF02460B4605A1D1E90001FCF70B
:1034980043FFD9E7AFF300809C7500883CE4377E92
:1034A800182D4454FB21F93F075C143326A6913CA0
:1034B80009F7FD0DE13D023F88B20175E0EF493F94
:1034C8003B8F68B52882A43F5544880E55C1C93F33
:1034D8007D6FEB0312D6D43F555555555555C53F0D
:1034E80082922EB1C5B8B33F59018D1B6C06E63FD9
:1034F800C88A599CE52A00404B2D8A1C273A03406C
:10350800182D4454FB21E93FFFFFEF3FFFFFDF3F4A
:103518000000F03F0000E03F3233EF3F10EE102A8A
:1035280010EE100A3B463946FDF7AAF839A3D3E94D
:10353800002304460D46FDF7A3F838A3D3E900237A
:10354800FCF7ECFE22462B46FDF79AF835A3D3E9A3
:103558000023FCF7E1FE22462B46FDF791F833A342
:10356800D3E90023FCF7DAFE22462B46FDF788F85C
:1035780030A3D3E90023FCF7CFFE22462B46FDF704
:103588007FF82EA3D3E90023FCF7C8FE22462B467A
:10359800FDF776F82BA3D3E9002380468946204619
:1035A8002946FDF76DF829A3D3E90023FCF7B4FEFB
:1035B80022462B46FDF764F826A3D3E90023FCF73F
:1035C800ADFE22462B46FDF75BF824A3D3E9002382
:1035D800FCF7A2FE22462B46FDF752F800220C4BC0
:1035E800FCF79CFE02460B4640464946FDF772F939
:1035F80032463B46FDF744F832463B46FCF78EFE22
:1036080041EC100B03B0BDE8F08F00BFAFF30080B2
:103618000000F03F09F7FD0DE13D023F88B201755A
:10362800E0EF493F3B8F68B52882A43F5544880E98
:1036380055C1C93F7D6FEB0312D6D43F555555553B
:103648005555C53F82922EB1C5B8B33F59018D1B60
:103658006C06E63FC88A599CE52A00404B2D8A1C17
:10366800273A03400000000051EC110B43422DE9BA
:10367800F047034321F000486B4F48EAD373BB423D
:1036880055EC104B45D86342234325F0004A4AEADB
:10369800D373BB42A9463CD801F1404303F58013DC
:1036A80003438E464CD08E1706F0020654EA0A03EE
:1036B80046EAD57635D050EA08033AD0B84553D013
:1036C800BA4536D0AAEB08084FEA2858B8F13C0F9B
:1036D8003EDC002964DB02460B4620462946FDF7FE
:1036E800F9F841EC100B1CF037F8FEF7A9F951EC8A
:1036F800100B012E51D0022E42D076B138A3D3E957
:103708000023FCF709FE38A3D3E90023FCF704FEE5
:1037180003E022462B46FCF701FE41EC100BBDE806
:10372800F087022E18D0032E0ED131A1D1E9000165
:10373800F3E7B9F1000F13DB2FA1D1E90001ECE7A2
:10374800BDE8F047FEF77CB910EE100A2946E4E719
:1037580029A1D1E90001CCE723A1D1E90001DCE7E7
:1037680027A1D1E90001D8E7C2451FD0022EF3D026
:10377800032EDAD0012E4FF0000021D00021CCE733
:1037880017A3D3E90023FCF7C7FD02460B4616A191
:10379800D1E90001FCF7C0FDBFE701F10041BCE73A
:1037A80018F13C0F97DA00200021A2E7022E12D070
:1037B800032E0CD0012E06D013A1D1E90001ACE7ED
:1037C8004FF00041A9E712A1D1E90001A5E712A134
:1037D800D1E90001A1E712A1D1E900019DE700BFED
:1037E800075C143326A6A13C182D4454FB2109403C
:1037F800182D4454FB2109C0182D4454FB21F93FCE
:10380800182D4454FB21F9BF182D4454FB21E93FDE
:10381800182D4454FB21E9BFD221337F7CD902C043
:10382800D221337F7CD902400000F07F00000000E5
:103838002DE9F04755EC104B6342234325F0004631
:10384800454A46EAD373934219D8964252D0434B1D
:103858009E42AA4622DC3EA3D3E9002310EE100ABA
:103868002946FCF75BFD00220023FDF799F90028A3
:103878004BD02046294641EC100BBDE8F08710EEEE
:10388800102A2B4620462946FCF746FD02460B46E1
:10389800FDF720F841EC100BBDE8F087304B9E4255
:1038A800354633DD3346224631462046FCF736FDA1
:1038B800224606460F462B4600202749FCF72CFDDA
:1038C80002460B4630463946FDF704F841EC100B2A
:1038D800FEF7EEFB0022234B51EC100BFCF7D0FE59
:1038E800BAF1000FD6DA01F10043194641EC100B8A
:1038F800BDE8F08710EE100A294600220023FCF7E5
:10390800E9FF41EC100BBDE8F087354622462B460F
:1039180020462946FCF702FD22462B4606460F465E
:10392800FCF7AEFE2246804689462B4600200A490F
:10393800FCF7F2FC02460B4640464946FCF7CAFF34
:1039480032463B46FCF7EAFCC0E700BFAFF3008015
:103958009C7500883CE4377E0000F03FFFFF2F3E57
:10396800FFFFDF3F0000E03F2DE9F84353EC102B49
:103978004F4923F000448C4211DC4E498C4218DD3B
:103988004D498C4263DD4D498C427EDD4C498C4269
:103998003FDD01318C4239D043A3D3E900231046DF
:1039A8001946FCF76DFE06460F4647EC106BBDE85E
:1039B800F8831BF0D1FE02F073FD59EC108B002246
:1039C800404B10EE100A4946FCF7A8FCB4F1725FB0
:1039D80006460F46E9DB42464B4640464946FCF759
:1039E8004FFE32463B4604460D4630463946FCF704
:1039F80095FC02460B4620462946FCF76BFF002241
:103A0800304BFCF78BFC06460F46CEE72E498A4220
:103A1800C2D843EC102B1BF09FFE00222B4B51EC1D
:103A2800100BFCF72DFE41EC100B00F051F855EC93
:103A3800104B0022254B10EE100A2946FCF720FEF9
:103A480022462B46FCF71CFE06460F46ADE71BF048
:103A580083FE00F03DF855EC104B10EE100A0022E2
:103A68001A4B2946FCF70CFE224606460F462B4603
:103A780000201649FCF72EFF02460B463046394611
:103A8800FCF74CFC06460F468FE71BF065FE00F07E
:103A98001FF800220D4B51EC100BFCF7F1FD064608
:103AA8000F4682E7AFF300809C7500883CE4377EC0
:103AB800FFFFEF7F422ED63FFFFF3540412E864065
:103AC800CD3386400000F03F7DF8B98F0000E03F1D
:103AD8002DE9F04F55EC104BBD4925F000428A42C4
:103AE80083B04FEAD5770DD9BA498A422AD9C5F3A6
:103AF8001303234340F0FA800FB19FED9D0B03B0F1
:103B0800BDE8F08FB44B9A4200F2D580B34B9A428D
:103B180000F2EA8098A3D3E9002310EE100A2946A0
:103B2800FCF7FCFB0022AE4BFDF73AF8002800F04A
:103B38001C81204629460022A94BFCF7EFFB41ECEB
:103B4800100BDCE78EA3D3E9002310EE100A2946F8
:103B5800FDF726F8002840F0D3808BA3D3E9002393
:103B680020462946FCF7FEFF0028C6D19D4E88A3B3
:103B7800D3E9002306EBC70620462946FCF780FD5B
:103B8800D6E90023FCF7CAFBFDF72AF80646FCF73E
:103B980011FD81A3D3E9002380468946FCF770FD17
:103BA80002460B4620462946FCF7B6FB7CA3D3E920
:103BB8000023CDE9000140464946FCF761FD8246F5
:103BC8008B4652465B46DDE90001FCF7A5FB04463F
:103BD8000D4622462B4620462946FCF751FD72A386
:103BE800D3E9002380468946FCF74AFD70A3D3E950
:103BF8000023FCF791FB42464B46FCF741FD6EA3C0
:103C0800D3E90023FCF78AFB42464B46FCF738FD14
:103C18006BA3D3E90023FCF77FFB42464B46FCF736
:103C28002FFD69A3D3E90023FCF778FB42464B46F6
:103C3800FCF726FD02460B4620462946FCF76CFB9E
:103C480080468946002E65D02046294642464B4686
:103C5800FCF716FD424604460D464B4600204FF041
:103C68008041FCF759FB02460B4620462946FCF7E3
:103C780031FE02460B4650465946FCF74DFBDDE93E
:103C88000023FCF749FB0B46024655490020FCF788
:103C980043FB6FF47F739E4260DA06F57A7601EB98
:103CA800065100224FF0B873FCF7EAFC41EC100B08
:103CB80003B0BDE8F08F4C4B9A423FF657AF4B4BE1
:103CC8004FEAC7084344D3E9002310EE100A2946F7
:103CD800FCF722FB464BC7F101064344CDE900013E
:103CE800D3E900ABF61B6CE7002672E710EE102A4A
:103CF8002B4620462946FCF711FB41EC100BFEE64B
:103D08001DA3D3E9002310461946FCF7B9FC41EC82
:103D1800100BF4E602460B4620462946FCF7B0FC99
:103D2800002206460F464FF0804340464946FCF7BE
:103D3800F3FA02460B4630463946FCF7CBFD2246DD
:103D48002B46FCF7E9FA02460B4600202449FCF70B
:103D5800E3FA41EC100B03B0BDE8F08F01EB06511C
:103D680041EC100B03B0BDE8F08F064631E700BF09
:103D780000000000000000009C7500883CE4377ECD
:103D8800EF39FAFE422E864051302DD5104987C0B2
:103D9800FE822B654715F73F0000E0FE422EE63F06
:103DA800763C7935EF39EA3DD0A4BE726937663E74
:103DB800F16BD2C541BDBB3E2CDE25AF6A56113F23
:103DC80093BDBE166CC1663F3E5555555555C53F0A
:103DD800412E8640FFFFEF7F422ED63FFFFF2F3E4A
:103DE8000000F03F60350208B1A2F03F70350208CC
:103DF80080350208000000002DE9F04F51EC100B4F
:103E0800B1F5801F85B00B4659DA10EE102A21F063
:103E18000044224300F0F8800029C0F2808100228B
:103E2800DD4BFCF72DFCDD4A0B4693426FF035075E
:103E38004ADCC3F3130505F5152606F6647606F481
:103E4800801686F07F5282F4401242EA05011C1562
:103E58000022D34BFCF760FAAB1CA4F2FF34C3F387
:103E680013033C44022B04EB165482468B464FF056
:103E7800000232DC0023FCF76BFE002800F0CF8044
:103E8800002C00F058812046FCF794FBACA3D3E942
:103E9800002306460F46FCF7F3FBABA3D3E9002348
:103EA80004460D4630463946FCF7EAFB02460B4607
:103EB80020462946FCF732FA41EC100B0AE0B74AD3
:103EC80093424FF00007B4DD02460B46FCF726FA92
:103ED80041EC100B05B0BDE8F08F4FF08043FCF7C4
:103EE8001DFA02460B4650465946FCF7F3FC0646B7
:103EF80020460F46FCF75EFB3246CDE900013B4603
:103F080030463946CDE90267FCF7BAFB02460B4654
:103F180080468946FCF7B4FB8DA3D3E90023064607
:103F28000F46FCF7ADFB8CA3D3E90023FCF7F6F9A9
:103F380032463B46FCF7A4FB89A3D3E90023FCF7F0
:103F4800EDF932463B46FCF79BFB87A3D3E90023F8
:103F5800FCF7E4F942464B46FCF792FB84A3D3E90D
:103F680000238046894630463946FCF789FB82A300
:103F7800D3E90023FCF7D2F932463B46FCF780FB35
:103F88007FA3D3E90023FCF7C9F932463B46FCF787
:103F980077FB0B46024649464046FCF7BFF9A5F5B4
:103FA800C223C5F5D725A3F27A4351351D43002D09
:103FB800804689465CDD00227A4B50465946FCF71C
:103FC8005FFB52465B46FCF75BFB06460F46002C40
:103FD8006ED132463B4640464946FCF79FF9DDE93B
:103FE8000223FCF74DFB02460B4630463946FCF7E8
:103FF80093F902460B4650465946FCF78DF941ECB9
:10400800100B05B0BDE8F08F0022002300206649A0
:10401800FCF760FC41EC100B05B0BDE8F08F5AA32B
:10402800D3E9002350465946FCF72AFB02460B46C3
:1040380000205C49FCF770F9524606460F465B467D
:1040480050465946FCF71CFB02460B46304639469B
:10405800FCF716FB06460F46002C40F0A7800246E8
:104068000B4650465946FCF757F941EC100B31E71F
:10407800002C00F0AF8032A3D3E90023DDE9000172
:10408800FCF7FEFA42464B4604460D465046594652
:10409800FCF742F9DDE90223FCF7F2FA2AA3D3E997
:1040A800002306460F46DDE90001FCF7E9FA21E0A6
:1040B80023A3D3E90023DDE90001FCF7E1FA324646
:1040C8003B4604460D4640464946FCF727F9DDE9DC
:1040D8000223FCF7D5FA1CA3D3E9002380468946BE
:1040E800DDE90001FCF7CCFA02460B46404649469A
:1040F800FCF714F902460B4630463946FCF70CF932
:1041080052465B46FCF708F902460B46204629460C
:10411800FCF702F941EC100B05B0BDE8F08F10EE8A
:10412800102A0B46FCF7F8F800220023FCF7D2FB14
:1041380041EC100BCEE69FED160BCBE6AFF30080FB
:104148000000E0FE422EE63F763C7935EF39EA3D45
:1041580044523EDF12F1C23FDE03CB966446C73FAE
:10416800599322942449D23F935555555555E53FC7
:104178009FC678D0099AC33FAF788E1DC571CC3FD2
:1041880004FA97999999D93F555555555555D53F9D
:10419800000000000000000000005043FFFFEF7F18
:1041A8000000F03F0000E03F000050C32046FCF74D
:1041B80001FA0FA3D3E9002380468946FCF760FA89
:1041C8000DA3D3E9002304460D4640464946FCF7B3
:1041D80057FA8FE702460B4650465946FCF79CF8BB
:1041E800DDE90223FCF74CFA03E700BFAFF30080D8
:1041F8000000E0FE422EE63F763C7935EF39EA3D95
:104208002DE9F04355EC104BB5F5801F83B02B46D4
:1042180021DA10EE102A25F000410A4364D0002D5F
:104228006DDB29460022444B10EE100AFCF728FAF1
:10423800424A0D462B46934204466FF035010FDD86
:1042480022462B4620462946FCF768F841EC100B1D
:1042580003B0BDE8F083394A93424FF00001EFDC28
:104268001815A0F2FF3008444FEAD0794844C3F348
:104278001308FCF79FF9C9F57F73033348EA035520
:1042880045EC104B06460F46FFF7B6FD304639465B
:1042980023A3D3E900238DED000BFCF7F1F99DED85
:1042A800000B04460D4620A3D3E9002351EC100B64
:1042B800FCF7E6F902460B4620462946FCF72EF89D
:1042C8001BA3D3E9002304460D4630463946FCF7C4
:1042D800D7F902460B4620462946FCF71FF841EC61
:1042E800100B03B0BDE8F08300220023002014491E
:1042F800FCF7F0FA41EC100B03B0BDE8F08310EEC8
:10430800102A2B4620462946FCF706F800220023EF
:10431800FCF7E0FA41EC100B9AE700BFAFF300801E
:10432800362BF111F3FE593D0EE526157BCBDB3F0D
:1043380000609F501344D33F00005043FFFFEF7FBE
:10434800000050C3000000002DE9F04F51EC110BA4
:1043580021F0004858EA000493B03ED053EC102BEB
:10436800714E23F00044B44210EE10AA1D462DDC15
:10437800894611EE10EA28D0B04527DC6A4EB045D0
:1043880000F08380002D16461F46CDE90001C0F2DB
:1043980081804FF0000BBEF1000F2FD1624B984582
:1043A80000F09580614B984568D0B9F1804F00F0D6
:1043B800D1835F4B994521D1002D1FDB47EC106B52
:1043C80013B0BDE8F04F1CF073B86AB104F1404473
:1043D80004F5801454EA0A0308D15449002041EC3A
:1043E800100B13B0BDE8F08FA045C7DD514813B0DE
:1043F800BDE8F04F02F0BCBA4FF0000B47EC106B71
:104408001BF0AAF951EC100BBAF1000F1AD124B124
:10441800464B25F040429A4214D1B9F1000FC0F240
:10442800D383002DDBDA04F1404404F5801454EA08
:104438000B0300F0AF84BBF1010FD0D101F10043B1
:104448001946CCE7ED0F05F1FF3A5BEA0A0353D0B2
:10445800394B984576DD03F10473984540F306849B
:10446800364B9C4253DDB9F1000F53DD2CA3D3E941
:10447800002310461946FCF703F9B0E7B9F1000F1D
:10448800C0F25A8430463946A9E7BEF1000F3FF41E
:1044980079AF9BE72A4B98452BDCA3F154739845D9
:1044A8007FF777AF4FEA2853A3F2FF33142B40F37B
:1044B8005984C3F134032EFA03F202FA03F39E453A
:1044C8007FF467AF02F00102C2F1020B63E704F167
:1044D800404303F5801353EA0A033FF47EAF174BBA
:1044E8009C4240F33E83B9F1000F13DBDDE9000184
:1044F80075E74FF0020B4EE732463B461046194629
:10450800FBF70AFF02460B46FCF7E4F967E7B9F147
:10451800000FABDB0020002161E700BFAFF3008094
:104528009C7500883CE4377E0000F07F0000F03F77
:104538000000E03FF83C02080000E041FFFFEF3FC9
:10454800FFFF3F43B4F5801F4FF0000205DAD64B5A
:10455800FCF796F86FF034020C462315D34EC4F3DB
:104568001304A3F2FF33134444F07F55B4421A46B0
:104578000D9345F4401540F32E83CD4B9C4240F3F8
:104588000D849FEDB37B8DED087B8DED0E7B9FED4C
:10459800B27B13468DED067B01330D93A5F580158F
:1045A8004FF00008DDE906232946CDE90A01FBF7AB
:1045B800B3FEDDE9062306460F46DDE90A01FBF7EF
:1045C800ADFE02460B460020BA49FCF783F90346C4
:1045D8000C46CDE9103402460B4630463946FCF706
:1045E8004FF86B1043F0005303F5002303EB080565
:1045F8000A4600230146CDE902120293DDE9028949
:104608000024CDE904122B46224640464946FCF7D1
:1046180037F802460B4630463946FBF77DFEDDE9A2
:10462800062306460F4620462946FBF775FE024636
:104638000B46DDE90A01FBF76FFE42464B46FCF7E5
:104648001FF802460B4630463946FBF765FEDDE9A2
:104658001023FCF715F8DDE90445CDE906012246EB
:104668002B4620462946FCF70BF87DA3D3E9002307
:1046780004460D46FCF704F87BA3D3E90023FBF7B7
:104688004DFE22462B46FBF7FBFF79A3D3E9002317
:10469800FBF744FE22462B46FBF7F2FF76A3D3E94D
:1046A8000023FBF73BFE22462B46FBF7E9FF74A3EA
:1046B800D3E90023FBF732FE22462B46FBF7E0FF47
:1046C80071A3D3E90023FBF729FE224606460F46CD
:1046D8002B4620462946FBF7D3FF02460B463046B9
:1046E8003946FBF7CDFF424604460D464B46DDE909
:1046F8000401FBF713FEDDE90623FBF7C1FF2246A1
:104708002B46FBF70BFE424606460F464B464046F5
:104718004946FBF7B5FF0022674BCDE90A01FBF7D5
:10472800FDFD32463B46FBF7F9FD02980D4604466F
:1047380022462B4640464946FBF7A2FF0022804608
:1047480089465D4B20462946FBF7E6FDDDE90A234D
:10475800FBF7E2FD02460B4630463946FBF7DCFD27
:10476800DDE90423FBF78CFF224606460F462B465D
:10477800DDE90601FBF784FF02460B463046394661
:10478800FBF7CCFD06460F4602460B464046494617
:10479800CDE90489FBF7C2FD02983DA3D3E90023C4
:1047A80004460D46FBF76CFFDDE904238046894685
:1047B80020462946FBF7B0FD02460B4630463946EF
:1047C800FBF7AAFD34A3D3E90023FBF759FF34A371
:1047D800D3E9002306460F4620462946FBF750FF3B
:1047E80002460B4630463946FBF798FDDDE90E23B5
:1047F800FBF794FD06460D980F46FBF7DBFE3246A5
:1048080004460D463B4640464946FBF787FDDDE931
:104818000823FBF783FD22462B46FBF77FFD029812
:1048280022462B46CDE90201FBF776FDDDE9082398
:10483800FBF772FD42464B46FBF76EFD02460B4600
:1048480030463946FBF768FD8046894636E000BFAA
:104858000000000000000000000000000000F03F21
:10486800EF4E454A287ECA3F65DBC9934A86CD3F4D
:1048780001411DA96074D13F4D268F515555D53F33
:10488800FFAB6FDBB66DDB3F033333333333E33FCB
:10489800000000E009C7EE3FFD033ADC09C7EE3F20
:1048A800F5015B14E02F3EBE000040438E980300E4
:1048B80079B60B000000F03F000008400BF1FF3311
:1048C80053EA0A0300F07B819FEDC97B8DED067BDF
:1048D800DDE900AB53465C46CDE900340023009384
:1048E800DDE90045504622462B465946FBF714FDA4
:1048F800DDE90223FBF7C4FE524606460F465B4637
:1049080040464946FBF7BCFE02460B463046394650
:10491800FBF704FD2246804689462B46DDE9020165
:10492800CDE90489FBF7ACFE0B46024606460F4666
:1049380040464946FBF7F2FCC74B994204460D46F0
:104948008A4640F3188101F13F4303F5E00303432E
:1049580040F0FA81A8A3D3E90023DDE90401FBF7BD
:10496800DDFC3246804689463B4620462946FBF711
:10497800D3FC02460B4640464946FCF711F900288D
:1049880040F0E281A8464FEA28534FF48012A3F280
:10499800FE3342FA03F35344C3F30A52AF4DA2F273
:1049A800FF321541C3F3130423EA05010020C2F1C5
:1049B800140B44F48014BAF1000F02460B4644FA73
:1049C8000BFB30463946B8BFCBF1000BFBF7A4FC14
:1049D80002460B4606460F46DDE90401FBF79EFC3E
:1049E8004FEA0B5A0D46002485A3D3E9002320463D
:1049F8002946FBF745FE3246804689463B46204617
:104A08002946FBF789FC02460B46DDE90401FBF762
:104A180083FC7DA3D3E90023FBF732FE7CA3D3E913
:104A2800002306460F4620462946FBF729FE024684
:104A38000B4630463946FBF771FC06460F460246E0
:104A48000B4640464946FBF769FC42464B4604463E
:104A58000D46FBF761FC02460B4630463946FBF72C
:104A68005BFC2246804689462B4620462946FBF7B2
:104A780007FE69A3D3E9002306460F46FBF700FEAD
:104A880067A3D3E90023FBF747FC32463B46FBF715
:104A9800F7FD65A3D3E90023FBF740FC32463B460C
:104AA800FBF7EEFD62A3D3E90023FBF735FC3246A2
:104AB8003B46FBF7E5FD60A3D3E90023FBF72EFC9B
:104AC80032463B46FBF7DCFD02460B4620462946AC
:104AD800FBF722FC06460F4602460B4620462946AF
:104AE800FBF7CEFD0022CDE900014FF080433046B0
:104AF8003946FBF711FC02460B46DDE90001FBF7DE
:104B0800E9FE424606460F464B4620462946FBF735
:104B1800B7FD42464B46FBF701FC02460B463046C2
:104B28003946FBF7F9FB22462B46FBF7F5FB024615
:104B38000B4600204A49FBF7EFFB8A44BAF5801F71
:104B480002460B46C0F23A815146DDE90623FBF7DF
:104B580097FD44E432463B4630463946FBF790FD24
:104B68003DE4B9F1000FBFF6D5ACDDE900341846D5
:104B780004F1004133E43B4B21F00048984540F3F1
:104B88000081394B0B4403430CD132463B46FBF7BB
:104B9800C3FB02460B46DDE90401FBF7EDFF0028E5
:104BA8003FF4F1AEDDE9060125A3D3E90023FBF7C5
:104BB80067FD23A3D3E90023FBF762FD0FE49FED14
:104BC800227B8DED067B83E602460B4600202449B6
:104BD800FBF780FE25E49FED1E7B8DED087B8DEDB8
:104BE8000E7B9FED037B4FF000088DED067BD9E42B
:104BF800000000000000F03FFE822B654715973C3F
:104C080000000000432EE63FEF39FAFE422EE63F51
:104C1800396CA80C615C20BED0A4BE726937663EB0
:104C2800F16BD2C541BDBB3E2CDE25AF6A56113FA4
:104C380093BDBE166CC1663F3E5555555555C53F8B
:104C480059F3F8C21F6EA501000000000000F0BF74
:104C58000000000000000000FFFF8F40FFFF0F0072
:104C68000000F03FFFCB904000346F3F6A4B9C42FE
:104C78007FF74DAC694B9C423FF7F5AB0022674B81
:104C8800FBF74AFB54A3D3E9002304460D46FBF780
:104C9800F7FC53A3D3E900238046894620462946DA
:104CA800FBF7EEFC0022CDE902015D4B20462946C8
:104CB800FBF7E6FC02460B464BA1D1E90001FBF7E6
:104CC8002BFB22462B46FBF7DBFC02460B4600205B
:104CD8005449FBF721FB22462B4606460F46204641
:104CE8002946FBF7CDFC02460B4630463946FBF712
:104CF800C7FC3FA3D3E90023FBF7C2FC02460B46DF
:104D0800DDE90201FBF708FB02460B4604460D46A7
:104D180040464946FBF702FB42464B460020CDE998
:104D28000201FBF7F9FA02460B4620462946FBF733
:104D3800F3FA80468946C1E532463B4600203749AA
:104D4800FBF7C8FDFFF74BBBDDE906012AA3D3E952
:104D58000023FBF795FC28A3D3E90023FBF790FC7D
:104D6800FFF73DBBBEF1000F7FF446ABC3F1140360
:104D780048FA03F202FA03F3984527D0F346FFF7FF
:104D880011BB284B98453FF7FEADDDE9002392465D
:104D9800934628E602460B46FFF7B0BB9FED187B0B
:104DA8008DED087B9FED187B8DED0E7B9FED187BBD
:104DB8004FF480288DED067BFFF7F4BB584643EC93
:104DC800102B01F0DDFD51EC100BBEE602F00102E4
:104DD800C2F1020BFFF7E6BA000000604715F73F83
:104DE80044DF5DF80BAE543E555555555555D53FE6
:104DF800FE822B654715F73F9C7500883CE4377E9B
:104E08000000004003B8E23F06D0CF43EBFD4C3E24
:104E1800000000000000F83FFEFFEF3F0000F03FF9
:104E28000000D03F0000E03F2DE9F04753EC102B85
:104E38009D4923F000478F4290B040F391809B49F1
:104E48008F421C46824629DC002C194610EE100AB7
:104E58008BA3D3E9002340F3B181FBF75DFA944BB0
:104E68009F4204460D4600F0918087A3D3E90023B2
:104E7800FBF752FA02460B46CAE9002320462946A8
:104E8800FBF74AFA80A3D3E90023FBF745FA01258B
:104E9800CAE90201284610B0BDE8F08785498F426B
:104EA80040F3918084498F4265DC3D15A5F2164593
:104EB800A7EB0551104616460F46FBF791FEFBF788
:104EC80079FB8046894642464B4630463946CDE90D
:104ED8000A89FBF721FA0022784BFBF7D1FB8946B8
:104EE8008046FBF77DFEFBF765FB06460F4632461C
:104EF8003B4640464946CDE90C67FBF70DFA0022D0
:104F08006E4BFBF7BDFB00220023CDE90E01FBF73A
:104F18001FFE002800F07081002330463946002229
:104F2800FBF716FE002814BF01230223644A0192EE
:104F380002212A4600910AA8514600F0C5FB002C20
:104F4800054614DADAF80420DAF80C3002F10042E7
:104F580003F100434542CAF80420CAF80C3006E0C1
:104F680080ED000B00250024C0E9024500252846F5
:104F780010B0BDE8F08710EE100A1946FBF7CCF91F
:104F88000025CAE90201CAE90001F0E740A3D3E914
:104F98000023FBF7C1F940A3D3E900230D460446DB
:104FA800FBF7BAF902460B46CAE900232946204610
:104FB800FBF7B2F938A3D3E90023FBF7ADF90125D4
:104FC800CAE90201D3E71AF0C7FB59EC108B10EEBF
:104FD800100A33A3D3E900234946FBF751FB00220B
:104FE800384BFBF79BF9FBF7FBFD0546FBF7E2FAAD
:104FF80023A3D3E90023CDE90601FBF741FB0246D1
:105008000B4640464946FBF787F91FA3D3E900231F
:10501800CDE90201DDE90601FBF732FB1F2D8046D1
:105028008946CDE9048951DC274B6A1E53F82230A2
:105038009F424BD002460B46DDE90201FBF76CF9B3
:1050480080468946CAE9008942464B46DDE90201A5
:10505800FBF762F9DDE90423FBF75EF9002CCAE9E6
:10506800020184DA09F1004401F100436D42CAF8F3
:105078000080CAF80440CAF80800CAF80C3076E77D
:1050880000004054FB21F93F3163621A61B4D03DFE
:105098000000601A61B4D03D7370032E8A19A33BD7
:1050A80083C8C96D305FE43FFB21E93F7BD90240EB
:1050B800FB21F93FFB213941FFFFEF7F00007041E1
:1050C800644E02080000E03FE44D0208DDE90423D5
:1050D800DDE90201FBF720F93F15C1F30A53FB1A7A
:1050E80080468946102BCAE90089ADDD58A3D3E96B
:1050F8000023DDE90601FBF7C3FA8046894602462C
:105108000B46DDE90201FBF707F902460B46DDE92C
:105118000201CDE90823FBF7FFF842464B46FBF7AF
:10512800FBF84DA3D3E9002380468946DDE9060153
:10513800FBF7A6FA42464B46FBF7EEF80B46CDE9DD
:1051480004010246DDE90801FBF7E6F8C1F30A535A
:10515800FF1A80468946312FCAE900896CDD41A3D0
:10516800D3E90023DDE90601FBF78AFADDE90889BE
:1051780006460F4602460B4640464946FBF7CCF822
:1051880002460B4640464946CDE90223FBF7C4F8E0
:1051980032463B46FBF7C0F834A3D3E90023064662
:1051A8000F46DDE90601FBF76BFA32463B46FBF793
:1051B800B3F802460B46CDE904233DE7FBF7AEF80A
:1051C800274B9F4204460D4618D01FA3D3E900235E
:1051D800FBF7A4F802460B46CAE9002329462046F5
:1051E800FBF79AF818A3D3E90023FBF797F84FF0D9
:1051F800FF35CAE90201BAE6032397E614A3D3E907
:105208000023FBF78BF814A3D3E900230D460446CB
:10521800FBF784F802460B46CAE9002329462046D4
:10522800FBF77AF80CA3D3E90023FBF777F84FF0E4
:10523800FF35CAE902019AE69DED087B8DED027BF8
:1052480002E700BFAFF300803163621A61B4D03D5A
:105258000000601A61B4D03D7370032E8A19A33B15
:10526800FB21F93F0000002E8A19A33BC1492025E4
:105278009A837B39000000002DE9F84F57EC106B3A
:10528800654A27F00048904532DC644B002FB4BFD4
:10529800634D644D98454FF0000414DC624B98450B
:1052A80000F385805AA3D3E9002310EE100A39468B
:1052B800FBF734F800225D4BFBF772FC18B347ECA0
:1052C800106BBDE8F88F5A4B984540F39280594BC4
:1052D80098454DDD0133984547D0304639464CA3B3
:1052E800D3E90023FBF7CCF941EC100BBDE8F88FAC
:1052F80010EE102A3B4630463946FBF70FF841ECD2
:10530800100BBDE8F88F47EC106B1AF025FA01F086
:10531800C7F857EC106B32463B4630463946FAF729
:10532800FDFF324682468B463B4630463946FBF700
:10533800A7F90022804689463C4B30463946FAF7A1
:10534800EDFF02460B4640464946FBF7C3FA0246C4
:105358000B4650465946FAF7DFFF22462B46FBF725
:105368008FF941EC100BBDE8F88F334B9E42B4D84F
:1053780047EC106B1AF0F0F900222A4B51EC100B95
:10538800FBF77EF941EC100BFEF7A2FB57EC106B14
:1053980010EE102A3B4620462946FBF771F93246A3
:1053A8003B46FBF76DF941EC100BBDE8F88F1AF09E
:1053B800D3F901F075F8214B984557EC106BAADD2D
:1053C80010EE100A0022194B3946FAF7A7FF0246D9
:1053D8000B4630463946FBF77DFA32463B46FAF72C
:1053E8009DFF22462B46FBF74BF941EC100BBDE81D
:1053F800F88F1AF0B1F9FEF76BFB204653EC102B2F
:105408002946FBF73DF941EC100BBDE8F88F00BFCA
:105418003374AC3C1F7BAC7FFFFFEF7FFFFF354051
:105428000000E0BF0000E03FFFFF2F3E0000F03F1C
:10543800412E8640CD3386407DF8B98FFFFFEF3F80
:105448002DE9F04F57EC106B2DED028BB0EE418A31
:10545800F0EE618A27F00049B9F1795F83B072DA1A
:1054680010EE100A3946FBF7BBFB002800F0F68067
:1054780032463B4630463946FBF702F97CA3D3E96E
:10548800002304460D46FBF7FBF87BA3D3E9002372
:10549800FAF744FF22462B46FBF7F2F878A3D3E944
:1054A8000023FAF739FF22462B46FBF7E9F876A3E3
:1054B800D3E90023FAF732FF22462B46FBF7E0F840
:1054C80073A3D3E90023FAF727FF22462B46FBF7FD
:1054D800D7F871A3D3E90023FAF720FF22462B4619
:1054E800FBF7CEF882468B460022714B20462946B0
:1054F800FBF7C6F85246804689465B462046294651
:10550800FBF7BEF853EC182B04460D4630463946D7
:10551800FBF7B6F802460B4620462946FAF7FCFE8A
:1055280002460B4640464946FAF7F6FE02460B4647
:1055380000206049FAF7F0FE41EC100B03B0BDEC17
:10554800028BBDE8F08F10EE102A10EE100A3B46D1
:105558003946FBF795F846A3D3E9002304460D46E0
:10556800FBF78EF844A3D3E90023FAF7D7FE2246C7
:105578002B46FBF785F842A3D3E90023FAF7CCFEC4
:1055880022462B46FBF77CF83FA3D3E90023FAF722
:10559800C5FE22462B46FBF773F83DA3D3E900234B
:1055A800FAF7BAFE22462B46FBF76AF83AA3D3E984
:1055B8000023FAF7B3FE2B462246FBF761F83E4B71
:1055C800994582468B468FDD3C4B99453DDC002250
:1055D800A9F500130020374990469946FAF79CFE32
:1055E800CDE900010022324B20462946FBF748F856
:1055F80042464B46FAF790FE5246804689465B463D
:1056080020462946FBF73CF853EC182B04460D4678
:1056180030463946FBF734F802460B462046294601
:10562800FAF77AFE02460B4640464946FAF774FEF8
:1056380002460B46DDE90001FAF76EFE41EC100B5D
:1056480003B0BDEC028BBDE8F08F9FED157B4FF0EA
:1056580000088DED007BDFF86890C3E79FED120B23
:1056680003B0BDEC028BBDE8F08F00BFAFF3008044
:10567800D43888BEE9FAA8BDC4B1B4BD9EEE213EB7
:10568800AD529C804F7E923E9015CB19A001FA3EF8
:105698007751C1166CC1563F4C5555555555A53FC8
:1056A800000000000000E73F000000000000F03F9D
:1056B8000000E03F0000F03F3233D33F0000E93FF5
:1056C8000000D23F000000002DE9F04FADF51B7D32
:1056D800A34CA49EA34D54F8264007942646D41EF6
:1056E80085FB0475E417C4EBA50424EAE4741D469D
:1056F8000A93631CA3EB8303013D02EBC3030693E8
:105708002B460B940395651BF418049008911AD442
:105718002C440026002701340DF18808DDF8949206
:1057280008E059F82500FAF745FF0135A542E8E8F1
:10573800020108D0002DF4DA013530463946A54279
:10574800E8E80201F6D1079B002BC0F2EB83079B28
:1057580003F1010B0A9B22A9DB001A4601EB03099E
:105768000093049B0DF5E47A19460AEBCB0B01EB89
:105778000208039B002BC0F20183049C4D460026BF
:10578800002775E90223F4E80201FAF779FF0246D7
:105798000B4630463946FAF7C1FD444506460F46E2
:1057A800EFD1EAE80267DA4509F10809E1D107997A
:1057B8000098049C009101F18043013B9B00204428
:1057C8001A1F83460EA8024403440C920D93009AB4
:1057D8009AA901EBC203002A53E9284529DD0DF5F2
:1057E800E47A0AEBC2080DF1340900225E4B204628
:1057F8002946FAF745FFFBF7F3F9FAF7DBFE002233
:105808005A4B06460F46FAF73BFF02460B46204620
:105818002946FAF781FDFBF7E3F978E9022349F80D
:10582800040F39463046FAF779FDD04504460D464F
:10583800DBD1DDF8189045EC104B484601F0A0F894
:1058480055EC104B00224FF07F5310EE100A2946FA
:10585800FAF716FF41EC100BFCF79AFB002251EC0B
:10586800100B434BFAF70CFF02460B46204629461D
:10587800FAF752FD0D460446FBF7B2F98046FAF7EF
:1058880099FE0B46024629462046FAF745FD4B4647
:10589800002B06460F4640F3FA80009A0EA9013AFB
:1058A800C9F1180351F8225045FA03F101FA03F33C
:1058B8000EA8EB1A40F82230C9F11705884443FABC
:1058C80005F5002D6EDD009B002B08F1010840F363
:1058D80074820E9C002C40F01B83009B012B40F32C
:1058E80094820EAA012352F8044F002C00F08882FB
:1058F800581C0EAAC4F1807442F82340009A8242D0
:1059080019DD0EAA0EAC52F820106FF07F42511A22
:1059180044F820100099023399420CDD1046009A91
:105928000EA901EB830301EB82011A68821A43F87E
:10593800042B8B42F9D1069B002B1BDD069B012B08
:105948004FF0010440F04182009B5A1E0EAB0EA995
:1059580053F82230C3F3160341F8223041E200BF66
:1059680004530208ABAAAA2A0000703E0000704146
:1059780000002040022D15D132463B4600209449B4
:10598800FAF7CAFC06460F4606989FED8D0B00F005
:10599800F7FF3046394653EC102BFAF7BDFC0225C9
:1059A80006460F460022002330463946FBF7D0F85A
:1059B800002800F03B82009A079B501E83420FDCB0
:1059C80002F18043013B0EAA0D9C02EB83030022E7
:1059D80053F80419A34242EA0102F9D1002A67D117
:1059E800079B0EAA013B52F82330002B40F01C8283
:1059F8000C9A012352F8041901330029FAD0009AAD
:105A0800D31802F1010A9A4509933DDC009B0A99D3
:105A18000B9A0B4409990AEB0208994622AB08F144
:105A2800804803EBC9098B18A59A08F1FF3802EBE7
:105A3800880872AA02EBCA0AA59A02EB83030093AC
:105A480058F8040FFAF7B6FD039B002BE9E80201AA
:105A58004FF000064FF0000711DB049C4D4675E936
:105A68000223F4E80201FAF70BFE02460B46304621
:105A78003946FAF753FC5C4506460F46EFD1009BC2
:105A88009845EAE80267DBD1099B00939FE606D1B7
:105A9800009B0EAA013B52F82350ED1511E7002296
:105AA8004C4BFBF773F8002840F07281054679E704
:105AB8000EA9039551F820300699CDF8248018399D
:105AC8000246009006916BB900F18043013B0EA895
