:020000040800F2
:1000000000800120B1D4000801F9000831F800088F
:1000100035F8000839F800083DF800080000000035
:1000200000000000000000000000000005F90008CA
:1000300009F90008000000000DF9000815F9000892
:1000400041F8000845F8000849F800084DF8000894
:1000500051F8000855F800088189010881890108D4
:1000600081890108818901088189010859F80008FE
:100070005DF8000861F8000865F8000869F80008F4
:100080006DF8000871F8000875F8000879F80008A4
:100090007DF8000881F8000885F8000881890108CA
:1000A000818901082DE10008818901088189010801
:1000B00035E100083DE1000845E100088537010809
:1000C000913701089D370108A937010889F8000810
:1000D0008DF800088189010881890108818901085A
:1000E0008189010891F8000895F8000899F800083E
:1000F000818901089DF8000881890108A1F800089C
:10010000A5F80008A9F800084DE10008ADF80008BE
:100110008189010881890108818901088189010893
:10012000B1F80008B5F80008B9F80008BDF80008F3
:10013000C1F80008C5F80008C9F80008CDF80008A3
:10014000D1F80008D5F80008D9F80008115F0108B7
:10015000DDF80008E1F8000881890108E5F80008E9
:10016000B5370108C1370108E9F80008EDF80008C3
:10017000F1F80008F5F80008000000000000000099
:08018000F9F80008FDF8000881
:1001880010B5054C237833B9044B13B10448AFF3C9
:1001980000800123237010BD080400200000000027
:1001A8004C9401080C4B43B10C480D4910B5AFF302
:1001B80000800C48036823B910BD0A48036833B9A6
:1001C8007047094B002BF7D0BDE810401847064B85
:1001D800002BF5D0184700BF000000004C94010820
:1001E8000C0400200404002000000000002815D0A2
:1001F800006041608260C360046145618661C761D7
:10020800444604624C464462544684625C46C46276
:10021800644604636E46466374468463002906D0C8
:10022800C46B043C043925680D60B442F9D1946B61
:10023800A646566BB546002B06D0D46B043C043B4F
:100248001D682560B442F9D1146BA446D46AA3464C
:10025800946AA246546AA146146AA046D769966968
:1002680055691469D36851681068926870470060CE
:1002780041608260C360046145618661C76144462C
:1002880004624C464462544684625C46C4626446D6
:1002980004636E46466374468463C46B043C043945
:1002A80025680D60B442F9D1C76986694569046952
:1002B8007047006041608260C36004614561866187
:1002C800C761444604624C464462544684625C46B4
:1002D800C462644604636C46446374468463046978
:1002E8007047846BA646446BA546046BA446C46A53
:1002F800A346846AA246446AA146046AA046C7691E
:10030800866945690469C3688268006841687047FE
:1003180081F0004102E000BF83F0004330B54FEAAE
:1003280041044FEA430594EA050F08BF90EA020F1B
:100338001FBF54EA000C55EA020C7FEA645C7FEAAE
:10034800655C00F0E2804FEA5454D4EB5555B8BFD1
:100358006D420CDD2C4480EA020281EA030382EA42
:10036800000083EA010180EA020281EA0303362DD4
:1003780088BF30BD11F0004F4FEA01314FF4801CA7
:100388004CEA113102D0404261EB410113F0004FB9
:100398004FEA03334CEA133302D0524263EB430370
:1003A80094EA050F00F0A780A4F10104D5F1200E0E
:1003B8000DDB02FA0EFC22FA05F2801841F1000169
:1003C80003FA0EF2801843FA05F359410EE0A5F13D
:1003D80020050EF1200E012A03FA0EFC28BF4CF06E
:1003E800020C43FA05F3C01851EBE37101F0004524
:1003F80007D54FF0000EDCF1000C7EEB00006EEB31
:100408000101B1F5801F1BD3B1F5001F0CD34908BA
:100418005FEA30004FEA3C0C04F101044FEA445211
:1004280012F5800F80F09A80BCF1004F08BF5FEA98
:10043800500C50F1000041EB045141EA050130BD78
:100448005FEA4C0C404141EB010111F4801FA4F11B
:100458000104E9D191F0000F04BF01460020B1FA70
:1004680081F308BF2033A3F10B03B3F120020CDAA8
:100478000C3208DD02F1140CC2F10C0201FA0CF086
:1004880021FA02F10CE002F11402D8BFC2F1200CEB
:1004980001FA02F120FA0CFCDCBF41EA0C019040A1
:1004A800E41AA2BF01EB0451294330BD6FEA0404EA
:1004B8001F3C1CDA0C340EDC04F11404C4F12002D5
:1004C80020FA04F001FA02F340EA030021FA04F3E7
:1004D80045EA030130BDC4F10C04C4F1200220FA3E
:1004E80002F001FA04F340EA0300294630BD21FA7C
:1004F80004F0294630BD94F0000F83F4801306BF42
:1005080081F480110134013D4EE77FEA645C18BF35
:100518007FEA655C29D094EA050F08BF90EA020FCC
:1005280005D054EA000C04BF1946104630BD91EAC4
:10053800030F1EBF0021002030BD5FEA545C05D1C7
:100548004000494128BF41F0004130BD14F5800406
:100558003CBF01F5801130BD01F0004545F0FE417A
:1005680041F470014FF0000030BD7FEA645C1ABFAF
:10057800194610467FEA655C1CBF0B46024650EAE6
:10058800013406BF52EA033591EA030F41F4002112
:1005980030BD00BF90F0000F04BF0021704730B598
:1005A8004FF4806404F132044FF000054FF000016D
:1005B80050E700BF90F0000F04BF0021704730B52E
:1005C8004FF4806404F1320410F0004548BF404203
:1005D8004FF000013EE700BF42004FEAE2014FEA58
:1005E80031014FEA02701FBF12F07F4393F07F4F33
:1005F80081F06051704792F0000F14BF93F07F4F65
:10060800704730B54FF4607401F0004521F00041A7
:1006180020E700BF50EA010208BF704730B54FF02D
:1006280000050AE050EA010208BF704730B511F032
:10063800004502D5404261EB41014FF4806404F16A
:1006480032045FEA915C3FF4DCAE4FF003025FEAEC
:10065800DC0C18BF03325FEADC0C18BF033202EB74
:10066800DC02C2F1200300FA03FC20FA02F001FACE
:1006780003FE40EA0E0021FA02F11444C1E600BF6D
:1006880070B54FF0FF0C4CF4E06C1CEA11541DBF20
:100698001CEA135594EA0C0F95EA0C0F00F0DEF8EB
:1006A8002C4481EA030621EA4C5123EA4C5350EAD0
:1006B800013518BF52EA033541F4801143F4801321
:1006C80038D0A0FB02CE4FF00005E1FB02E506F0B2
:1006D8000042E0FB03E54FF00006E1FB03569CF007
:1006E800000F18BF4EF0010EA4F1FF04B6F5007F0D
:1006F80064F5407404D25FEA4E0E6D4146EB06067F
:1007080042EAC62141EA55514FEAC52040EA5E5007
:100718004FEACE2EB4F1FD0C88BFBCF5E06F1ED8B1
:10072800BEF1004F08BF5FEA500E50F1000041EBE8
:10073800045170BD06F0004646EA010140EA020095
:1007480081EA0301B4EB5C04C2BFD4EB0C0541EAB7
:10075800045170BD41F480114FF0000E013C00F3CC
:10076800AB8014F1360FDEBF002001F0004170BDF0
:10077800C4F10004203C35DA0C341BDC04F1140409
:10078800C4F1200500FA05F320FA04F001FA05F295
:1007980040EA020001F0004221F0004110EBD37062
:1007A80021FA04F642EB06015EEA430E08BF20EA8E
:1007B800D37070BDC4F10C04C4F1200500FA04F331
:1007C80020FA05F001FA04F240EA020001F00041C3
:1007D80010EBD37041F100015EEA430E08BF20EA36
:1007E800D37070BDC4F1200500FA05F24EEA020E7E
:1007F80020FA04F301FA05F243EA020321FA04F0AD
:1008080001F0004121FA04F220EA020000EBD37063
:100818005EEA430E08BF20EAD37070BD94F0000F63
:100828000FD101F00046400041EB010111F4801F97
:1008380008BF013CF7D041EA060195F0000F18BF48
:10084800704703F00046520043EB030313F4801F84
:1008580008BF013DF7D043EA0603704794EA0C0F3E
:100868000CEA135518BF95EA0C0F0CD050EA410654
:1008780018BF52EA4306D1D181EA030101F00041D1
:100888004FF0000070BD50EA410606BF10461946F9
:1008980052EA430619D094EA0C0F02D150EA013605
:1008A80013D195EA0C0F05D152EA03361CBF104646
:1008B80019460AD181EA030101F0004141F0FE41E5
:1008C80041F470014FF0000070BD41F0FE4141F469
:1008D800780170BD70B54FF0FF0C4CF4E06C1CEA69
:1008E80011541DBF1CEA135594EA0C0F95EA0C0F1E
:1008F80000F0A7F8A4EB050481EA030E52EA0335D9
:100908004FEA013100F088804FEA03334FF08055F9
:1009180045EA131343EA12634FEA022245EA111526
:1009280045EA10654FEA00260EF000419D4208BFD7
:10093800964244F1FD0404F5407402D25B084FEA84
:100948003202B61A65EB03055B084FEA32024FF430
:1009580080104FF4002CB6EB020E75EB030E22BF8D
:10096800B61A754640EA0C005B084FEA3202B6EB4D
:10097800020E75EB030E22BFB61A754640EA5C00FC
:100988005B084FEA3202B6EB020E75EB030E22BF8C
:10099800B61A754640EA9C005B084FEA3202B6EB8D
:1009A800020E75EB030E22BFB61A754640EADC004C
:1009B80055EA060E18D04FEA051545EA16754FEAAE
:1009C80006164FEAC30343EA52734FEAC2025FEACC
:1009D8001C1CC0D111F4801F0BD141EA00014FF05B
:1009E80000004FF0004CB6E711F4801F04BF01432C
:1009F8000020B4F1FD0C88BFBCF5E06F3FF6AFAE48
:100A0800B5EB030C04BFB6EB020C5FEA500C50F1D7
:100A1800000041EB045170BD0EF0004E4EEA11315A
:100A280014EB5C04C2BFD4EB0C0541EA045170BD61
:100A380041F480114FF0000E013C90E645EA060EA5
:100A48008DE60CEA135594EA0C0F08BF95EA0C0FD3
:100A58003FF43BAF94EA0C0F0AD150EA01347FF41B
:100A680034AF95EA0C0F7FF425AF104619462CE7F2
:100A780095EA0C0F06D152EA03353FF4FDAE104655
:100A8800194622E750EA410618BF52EA43067FF4A6
:100A9800C5AE50EA41047FF40DAF52EA43057FF436
:100AA800EBAE12E74FF0FF3C06E000BF4FF0010C41
:100AB80002E000BF4FF0010C4DF804CD4FEA410CA5
:100AC8007FEA6C5C4FEA430C18BF7FEA6C5C1BD072
:100AD80001B050EA410C0CBF52EA430C91EA030FF3
:100AE80002BF90EA020F0020704710F1000F91EA50
:100AF800030F58BF994208BF90422CBFD8176FEA1E
:100B0800E37040F0010070474FEA410C7FEA6C5CEB
:100B180002D150EA013C07D14FEA430C7FEA6C5CF2
:100B2800D6D152EA033CD3D05DF8040B704700BF1E
:100B38008446104662468C461946634600E000BF6C
:100B480001B5FFF7B7FF002848BF10F1000F01BD3E
:100B58004DF808EDFFF7F4FF0CBF012000205DF809
:100B680008FB00BF4DF808EDFFF7EAFF34BF01208E
:100B780000205DF808FB00BF4DF808EDFFF7E0FF27
:100B880094BF012000205DF808FB00BF4DF808ED78
:100B9800FFF7CEFF94BF012000205DF808FB00BFDF
:100BA8004DF808EDFFF7C4FF34BF012000205DF8C1
:100BB80008FB00BF4FEA410C7FEA6C5C02D150EAA7
:100BC800013C0AD14FEA430C7FEA6C5C02D152EA3D
:100BD800033C02D14FF0000070474FF0010070470E
:100BE8004FEA410212F5001215D211D56FF478734D
:100BF800B3EB625212D94FEAC12343F0004343EAF0
:100C0800505311F0004F23FA02F018BF40427047CA
:100C18004FF00000704750EA013005D111F0004054
:100C280008BF6FF0004070474FF00000704700BFEA
:100C38004A0011D212F5001211D20DD56FF4787353
:100C4800B3EB62520ED44FEAC12343F0004343EAA8
:100C5800505323FA02F070474FF00000704750EAF3
:100C6800013002D14FF0FF3070474FF0000070475D
:100C78004FEA4102B2F1E04324BFB3F5001CDCF1B6
:100C8800FE5C0DD901F0004C4FEAC0024CEA5070EE
:100C9800B2F1004F40EB830008BF20F0010070471D
:100CA80011F0804F21D113F13872BCBF01F0004020
:100CB800704741F480114FEA5252C2F11802C2F152
:100CC800200C10FA0CF320FA02F018BF40F00100D3
:100CD8004FEAC1234FEAD32303FA0CFC40EA0C0085
:100CE80023FA02F34FEA4303CCE77FEA625307D1C2
:100CF80050EA01331EBF4FF0FE4040F440007047F9
:100D080001F0004040F0FE4040F40000704700BF92
:100D180053B94AB9002908BF00281CBF4FF0FF315A
:100D28004FF0FF3000F0DAB9ADF1080C6DE904CEF0
:100D380000F066F8DDF804E0DDE9022304B070474E
:100D48002DE9F84380EAE074A4EBE074E20757EC7D
:100D5800106B58BFDFF85C90054652BF4FF0000893
:100D6800B046B946640832463B463046394613D049
:100D7800FFF786FCE30706460F46F3D5404649468B
:100D880032463B46FFF77CFC64088046894632467B
:100D98003B4630463946EBD1002D07DA42464B46F2
:100DA80000200449FFF796FD8046894649EC108BE0
:100DB800BDE8F8830000F03FD0B500220E4B064690
:100DC8000F46FFF75DFCFFF733FF0446FFF7E2FB32
:100DD80000220A4BFFF754FC02460B4630463946C0
:100DE800FFF79AFAFFF724FF2346002242EA00029F
:100DF80010461946D0BD00BF0000F03D0000F0418C
:100E08002DE9F0478C460D460446089E002B51D12B
:100E18008A4217466DD9B2FA82FEBEF1000F0BD096
:100E2800CEF1200C01FA0EF520FA0CFC02FA0EF7AE
:100E38004CEA050C00FA0EF44FEA174A250CBCFBE5
:100E4800FAF81FFA87F90AFB18CC45EA0C4508FBA3
:100E580009F3AB420AD9ED1908F1FF3280F023817A
:100E6800AB4240F22081A8F102083D44ED1AA4B239
:100E7800B5FBFAF00AFB105544EA054400FB09F9F2
:100E8800A14509D9E41900F1FF3380F00A81A14591
:100E980040F2078102383C44A4EB090440EA0840C8
:100EA8000021002E61D024FA0EF400233460736010
:100EB800BDE8F0878B4207D9002E54D0002186E880
:100EC80021000846BDE8F087B3FA83F1002940F015
:100ED8008E80AB4202D3824200F2FA80841A65EB1C
:100EE80003050120AC46002E3FD086E81010BDE86F
:100EF800F08712B90127B7FBF2F7B7FA87FEBEF100
:100F0800000F34D1EB1B3A0C1FFA87FC0121B3FB0D
:100F1800F2F8250C02FB183345EA03450CFB08F3ED
:100F2800AB4207D9ED1908F1FF3002D2AB4200F20B
:100F3800D1808046ED1AA3B2B5FBF2F002FB105542
:100F480043EA05440CFB00FCA44507D9E41900F169
:100F5800FF3302D2A44500F2B8801846A4EB0C0473
:100F680040EA08409DE731463046BDE8F087CEF1BB
:100F7800200405FA0EF307FA0EF720FA04F83A0CE3
:100F880025FA04F448EA0308B4FBF2F14FEA1845DD
:100F980002FB11441FFA87FC45EA044501FB0CF3E8
:100FA800AB4200FA0EF409D9ED1901F1FF3080F0D7
:100FB8008A80AB4240F2878002393D44EB1A1FFA1F
:100FC80088F5B3FBF2F002FB103345EA034500FB5A
:100FD8000CF3AB4207D9ED1900F1FF386FD2AB42E1
:100FE8006DD902383D44EB1A40EA01418FE7C1F15F
:100FF800200722FA07F88B4005FA01F448EA0303B0
:1010080020FA07FE4FEA134CFD404EEA040EB5FBEA
:10101800FCF94FEA1E440CFB19551FFA83F844EA01
:10102800054509FB08F4AC4202FA01F200FA01FA9C
:1010380008D9ED1809F1FF3043D2AC4241D9A9F1E2
:1010480002091D442D1B1FFA8EFEB5FBFCF00CFB9C
:1010580010554EEA054400FB08F8A04507D9E418E6
:1010680000F1FF3529D2A04527D902381C4440EAAF
:101078000940A4EB0804A0FB02894C45C6464D462E
:1010880015D312D056B1BAEB0E0364EB050404FA7B
:1010980007F7CB401F43CC40376074600021BDE8A0
:1010A800F0871846F8E69046E0E6C245EAD2B8EB83
:1010B800020E69EB03050138E4E72846D7E7404606
:1010C80091E78146BEE7014678E702383C4445E7A8
:1010D800084608E7A8F102083D442BE7704700BF1F
:1010E800034613F8012B002AFBD1181A0138704760
:1010F8002DE9F04F85B003910778A7F10903042B78
:10110800044607F07F0200F10100F5D9202AF3D048
:101118002B2F04BF677804462D2F71D09FED407B9D
:101128008DED007B4FF000084FF000098FB34FF0B2
:10113800000E4FF0000ADFF800B1754619E0FFF71E
:101148009FFA804689463046FFF734FA42464B46B6
:10115800FFF7E4F85246804689465B46DDE9000120
:1011680035B3FFF7B7FBCDE90001AE4614F8017FB0
:101178007FB1A7F13006092E52465B4640464946E4
:10118800DDD9C5B92E2F16D114F8017F0125002FFE
:10119800EFD142464B46DDE90001FFF771FA804680
:1011A8008946039B49EC108B1C6005B0BDE8F08FA5
:1011B8004FF0010EDAE7BEF1000F28D042464B4649
:1011C800DDE90001FFF75CFA07F0DF07452F8046ED
:1011D8008946E6D103990A22601C17F04FFB9FED60
:1011E800120BFFF7ADFD404653EC102B4946FFF7B5
:1011F80047FA8046894649EC108B05B0BDE8F08F68
:101208009FED0B7B67788DED007B01348AE7DFF873
:101218002C904FF0000849EC108B05B0BDE8F08F1A
:10122800000000000000F03F000000000000244023
:10123800000000000000F0BF000024400000F87F1C
:1012480000B52DED028B83B006F064F901A9FFF714
:101258004FFF0022002351EC100BB0EE408AF0EE55
:10126800608AFFF775FC40B9B0EE480AF0EE680AEC
:1012780006F024FD08B99FED068BB0EE480AF0EEA3
:10128800680A06F091FF03B0BDEC028B5DF804FB21
:10129800000000000000F87F2DE9F84F55EC104BD6
:1012A80006460022002310EE100A2946FFF75AFCD2
:1012B800002840F09F800022002320462946FFF79F
:1012C80047FC28B13022002332707370BDE8F88FD4
:1012D80045EC104B16F050FC51EC100BFFF780FC5E
:1012E8007BA3D3E90023814629462046FFF73AFC31
:1012F800002800F08680B9F1000FC0F2BE80484691
:101308009FED6D0BFFF71CFD2046294653EC102B73
:10131800FFF7E0FA04460D466FA1D1E90001012765
:101328004FF0000822462B46FFF7AAF90022664B29
:10133800FEF7F4FFFFF740FD002FCC464FF0FF3AD1
:10134800C1464FF0000840F38580DFF894E15F4C18
:101358000122AEF1700945F6F3254FF02E0BA94294
:1013680008BFA0424FF0300309D3001B61EB050111
:10137800A94208BFA04203F10103F6D2DBB23370E1
:1013880050EA010306F1010409D1BA4210DACE4548
:1013980002F101020CD026467EE80245DFE7BA4298
:1013A80004BF86F801B0B41CCE4502F10102F2D1A7
:1013B800B8F1000F0DD02246302102F8011BC2F10E
:1013C800010353442344002BF7DC2AEAEA73013370
:1013D8001C44BCF1010F4CD06523BCF1000F2370F5
:1013E800C5BF2B236370611CA11C6046BDE8F84F84
:1013F8000AF028BA05F100431D462D233370013643
:1014080059E72FA3D3E9002320462946FFF7C8FB55
:1014180000287FF470AFB9F10E0F09F101073DDD27
:10142800A9F10E0840469FED240BFFF789FC2046E2
:1014380053EC102B2946FFF74DFA0022224BFEF7FA
:101448006DFFFFF7B9FC002FA9F10F0A4FF0010C4F
:101458003FF77BAF334630222E2403F8022B7470FB
:101468007FEA090618D01E4403F8012BB342FBD1CA
:101478006BE700232370BDE8F88FC9F100009FEDEA
:101488000E0BFFF75DFC2046294653EC102BFFF7A7
:10149800F7F804460D463FE71E4656E7C9F10E0029
:1014A8009FED050BFFF74CFCC84651EC100B4FF0B5
:1014B800010937E7AFF30080000000000000244076
:1014C80050EFE2D6E41A4B440000E03F00407A10A7
:1014D8008DEDB5A0F7C6B03E0000901EC4BCD64244
:1014E800C89801080000000070B54FF0FF3006F002
:1014F8005FFD04466FF07F4006F05AFD0646204621
:10150800FFF748F800220E4BFFF7BAF804463046BA
:101518000D46FFF73FF808A3D3E90023FFF7DAF9F0
:1015280002460B4620462946FEF7F8FE41EC100B12
:1015380070BD00BFAFF300800000E0DFFFFF6F4326
:101548000000F03D0000000038B52DED028B044688
:1015580006F0F4FBC8B9204606F0FAFB30B1A3093F
:1015680014BF01200020BDEC028B38BD4CB12046D1
:1015780007F008F8B0EE408AF0EE608A06F09EFBAD
:1015880048B9BDEC028B002038BD204606F0F6FBBA
:10159800BDEC028B38BDB0EE480AF0EE680A16F0D2
:1015A80037F89FED0F1B16F0FDF955EC104B002294
:1015B800002310EE100A2946FFF7D4FA20B9204676
:1015C8002946FFF735FBCEE7204629460022064B81
:1015D800FEF7A4FE04460D46F1E700BFAFF3008016
:1015E800000000000000F0410000F0410000000091
:1015F8002DE9704355EC104B554A25F000439342B2
:1016080058DC544A93422E4613DC4DA3D3E90023F9
:1016180010EE100A2946FEF781FE00224E4BFFF716
:10162800BFFA00285DD02046294641EC100BBDE8E2
:1016380070834A4A934248DCB3F1804F51DD15F07C
:1016480053FF22462B462046294659EC108BFFF7BC
:1016580017F80022404BFEF761FE41EC100B16F024
:1016680005FD404653EC102B4946FEF757FE02464F
:101678000B4600203849FFF72DF9424604460D462F
:101688004B4640464946FEF749FE02460B46204671
:101698002946FEF743FE41EC100B02F03DFA51ECEF
:1016A800100B002E0DDC01F10043194641EC100B24
:1016B800BDE8708310EE102A2B4620462946FEF717
:1016C8002DFE41EC100BBDE8708315F00DFF02F004
:1016D80023FA1DA3D3E9002351EC100BFEF71EFEDD
:1016E800DFE722462B4620462946FEF7C9FF45EC90
:1016F800104B8046894615F0F7FE0022164B4046EF
:10170800494655EC104BFEF709FE41EC100B16F05C
:10171800ADFC002251EC100B0F4BFEF7FFFD02460B
:101728000B4640464946FFF7D5F822462B46FEF7BA
:10173800F5FD41EC100B00F04BFB51EC100BB0E742
:101748009C7500883CE4377EEF39FAFE422EE63F6E
:10175800FFFFEF7FFFFF2F3E0000F03F0000B0418A
:101768002DE9F84F55EC104BCD4B25F000469E4225
:10177800AA4610DDCB4B9E4200F3B38000F0AE804A
:10178800BAF1000F40F3F780A9A1D1E9000141ECBB
:10179800100BBDE8F88FC44B9E4200F3C180A3F143
:1017A800DE739E4240F3A7804FF0FF3B22462B4654
:1017B80020462946FEF764FF02460B4680468946C6
:1017C800FEF75EFF9CA3D3E9002306460F46FEF70B
:1017D80057FF9BA3D3E90023FEF7A0FD32463B4603
:1017E800FEF74EFF98A3D3E90023FEF797FD324694
:1017F8003B46FEF745FF96A3D3E90023FEF78EFD8F
:1018080032463B46FEF73CFF93A3D3E90023FEF79D
:1018180085FD32463B46FEF733FF91A3D3E900230B
:10182800FEF77CFD42464B46FEF72AFF8EA3D3E91E
:1018380000238046894630463946FEF721FF8CA3AF
:10184800D3E90023FEF768FD32463B46FEF718FF52
:1018580089A3D3E90023FEF75FFD32463B46FEF736
:101868000FFF87A3D3E90023FEF756FD32463B4618
:10187800FEF706FF84A3D3E90023FEF74DFD3246A9
:101888003B46FEF7FDFEBBF1FF3F02460B4676D016
:1018980040464946FEF742FD22462B46FEF7F0FE3B
:1018A800824E834B4FEACB0B5E449B44DBE900231B
:1018B800FEF732FD22462B46FEF72EFD02460B466A
:1018C800D6E90001FEF728FDBAF1000F0FDA01F1A1
:1018D8000043194641EC100BBDE8F88F002C3FF48B
:1018E8004FAF22462B4620462946FEF717FD41EC0E
:1018F800100BBDE8F88F66A3D3E9002310EE100A99
:101908002946FEF70BFD00226A4BFFF749F900282C
:101918003FF44AAF2046294641EC100BBDE8F88F4A
:1019280015F0E2FD644B9E4255EC104B36DCA3F5F6
:1019380050239E425FDC10EE102A10EE100A2B4650
:101948002946FEF7EBFC00225A4BFEF7E5FC002285
:1019580006460F464FF0804320462946FEF7DEFC38
:1019680002460B4630463946FEF7B4FF4FF0000BEF
:1019780004460D461AE748A1D1E90001B7E74046F9
:101988004946FEF7CBFC22462B46FEF779FE024677
:101998000B4620462946FEF7BFFCA8E7474B9E4268
:1019A8001DDC10EE100A0022454B2946FEF7B4FC58
:1019B800002206460F46424B20462946FEF760FEA7
:1019C80000223C4BFEF7AAFC02460B46304639463D
:1019D800FEF780FF4FF0020B04460D46E6E62B4665
:1019E80010EE102A00203749FEF774FF4FF0030B62
:1019F80004460D46DAE610EE100A00222D4B294661
:101A0800FEF78AFC002206460F462A4B2046294646
:101A1800FEF784FC02460B4630463946FEF75AFF6D
:101A28004FF0010B04460D46C0E600BFAFF300803F
:101A3800182D4454FB21F93F11DA22E33AAD903FC7
:101A4800EB0D76244B7BA93F513DD0A0660DB13FED
:101A58006E204CC5CD45B73FFF8300922449C23F55
:101A68000D5555555555D53F2F6C6A2C44B4A2BF1A
:101A78009AFDDE522DDEAD3F6D9A74AFF2B0B33FE2
:101A8800711623FEC671BC3FC4EB98999999C93F5A
:101A98009C7500883CE4377E182D4454FB21F9BF1F
:101AA800FFFF0F440000F07FFFFFDB3FD8980108DD
:101AB800F89801080000F03FFFFFF23FFF7F034066
:101AC8000000F83F0000F0BF51EC100B2DE9F8437F
:101AD800C1F30A59A9F2FF35132D0C4610EE106A0E
:101AE800884610EE107A22DC002D52DB3E4B43FA7A
:101AF80005F901EA090303431ED039A3D3E90023FA
:101B0800FEF70CFC00220023FFF74AF848B1002C2E
:101B180004DD4FF4801343FA05F5A84428EA0904C4
:101B2800002723463A4643EC102BBDE8F883332DB3
:101B380006DDB5F5806F3FD041EC100BBDE8F883AA
:101B4800A9F213494FF0FF3323FA09F910EA090FF4
:101B5800F2D023A3D3E90023FEF7E0FB0022002301
:101B6800FFF71EF80028DCD0002C09DD142D32D038
:101B78000127C5F1340507FA05F5AE1928BFB844A1
:101B8800444626EA090723463A4643EC102BBDE8AB
:101B9800F88313A3D3E90023FEF7C0FB0022002338
:101BA800FEF7FEFF0028BCD0002C10DB54EA060725
:101BB8000BD000270D4CB4E710EE102A0B46FEF7A9
:101BC800ADFB41EC100BBDE8F8833C46A9E70027C4
:101BD8004FF00044A5E704F10108D1E7AFF3008016
:101BE8009C7500883CE4377EFFFF0F000000F03F43
:101BF80000B551EC100B2C4A21F00043934285B0FC
:101C080020DD2A4A934209DD10EE102A0B46FEF722
:101C180083FB41EC100B05B05DF804FB684602F04D
:101C280093FF00F00300012828D0022815D060B3E4
:101C380001209DED021B9DED000B04F00DF851EC09
:101C4800100BE6E79FED161B03F08AFA51EC100B18
:101C580041EC100B05B05DF804FB9DED021B9DEDFA
:101C6800000B03F07DFA53EC102B10EE100A03F171
:101C7800004141EC100B05B05DF804FB9DED021B23
:101C88009DED000B03F0E8FFEDE79DED021B9DEDD8
:101C9800000B03F065FA51EC100BBAE7AFF30080C4
:101CA8000000000000000000FB21E93FFFFFEF7F7C
:101CB80051EC100BC1F30A532DE9F041A3F2FF35A3
:101CC800132D0C460F4610EE106A1DDC002D43DB69
:101CD8003D4B43FA05F801EA0803034319D038A33A
:101CE800D3E90023FEF71AFB00220023FEF758FF72
:101CF80020B1002C49DB27EA080400262346324697
:101D080043EC102BBDE8F081332D06DDB5F5806F6F
:101D180032D041EC100BBDE8F081A3F213434FF031
:101D2800FF3828FA03F810EA080FF2D024A3D3E901
:101D38000023FEF7F3FA00220023FEF731FF002804
:101D4800DCD0002C27DB3C4626EA08062346324630
:101D580043EC102BBDE8F08119A3D3E90023FEF76B
:101D6800DDFA00220023FEF71BFF0028C6D0002C56
:101D78001CDB00263446C1E710EE102A0B46FEF79E
:101D8800CDFA41EC100BBDE8F0814FF4801343FA13
:101D980005F52F44AFE7142D10D00123C5F1340504
:101DA80003FA05F5AE1928BFFF18CCE724F0004266
:101DB800064B324318BF1C4600269FE70137C2E78F
:101DC8009C7500883CE4377EFFFF0F000000F0BFE1
:101DD8002DE9F04FDA4B59EC108B994587B04E46F8
:101DE80019DCD84B29F000449C4222DD0022D64B56
:101DF80010EE100A4946FEF7ABFE002800F081807D
:101E0800002200230020D149FEF764FD41EC100BAD
:101E180007B0BDE8F08FCE4B994534DD42464B46BE
:101E280040464946FEF77AFA41EC100B07B0BDE888
:101E3800F08FC84B9C4273DDC74B1E449E4200F294
:101E480084800022C54B40464946FEF767FA4FEAB0
:101E5800215AAAF2FF3ABAF1000F04460D460E467F
:101E680040F3EE8142464B46FEF756FA02460B46D1
:101E78000020BA49FEF750FA22462B46FEF72AFD03
:101E8800CDE902010BE0B64B9E42DADD9FED967B71
:101E98008DED027B4FEA265A4446AAF2FF3AB14B2F
:101EA800C6F313069E4246F07F5500F3F18045F4D1
:101EB8004015204629460022A84BFEF72DFA00229D
:101EC80004460D46A84BFEF7DBFB22462B46FEF7E1
:101ED800D7FBA046CDE90401A946CDE90001002EB3
:101EE80042D10022002320462946FEF731FE002871
:101EF80000F0D880BAF1000F40F082819FED7A0B94
:101F080094E742464B4640463146FEF705FA0246FC
:101F18000B46FEF7DFFC41EC100B07B0BDE8F08F75
:101F28000022924B10EE100A4946FEF7F7F90022FC
:101F38000023FEF735FE002800F01C818C4B9C42E4
:101F480000F3188149EC108B70E70022864B10EEE5
:101F5800100A4946FEF794FB42464B46FEF790FBB3
:101F6800CDE900014FF0000A00224FF080434046BF
:101F78004946FEF7D3F902460B4640464946FEF766
:101F8800A9FC02460B4606460F46FEF779FB58A306
:101F9800D3E9002304460D46FEF772FB56A3D3E9A6
:101FA8000023FEF7BBF922462B46FEF769FB54A334
:101FB800D3E90023FEF7B2F922462B46FEF760FB71
:101FC80051A3D3E90023FEF7A9F922462B46FEF7D1
:101FD80057FB4FA3D3E90023FEF7A0F922462B466F
:101FE800FEF74EFB4CA3D3E90023FEF797F92246F0
:101FF8002B46FEF745FB4AA3D3E90023FEF78EF9EB
:1020080022462B46FEF73CFB04460D46BAF1000F6C
:1020180000F0C5805046FEF7CDFA43A3D3E900236C
:1020280082468B46FEF72CFBDDE90023CDE904014F
:1020380020462946FEF772F932463B46FEF720FB5A
:102048003BA3D3E9002304460D4650465946FEF704
:1020580017FBDDE90223FEF761F902460B4620462D
:102068002946FEF75BF902460B46DDE90001FEF75B
:1020780053F942464B46FEF74FF902460B46DDE957
:102088000401FEF749F941EC100B07B0BDE8F08FE9
:1020980045F40015C6F5801620462946B6100AF103
:1020A800010A08E724A3D3E9002320462946FEF7BE
:1020B800E7FA02460B4600202849FEF72DF9DDE92C
:1020C8000423FEF7DDFA06460F46BAF1000F77D172
:1020D80002460B4620462946FEF71EF941EC100B36
:1020E800A4E600BFAFF3008000000000000000007D
:1020F80044523EDF12F1C23F9FC678D0099AC33FCF
:10210800DE03CB966446C73FAF788E1DC571CC3FC2
:10211800599322942449D23F04FA97999999D93F1F
:10212800935555555555E53F0000E0FE422EE63FD4
:10213800763C7935EF39EA3D555555555555E53FC6
:102148007982DA3FFFFFEF3F0000F0BF000050C385
:10215800FFFFEF7FFFFF1F3E3C412D400000F03F97
:10216800FFFF3F439DA006000000E03F00005043F2
:10217800FFFF8F3C42464B4640464946FEF780FAF1
:102188000022394BFEF77CFA02460B464046494688
:10219800FEF7C2F841EC100B07B0BDE8F08FDDE99F
:1021A800004522462B46FEF7B9F832463B46FEF775
:1021B80067FA02460B4620462946FEF7ADF8E3E7E4
:1021C8005046FEF7F7F924A3D3E9002382468B464D
:1021D800FEF756FA22A3D3E90023804689465046E3
:1021E8005946FEF74DFADDE90223FEF797F8024655
:1021F8000B4630463946FEF78FF822462B46DCE779
:102208005046FEF7D7F916A3D3E9002306460F4632
:10221800FEF736FADDE90223FEF780F80EA3D3E9CC
:10222800002304460D4630463946FEF729FA024691
:102238000B4620462946FEF771F841EC100BF5E5F0
:1022480000220A4BFEF768F802460B46404649460C
:10225800FEF762F810E600BF0000E0FE422EE63FFF
:10226800763C7935EF39EA3D0000E03F0000F03F69
:1022780008B515F0FDFB06A3D3E9002351EC100BBC
:10228800FEF728FB41EC100B08BD00BFAFF3008040
:10229800EF39FAFE422EE63F00B551EC100B2C4AFE
:1022A80021F00043934285B027DD2A4A934209DD95
:1022B80010EE102A0B46FEF72FF841EC100B05B074
:1022C8005DF804FB684602F03FFC00F003000128BB
:1022D80027D002281DD068B39DED021B9DED000B91
:1022E80002F03EFF53EC102B10EE100A03F10041F0
:1022F80041EC100B05B05DF804FB00209FED121BAC
:1023080003F0AAFC51EC100B41EC100B05B05DF882
:1023180004FB01209DED021B9DED000B03F09CFCCE
:10232800E0E79DED021B9DED000B02F019FF51EC5B
:10233800100BC2E701209DED021B9DED000B03F081
:102348008BFC51EC100BB8E7000000000000000007
:10235800FB21E93FFFFFEF7F00B551EC100B184A56
:1023680021F00043934285B01DDD164A934209DDF2
:1023780010EE102A0B46FDF7CFFF41EC100B05B00D
:102388005DF804FB684602F0DFFB400000F0020045
:10239800C0F101009DED021B9DED000B03F028FD2F
:1023A80005B05DF804FB01209FED031B03F020FD41
:1023B80005B05DF804FB00BF00000000000000004D
:1023C800FB21E93FFFFFEF7F30B52DED048BB0EE29
:1023D800408AF0EE608A2C4C8BB001F055F994F9E4
:1023E8000030B0EE409AF0EE609A01332ED053ECF4
:1023F800182B51EC180BFEF7DDFB054630BBB0EE91
:10240800480AF0EE680A15F06FF81DA3D3E9002317
:1024180051EC100BFEF7C4FBC0B11C4A94F9003014
:10242800089503218DED048B8DED028B8DE8060058
:10243800A3B9174B4FF06042CDE90623684615F063
:10244800E9FE88B1089BB3B99DED069BB0EE490A39
:10245800F0EE690A0BB0BDEC048B30BD0D490020CD
:10246800022BCDE90601E9D115F084FF2223036090
:10247800089B002BE8D015F07DFF089B0360E3E77D
:102488007DF8B98FCE338640010400203CAD0108A9
:10249800FFFFEF470000F07FF0B52DED048BB0EEA5
:1024A800408AF0EE608A384C8BB001F0A1F994F9BB
:1024B8000030B0EE409AF0EE609A013334D0B0EEBE
:1024C800480AF0EE680A15F09DFE68B32AA3D3E91E
:1024D800002351EC180BFEF763FB054660BB28A3ED
:1024E800D3E9002351EC180BFEF73CFBE0B194F95B
:1024F8000030264A0895002600270421022B8DED7E
:10250800048B8DED028BCDE906678DE806002CD093
:10251800684615F07FFE40B3089B1BB115F02AFFF3
:10252800089B03609DED069BB0EE490AF0EE690A30
:102538000BB0BDEC048BF0BD144A94F90030019245
:10254800032100228DED048B8DED028B0091089202
:102558002BB90F4B4FF06042CDE90623D8E70D4960
:102568000020022BCDE90601D2D115F003FF22236A
:102578000360D1E7AFF30080EF39FAFE422E8640C0
:1025880051302DD5104987C00104002044AD010801
:10259800FFFFEF470000F07F2DE9F04F2DED028B94
:1025A800DFF80CA38BB057EC106B55EC114B01F016
:1025B8005BFD9AF90080B0EE408AF0EE608AB8F1CF
:1025C800FF3F34D022462B4620462946FEF7F2FA32
:1025D800834660BB32463B4630463946FEF7EAFA48
:1025E8008146002840F09F8030463946002200236B
:1025F800FEF7AEFA20B30022002320462946FEF754
:10260800A7FA8346002867D09FED9F7B0122A44B41
:10261800CDF820900092CDE90267CDE904458DED13
:10262800067B0193B8F1000F49D09FED998BB0EE6E
:10263800480AF0EE680A0BB0BDEC028BBDE8F08FDB
:10264800B0EE480AF0EE680A15F0DCFD8046002876
:1026580000F084804FF000084FF0000951EC180B8F
:1026680042464B46FEF774FA0028E0D047EC106B60
:1026780015F0C8FD0028DAD045EC104B15F0C2FD66
:102688000028D4D09AF90030854A0192042100220A
:10269800022BCDE90267CDE90445CDE90689009111
:1026A800089203D0684615F0B5FD60B915F062FED2
:1026B8002223036007E09FED747B8DED067B68465F
:1026C80015F0A8FD50B3089B1BB115F053FE089BED
:1026D80003609DED068BAAE745EC104B15F092FDC3
:1026E8000028A4D00022002320462946FEF73AFA03
:1026F80000289CD06A4A9AF90030CDF820B0012110
:10270800CDE90267CDE904458DE80600002BD2D05B
:1027180064490020022BCDE90601D0D115F02AFE2C
:1027280021230360CFE70022002320462946FEF735
:102738000FFA00283FF47BAF9FED558B584BCDF82F
:1027480020B00122B8F1020FCDE90267CDE90445B6
:102758008DED068B8DE80C00B1D168E747EC106B66
:1027680015F050FD00283FF475AF45EC104B15F0FF
:1027780049FD00283FF46EAF53EC182B18EE100AF1
:102788001946FEF717FA002861D103239AF9008049
:102798000093434B0890CDE90267CDE904450193C6
:1027A800B8F1000F2DD1DFF80C914FF060480022EE
:1027B800002330463946CDE90689FEF7D3F90028CB
:1027C8003FF470AF0022384B20462946FDF758FFEA
:1027D80004460D4645EC104B15F01EFD204653EC03
:1027E800102B2946FEF7B4F970BB304B9AF90080DC
:1027F8004FF06042CDE90623B8F1020F7FF452AFE3
:1028080054E79FED257B00220023304639468DEDA5
:10281800067BFEF7A7F90028EED00022224B2046BF
:102828002946FDF72DFF04460D4645EC104B15F0E3
:10283800F3FC204653EC102B2946FEF789F918B90A
:10284800184B0022CDE906239AF90080D4E7144BEF
:102858009AF90090CDF820800122CDE90267CDE9F0
:1028680004458DE80C00B9F1000F3FF424AF0022B5
:10287800002310461946FEF72DF8B9F1020FCDE9ED
:1028880006013FF44BAF1AE700000000000000000B
:10289800000000000000F03F000000000000F07F92
:1028A8005CAD01080000F0FF0000E03FFFFFEFC74C
:1028B80001040020FFFFEF472DE9F84F55EC104BBE
:1028C800CD4925F000438B420DDD03F1404303F56C
:1028D8008013234340F0BD80002D40F34F819FEDCE
:1028E800AA0BBDE8F88FC5498B4240F3AB80002D99
:1028F800C0F28C8110EE102A2B460020C049FDF74B
:102908000BFD0022BF4BFDF7BBFE04460D4645EC10
:10291800104B15F0ABFB204629469DA3D3E90023B5
:1029280059EC108BFDF7ACFE9BA3D3E90023FDF710
:10293800F5FC22462B46FDF7A3FE99A3D3E9002315
:10294800FDF7EAFC22462B46FDF79AFE96A3D3E94B
:102958000023FDF7E3FC22462B46FDF791FE94A3E6
:10296800D3E90023FDF7D8FC22462B46FDF788FE65
:1029780091A3D3E90023FDF7D1FC22462B46FDF7AE
:102988007FFE8FA3D3E9002382468B462046294643
:10299800FDF776FE8CA3D3E90023FDF7BDFC2246A4
:1029A8002B46FDF76DFE8AA3D3E90023FDF7B6FC9D
:1029B80022462B46FDF764FE87A3D3E90023FDF7E3
:1029C800ABFC22462B46FDF75BFE00228C4BFDF745
:1029D800A5FC02460B4650465946FDF77BFF42468A
:1029E8004B46FDF74DFE002682468B4632464B4647
:1029F80030464946FDF744FE02460B462046294626
:102A0800FDF78AFC324604460D464B464046494689
:102A1800FDF784FC02460B4620462946FDF75AFF7F
:102A280002460B4650465946FDF778FC32464B465F
:102A3800FDF774FC02460B46FDF770FC41EC100BE9
:102A4800BDE8F88F704A934212DC9FED650BBDE834
:102A5800F88F10EE102A2B4620462946FDF75CFC1D
:102A680002460B46FDF736FF41EC100BBDE8F88F28
:102A780010EE102A10EE100A2B462946FDF700FE2C
:102A880043A3D3E9002306460F46FDF7F9FD42A309
:102A9800D3E90023FDF742FC32463B46FDF7F0FD43
:102AA8003FA3D3E90023FDF737FC32463B46FDF749
:102AB800E7FD3DA3D3E90023FDF730FC32463B4652
:102AC800FDF7DEFD3AA3D3E90023FDF725FC3246E6
:102AD8003B46FDF7D5FD38A3D3E90023FDF71EFCDF
:102AE80032463B46FDF7CCFD35A3D3E900238046AB
:102AF800894630463946FDF7C3FD33A3D3E90023A1
:102B0800FDF70AFC32463B46FDF7BAFD30A3D3E990
:102B18000023FDF703FC32463B46FDF7B1FD2EA32B
:102B2800D3E90023FDF7F8FB32463B46FDF7A8FD45
:102B38000022334BFDF7F2FB02460B46404649465E
:102B4800FDF7C8FE22462B46FDF79AFD02460B46C6
:102B580025A1D1E90001FDF7DFFB02460B4620461F
:102B68002946FDF7D9FB02460B461DA1D1E9000114
:102B7800FDF7D2FB41EC100BBDE8F88F9FED1C0B65
:102B8800BDE8F88FAFF300800000000000000000EF
:102B980009F7FD0DE13D023F88B20175E0EF493FBD
:102BA8003B8F68B52882A43F5544880E55C1C93F5C
:102BB8007D6FEB0312D6D43F555555555555C53F36
:102BC80082922EB1C5B8B33F59018D1B6C06E63F02
:102BD800C88A599CE52A00404B2D8A1C273A034095
:102BE800182D4454FB21F93F075C143326A6913C69
:102BF800182D4454FB210940FFFFEF3FFFFFDF3F43
:102C08000000F03F0000E03F0000603C10EE100ABA
:102C1800294600225E4BFDF781FB00225D4BFDF744
:102C28002FFD43A3D3E9002304460D46FDF728FDF5
:102C380041A3D3E90023FDF771FB22462B46FDF79C
:102C48001FFD3FA3D3E90023FDF766FB22462B4671
:102C5800FDF716FD3CA3D3E90023FDF75FFB2246F1
:102C68002B46FDF70DFD3AA3D3E90023FDF754FBEE
:102C780022462B46FDF704FD37A3D3E90023FDF7D1
:102C88004DFB22462B46FDF7FBFC45EC104B8046DE
:102C9800894615F0EBF92046294631A3D3E90023EC
:102CA80057EC106BFDF7ECFC2FA3D3E90023FDF7DD
:102CB80033FB22462B46FDF7E3FC2DA3D3E9002383
:102CC800FDF72CFB22462B46FDF7DAFC2AA3D3E9B5
:102CD8000023FDF721FB22462B46FDF7D1FC0022FD
:102CE8002B4BFDF71BFB02460B4640464946FDF7BA
:102CF800F1FD32463B46FDF7C3FC21A3D3E900238F
:102D0800FDF70AFB32463B46FDF708FB02460B4639
:102D1800FDF704FB02460B461BA1D1E90001FDF7B4
:102D2800FBFA41EC100BBDE8F88F00BFAFF3008051
:102D380009F7FD0DE13D023F88B20175E0EF493F1B
:102D48003B8F68B52882A43F5544880E55C1C93FBA
:102D58007D6FEB0312D6D43F555555555555C53F94
:102D680082922EB1C5B8B33F59018D1B6C06E63F60
:102D7800C88A599CE52A00404B2D8A1C273A0340F3
:102D8800075C143326A6913C182D4454FB210940B6
:102D98000000F03F0000E03FF0B5554A55EC104BFD
:102DA800954283B046DD534A95420EDD02F17952D1
:102DB800954252DD10EE102A2B4620462946FDF793
:102DC800ADFA41EC100B03B0F0BD05F1404202F53D
:102DD800801222433DD0B5F1804F4ADC10EE100A34
:102DE80029460022444BFDF797FA02460B46044653
:102DF8000D46FDF793FA224606460F462B46204617
:102E08002946FDF73DFC02460B4630463946FDF79C
:102E180085FA41EC100B15F029F9204653EC102BDC
:102E28002946FDF77BFA41EC100B03B0BDE8F040F2
:102E3800FEF7CEBF10EE102A2B4620462946FDF796
:102E48006BFA02460B46FDF745FD41EC100B03B04B
:102E5800F0BD9FED230B03B0F0BD00F05DFE22A393
:102E6800D3E9002351EC100BFDF758FA41EC100B95
:102E7800A9E710EE102A2B4610EE100A2946FDF796
:102E8800FFFB00221C4BFDF747FA41EC100B15F035
:102E9800EDF822462B46204629468DED000BFDF71E
:102EA8003DFA9DED000B064653EC102B0F462046CD
:102EB8002946FDF733FA02460B4600200E49FDF776
:102EC80009FD02460B4630463946FDF725FA41EC26
:102ED800100B03B0BDE8F04000F01EBEAFF3008059
:102EE8000000000000000000EF39FAFE422EE63F25
:102EF800FFFFEF3FFFFFAF410000F03F0000000081
:102F08002DE9F04F57EC106BC74B27F000459D4259
:102F180083B017DD05F1404510EE103A05F5801530
:102F28002B432BD010EE102A3B4630463946FDF78E
:102F3800F3F902460B46FDF7CDFC41EC100B03B04C
:102F4800BDE8F08FB94B9D423C4633DCB5F1795F63
:102F580080F2748198A3D3E9002310EE100A394651
:102F6800FDF7DCF90022B24BFDF71AFE10B330462C
:102F7800394641EC100B03B0BDE8F08F10EE100A93
:102F88008FA3D3E900233946FDF77AFB8EA3D3E953
:102F9800002304460D4630463946FDF771FB0246CC
:102FA8000B4620462946FDF7B9F941EC100B03B052
:102FB800BDE8F08F47EC106B14F096FA002053EC44
:102FC800102B9B49FDF7A8F900229A4BFDF758FBF7
:102FD8007FA3D3E9002306460F46FDF751FB7EA3E6
:102FE800D3E90023FDF79AF932463B46FDF748FB43
:102FF8007BA3D3E90023FDF78FF932463B46FDF763
:103008003FFB79A3D3E90023FDF788F932463B4615
:10301800FDF736FB76A3D3E90023FDF77DF93246A9
:103028003B46FDF72DFB74A3D3E90023FDF776F9A2
:1030380032463B46FDF724FB71A3D3E900238046C3
:10304800894630463946FDF71BFB6FA3D3E90023B9
:10305800FDF762F932463B46FDF712FB6CA3D3E954
:103068000023FDF75BF932463B46FDF709FB6AA3EF
:10307800D3E90023FDF750F932463B46FDF700FB44
:103088006B4B0022FDF74AF947EC106BCDE90001C4
:1030980014F0ECFF684B9D425BEC10ABDDE90001DE
:1030A80069DC02460B46404649460025CDE900AB9F
:1030B8000095FDF70FFCDDE900895246CDE90001D6
:1030C8005B4650465946FDF729F902460B46DDE9AD
:1030D8000001FDF7D5FA4246CDE900014B464046CE
:1030E8004946FDF7CDFA02460B4630463946FDF70C
:1030F80013F9424606460F464B4650465946FDF7D9
:103108000DF902460B4630463946FDF7E3FB024609
:103118000B46FDF703F902460B462BA1D1E9000146
:10312800FDF7FAF802460B46DDE90001FDF7F4F871
:10313800424606460F464B4640464946FDF7EEF8DE
:1031480002460B4636A1D1E90001FDF7E5F8024633
:103158000B4630463946FDF7DFF802460B4630A1EC
:10316800D1E90001FDF7D8F8002C3FF7E6AE01F1F0
:1031780000431946E1E602460B4640464946FDF73C
:10318800A9FB52465B46FDF77BFA52465B46FDF7C4
:10319800C5F802460B46FDF7C1F80BA3D3E9002397
:1031A800FDF7BAF802460B4605A1D1E90001FDF783
:1031B800B3F8D9E7AFF300809C7500883CE4377E0C
:1031C800182D4454FB21F93F075C143326A6913C83
:1031D80009F7FD0DE13D023F88B20175E0EF493F77
:1031E8003B8F68B52882A43F5544880E55C1C93F16
:1031F8007D6FEB0312D6D43F555555555555C53FF0
:1032080082922EB1C5B8B33F59018D1B6C06E63FBB
:10321800C88A599CE52A00404B2D8A1C273A03404E
:10322800182D4454FB21E93FFFFFEF3FFFFFDF3F2D
:103238000000F03F0000E03F3233EF3F10EE102A6D
:1032480010EE100A3B463946FDF71AFA39A3D3E9BE
:10325800002304460D46FDF713FA38A3D3E90023EB
:10326800FDF75CF822462B46FDF70AFA35A3D3E9A9
:103278000023FDF751F822462B46FDF701FA33A348
:10328800D3E90023FDF74AF822462B46FDF7F8F963
:1032980030A3D3E90023FDF73FF822462B46FDF77C
:1032A800EFF92EA3D3E90023FDF738F822462B4681
:1032B800FDF7E6F92BA3D3E900238046894620468B
:1032C8002946FDF7DDF929A3D3E90023FDF724F802
:1032D80022462B46FDF7D4F926A3D3E90023FDF7B0
:1032E8001DF822462B46FDF7CBF924A3D3E900238A
:1032F800FDF712F822462B46FDF7C2F900220C4BC7
:10330800FDF70CF802460B4640464946FDF7E2FA3F
:1033180032463B46FDF7B4F932463B46FCF7FEFF22
:1033280041EC100B03B0BDE8F08F00BFAFF3008095
:103338000000F03F09F7FD0DE13D023F88B201753D
:10334800E0EF493F3B8F68B52882A43F5544880E7B
:1033580055C1C93F7D6FEB0312D6D43F555555551E
:103368005555C53F82922EB1C5B8B33F59018D1B43
:103378006C06E63FC88A599CE52A00404B2D8A1CFA
:10338800273A03400000000051EC110B43422DE99D
:10339800F047034321F000486B4F48EAD373BB4220
:1033A80055EC104B45D86342234325F0004A4AEABE
:1033B800D373BB42A9463CD801F1404303F58013BF
:1033C80003438E464CD08E1706F0020654EA0A03D1
:1033D80046EAD57635D050EA08033AD0B84553D0F6
:1033E800BA4536D0AAEB08084FEA2858B8F13C0F7E
:1033F8003EDC002964DB02460B4620462946FDF7E1
:1034080069FA41EC100B14F06FF8FEF7A9F951ECCA
:10341800100B012E51D0022E42D076B138A3D3E939
:103428000023FCF779FF38A3D3E90023FCF774FFE6
:1034380003E022462B46FCF771FF41EC100BBDE878
:10344800F087022E18D0032E0ED131A1D1E9000148
:10345800F3E7B9F1000F13DB2FA1D1E90001ECE785
:10346800BDE8F047FEF77CB910EE100A2946E4E7FC
:1034780029A1D1E90001CCE723A1D1E90001DCE7CA
:1034880027A1D1E90001D8E7C2451FD0022EF3D009
:10349800032EDAD0012E4FF0000021D00021CCE716
:1034A80017A3D3E90023FCF737FF02460B4616A102
:1034B800D1E90001FCF730FFBFE701F10041BCE7AB
:1034C80018F13C0F97DA00200021A2E7022E12D053
:1034D800032E0CD0012E06D013A1D1E90001ACE7D0
:1034E8004FF00041A9E712A1D1E90001A5E712A117
:1034F800D1E90001A1E712A1D1E900019DE700BFD0
:10350800075C143326A6A13C182D4454FB2109401E
:10351800182D4454FB2109C0182D4454FB21F93FB0
:10352800182D4454FB21F9BF182D4454FB21E93FC1
:10353800182D4454FB21E9BFD221337F7CD902C026
:10354800D221337F7CD902400000F07F00000000C8
:103558002DE9F04755EC104B6342234325F0004614
:10356800454A46EAD373934219D8964252D0434B00
:103578009E42AA4622DC3EA3D3E9002310EE100A9D
:103588002946FCF7CBFE00220023FDF709FB0028A3
:103598004BD02046294641EC100BBDE8F08710EED1
:1035A800102A2B4620462946FCF7B6FE02460B4653
:1035B800FDF790F941EC100BBDE8F087304B9E42C7
:1035C800354633DD3346224631462046FCF7A6FE13
:1035D800224606460F462B4600202749FCF79CFE4C
:1035E80002460B4630463946FDF774F941EC100B9C
:1035F800FEF7EEFB0022234B51EC100BFDF740F8D1
:10360800BAF1000FD6DA01F10043194641EC100B6C
:10361800BDE8F08710EE100A294600220023FDF7C6
:1036280059F941EC100BBDE8F087354622462B4688
:1036380020462946FCF772FE22462B4606460F46D0
:10364800FDF71EF82246804689462B4600200A4987
:10365800FCF762FE02460B4640464946FDF73AF93A
:1036680032463B46FCF75AFEC0E700BFAFF3008086
:103678009C7500883CE4377E0000F03FFFFF2F3E3A
:10368800FFFFDF3F0000E03F2DE9F84353EC102B2C
:103698004F4923F000448C4211DC4E498C4218DD1E
:1036A8004D498C4263DD4D498C427EDD4C498C424C
:1036B8003FDD01318C4239D043A3D3E900231046C2
:1036C8001946FCF7DDFF06460F4647EC106BBDE8D0
:1036D800F88313F009FF02F073FD59EC108B0022F8
:1036E800404B10EE100A4946FCF718FEB4F1725F21
:1036F80006460F46E9DB42464B4640464946FCF73C
:10370800BFFF32463B4604460D4630463946FCF775
:1037180005FE02460B4620462946FDF7DBF8002247
:10372800304BFCF7FBFD06460F46CEE72E498A4292
:10373800C2D843EC102B13F0D7FE00222B4B51ECD0
:10374800100BFCF79DFF41EC100B00F051F855EC05
:10375800104B0022254B10EE100A2946FCF790FF6B
:1037680022462B46FCF78CFF06460F46ADE713F0C2
:10377800BBFE00F03DF855EC104B10EE100A00228D
:103788001A4B2946FCF77CFF224606460F462B4675
:1037980000201649FDF79EF802460B46304639468A
:1037A800FCF7BCFD06460F468FE713F09DFE00F0C0
:1037B8001FF800220D4B51EC100BFCF761FF064679
:1037C8000F4682E7AFF300809C7500883CE4377EA3
:1037D800FFFFEF7F422ED63FFFFF3540412E864048
:1037E800CD3386400000F03F7DF8B98F0000E03F00
:1037F8002DE9F04F55EC104BBD4925F000428A42A7
:1038080083B04FEAD5770DD9BA498A422AD9C5F388
:103818001303234340F0FA800FB19FED9D0B03B0D3
:10382800BDE8F08FB44B9A4200F2D580B34B9A4270
:1038380000F2EA8098A3D3E9002310EE100A294683
:10384800FCF76CFD0022AE4BFDF7AAF9002800F04A
:103858001C81204629460022A94BFCF75FFD41EC5C
:10386800100BDCE78EA3D3E9002310EE100A2946DB
:10387800FDF796F9002840F0D3808BA3D3E9002305
:1038880020462946FDF76EF90028C6D19D4E88A32B
:10389800D3E9002306EBC70620462946FCF7F0FECD
:1038A800D6E90023FCF73AFDFDF79AF90646FCF73E
:1038B80081FE81A3D3E9002380468946FCF7E0FE18
:1038C80002460B4620462946FCF726FD7CA3D3E991
:1038D8000023CDE9000140464946FCF7D1FE824667
:1038E8008B4652465B46DDE90001FCF715FD0446B0
:1038F8000D4622462B4620462946FCF7C1FE72A3F8
:10390800D3E9002380468946FCF7BAFE70A3D3E9C1
:103918000023FCF701FD42464B46FCF7B1FE6EA3BF
:10392800D3E90023FCF7FAFC42464B46FCF7A8FE15
:103938006BA3D3E90023FCF7EFFC42464B46FCF7A8
:103948009FFE69A3D3E90023FCF7E8FC42464B46F7
:10395800FCF796FE02460B4620462946FCF7DCFC9F
:1039680080468946002E65D02046294642464B4669
:10397800FCF786FE424604460D464B4600204FF0B3
:103988008041FCF7C9FC02460B4620462946FCF755
:10399800A1FF02460B4650465946FCF7BDFCDDE93F
:1039A8000023FCF7B9FC0B46024655490020FCF7FA
:1039B800B3FC6FF47F739E4260DA06F57A7601EB0A
:1039C800065100224FF0B873FCF75AFE41EC100B79
:1039D80003B0BDE8F08F4C4B9A423FF657AF4B4BC4
:1039E8004FEAC7084344D3E9002310EE100A2946DA
:1039F800FCF792FC464BC7F101064344CDE90001B0
:103A0800D3E900ABF61B6CE7002672E710EE102A2C
:103A18002B4620462946FCF781FC41EC100BFEE6BC
:103A28001DA3D3E9002310461946FCF729FE41ECF3
:103A3800100BF4E602460B4620462946FCF720FE0A
:103A4800002206460F464FF0804340464946FCF7A1
:103A580063FC02460B4630463946FCF73BFF2246DC
:103A68002B46FCF759FC02460B4600202449FCF77C
:103A780053FC41EC100B03B0BDE8F08F01EB06518D
:103A880041EC100B03B0BDE8F08F064631E700BFEC
:103A980000000000000000009C7500883CE4377EB0
:103AA800EF39FAFE422E864051302DD5104987C095
:103AB800FE822B654715F73F0000E0FE422EE63FE9
:103AC800763C7935EF39EA3DD0A4BE726937663E57
:103AD800F16BD2C541BDBB3E2CDE25AF6A56113F06
:103AE80093BDBE166CC1663F3E5555555555C53FED
:103AF800412E8640FFFFEF7F422ED63FFFFF2F3E2D
:103B08000000F03F18990108B1A2F03F2899010878
:103B180038990108000000002DE9F04F51EC100B16
:103B2800B1F5801F85B00B4659DA10EE102A21F046
:103B38000044224300F0F8800029C0F2808100226E
:103B4800DD4BFCF79DFDDD4A0B4693426FF03507D0
:103B58004ADCC3F3130505F5152606F6647606F464
:103B6800801686F07F5282F4401242EA05011C1545
:103B78000022D34BFCF7D0FBAB1CA4F2FF34C3F3F9
:103B880013033C44022B04EB165482468B464FF039
:103B9800000232DC0023FCF7DBFF002800F0CF80B6
:103BA800002C00F058812046FCF704FDACA3D3E9B3
:103BB800002306460F46FCF763FDABA3D3E90023B9
:103BC80004460D4630463946FCF75AFD02460B4678
:103BD80020462946FCF7A2FB41EC100B0AE0B74A45
:103BE80093424FF00007B4DD02460B46FCF796FB04
:103BF80041EC100B05B0BDE8F08F4FF08043FCF7A7
:103C08008DFB02460B4650465946FCF763FE0646B6
:103C180020460F46FCF7CEFC3246CDE900013B4674
:103C280030463946CDE90267FCF72AFD02460B46C5
:103C380080468946FCF724FD8DA3D3E90023064678
:103C48000F46FCF71DFD8CA3D3E90023FCF766FBA8
:103C580032463B46FCF714FD89A3D3E90023FCF761
:103C68005DFB32463B46FCF70BFD87A3D3E90023F7
:103C7800FCF754FB42464B46FCF702FD84A3D3E90C
:103C880000238046894630463946FCF7F9FC82A372
:103C9800D3E90023FCF742FB32463B46FCF7F0FC35
:103CA8007FA3D3E90023FCF739FB32463B46FCF7F8
:103CB800E7FC0B46024649464046FCF72FFBA5F5B4
:103CC800C223C5F5D725A3F27A4351351D43002DEC
:103CD800804689465CDD00227A4B50465946FCF7FF
:103CE800CFFC52465B46FCF7CBFC06460F46002C41
:103CF8006ED132463B4640464946FCF70FFBDDE9AC
:103D08000223FCF7BDFC02460B4630463946FCF759
:103D180003FB02460B4650465946FCF7FDFA41ECB8
:103D2800100B05B0BDE8F08F002200230020664983
:103D3800FCF7D0FD41EC100B05B0BDE8F08F5AA39D
:103D4800D3E9002350465946FCF79AFC02460B4635
:103D580000205C49FCF7E0FA524606460F465B46EF
:103D680050465946FCF78CFC02460B46304639460D
:103D7800FCF786FC06460F46002C40F0A78002465A
:103D88000B4650465946FCF7C7FA41EC100B31E791
:103D9800002C00F0AF8032A3D3E90023DDE9000155
:103DA800FCF76EFC42464B4604460D4650465946C3
:103DB800FCF7B2FADDE90223FCF762FC2AA3D3E997
:103DC800002306460F46DDE90001FCF759FC21E017
:103DD80023A3D3E90023DDE90001FCF751FC3246B7
:103DE8003B4604460D4640464946FCF797FADDE94E
:103DF8000223FCF745FC1CA3D3E90023804689462F
:103E0800DDE90001FCF73CFC02460B46404649460A
:103E1800FCF784FA02460B4630463946FCF77CFA32
:103E280052465B46FCF778FA02460B46204629467E
:103E3800FCF772FA41EC100B05B0BDE8F08F10EEFC
:103E4800102A0B46FCF768FA00220023FCF742FD13
:103E580041EC100BCEE69FED160BCBE6AFF30080DE
:103E68000000E0FE422EE63F763C7935EF39EA3D28
:103E780044523EDF12F1C23FDE03CB966446C73F91
:103E8800599322942449D23F935555555555E53FAA
:103E98009FC678D0099AC33FAF788E1DC571CC3FB5
:103EA80004FA97999999D93F555555555555D53F80
:103EB800000000000000000000005043FFFFEF7FFB
:103EC8000000F03F0000E03F000050C32046FCF730
:103ED80071FB0FA3D3E9002380468946FCF7D0FB8A
:103EE8000DA3D3E9002304460D4640464946FCF796
:103EF800C7FB8FE702460B4650465946FCF70CFABB
:103F0800DDE90223FCF7BCFB03E700BFAFF3008049
:103F18000000E0FE422EE63F763C7935EF39EA3D77
:103F28002DE9F04355EC104BB5F5801F83B02B46B7
:103F380021DA10EE102A25F000410A4364D0002D42
:103F48006DDB29460022444B10EE100AFCF798FB63
:103F5800424A0D462B46934204466FF035010FDD69
:103F680022462B4620462946FCF7D8F941EC100B8F
:103F780003B0BDE8F083394A93424FF00001EFDC0B
:103F88001815A0F2FF3008444FEAD0794844C3F32B
:103F98001308FCF70FFBC9F57F73033348EA035591
:103FA80045EC104B06460F46FFF7B6FD304639463E
:103FB80023A3D3E900238DED000BFCF761FB9DEDF6
:103FC800000B04460D4620A3D3E9002351EC100B47
:103FD800FCF756FB02460B4620462946FCF79EF99D
:103FE8001BA3D3E9002304460D4630463946FCF7A7
:103FF80047FB02460B4620462946FCF78FF941EC61
:10400800100B03B0BDE8F083002200230020144900
:10401800FCF760FC41EC100B03B0BDE8F08310EE38
:10402800102A2B4620462946FCF776F90022002361
:10403800FCF750FC41EC100B9AE700BFAFF300808F
:10404800362BF111F3FE593D0EE526157BCBDB3FF0
:1040580000609F501344D33F00005043FFFFEF7FA1
:10406800000050C3000000002DE9F04F51EC110B87
:1040780021F0004858EA000493B03ED053EC102BCE
:10408800714E23F00044B44210EE10AA1D462DDCF8
:10409800894611EE10EA28D0B04527DC6A4EB045B3
:1040A80000F08380002D16461F46CDE90001C0F2BE
:1040B80081804FF0000BBEF1000F2FD1624B984565
:1040C80000F09580614B984568D0B9F1804F00F0B9
:1040D800D1835F4B994521D1002D1FDB47EC106B35
:1040E80013B0BDE8F04F13F0C1BF6AB104F140440A
:1040F80004F5801454EA0A0308D15449002041EC1D
:10410800100B13B0BDE8F08FA045C7DD514813B0C0
:10411800BDE8F04F02F0BCBA4FF0000B47EC106B53
:1041280013F0E2F951EC100BBAF1000F1AD124B1D7
:10413800464B25F040429A4214D1B9F1000FC0F223
:10414800D383002DDBDA04F1404404F5801454EAEB
:104158000B0300F0AF84BBF1010FD0D101F1004394
:104168001946CCE7ED0F05F1FF3A5BEA0A0353D095
:10417800394B984576DD03F10473984540F306847E
:10418800364B9C4253DDB9F1000F53DD2CA3D3E924
:10419800002310461946FCF773FAB0E7B9F1000F8F
:1041A800C0F25A8430463946A9E7BEF1000F3FF401
:1041B80079AF9BE72A4B98452BDCA3F154739845BC
:1041C8007FF777AF4FEA2853A3F2FF33142B40F35E
:1041D8005984C3F134032EFA03F202FA03F39E451D
:1041E8007FF467AF02F00102C2F1020B63E704F14A
:1041F800404303F5801353EA0A033FF47EAF174B9D
:104208009C4240F33E83B9F1000F13DBDDE9000166
:1042180075E74FF0020B4EE732463B46104619460B
:10422800FCF77AF802460B46FCF754FB67E7B9F14E
:10423800000FABDB0020002161E700BFAFF3008077
:104248009C7500883CE4377E0000F07F0000F03F5A
:104258000000E03F90A001080000E041FFFFEF3FB1
:10426800FFFF3F43B4F5801F4FF0000205DAD64B3D
:10427800FCF706FA6FF034020C462315D34EC4F34C
:104288001304A3F2FF33134444F07F55B4421A4693
:104298000D9345F4401540F32E83CD4B9C4240F3DB
:1042A8000D849FEDB37B8DED087B8DED0E7B9FED2F
:1042B800B27B13468DED067B01330D93A5F5801572
:1042C8004FF00008DDE906232946CDE90A01FCF78D
:1042D80023F8DDE9062306460F46DDE90A01FCF767
:1042E8001DF802460B460020BA49FCF7F3FA0346CC
:1042F8000C46CDE9103402460B4630463946FCF7E9
:10430800BFF96B1043F0005303F5002303EB0805D6
:104318000A4600230146CDE902120293DDE902892B
:104328000024CDE904122B46224640464946FCF7B4
:10433800A7F902460B4630463946FBF7EDFFDDE9A3
:10434800062306460F4620462946FBF7E5FF0246A8
:104358000B46DDE90A01FBF7DFFF42464B46FCF757
:104368008FF902460B4630463946FBF7D5FFDDE9A3
:104378001023FCF785F9DDE90445CDE9060122465D
:104388002B4620462946FCF77BF97DA3D3E9002379
:1043980004460D46FCF774F97BA3D3E90023FBF729
:1043A800BDFF22462B46FCF76BF979A3D3E900231E
:1043B800FBF7B4FF22462B46FCF762F976A3D3E954
:1043C8000023FBF7ABFF22462B46FCF759F974A3F1
:1043D800D3E90023FBF7A2FF22462B46FCF750F94E
:1043E80071A3D3E90023FBF799FF224606460F463F
:1043F8002B4620462946FCF743F902460B46304631
:104408003946FCF73DF9424604460D464B46DDE980
:104418000401FBF783FFDDE90623FCF731F92246A7
:104428002B46FBF77BFF424606460F464B46404667
:104438004946FCF725F90022674BCDE90A01FBF74D
:104448006DFF32463B46FBF769FF02980D4604466E
:1044580022462B4640464946FCF712F90022804680
:1044680089465D4B20462946FBF756FFDDE90A23BE
:10447800FBF752FF02460B4630463946FBF74CFF26
:10448800DDE90423FCF7FCF8224606460F462B46D6
:10449800DDE90601FCF7F4F802460B4630463946DA
:1044A800FBF73CFF06460F4602460B464046494688
:1044B800CDE90489FBF732FF02983DA3D3E9002335
:1044C80004460D46FCF7DCF8DDE9042380468946FE
:1044D80020462946FBF720FF02460B463046394660
:1044E800FBF71AFF34A3D3E90023FCF7C9F834A378
:1044F800D3E9002306460F4620462946FCF7C0F8B4
:1045080002460B4630463946FBF708FFDDE90E2325
:10451800FBF704FF06460D980F46FCF74BF83246AA
:1045280004460D463B4640464946FBF7F7FEDDE9A3
:104538000823FBF7F3FE22462B46FBF7EFFE029813
:1045480022462B46CDE90201FBF7E6FEDDE908230A
:10455800FBF7E2FE42464B46FBF7DEFE02460B4601
:1045680030463946FBF7D8FE8046894636E000BF1C
:104578000000000000000000000000000000F03F04
:10458800EF4E454A287ECA3F65DBC9934A86CD3F30
:1045980001411DA96074D13F4D268F515555D53F16
:1045A800FFAB6FDBB66DDB3F033333333333E33FAE
:1045B800000000E009C7EE3FFD033ADC09C7EE3F03
:1045C800F5015B14E02F3EBE000040438E980300C7
:1045D80079B60B000000F03F000008400BF1FF33F4
:1045E80053EA0A0300F07B819FEDC97B8DED067BC2
:1045F800DDE900AB53465C46CDE900340023009367
:10460800DDE90045504622462B465946FBF784FE15
:10461800DDE90223FCF734F8524606460F465B46AE
:1046280040464946FCF72CF802460B4630463946C8
:10463800FBF774FE2246804689462B46DDE90201D7
:10464800CDE90489FCF71CF80B46024606460F46DE
:1046580040464946FBF762FEC74B994204460D4661
:104668008A4640F3188101F13F4303F5E003034311
:1046780040F0FA81A8A3D3E90023DDE90401FBF7A0
:104688004DFE3246804689463B4620462946FBF782
:1046980043FE02460B4640464946FCF781FA00288D
:1046A80040F0E281A8464FEA28534FF48012A3F263
:1046B800FE3342FA03F35344C3F30A52AF4DA2F256
:1046C800FF321541C3F3130423EA05010020C2F1A8
:1046D800140B44F48014BAF1000F02460B4644FA56
:1046E8000BFB30463946B8BFCBF1000BFBF714FE85
:1046F80002460B4606460F46DDE90401FBF70EFEAF
:104708004FEA0B5A0D46002485A3D3E9002320461F
:104718002946FBF7B5FF3246804689463B46204688
:104728002946FBF7F9FD02460B46DDE90401FBF7D4
:10473800F3FD7DA3D3E90023FBF7A2FF7CA3D3E914
:10474800002306460F4620462946FBF799FF0246F6
:104758000B4630463946FBF7E1FD06460F46024652
:104768000B4640464946FBF7D9FD42464B460446B0
:104778000D46FBF7D1FD02460B4630463946FBF79E
:10478800CBFD2246804689462B4620462946FBF724
:1047980077FF69A3D3E9002306460F46FBF770FFAE
:1047A80067A3D3E90023FBF7B7FD32463B46FBF787
:1047B80067FF65A3D3E90023FBF7B0FD32463B460C
:1047C800FBF75EFF62A3D3E90023FBF7A5FD3246A2
:1047D8003B46FBF755FF60A3D3E90023FBF79EFD9B
:1047E80032463B46FBF74CFF02460B46204629461D
:1047F800FBF792FD06460F4602460B462046294621
:10480800FBF73EFF0022CDE900014FF08043304620
:104818003946FBF781FD02460B46DDE90001FCF74E
:1048280059F8424606460F464B4620462946FBF7AE
:1048380027FF42464B46FBF771FD02460B463046C2
:104848003946FBF769FD22462B46FBF765FD024614
:104858000B4600204A49FBF75FFD8A44BAF5801FE2
:1048680002460B46C0F23A815146DDE90623FBF7C2
:1048780007FF44E432463B4630463946FBF700FF23
:104888003DE4B9F1000FBFF6D5ACDDE900341846B8
:1048980004F1004133E43B4B21F00048984540F3D4
:1048A8000081394B0B4403430CD132463B46FBF79E
:1048B80033FD02460B46DDE90401FCF75DF90028EB
:1048C8003FF4F1AEDDE9060125A3D3E90023FBF7A8
:1048D800D7FE23A3D3E90023FBF7D2FE0FE49FED15
:1048E800227B8DED067B83E602460B460020244999
:1048F800FBF7F0FF25E49FED1E7B8DED087B8DED2A
:104908000E7B9FED037B4FF000088DED067BD9E40D
:10491800000000000000F03FFE822B654715973C21
:1049280000000000432EE63FEF39FAFE422EE63F34
:10493800396CA80C615C20BED0A4BE726937663E93
:10494800F16BD2C541BDBB3E2CDE25AF6A56113F87
:1049580093BDBE166CC1663F3E5555555555C53F6E
:1049680059F3F8C21F6EA501000000000000F0BF57
:104978000000000000000000FFFF8F40FFFF0F0055
:104988000000F03FFFCB904000346F3F6A4B9C42E1
:104998007FF74DAC694B9C423FF7F5AB0022674B64
:1049A800FBF7BAFC54A3D3E9002304460D46FBF7F2
:1049B80067FE53A3D3E9002380468946204629464B
:1049C800FBF75EFE0022CDE902015D4B2046294639
:1049D800FBF756FE02460B464BA1D1E90001FBF757
:1049E8009BFC22462B46FBF74BFE02460B4600205B
:1049F8005449FBF791FC22462B4606460F462046B3
:104A08002946FBF73DFE02460B4630463946FBF782
:104A180037FE3FA3D3E90023FBF732FE02460B46DD
:104A2800DDE90201FBF778FC02460B4604460D4619
:104A380040464946FBF772FC42464B460020CDE90A
:104A48000201FBF769FC02460B4620462946FBF7A4
:104A580063FC80468946C1E532463B46002037491B
:104A6800FBF738FFFFF74BBBDDE906012AA3D3E9C3
:104A78000023FBF705FE28A3D3E90023FBF700FE7C
:104A8800FFF73DBBBEF1000F7FF446ABC3F1140343
:104A980048FA03F202FA03F3984527D0F346FFF7E2
:104AA80011BB284B98453FF7FEADDDE90023924640
:104AB800934628E602460B46FFF7B0BB9FED187BEE
:104AC8008DED087B9FED187B8DED0E7B9FED187BA0
:104AD8004FF480288DED067BFFF7F4BB584643EC76
:104AE800102B01F0DDFD51EC100BBEE602F00102C7
:104AF800C2F1020BFFF7E6BA000000604715F73F66
:104B080044DF5DF80BAE543E555555555555D53FC8
:104B1800FE822B654715F73F9C7500883CE4377E7D
:104B28000000004003B8E23F06D0CF43EBFD4C3E07
:104B3800000000000000F83FFEFFEF3F0000F03FDC
:104B48000000D03F0000E03F2DE9F04753EC102B68
:104B58009D4923F000478F4290B040F391809B49D4
:104B68008F421C46824629DC002C194610EE100A9A
:104B78008BA3D3E9002340F3B181FBF7CDFB944B22
:104B88009F4204460D4600F0918087A3D3E9002395
:104B9800FBF7C2FB02460B46CAE90023204629461A
:104BA800FBF7BAFB80A3D3E90023FBF7B5FB01258C
:104BB800CAE90201284610B0BDE8F08785498F424E
:104BC80040F3918084498F4265DC3D15A5F2164576
:104BD800A7EB0551104616460F46FCF701F8FBF700
:104BE800E9FC8046894642464B4630463946CDE97F
:104BF8000A89FBF791FB0022784BFBF741FD8946B8
:104C08008046FBF7EDFFFBF7D5FC06460F4632461C
:104C18003B4640464946CDE90C67FBF77DFB002241
:104C28006E4BFBF72DFD00220023CDE90E01FBF7AB
:104C38008FFF002800F0708100233046394600229B
:104C4800FBF786FF002814BF01230223644A019260
:104C580002212A4600910AA8514600F0C5FB002C03
:104C6800054614DADAF80420DAF80C3002F10042CA
:104C780003F100434542CAF80420CAF80C3006E0A4
:104C880080ED000B00250024C0E9024500252846D8
:104C980010B0BDE8F08710EE100A1946FBF73CFB90
:104CA8000025CAE90201CAE90001F0E740A3D3E9F7
:104CB8000023FBF731FB40A3D3E900230D4604464C
:104CC800FBF72AFB02460B46CAE900232946204681
:104CD800FBF722FB38A3D3E90023FBF71DFB0125D3
:104CE800CAE90201D3E712F0FFFB59EC108B10EE72
:104CF800100A33A3D3E900234946FBF7C1FC00227D
:104D0800384BFBF70BFBFBF76BFF0546FBF752FC39
:104D180023A3D3E90023CDE90601FBF7B1FC024642
:104D28000B4640464946FBF7F7FA1FA3D3E9002391
:104D3800CDE90201DDE90601FBF7A2FC1F2D804643
:104D48008946CDE9048951DC274B6A1E53F8223085
:104D58009F424BD002460B46DDE90201FBF7DCFA25
:104D680080468946CAE9008942464B46DDE9020188
:104D7800FBF7D2FADDE90423FBF7CEFA002CCAE9E7
:104D8800020184DA09F1004401F100436D42CAF8D6
:104D98000080CAF80440CAF80800CAF80C3076E760
:104DA80000004054FB21F93F3163621A61B4D03DE1
:104DB8000000601A61B4D03D7370032E8A19A33BBA
:104DC80083C8C96D305FE43FFB21E93F7BD90240CE
:104DD800FB21F93FFB213941FFFFEF7F00007041C4
:104DE800F0AD01080000E03F70AD0108DDE90423E3
:104DF800DDE90201FBF790FA3F15C1F30A53FB1AEC
:104E080080468946102BCAE90089ADDD58A3D3E94D
:104E18000023DDE90601FBF733FC8046894602469C
:104E28000B46DDE90201FBF777FA02460B46DDE99E
:104E38000201CDE90823FBF76FFA42464B46FBF720
:104E48006BFA4DA3D3E9002380468946DDE90601C4
:104E5800FBF716FC42464B46FBF75EFA0B46CDE9DC
:104E680004010246DDE90801FBF756FAC1F30A53CB
:104E7800FF1A80468946312FCAE900896CDD41A3B3
:104E8800D3E90023DDE90601FBF7FAFBDDE9088930
:104E980006460F4602460B4640464946FBF73CFA93
:104EA80002460B4640464946CDE90223FBF734FA51
:104EB80032463B46FBF730FA34A3D3E900230646D3
:104EC8000F46DDE90601FBF7DBFB32463B46FBF705
:104ED80023FA02460B46CDE904233DE7FBF71EFA09
:104EE800274B9F4204460D4618D01FA3D3E9002341
:104EF800FBF714FA02460B46CAE900232946204666
:104F0800FBF70AFA18A3D3E90023FBF707FA4FF0D7
:104F1800FF35CAE90201BAE6032397E614A3D3E9E9
:104F28000023FBF7FBF914A3D3E900230D4604463D
:104F3800FBF7F4F902460B46CAE900232946204646
:104F4800FBF7EAF90CA3D3E90023FBF7E7F94FF0E5
:104F5800FF35CAE902019AE69DED087B8DED027BDB
:104F680002E700BFAFF300803163621A61B4D03D3D
:104F78000000601A61B4D03D7370032E8A19A33BF8
:104F8800FB21F93F0000002E8A19A33BC1492025C7
:104F98009A837B39000000002DE9F84F57EC106B1D
:104FA800654A27F00048904532DC644B002FB4BFB7
:104FB800634D644D98454FF0000414DC624B9845EE
:104FC80000F385805AA3D3E9002310EE100A39466E
:104FD800FBF7A4F900225D4BFBF7E2FD18B347ECA1
:104FE800106BBDE8F88F5A4B984540F39280594BA7
:104FF80098454DDD0133984547D0304639464CA396
:10500800D3E90023FBF73CFB41EC100BBDE8F88F1C
:1050180010EE102A3B4630463946FBF77FF941EC43
:10502800100BBDE8F88F47EC106B12F05DFA01F039
:10503800C7F857EC106B32463B4630463946FBF70B
:105048006DF9324682468B463B4630463946FBF779
:1050580017FB0022804689463C4B30463946FBF711
:105068005DF902460B4640464946FBF733FC0246CB
:105078000B4650465946FBF74FF922462B46FBF79D
:10508800FFFA41EC100BBDE8F88F334B9E42B4D8C1
:1050980047EC106B12F028FA00222A4B51EC100B47
:1050A800FBF7EEFA41EC100BFEF7A2FB57EC106B86
:1050B80010EE102A3B4620462946FBF7E1FA324615
:1050C8003B46FBF7DDFA41EC100BBDE8F88F12F018
:1050D8000BFA01F075F8214B984557EC106BAADDD7
:1050E80010EE100A0022194B3946FBF717F9024651
:1050F8000B4630463946FBF7EDFB32463B46FBF79D
:105108000DF922462B46FBF7BBFA41EC100BBDE824
:10511800F88F12F0E9F9FEF76BFB204653EC102BE1
:105128002946FBF7ADFA41EC100BBDE8F88F00BF3C
:105138003374AC3C1F7BAC7FFFFFEF7FFFFF354034
:105148000000E0BF0000E03FFFFF2F3E0000F03FFF
:10515800412E8640CD3386407DF8B98FFFFFEF3F63
:105168002DE9F04F57EC106B2DED028BB0EE418A14
:10517800F0EE618A27F00049B9F1795F83B072DAFD
:1051880010EE100A3946FBF72BFD002800F0F680D8
:1051980032463B4630463946FBF772FA7CA3D3E9E0
:1051A800002304460D46FBF76BFA7BA3D3E90023E3
:1051B800FBF7B4F822462B46FBF762FA78A3D3E94B
:1051C8000023FBF7A9F822462B46FBF759FA76A3EA
:1051D800D3E90023FBF7A2F822462B46FBF750FA47
:1051E80073A3D3E90023FBF797F822462B46FBF776
:1051F80047FA71A3D3E90023FBF790F822462B4620
:10520800FBF73EFA82468B460022714B2046294620
:10521800FBF736FA5246804689465B4620462946C1
:10522800FBF72EFA53EC182B04460D463046394648
:10523800FBF726FA02460B4620462946FBF76CF890
:1052480002460B4640464946FBF766F802460B46BF
:1052580000206049FBF760F841EC100B03B0BDEC8F
:10526800028BBDE8F08F10EE102A10EE100A3B46B4
:105278003946FBF705FA46A3D3E9002304460D4651
:10528800FBF7FEF944A3D3E90023FBF747F82246CE
:105298002B46FBF7F5F942A3D3E90023FBF73CF8CB
:1052A80022462B46FBF7ECF93FA3D3E90023FBF793
:1052B80035F822462B46FBF7E3F93DA3D3E9002353
:1052C800FBF72AF822462B46FBF7DAF93AA3D3E98B
:1052D8000023FBF723F82B462246FBF7D1F93E4B78
:1052E800994582468B468FDD3C4B99453DDC002233
:1052F800A9F500130020374990469946FBF70CF8AA
:10530800CDE900010022324B20462946FBF7B8F9C7
:1053180042464B46FBF700F85246804689465B46B4
:1053280020462946FBF7ACF953EC182B04460D46EA
:1053380030463946FBF7A4F902460B462046294673
:10534800FAF7EAFF02460B4640464946FAF7E4FFF9
:1053580002460B46DDE90001FAF7DEFF41EC100BCF
:1053680003B0BDEC028BBDE8F08F9FED157B4FF0CD
:1053780000088DED007BDFF86890C3E79FED120B06
:1053880003B0BDEC028BBDE8F08F00BFAFF3008027
:10539800D43888BEE9FAA8BDC4B1B4BD9EEE213E9A
:1053A800AD529C804F7E923E9015CB19A001FA3EDB
:1053B8007751C1166CC1563F4C5555555555A53FAB
:1053C800000000000000E73F000000000000F03F80
:1053D8000000E03F0000F03F3233D33F0000E93FD8
:1053E8000000D23F000000002DE9F04FADF51B7D15
:1053F800A34CA49EA34D54F8264007942646D41ED9
:1054080085FB0475E417C4EBA50424EAE4741D467F
:105418000A93631CA3EB8303013D02EBC3030693CA
:105428002B460B940395651BF418049008911AD425
:105438002C440026002701340DF18808DDF89492E9
:1054480008E059F82500FBF7B5F80135A542E8E86A
:10545800020108D0002DF4DA013530463946A5425C
:10546800E8E80201F6D1079B002BC0F2EB83079B0B
:1054780003F1010B0A9B22A9DB001A4601EB030981
:105488000093049B0DF5E47A19460AEBCB0B01EB6C
:105498000208039B002BC0F20183049C4D460026A2
:1054A800002775E90223F4E80201FBF7E9F8024650
:1054B8000B4630463946FAF731FF444506460F4653
:1054C800EFD1EAE80267DA4509F10809E1D107995D
:1054D8000098049C009101F18043013B9B0020440B
:1054E8001A1F83460EA8024403440C920D93009A97
:1054F8009AA901EBC203002A53E9284529DD0DF5D5
:10550800E47A0AEBC2080DF1340900225E4B20460A
:105518002946FBF7B5F8FBF763FBFBF74BF80022CE
:105528005A4B06460F46FBF7ABF802460B46204699
:105538002946FAF7F1FEFBF753FB78E9022349F80D
:10554800040F39463046FAF7E9FED04504460D46C1
:10555800DBD1DDF8189045EC104B484601F0A0F877
:1055680055EC104B00224FF07F5310EE100A2946DD
:10557800FBF786F841EC100BFCF79AFB002251EC84
:10558800100B434BFBF77CF802460B462046294696
:10559800FAF7C2FE0D460446FBF722FB8046FBF7EE
:1055A80009F80B46024629462046FAF7B5FE4B464F
:1055B800002B06460F4640F3FA80009A0EA9013ADE
:1055C800C9F1180351F8225045FA03F101FA03F31F
:1055D8000EA8EB1A40F82230C9F11705884443FA9F
:1055E80005F5002D6EDD009B002B08F1010840F346
:1055F80074820E9C002C40F01B83009B012B40F30F
:1056080094820EAA012352F8044F002C00F08882DD
:10561800581C0EAAC4F1807442F82340009A8242B2
:1056280019DD0EAA0EAC52F820106FF07F42511A05
:1056380044F820100099023399420CDD1046009A74
:105648000EA901EB830301EB82011A68821A43F861
:10565800042B8B42F9D1069B002B1BDD069B012BEB
:105668004FF0010440F04182009B5A1E0EAB0EA978
:1056780053F82230C3F3160341F8223041E200BF49
:10568800F8AE0108ABAAAA2A0000703E00007041DB
:1056980000002040022D15D132463B460020944997
:1056A800FAF73AFE06460F4606989FED8D0B00F076
:1056B800F7FF3046394653EC102BFAF72DFE02253A
:1056C80006460F460022002330463946FBF740FACB
:1056D800002800F03B82009A079B501E83420FDC93
:1056E80002F18043013B0EAA0D9C02EB83030022CA
:1056F80053F80419A34242EA0102F9D1002A67D1FA
:10570800079B0EAA013B52F82330002B40F01C8265
:105718000C9A012352F8041901330029FAD0009A8F
:10572800D31802F1010A9A4509933DDC009B0A99B6
:105738000B9A0B4409990AEB0208994622AB08F127
:10574800804803EBC9098B18A59A08F1FF3802EBCA
:10575800880872AA02EBCA0AA59A02EB830300938F
:1057680058F8040FFAF726FF039B002BE9E802011B
:105778004FF000064FF0000711DB049C4D4675E919
:105788000223F4E80201FAF77BFF02460B46304693
:105798003946FAF7C3FD5C4506460F46EFD1009B34
:1057A8009845EAE80267DBD1099B00939FE606D19A
:1057B800009B0EAA013B52F82350ED1511E7002279
:1057C8004C4BFBF7E3F9002840F07281054679E776
:1057D8000EA9039551F820300699CDF82480183980
:1057E8000246009006916BB900F18043013B0EA878
:1057F80000EB830353F80409013A18390028F9D05B
:105808000092069106989FED360B00F049FF009B29
:10581800002B55EC104BC0F2FC81DA0072A901EBA9
:10582800020B06920EAA02EB8306DFF8CC904FF02B
:1058380000080BF10807043656F8040DFAF7BAFE0B
:1058480022462B46FAF71CFF4B4667E902014246FF
:1058580020462946FAF714FF0EAB9E4204460D4631
:10586800EAD14AACDDF81C9004944FF0000AB9F173
:10587800000FC0F22F81DFF884805D461AA1D1E9BC
:10588800000100260027002403E0544510DCF8E856
:105898000201F5E80223FAF7F3FE02460B4630460A
:1058A8003946FAF73BFD0134A14506460F46ECDAC6
:1058B800049B03EBCA03ABF1080BC3E9006770ABA9
:1058C8009B450AF1010AD2D1A49B049C032B00F248
:1058D8008D80DFE813F0C90092009200150000BF28
:1058E800000000000000F03F00000040FB21F93FED
:1058F8000000F03F0000E03F0000703E60990108A2
:10590800009B002B40F38281069A04EB020ADAE935
:10591800008902F1080525440DF5987B1AED027BF4
:1059280042464B4651EC170B8DED047BFAF7F6FC1B
:1059380006460F4602460B46DDE90401FAF7ECFC81
:1059480042464B46FAF7EAFC65E902015D45B04676
:10595800B9466AE90267E1D1009B012B40F3568101
:10596800069BE518D5E9008903F1080B04EB0B0A3F
:1059780015ED027B42464B4651EC170B8DED007B33
:10598800FAF7CCFC06460F4602460B46DDE9000155
:10599800FAF7C2FC4B464246FAF7C0FC6AE9020134
:1059A8004EAB5345B046B94665E90267E0D10020E1
:1059B800002104EB0B0575E90223FAF7AFFCAA45B1
:1059C800F9D1039B002B00F00B816268E368089F04
:1059D8002568A4683D6002F1004203F1004301F12B
:1059E80000417A60FB60BC6038617961099B03F013
:1059F80007000DF51B7DBDE8F08F069D0835254491
:105A08000020002175E90223FAF788FCA542F9D1A4
:105A1800039B002B00F0D380089E024601F100434F
:105A280086E80C000B460246D4E90001FAF774FC3C
:105A3800009B002B0BDD4CAD0124F5E80223FAF79F
:105A48006DFC009B0134A342F7DA039B13B101F10B
:105A580000431946089BC3E90201099B03F00700AC
:105A68000DF51B7DBDE8F08F069D0835002000214F
:105A7800254475E90223FAF751FCAC42F9D1039B9E
:105A880013B101F100431946089BC3E90001099BC2
:105A980003F007000DF51B7DBDE8F08F00260027F9
:105AA800EAE80267DA4509F108097FF4F2AC0EE585
:105AB800009B002B08F10108C8BF02253FF799ADEC
:105AC80032463B4600206149FAF726FC0225064685
