:020000040800F2
:10000000008001208DF600083595010865940108EF
:10001000699401086D9401087194010800000000C2
:1000200000000000000000000000000039950108F9
:100030003D9501080000000041950108499501081F
:1000400075940108799401087D9401088194010850
:100050008594010889940108351F02083D1F020894
:10006000451F02084D1F0208551F02088D94010804
:100070009194010895940108999401089D940108B0
:10008000A1940108A5940108A9940108AD94010860
:10009000B1940108B5940108B99401085D1F0208E4
:1000A00025970208D9170108259702082597020805
:1000B000E1170108E9170108F117010849D40108FF
:1000C00055D4010861D401086DD40108BD9401081C
:1000D000C194010825970208259702082597020870
:1000E000751F0208C5940108C9940108CD94010840
:1000F00025970208D194010825970208D594010894
:10010000D9940108DD940108F9170108E194010868
:1001100025970208259702082597020825970208C7
:10012000E5940108E9940108ED940108F1940108AF
:10013000F5940108F9940108FD940108019501085E
:1001400005950108099501080D950108454E02081D
:1001500011950108159501082597020819950108C0
:1001600079D4010885D401081D950108219501085D
:1001700025950108299501080000000000000000F5
:080180002D95010831950108DD
:1001900001F0FF01102A2BDB10F0070F08D010F838
:1001A000013B013A8B422DD010F0070F42B3F6D13C
:1001B000F0B441EA012141EA014122F007047FF055
:1001C00000070023F0E80256083C85EA010586EAAC
:1001D000010685FA47F5A3FA87F586FA47F6A5FAE8
:1001E00087F68EB9EED1F0BC01F0FF0102F00702F4
:1001F00032B110F8013B013A83EA010313B1F8D19F
:100200000020704701387047002D06BF354603387F
:10021000073815F0010F07D1013015F4807F02BFB8
:10022000013015F4C03F0130F0BC0138704700BF09
:1002300010B5054C237833B9044B13B10448AFF320
:1002400000800123237010BDC006002000000000C4
:10025000C0AB02080C4B43B10C480D4910B5AFF3CD
:1002600000800C48036823B910BD0A48036833B9FD
:100270007047094B002BF7D0BDE810401847064BDC
:10028000002BF5D0184700BF00000000C0AB0208EB
:10029000C4060020C006002000000000002815D081
:1002A000006041608260C360046145618661C7612E
:1002B000444604624C464462544684625C46C462CE
:1002C000644604636E46466374468463002906D020
:1002D000C46B043C043925680D60B442F9D1946BB9
:1002E000A646566BB546002B06D0D46B043C043BA7
:1002F0001D682560B442F9D1146BA446D46AA346A4
:10030000946AA246546AA146146AA046D7699669BF
:1003100055691469D3685168106892687047006025
:1003200041608260C360046145618661C761444683
:1003300004624C464462544684625C46C46264462D
:1003400004636E46466374468463C46B043C04399C
:1003500025680D60B442F9D1C769866945690469A9
:100360007047006041608260C360046145618661DE
:10037000C761444604624C464462544684625C460B
:10038000C462644604636C464463744684630469CF
:100390007047846BA646446BA546046BA446C46AAA
:1003A000A346846AA246446AA146046AA046C76975
:1003B000866945690469C368826800684168704756
:1003C00081F0004102E000BF83F0004330B54FEA06
:1003D00041044FEA430594EA050F08BF90EA020F73
:1003E0001FBF54EA000C55EA020C7FEA645C7FEA06
:1003F000655C00F0E2804FEA5454D4EB5555B8BF29
:100400006D420CDD2C4480EA020281EA030382EA99
:10041000000083EA010180EA020281EA0303362D2B
:1004200088BF30BD11F0004F4FEA01314FF4801CFE
:100430004CEA113102D0404261EB410113F0004F10
:100440004FEA03334CEA133302D0524263EB4303C7
:1004500094EA050F00F0A780A4F10104D5F1200E65
:100460000DDB02FA0EFC22FA05F2801841F10001C0
:1004700003FA0EF2801843FA05F359410EE0A5F194
:1004800020050EF1200E012A03FA0EFC28BF4CF0C5
:10049000020C43FA05F3C01851EBE37101F000457B
:1004A00007D54FF0000EDCF1000C7EEB00006EEB88
:1004B0000101B1F5801F1BD3B1F5001F0CD3490812
:1004C0005FEA30004FEA3C0C04F101044FEA445269
:1004D00012F5800F80F09A80BCF1004F08BF5FEAF0
:1004E000500C50F1000041EB045141EA050130BDD0
:1004F0005FEA4C0C404141EB010111F4801FA4F173
:100500000104E9D191F0000F04BF01460020B1FAC7
:1005100081F308BF2033A3F10B03B3F120020CDAFF
:100520000C3208DD02F1140CC2F10C0201FA0CF0DD
:1005300021FA02F10CE002F11402D8BFC2F1200C42
:1005400001FA02F120FA0CFCDCBF41EA0C019040F8
:10055000E41AA2BF01EB0451294330BD6FEA040441
:100560001F3C1CDA0C340EDC04F11404C4F120022C
:1005700020FA04F001FA02F340EA030021FA04F33E
:1005800045EA030130BDC4F10C04C4F1200220FA95
:1005900002F001FA04F340EA0300294630BD21FAD3
:1005A00004F0294630BD94F0000F83F4801306BF99
:1005B00081F480110134013D4EE77FEA645C18BF8D
:1005C0007FEA655C29D094EA050F08BF90EA020F24
:1005D00005D054EA000C04BF1946104630BD91EA1C
:1005E000030F1EBF0021002030BD5FEA545C05D11F
:1005F0004000494128BF41F0004130BD14F580045E
:100600003CBF01F5801130BD01F0004545F0FE41D1
:1006100041F470014FF0000030BD7FEA645C1ABF06
:10062000194610467FEA655C1CBF0B46024650EA3D
:10063000013406BF52EA033591EA030F41F4002169
:1006400030BD00BF90F0000F04BF0021704730B5EF
:100650004FF4806404F132044FF000054FF00001C4
:1006600050E700BF90F0000F04BF0021704730B585
:100670004FF4806404F1320410F0004548BF40425A
:100680004FF000013EE700BF42004FEAE2014FEAAF
:1006900031014FEA02701FBF12F07F4393F07F4F8A
:1006A00081F06051704792F0000F14BF93F07F4FBC
:1006B000704730B54FF4607401F0004521F00041FF
:1006C00020E700BF50EA010208BF704730B54FF085
:1006D00000050AE050EA010208BF704730B511F08A
:1006E000004502D5404261EB41014FF4806404F1C2
:1006F00032045FEA915C3FF4DCAE4FF003025FEA44
:10070000DC0C18BF03325FEADC0C18BF033202EBCB
:10071000DC02C2F1200300FA03FC20FA02F001FA25
:1007200003FE40EA0E0021FA02F11444C1E600BFC4
:1007300070B54FF0FF0C4CF4E06C1CEA11541DBF77
:100740001CEA135594EA0C0F95EA0C0F00F0DEF842
:100750002C4481EA030621EA4C5123EA4C5350EA27
:10076000013518BF52EA033541F4801143F4801378
:1007700038D0A0FB02CE4FF00005E1FB02E506F009
:100780000042E0FB03E54FF00006E1FB03569CF05E
:10079000000F18BF4EF0010EA4F1FF04B6F5007F64
:1007A00064F5407404D25FEA4E0E6D4146EB0606D6
:1007B00042EAC62141EA55514FEAC52040EA5E505F
:1007C0004FEACE2EB4F1FD0C88BFBCF5E06F1ED809
:1007D000BEF1004F08BF5FEA500E50F1000041EB40
:1007E000045170BD06F0004646EA010140EA0200ED
:1007F00081EA0301B4EB5C04C2BFD4EB0C0541EA0F
:10080000045170BD41F480114FF0000E013C00F323
:10081000AB8014F1360FDEBF002001F0004170BD47
:10082000C4F10004203C35DA0C341BDC04F1140460
:10083000C4F1200500FA05F320FA04F001FA05F2EC
:1008400040EA020001F0004221F0004110EBD370B9
:1008500021FA04F642EB06015EEA430E08BF20EAE5
:10086000D37070BDC4F10C04C4F1200500FA04F388
:1008700020FA05F001FA04F240EA020001F000411A
:1008800010EBD37041F100015EEA430E08BF20EA8D
:10089000D37070BDC4F1200500FA05F24EEA020ED5
:1008A00020FA04F301FA05F243EA020321FA04F004
:1008B00001F0004121FA04F220EA020000EBD370BB
:1008C0005EEA430E08BF20EAD37070BD94F0000FBB
:1008D0000FD101F00046400041EB010111F4801FEF
:1008E00008BF013CF7D041EA060195F0000F18BFA0
:1008F000704703F00046520043EB030313F4801FDC
:1009000008BF013DF7D043EA0603704794EA0C0F95
:100910000CEA135518BF95EA0C0F0CD050EA4106AB
:1009200018BF52EA4306D1D181EA030101F0004128
:100930004FF0000070BD50EA410606BF1046194650
:1009400052EA430619D094EA0C0F02D150EA01365C
:1009500013D195EA0C0F05D152EA03361CBF10469D
:1009600019460AD181EA030101F0004141F0FE413C
:1009700041F470014FF0000070BD41F0FE4141F4C0
:10098000780170BD70B54FF0FF0C4CF4E06C1CEAC0
:1009900011541DBF1CEA135594EA0C0F95EA0C0F75
:1009A00000F0A7F8A4EB050481EA030E52EA033530
:1009B0004FEA013100F088804FEA03334FF0805551
:1009C00045EA131343EA12634FEA022245EA11157E
:1009D00045EA10654FEA00260EF000419D4208BF2F
:1009E000964244F1FD0404F5407402D25B084FEADC
:1009F0003202B61A65EB03055B084FEA32024FF488
:100A000080104FF4002CB6EB020E75EB030E22BFE4
:100A1000B61A754640EA0C005B084FEA3202B6EBA4
:100A2000020E75EB030E22BFB61A754640EA5C0053
:100A30005B084FEA3202B6EB020E75EB030E22BFE3
:100A4000B61A754640EA9C005B084FEA3202B6EBE4
:100A5000020E75EB030E22BFB61A754640EADC00A3
:100A600055EA060E18D04FEA051545EA16754FEA05
:100A700006164FEAC30343EA52734FEAC2025FEA23
:100A80001C1CC0D111F4801F0BD141EA00014FF0B2
:100A900000004FF0004CB6E711F4801F04BF014383
:100AA0000020B4F1FD0C88BFBCF5E06F3FF6AFAE9F
:100AB000B5EB030C04BFB6EB020C5FEA500C50F12F
:100AC000000041EB045170BD0EF0004E4EEA1131B2
:100AD00014EB5C04C2BFD4EB0C0541EA045170BDB9
:100AE00041F480114FF0000E013C90E645EA060EFD
:100AF0008DE60CEA135594EA0C0F08BF95EA0C0F2B
:100B00003FF43BAF94EA0C0F0AD150EA01347FF472
:100B100034AF95EA0C0F7FF425AF104619462CE749
:100B200095EA0C0F06D152EA03353FF4FDAE1046AC
:100B3000194622E750EA410618BF52EA43067FF4FD
:100B4000C5AE50EA41047FF40DAF52EA43057FF48D
:100B5000EBAE12E74FF0FF3C06E000BF4FF0010C98
:100B600002E000BF4FF0010C4DF804CD4FEA410CFC
:100B70007FEA6C5C4FEA430C18BF7FEA6C5C1BD0C9
:100B800001B050EA410C0CBF52EA430C91EA030F4A
:100B900002BF90EA020F0020704710F1000F91EAA7
:100BA000030F58BF994208BF90422CBFD8176FEA75
:100BB000E37040F0010070474FEA410C7FEA6C5C43
:100BC00002D150EA013C07D14FEA430C7FEA6C5C4A
:100BD000D6D152EA033CD3D05DF8040B704700BF76
:100BE0008446104662468C461946634600E000BFC4
:100BF00001B5FFF7B7FF002848BF10F1000F01BD96
:100C00004DF808EDFFF7F4FF0CBF012000205DF860
:100C100008FB00BF4DF808EDFFF7EAFF34BF0120E5
:100C200000205DF808FB00BF4DF808EDFFF7E0FF7E
:100C300094BF012000205DF808FB00BF4DF808EDCF
:100C4000FFF7CEFF94BF012000205DF808FB00BF36
:100C50004DF808EDFFF7C4FF34BF012000205DF818
:100C600008FB00BF4FEA410C7FEA6C5C02D150EAFE
:100C7000013C0AD14FEA430C7FEA6C5C02D152EA94
:100C8000033C02D14FF0000070474FF00100704765
:100C90004FEA410212F5001215D211D56FF47873A4
:100CA000B3EB625212D94FEAC12343F0004343EA47
:100CB000505311F0004F23FA02F018BF4042704722
:100CC0004FF00000704750EA013005D111F00040AC
:100CD00008BF6FF0004070474FF00000704700BF42
:100CE0004A0011D212F5001211D20DD56FF47873AB
:100CF000B3EB62520ED44FEAC12343F0004343EA00
:100D0000505323FA02F070474FF00000704750EA4A
:100D1000013002D14FF0FF3070474FF000007047B4
:100D20004FEA4102B2F1E04324BFB3F5001CDCF10D
:100D3000FE5C0DD901F0004C4FEAC0024CEA507045
:100D4000B2F1004F40EB830008BF20F00100704774
:100D500011F0804F21D113F13872BCBF01F0004077
:100D6000704741F480114FEA5252C2F11802C2F1A9
:100D7000200C10FA0CF320FA02F018BF40F001002A
:100D80004FEAC1234FEAD32303FA0CFC40EA0C00DC
:100D900023FA02F34FEA4303CCE77FEA625307D119
:100DA00050EA01331EBF4FF0FE4040F44000704750
:100DB00001F0004040F0FE4040F40000704700BFEA
:100DC00053B94AB9002908BF00281CBF4FF0FF31B2
:100DD0004FF0FF3000F0DAB9ADF1080C6DE904CE48
:100DE00000F066F8DDF804E0DDE9022304B07047A6
:100DF0002DE9F84380EAE074A4EBE074E20757ECD5
:100E0000106B58BFDFF85C90054652BF4FF00008EA
:100E1000B046B946640832463B463046394613D0A0
:100E2000FFF786FCE30706460F46F3D540464946E2
:100E300032463B46FFF77CFC6408804689463246D2
:100E40003B4630463946EBD1002D07DA42464B4649
:100E500000200449FFF796FD8046894649EC108B37
:100E6000BDE8F8830000F03FD0B500220E4B0646E7
:100E70000F46FFF75DFCFFF733FF0446FFF7E2FB89
:100E800000220A4BFFF754FC02460B463046394617
:100E9000FFF79AFAFFF724FF2346002242EA0002F6
:100EA00010461946D0BD00BF0000F03D0000F041E3
:100EB0002DE9F0478C460D460446089E002B51D183
:100EC0008A4217466DD9B2FA82FEBEF1000F0BD0EE
:100ED000CEF1200C01FA0EF520FA0CFC02FA0EF706
:100EE0004CEA050C00FA0EF44FEA174A250CBCFB3D
:100EF000FAF81FFA87F90AFB18CC45EA0C4508FBFB
:100F000009F3AB420AD9ED1908F1FF3280F02381D1
:100F1000AB4240F22081A8F102083D44ED1AA4B290
:100F2000B5FBFAF00AFB105544EA054400FB09F949
:100F3000A14509D9E41900F1FF3380F00A81A145E8
:100F400040F2078102383C44A4EB090440EA08401F
:100F50000021002E61D024FA0EF400233460736067
:100F6000BDE8F0878B4207D9002E54D0002186E8D7
:100F700021000846BDE8F087B3FA83F1002940F06C
:100F80008E80AB4202D3824200F2FA80841A65EB73
:100F900003050120AC46002E3FD086E81010BDE8C6
:100FA000F08712B90127B7FBF2F7B7FA87FEBEF157
:100FB000000F34D1EB1B3A0C1FFA87FC0121B3FB65
:100FC000F2F8250C02FB183345EA03450CFB08F345
:100FD000AB4207D9ED1908F1FF3002D2AB4200F263
:100FE000D1808046ED1AA3B2B5FBF2F002FB10559A
:100FF00043EA05440CFB00FCA44507D9E41900F1C1
:10100000FF3302D2A44500F2B8801846A4EB0C04CA
:1010100040EA08409DE731463046BDE8F087CEF112
:10102000200405FA0EF307FA0EF720FA04F83A0C3A
:1010300025FA04F448EA0308B4FBF2F14FEA184534
:1010400002FB11441FFA87FC45EA044501FB0CF33F
:10105000AB4200FA0EF409D9ED1901F1FF3080F02E
:101060008A80AB4240F2878002393D44EB1A1FFA76
:1010700088F5B3FBF2F002FB103345EA034500FBB1
:101080000CF3AB4207D9ED1900F1FF386FD2AB4238
:101090006DD902383D44EB1A40EA01418FE7C1F1B6
:1010A000200722FA07F88B4005FA01F448EA030307
:1010B00020FA07FE4FEA134CFD404EEA040EB5FB42
:1010C000FCF94FEA1E440CFB19551FFA83F844EA59
:1010D000054509FB08F4AC4202FA01F200FA01FAF4
:1010E00008D9ED1809F1FF3043D2AC4241D9A9F13A
:1010F00002091D442D1B1FFA8EFEB5FBFCF00CFBF4
:1011000010554EEA054400FB08F8A04507D9E4183D
:1011100000F1FF3529D2A04527D902381C4440EA06
:101120000940A4EB0804A0FB02894C45C6464D4685
:1011300015D312D056B1BAEB0E0364EB050404FAD2
:1011400007F7CB401F43CC40376074600021BDE8F7
:10115000F0871846F8E69046E0E6C245EAD2B8EBDA
:10116000020E69EB03050138E4E72846D7E740465D
:1011700091E78146BEE7014678E702383C4445E7FF
:10118000084608E7A8F102083D442BE7704700BF76
:1011900010F8012B11F8013B012A28BF9A42F7D021
:1011A000D01A7047034613F8012B002AFBD1181AF6
:1011B00001387047000000002DE9F04F85B0039121
:1011C0000778A7F10903042B044607F07F0200F11A
:1011D0000100F5D9202AF3D02B2F04BF67780446ED
:1011E0002D2F71D09FED407B8DED007B4FF00008DF
:1011F0004FF000098FB34FF0000E4FF0000ADFF8F8
:1012000000B1754619E0FFF793FA804689463046EB
:10121000FFF728FA42464B46FFF7D8F85246804679
:1012200089465B46DDE9000135B3FFF7ABFBCDE94D
:101230000001AE4614F8017F7FB1A7F13006092EF8
:1012400052465B4640464946DDD9C5B92E2F16D1D8
:1012500014F8017F0125002FEFD142464B46DDE90E
:101260000001FFF765FA80468946039B49EC108B25
:101270001C6005B0BDE8F08F4FF0010EDAE7BEF15B
:10128000000F28D042464B46DDE90001FFF750FA37
:1012900007F0DF07452F80468946E6D103990A22E9
:1012A000601C27F06BFF9FED120BFFF7A1FD40467E
:1012B00053EC102B4946FFF73BFA8046894649EC30
:1012C000108B05B0BDE8F08F9FED0B7B67788DED3F
:1012D000007B01348AE7DFF82C904FF0000849ECDE
:1012E000108B05B0BDE8F08F000000000000F03F5B
:1012F0000000000000002440000000000000F0BFDB
:10130000000024400000F87F00B52DED028B83B073
:1013100006F0F6FC01A9FFF74FFF0022002351EC75
:10132000100BB0EE408AF0EE608AFFF769FC40B91E
:10133000B0EE480AF0EE680A07F0B6F808B99FED7B
:10134000068BB0EE480AF0EE680A07F023FB03B004
:10135000BDEC028B5DF804FB000000000000F87F8C
:101360002DE9F84F55EC104B06460022002310EEF5
:10137000100A2946FFF74EFC002840F09F8000220B
:10138000002320462946FFF73BFC28B130220023EA
:1013900032707370BDE8F88F45EC104B25F0D4FC2B
:1013A00051EC100BFFF774FC7BA3D3E900238146BB
:1013B00029462046FFF72EFC002800F08680B9F170
:1013C000000FC0F2BE8048469FED6D0BFFF710FD89
:1013D0002046294653EC102BFFF7D4FA04460D465D
:1013E0006FA1D1E9000101274FF0000822462B46EA
:1013F000FFF79EF90022664BFEF7E8FFFFF734FD8A
:10140000002FCC464FF0FF3AC1464FF0000840F3A2
:101410008580DFF894E15F4C0122AEF1700945F65A
:10142000F3254FF02E0BA94208BFA0424FF0300326
:1014300009D3001B61EB0501A94208BFA04203F1DB
:101440000103F6D2DBB2337050EA010306F1010466
:1014500009D1BA4210DACE4502F101020CD026467B
:101460007EE80245DFE7BA4204BF86F801B0B41C4B
:10147000CE4502F10102F2D1B8F1000F0DD02246A3
:10148000302102F8011BC2F1010353442344002B15
:10149000F7DC2AEAEA7301331C44BCF1010F4CD09B
:1014A0006523BCF1000F2370C5BF2B236370611C43
:1014B000A11C6046BDE8F84F0BF06CBA05F1004383
:1014C0001D462D233370013659E72FA3D3E900239E
:1014D00020462946FFF7BCFB00287FF470AFB9F126
:1014E0000E0F09F101073DDDA9F10E0840469FED01
:1014F000240BFFF77DFC204653EC102B2946FFF709
:1015000041FA0022224BFEF761FFFFF7ADFC002FEE
:10151000A9F10F0A4FF0010C3FF77BAF33463022A1
:101520002E2403F8022B74707FEA090618D01E449B
:1015300003F8012BB342FBD16BE700232370BDE816
:10154000F88FC9F100009FED0E0BFFF751FC20460C
:10155000294653EC102BFFF7EBF804460D463FE706
:101560001E4656E7C9F10E009FED050BFFF740FC44
:10157000C84651EC100B4FF0010937E7AFF300807C
:10158000000000000000244050EFE2D6E41A4B4473
:101590000000E03F00407A108DEDB5A0F7C6B03EE8
:1015A0000000901EC4BCD642B8B002080000000083
:1015B00070B54FF0FF3007F0F1F804466FF07F4050
:1015C00007F0ECF806462046FFF73CF800220E4BE9
:1015D000FFF7AEF8044630460D46FFF733F808A390
:1015E000D3E90023FFF7CEF902460B4620462946F1
:1015F000FEF7ECFE41EC100B70BD00BFAFF30080B6
:101600000000E0DFFFFF6F430000F03D000000003E
:1016100038B52DED028B044606F086FFC8B920468A
:1016200006F08CFF30B1A30914BF01200020BDECEF
:10163000028B38BD4CB1204607F09AFBB0EE408AD1
:10164000F0EE608A06F030FF48B9BDEC028B002056
:1016500038BD204606F088FFBDEC028B38BDB0EEE9
:10166000480AF0EE680A25F029F89FED0F1B25F0D7
:1016700081FA55EC104B0022002310EE100A294687
:10168000FFF7C8FA20B920462946FFF729FBCEE725
:10169000204629460022064BFEF798FE04460D46DA
:1016A000F1E700BFAFF30080000000000000F04150
:1016B0000000F041000000002DE9D04F04462DED60
:1016C000028BC068FEF7CEFF804620698946FEF790
:1016D000C9FF824660698B46FEF7C4FF024601F1EE
:1016E000004343EC112B49EC108B06460F4625F0C6
:1016F000C3F951EC100BFFF713FBE06200EE100A88
:1017000008EE100A0CF010F910EE100AFEF7BCFFFC
:1017100042464B46FFF70CF8B0EE480A8046894631
:101720000CF000F910EE100AFEF7AEFF32463B4611
:10173000FEF7FEFF02460B4640464946FEF744FED2
:101740004BEC10AB41EC110B25F096F951EC100B62
:10175000FFF7E6FA002208EE100A00233046394669
:10176000FFF776FA20B3B5EEC08AF1EE10FA1BDD72
:1017700011A7D7E9006718EE100AFEF785FF0246A9
:101780000B4630463946FEF71FFE32463B46FEF713
:101790001DFEFFF7C5FAA062BDEC028BE38843F0A3
:1017A0000203E380BDE8D08F05A7D7E90067E2E731
:1017B00084ED0A8AF0E700BFEA2E4454FB21F93F8A
:1017C000EA2E4454FB21F9BF08B50CF075FADFEDA1
:1017D0000A7A60EE277A17EE900AFEF755FF04A307
:1017E000D3E90023FFF7CEF8FFF752FA08BD00BF98
:1017F000EA2E4454FB2119400000B44300000000CD
:1018000008B50CF06DFADFED0A7A60EE277A17EE74
:10181000900AFEF739FF04A3D3E90023FFF7B2F8DB
:10182000FFF736FA08BD00BFEA2E4454FB211940E9
:101830000000B4430000000010B52DED088B0446F5
:1018400084B0406C9FED34BA0CF04AFA606CB0EE94
:10185000409A0CF031FA2146022201A8F0EE40AA8B
:101860000CF05EFBDDED027AB8EEE78ADDED037A7F
:10187000B0EE490AF8EEE78A0CF056F8F0EE409A1E
:10188000B0EE490A0CF04EF8B0EE40AAB0EE6A0A8B
:101890000CF04AF8B0EE409AB0EE6A0A0CF042F84A
:1018A00068EE097A9DED017A67EEA97AB8EEC77AFB
:1018B00028EE899AE7EE007A6AEE480AB0EE670AE7
:1018C000E8EEA90AAAEE090A0CF098FA60EE0B7A83
:1018D00017EE900AFEF7D8FE0DA3D3E90023FFF719
:1018E00051F8FFF71DFADFED0D7A07EE100A77EEDB
:1018F000C77AF5EEC07AF1EE10FA48BF77EE8B7A30
:10190000FDEEE77A17EE900A04B0BDEC088B10BD2F
:10191000EA2E4454FB2119400000B4430000B442B5
:1019200000B585B00146012201A80CF0F9FADDED01
:10193000027AF8EEE70ADDED017AB8EEE70A0CF07C
:101940005DFADFED137A60EE277A17EE900AFEF764
:101950009BFE0DA3D3E90023FFF714F8FFF7E0F98E
:1019600007EE900AF5EEC07AF1EE10FA44BF9FED53
:10197000097A77EE877AFDEEE77A17EE900A05B0DE
:101980005DF804FBAFF30080EA2E4454FB210940CC
:10199000000034430000B4432DE9704355EC104B74
:1019A000554A25F00043934258DC544A93422E4650
:1019B00013DC4DA3D3E9002310EE100A2946FEF7ED
:1019C00005FD00224E4BFFF743F900285DD020466D
:1019D000294641EC100BBDE870834A4A934248DC2B
:1019E000B3F1804F51DD24F0D5FD22462B46204631
:1019F000294659EC108BFEF79BFE0022404BFEF768
:101A0000E5FC41EC100B25F071FC404653EC102B2B
:101A10004946FEF7DBFC02460B4600203849FEF73C
:101A2000B1FF424604460D464B4640464946FEF746
:101A3000CDFC02460B4620462946FEF7C7FC41EC8A
:101A4000100B02F03DFA51EC100B002E0DDC01F1F1
:101A50000043194641EC100BBDE8708310EE102ACC
:101A60002B4620462946FEF7B1FC41EC100BBDE8A1
:101A7000708324F08FFD02F023FA1DA3D3E9002325
:101A800051EC100BFEF7A2FCDFE722462B46204666
:101A90002946FEF74DFE45EC104B8046894624F062
:101AA00079FD0022164B4046494655EC104BFEF797
:101AB0008DFC41EC100B25F019FC002251EC100BB1
:101AC0000F4BFEF783FC02460B4640464946FEF7A5
:101AD00059FF22462B46FEF779FC41EC100B00F033
:101AE0004BFB51EC100BB0E79C7500883CE4377E53
:101AF000EF39FAFE422EE63FFFFFEF7FFFFF2F3E5A
:101B00000000F03F0000B0412DE9F84F55EC104BBC
:101B1000CD4B25F000469E42AA4610DDCB4B9E429F
:101B200000F3B38000F0AE80BAF1000F40F3F7800D
:101B3000A9A1D1E9000141EC100BBDE8F88FC44B1D
:101B40009E4200F3C180A3F1DE739E4240F3A78062
:101B50004FF0FF3B22462B4620462946FEF7E8FD84
:101B600002460B4680468946FEF7E2FD9CA3D3E978
:101B7000002306460F46FEF7DBFD9BA3D3E90023B7
:101B8000FEF724FC32463B46FEF7D2FD98A3D3E98C
:101B90000023FEF71BFC32463B46FEF7C9FD96A329
:101BA000D3E90023FEF712FC32463B46FEF7C0FDA8
:101BB00093A3D3E90023FEF709FC32463B46FEF728
:101BC000B7FD91A3D3E90023FEF700FC42464B4644
:101BD000FEF7AEFD8EA3D3E900238046894630464A
:101BE0003946FEF7A5FD8CA3D3E90023FEF7ECFBF5
:101BF00032463B46FEF79CFD89A3D3E90023FEF75E
:101C0000E3FB32463B46FEF793FD87A3D3E900236F
:101C1000FEF7DAFB32463B46FEF78AFD84A3D3E9A2
:101C20000023FEF7D1FB32463B46FEF781FDBBF1B8
:101C3000FF3F02460B4676D040464946FEF7C6FBBC
:101C400022462B46FEF774FD824E834B4FEACB0BA8
:101C50005E449B44DBE90023FEF7B6FB22462B469D
:101C6000FEF7B2FB02460B46D6E90001FEF7ACFBDD
:101C7000BAF1000F0FDA01F10043194641EC100BE5
:101C8000BDE8F88F002C3FF44FAF22462B4620468C
:101C90002946FEF79BFB41EC100BBDE8F88F66A3CD
:101CA000D3E9002310EE100A2946FEF78FFB00222D
:101CB0006A4BFEF7CDFF00283FF44AAF2046294685
:101CC00041EC100BBDE8F88F24F064FC644B9E429D
:101CD00055EC104B36DCA3F550239E425FDC10EE32
:101CE000102A10EE100A2B462946FEF76FFB002241
:101CF0005A4BFEF769FB002206460F464FF0804321
:101D000020462946FEF762FB02460B46304639461E
:101D1000FEF738FE4FF0000B04460D461AE748A1C7
:101D2000D1E90001B7E740464946FEF74FFB22469E
:101D30002B46FEF7FDFC02460B4620462946FEF7E1
:101D400043FBA8E7474B9E421DDC10EE100A002221
:101D5000454B2946FEF738FB002206460F46424B0C
:101D600020462946FEF7E4FC00223C4BFEF72EFB02
:101D700002460B4630463946FEF704FE4FF0020B92
:101D800004460D46E6E62B4610EE102A00203749A1
:101D9000FEF7F8FD4FF0030B04460D46DAE610EEB1
:101DA000100A00222D4B2946FEF70EFB00220646A4
:101DB0000F462A4B20462946FEF708FB02460B46F3
:101DC00030463946FEF7DEFD4FF0010B04460D4666
:101DD000C0E600BFAFF30080182D4454FB21F93F4B
:101DE00011DA22E33AAD903FEB0D76244B7BA93F0D
:101DF000513DD0A0660DB13F6E204CC5CD45B73FDB
:101E0000FF8300922449C23F0D5555555555D53F86
:101E10002F6C6A2C44B4A2BF9AFDDE522DDEAD3F7A
:101E20006D9A74AFF2B0B33F711623FEC671BC3F1A
:101E3000C4EB98999999C93F9C7500883CE4377E1A
:101E4000182D4454FB21F9BFFFFF0F440000F07F21
:101E5000FFFFDB3FC8B00208E8B002080000F03F17
:101E6000FFFFF23FFF7F03400000F83F0000F0BF9C
:101E700051EC100B2DE9F843C1F30A59A9F2FF35D3
:101E8000132D0C4610EE106A884610EE107A22DCF4
:101E9000002D52DB3E4B43FA05F901EA09030343E7
:101EA0001ED039A3D3E90023FEF790FA00220023C5
:101EB000FEF7CEFE48B1002C04DD4FF4801343FA48
:101EC00005F5A84428EA0904002723463A4643ECCE
:101ED000102BBDE8F883332D06DDB5F5806F3FD0BC
:101EE00041EC100BBDE8F883A9F213494FF0FF3322
:101EF00023FA09F910EA090FF2D023A3D3E900234A
:101F0000FEF764FA00220023FEF7A2FE0028DCD0D0
:101F1000002C09DD142D32D00127C5F1340507FA54
:101F200005F5AE1928BFB844444626EA09072346FA
:101F30003A4643EC102BBDE8F88313A3D3E9002302
:101F4000FEF744FA00220023FEF782FE0028BCD0F0
:101F5000002C10DB54EA06070BD000270D4CB4E729
:101F600010EE102A0B46FEF731FA41EC100BBDE8DB
:101F7000F8833C46A9E700274FF00044A5E704F1A9
:101F80000108D1E7AFF300809C7500883CE4377E00
:101F9000FFFF0F000000F03F00B551EC100B2C4A82
:101FA00021F00043934285B020DD2A4A934209DDA7
:101FB00010EE102A0B46FEF707FA41EC100B05B0A5
:101FC0005DF804FB684602F093FF00F0030001286F
:101FD00028D0022815D060B301209DED021B9DED95
:101FE000000B04F00DF851EC100BE6E79FED161B0B
:101FF00003F08AFA51EC100B41EC100B05B05DF8C0
:1020000004FB9DED021B9DED000B03F07DFA53ECEC
:10201000102B10EE100A03F1004141EC100B05B03B
:102020005DF804FB9DED021B9DED000B03F0E8FF46
:10203000EDE79DED021B9DED000B03F065FA51EC01
:10204000100BBAE7AFF300800000000000000000B2
:10205000FB21E93FFFFFEF7F51EC100BC1F30A5367
:102060002DE9F041A3F2FF35132D0C460F4610EE7B
:10207000106A1DDC002D43DB3D4B43FA05F801EAF5
:102080000803034319D038A3D3E90023FEF79EF9D0
:1020900000220023FEF7DCFD20B1002C49DB27EAFB
:1020A000080400262346324643EC102BBDE8F0819D
:1020B000332D06DDB5F5806F32D041EC100BBDE855
:1020C000F081A3F213434FF0FF3828FA03F810EA27
:1020D000080FF2D024A3D3E90023FEF777F90022FA
:1020E0000023FEF7B5FD0028DCD0002C27DB3C46A2
:1020F00026EA08062346324643EC102BBDE8F08161
:1021000019A3D3E90023FEF761F900220023FEF7AB
:102110009FFD0028C6D0002C1CDB00263446C1E7FA
:1021200010EE102A0B46FEF751F941EC100BBDE8FA
:10213000F0814FF4801343FA05F52F44AFE7142DD7
:1021400010D00123C5F1340503FA05F5AE1928BFF7
:10215000FF18CCE724F00042064B324318BF1C4660
:1021600000269FE70137C2E79C7500883CE4377E74
:10217000FFFF0F000000F0BF2DE9F04FDA4B59ECE4
:10218000108B994587B04E4619DCD84B29F0004496
:102190009C4222DD0022D64B10EE100A4946FEF783
:1021A0002FFD002800F08180002200230020D1496B
:1021B000FEF7E8FB41EC100B07B0BDE8F08FCE4B0B
:1021C000994534DD42464B4640464946FEF7FEF807
:1021D00041EC100B07B0BDE8F08FC84B9C4273DD9B
:1021E000C74B1E449E4200F284800022C54B4046ED
:1021F0004946FEF7EBF84FEA215AAAF2FF3ABAF144
:10220000000F04460D460E4640F3EE8142464B4613
:10221000FEF7DAF802460B460020BA49FEF7D4F87A
:1022200022462B46FEF7AEFBCDE902010BE0B64B92
:102230009E42DADD9FED967B8DED027B4FEA265ABA
:102240004446AAF2FF3AB14BC6F313069E4246F04B
:102250007F5500F3F18045F44015204629460022C1
:10226000A84BFEF7B1F8002204460D46A84BFEF736
:102270005FFA22462B46FEF75BFAA046CDE9040141
:10228000A946CDE90001002E42D1002200232046BC
:102290002946FEF7B5FC002800F0D880BAF1000FFF
:1022A00040F082819FED7A0B94E742464B464046D0
:1022B0003146FEF789F802460B46FEF763FB41EC18
:1022C000100B07B0BDE8F08F0022924B10EE100A01
:1022D0004946FEF77BF800220023FEF7B9FC0028F0
:1022E00000F01C818C4B9C4200F3188149EC108B50
:1022F00070E70022864B10EE100A4946FEF718FAE6
:1023000042464B46FEF714FACDE900014FF0000AB1
:1023100000224FF0804340464946FEF757F80246F8
:102320000B4640464946FEF72DFB02460B46064645
:102330000F46FEF7FDF958A3D3E9002304460D46E6
:10234000FEF7F6F956A3D3E90023FEF73FF822463D
:102350002B46FEF7EDF954A3D3E90023FEF736F838
:1023600022462B46FEF7E4F951A3D3E90023FEF7FA
:102370002DF822462B46FEF7DBF94FA3D3E90023C5
:10238000FEF724F822462B46FEF7D2F94CA3D3E9F8
:102390000023FEF71BF822462B46FEF7C9F94AA395
:1023A000D3E90023FEF712F822462B46FEF7C0F9C8
:1023B00004460D46BAF1000F00F0C5805046FEF706
:1023C00051F943A3D3E9002382468B46FEF7B0F9C7
:1023D000DDE90023CDE9040120462946FDF7F6FF9B
:1023E00032463B46FEF7A4F93BA3D3E9002304465B
:1023F0000D4650465946FEF79BF9DDE90223FDF7ED
:10240000E5FF02460B4620462946FDF7DFFF024660
:102410000B46DDE90001FDF7D7FF42464B46FDF7CD
:10242000D3FF02460B46DDE90401FDF7CDFF41EC89
:10243000100B07B0BDE8F08F45F40015C6F5801607
:1024400020462946B6100AF1010A08E724A3D3E979
:10245000002320462946FEF76BF902460B46002072
:102460002849FDF7B1FFDDE90423FEF761F90646CF
:102470000F46BAF1000F77D102460B462046294697
:10248000FDF7A2FF41EC100BA4E600BFAFF3008004
:10249000000000000000000044523EDF12F1C23F85
:1024A0009FC678D0099AC33FDE03CB966446C73FE8
:1024B000AF788E1DC571CC3F599322942449D23FE9
:1024C00004FA97999999D93F935555555555E53F34
:1024D0000000E0FE422EE63F763C7935EF39EA3DDA
:1024E000555555555555E53F7982DA3FFFFFEF3F8A
:1024F0000000F0BF000050C3FFFFEF7FFFFF1F3E53
:102500003C412D400000F03FFFFF3F439DA00600EF
:102510000000E03F00005043FFFF8F3C42464B4627
:1025200040464946FEF704F90022394BFEF700F910
:1025300002460B4640464946FDF746FF41EC100B6C
:1025400007B0BDE8F08FDDE9004522462B46FDF7D8
:102550003DFF32463B46FEF7EBF802460B4620466F
:102560002946FDF731FFE3E75046FEF77BF824A349
:10257000D3E9002382468B46FEF7DAF822A3D3E99B
:1025800000238046894650465946FEF7D1F8DDE9DA
:102590000223FDF71BFF02460B4630463946FDF786
:1025A00013FF22462B46DCE75046FEF75BF816A3E6
:1025B000D3E9002306460F46FEF7BAF8DDE9022309
:1025C000FDF704FF0EA3D3E9002304460D46304671
:1025D0003946FEF7ADF802460B4620462946FDF780
:1025E000F5FE41EC100BF5E500220A4BFDF7ECFE81
:1025F00002460B4640464946FDF7E6FE10E600BFA0
:102600000000E0FE422EE63F763C7935EF39EA3DA8
:102610000000E03F0000F03F08B524F011FB06A3E6
:10262000D3E9002351EC100BFEF7ACF941EC100B91
:1026300008BD00BFAFF30080EF39FAFE422EE63F3F
:1026400000B551EC100B2C4A21F00043934285B0A9
:1026500027DD2A4A934209DD10EE102A0B46FDF7CA
:10266000B3FE41EC100B05B05DF804FB684602F0C8
:102670003FFC00F00300012827D002281DD068B3DA
:102680009DED021B9DED000B02F03EFF53EC102B65
:1026900010EE100A03F1004141EC100B05B05DF89B
:1026A00004FB00209FED121B03F0AAFC51EC100B61
:1026B00041EC100B05B05DF804FB01209DED021B01
:1026C0009DED000B03F09CFCE0E79DED021B9DEDF2
:1026D000000B02F019FF51EC100BC2E701209DED39
:1026E000021B9DED000B03F08BFC51EC100BB8E7C7
:1026F0000000000000000000FB21E93FFFFFEF7F2A
:1027000000B551EC100B184A21F00043934285B0FC
:102710001DDD164A934209DD10EE102A0B46FDF727
:1027200053FE41EC100B05B05DF804FB684602F067
:10273000DFFB400000F00200C0F101009DED021B34
:102740009DED000B03F028FD05B05DF804FB0120B2
:102750009FED031B03F020FD05B05DF804FB00BFF7
:102760000000000000000000FB21E93FFFFFEF7FB9
:1027700030B52DED048BB0EE408AF0EE608A2C4C23
:102780008BB001F055F994F90030B0EE409AF0EEBC
:10279000609A01332ED053EC182B51EC180BFEF736
:1027A00061FA054630BBB0EE480AF0EE680A23F045
:1027B000F1FE1DA3D3E9002351EC100BFEF748FAFC
:1027C000C0B11C4A94F90030089503218DED048BAB
:1027D0008DED028B8DE80600A3B9174B4FF06042D8
:1027E000CDE90623684625F0BFFC88B1089BB3B944
:1027F0009DED069BB0EE490AF0EE690A0BB0BDEC08
:10280000048B30BD0D490020022BCDE90601E9D132
:1028100025F0F6FE22230360089B002BE8D025F06C
:10282000EFFE089B0360E3E77DF8B98FCE33864067
:10283000BD060020A4CF0208FFFFEF470000F07F95
:10284000F0B52DED048BB0EE408AF0EE608A384C86
:102850008BB001F0A1F994F90030B0EE409AF0EE9F
:10286000609A013334D0B0EE480AF0EE680A25F0E1
:1028700073FC68B32AA3D3E9002351EC180BFEF7CD
:10288000E7F9054660BB28A3D3E9002351EC180BF8
:10289000FEF7C0F9E0B194F90030264A0895002609
:1028A00000270421022B8DED048B8DED028BCDE9E9
:1028B00006678DE806002CD0684625F055FC40B32D
:1028C000089B1BB125F09CFE089B03609DED069BB9
:1028D000B0EE490AF0EE690A0BB0BDEC048BF0BD16
:1028E000144A94F900300192032100228DED048BEB
:1028F0008DED028B009108922BB90F4B4FF0604287
:10290000CDE90623D8E70D490020022BCDE90601C9
:10291000D2D125F075FE22230360D1E7AFF300800A
:10292000EF39FAFE422E864051302DD5104987C02E
:10293000BD060020ACCF0208FFFFEF470000F07F8C
:102940002DE9F04F2DED028BDFF80CA38BB057EC87
:10295000106B55EC114B01F05BFD9AF90080B0EE65
:10296000408AF0EE608AB8F1FF3F34D022462B4611
:1029700020462946FEF776F9834660BB32463B4641
:1029800030463946FEF76EF98146002840F09F80B8
:102990003046394600220023FEF732F920B30022E8
:1029A000002320462946FEF72BF98346002867D0EE
:1029B0009FED9F7B0122A44BCDF820900092CDE9A2
:1029C0000267CDE904458DED067B0193B8F1000F58
:1029D00049D09FED998BB0EE480AF0EE680A0BB033
:1029E000BDEC028BBDE8F08FB0EE480AF0EE680A4D
:1029F00025F0B2FB8046002800F084804FF00008EC
:102A00004FF0000951EC180B42464B46FEF7F8F820
:102A10000028E0D047EC106B25F09EFB0028DAD0B0
:102A200045EC104B25F098FB0028D4D09AF90030E3
:102A3000854A019204210022022BCDE90267CDE9EB
:102A40000445CDE906890091089203D0684625F037
:102A50008BFB60B925F0D4FD2223036007E09FEDD6
:102A6000747B8DED067B684625F07EFB50B3089B9A
:102A70001BB125F0C5FD089B03609DED068BAAE701
:102A800045EC104B25F068FB0028A4D00022002361
:102A900020462946FEF7BEF800289CD06A4A9AF9DB
:102AA0000030CDF820B00121CDE90267CDE9044521
:102AB0008DE80600002BD2D064490020022BCDE91E
:102AC0000601D0D125F09CFD21230360CFE7002231
:102AD000002320462946FEF793F800283FF47BAFF9
:102AE0009FED558B584BCDF820B00122B8F1020F65
:102AF000CDE90267CDE904458DED068B8DE80C002C
:102B0000B1D168E747EC106B25F026FB00283FF4B5
:102B100075AF45EC104B25F01FFB00283FF46EAF5E
:102B200053EC182B18EE100A1946FEF79BF80028F4
:102B300061D103239AF900800093434B0890CDE9BB
:102B40000267CDE904450193B8F1000F2DD1DFF8FC
:102B50000C914FF060480022002330463946CDE901
:102B60000689FEF757F800283FF470AF0022384B73
:102B700020462946FDF7DCFD04460D4645EC104B8A
:102B800025F0F4FA204653EC102B2946FEF738F8CE
:102B900070BB304B9AF900804FF06042CDE90623BC
:102BA000B8F1020F7FF452AF54E79FED257B00226E
:102BB0000023304639468DED067BFEF72BF80028C2
:102BC000EED00022224B20462946FDF7B1FD0446F7
:102BD0000D4645EC104B25F0C9FA204653EC102B5E
:102BE0002946FEF70DF818B9184B0022CDE9062347
:102BF0009AF90080D4E7144B9AF90090CDF8208020
:102C00000122CDE90267CDE904458DE80C00B9F158
:102C1000000F3FF424AF0022002310461946FDF7B1
:102C2000B1FEB9F1020FCDE906013FF44BAF1AE74F
:102C30000000000000000000000000000000F03F65
:102C4000000000000000F07FC4CF02080000F0FF89
:102C50000000E03FFFFFEFC7BD060020FFFFEF478A
:102C60002DE9F84F55EC104BCD4925F000438B4230
:102C70000DDD03F1404303F58013234340F0BD8095
:102C8000002D40F34F819FEDAA0BBDE8F88FC54999
:102C90008B4240F3AB80002DC0F28C8110EE102AE5
:102CA0002B460020C049FDF78FFB0022BF4BFDF7EC
:102CB0003FFD04460D4645EC104B24F017FB204623
:102CC00029469DA3D3E9002359EC108BFDF730FD75
:102CD0009BA3D3E90023FDF779FB22462B46FDF7A2
:102CE00027FD99A3D3E90023FDF76EFB22462B466F
:102CF000FDF71EFD96A3D3E90023FDF767FB2246EF
:102D00002B46FDF715FD94A3D3E90023FDF75CFBEB
:102D100022462B46FDF70CFD91A3D3E90023FDF7D6
:102D200055FB22462B46FDF703FD8FA3D3E9002375
:102D300082468B4620462946FDF7FAFC8CA3D3E950
:102D40000023FDF741FB22462B46FDF7F1FC8AA349
:102D5000D3E90023FDF73AFB22462B46FDF7E8FCBA
:102D600087A3D3E90023FDF72FFB22462B46FDF76F
:102D7000DFFC00228C4BFDF729FB02460B46504638
:102D80005946FDF7FFFD42464B46FDF7D1FC0026B4
:102D900082468B4632464B4630464946FDF7C8FCD4
:102DA00002460B4620462946FDF70EFB32460446F6
:102DB0000D464B4640464946FDF708FB02460B468A
:102DC00020462946FDF7DEFD02460B465046594691
:102DD000FDF7FCFA32464B46FDF7F8FA02460B4681
:102DE000FDF7F4FA41EC100BBDE8F88F704A9342FE
:102DF00012DC9FED650BBDE8F88F10EE102A2B4614
:102E000020462946FDF7E0FA02460B46FDF7BAFDDB
:102E100041EC100BBDE8F88F10EE102A10EE100AEE
:102E20002B462946FDF784FC43A3D3E9002306463D
:102E30000F46FDF77DFC42A3D3E90023FDF7C6FA58
:102E400032463B46FDF774FC3FA3D3E90023FDF770
:102E5000BBFA32463B46FDF76BFC3DA3D3E90023AA
:102E6000FDF7B4FA32463B46FDF762FC3AA3D3E9DC
:102E70000023FDF7A9FA32463B46FDF759FC38A37B
:102E8000D3E90023FDF7A2FA32463B46FDF750FC9A
:102E900035A3D3E900238046894630463946FDF7FD
:102EA00047FC33A3D3E90023FDF78EFA32463B46B5
:102EB000FDF73EFC30A3D3E90023FDF787FA324645
:102EC0003B46FDF735FC2EA3D3E90023FDF77CFA42
:102ED00032463B46FDF72CFC0022334BFDF776FAD9
:102EE00002460B4640464946FDF74CFD22462B461E
:102EF000FDF71EFC02460B4625A1D1E90001FDF7B6
:102F000063FA02460B4620462946FDF75DFA024663
:102F10000B461DA1D1E90001FDF756FA41EC100B5B
:102F2000BDE8F88F9FED1C0BBDE8F88FAFF3008074
:102F3000000000000000000009F7FD0DE13D023F28
:102F400088B20175E0EF493F3B8F68B52882A43F06
:102F50005544880E55C1C93F7D6FEB0312D6D43F4F
:102F6000555555555555C53F82922EB1C5B8B33FFD
:102F700059018D1B6C06E63FC88A599CE52A004022
:102F80004B2D8A1C273A0340182D4454FB21F93F4E
:102F9000075C143326A6913C182D4454FB210940AC
:102FA000FFFFEF3FFFFFDF3F0000F03F0000E03F8B
:102FB0000000603C10EE100A294600225E4BFDF72F
:102FC00005FA00225D4BFDF7B3FB43A3D3E90023D1
:102FD00004460D46FDF7ACFB41A3D3E90023FDF702
:102FE000F5F922462B46FDF7A3FB3FA3D3E90023C7
:102FF000FDF7EAF922462B46FDF79AFB3CA3D3E9FD
:103000000023FDF7E3F922462B46FDF791FB3AA397
:10301000D3E90023FDF7D8F922462B46FDF788FBBC
:1030200037A3D3E90023FDF7D1F922462B46FDF75C
:103030007FFB45EC104B8046894624F057F920462B
:10304000294631A3D3E9002357EC106BFDF770FB41
:103050002FA3D3E90023FDF7B7F922462B46FDF74E
:1030600067FB2DA3D3E90023FDF7B0F922462B46D9
:10307000FDF75EFB2AA3D3E90023FDF7A5F922465D
:103080002B46FDF755FB00222B4BFDF79FF902461F
:103090000B4640464946FDF775FC32463B46FDF778
:1030A00047FB21A3D3E90023FDF78EF932463B46C7
:1030B000FDF78CF902460B46FDF788F902460B46F0
:1030C0001BA1D1E90001FDF77FF941EC100BBDE830
:1030D000F88F00BFAFF3008009F7FD0DE13D023F1F
:1030E00088B20175E0EF493F3B8F68B52882A43F65
:1030F0005544880E55C1C93F7D6FEB0312D6D43FAE
:10310000555555555555C53F82922EB1C5B8B33F5B
:1031100059018D1B6C06E63FC88A599CE52A004080
:103120004B2D8A1C273A0340075C143326A6913C9A
:10313000182D4454FB2109400000F03F0000E03FFF
:10314000F0B5554A55EC104B954283B046DD534AD5
:1031500095420EDD02F17952954252DD10EE102AB1
:103160002B4620462946FDF731F941EC100B03B000
:10317000F0BD05F1404202F5801222433DD0B5F189
:10318000804F4ADC10EE100A29460022444BFDF71E
:103190001BF902460B4604460D46FDF717F9224679
:1031A00006460F462B4620462946FDF7C1FA024641
:1031B0000B4630463946FDF709F941EC100B24F077
:1031C00095F8204653EC102B2946FDF7FFF841EC0B
:1031D000100B03B0BDE8F040FEF7CEBF10EE102A92
:1031E0002B4620462946FDF7EFF802460B46FDF731
:1031F000C9FB41EC100B03B0F0BD9FED230B03B0F6
:10320000F0BD00F05DFE22A3D3E9002351EC100BCA
:10321000FDF7DCF841EC100BA9E710EE102A2B4665
:1032200010EE100A2946FDF783FA00221C4BFDF729
:10323000CBF841EC100B24F059F822462B462046DF
:1032400029468DED000BFDF7C1F89DED000B0646FC
:1032500053EC102B0F4620462946FDF7B7F80246DF
:103260000B4600200E49FDF78DFB02460B4630460B
:103270003946FDF7A9F841EC100B03B0BDE8F0406A
:1032800000F01EBEAFF30080000000000000000050
:10329000EF39FAFE422EE63FFFFFEF3FFFFFAF415F
:1032A0000000F03F000000002DE9F04F57EC106BDC
:1032B000C74B27F000459D4283B017DD05F140451F
:1032C00010EE103A05F580152B432BD010EE102A86
:1032D0003B4630463946FDF777F802460B46FDF788
:1032E00051FB41EC100B03B0BDE8F08FB94B9D4290
:1032F0003C4633DCB5F1795F80F2748198A3D3E961
:10330000002310EE100A3946FDF760F80022B24B98
:10331000FDF79EFC10B33046394641EC100B03B06C
:10332000BDE8F08F10EE100A8FA3D3E900233946D1
:10333000FDF7FEF98EA3D3E9002304460D4630467F
:103340003946FDF7F5F902460B4620462946FDF7BA
:103350003DF841EC100B03B0BDE8F08F47EC106B6B
:1033600023F018F9002053EC102B9B49FDF72CF8A3
:1033700000229A4BFDF7DCF97FA3D3E90023064630
:103380000F46FDF7D5F97EA3D3E90023FDF71EF81C
:1033900032463B46FDF7CCF97BA3D3E90023FDF78A
:1033A00013F832463B46FDF7C3F979A3D3E900236E
:1033B000FDF70CF832463B46FDF7BAF976A3D3E9A0
:1033C0000023FDF701F832463B46FDF7B1F974A33F
:1033D000D3E90023FCF7FAFF32463B46FDF7A8F994
:1033E00071A3D3E900238046894630463946FDF76C
:1033F0009FF96FA3D3E90023FCF7E6FF32463B4673
:10340000FDF796F96CA3D3E90023FCF7DFFF324602
:103410003B46FDF78DF96AA3D3E90023FCF7D4FFFF
:1034200032463B46FDF784F96B4B0022FCF7CEFF9A
:1034300047EC106BCDE9000123F058FF684B9D422B
:103440005BEC10ABDDE9000169DC02460B4640464F
:1034500049460025CDE900AB0095FDF793FADDE97B
:1034600000895246CDE900015B4650465946FCF7BB
:10347000ADFF02460B46DDE90001FDF759F9424672
:10348000CDE900014B4640464946FDF751F9024659
:103490000B4630463946FCF797FF424606460F4634
:1034A0004B4650465946FCF791FF02460B463046C4
:1034B0003946FDF767FA02460B46FCF787FF0246DE
:1034C0000B462BA1D1E90001FCF77EFF02460B461B
:1034D000DDE90001FCF778FF424606460F464B4601
:1034E00040464946FCF772FF02460B4636A1D1E939
:1034F0000001FCF769FF02460B4630463946FCF7EF
:1035000063FF02460B4630A1D1E90001FCF75CFFE6
:10351000002C3FF7E6AE01F100431946E1E6024612
:103520000B4640464946FDF72DFA52465B46FDF7ED
:10353000FFF852465B46FCF749FF02460B46FCF794
:1035400045FF0BA3D3E90023FCF73EFF02460B46E1
:1035500005A1D1E90001FCF737FFD9E7AFF30080FF
:103560009C7500883CE4377E182D4454FB21F93FBC
:10357000075C143326A6913C09F7FD0DE13D023F9F
:1035800088B20175E0EF493F3B8F68B52882A43FC0
:103590005544880E55C1C93F7D6FEB0312D6D43F09
:1035A000555555555555C53F82922EB1C5B8B33FB7
:1035B00059018D1B6C06E63FC88A599CE52A0040DC
:1035C0004B2D8A1C273A0340182D4454FB21E93F18
:1035D000FFFFEF3FFFFFDF3F0000F03F0000E03F55
:1035E0003233EF3F10EE102A10EE100A3B463946F8
:1035F000FDF79EF839A3D3E9002304460D46FDF7F5
:1036000097F838A3D3E90023FCF7E0FE22462B46C7
:10361000FDF78EF835A3D3E90023FCF7D5FE22464B
:103620002B46FDF785F833A3D3E90023FCF7CEFE44
:1036300022462B46FDF77CF830A3D3E90023FCF7A4
:10364000C3FE22462B46FDF773F82EA3D3E90023D1
:10365000FCF7BCFE22462B46FDF76AF82BA3D3E904
:1036600000238046894620462946FDF761F829A3B4
:10367000D3E90023FCF7A8FE22462B46FDF758F8B5
:1036800026A3D3E90023FCF7A1FE22462B46FDF733
:103690004FF824A3D3E90023FCF796FE22462B46DD
:1036A000FDF746F800220C4BFCF790FE02460B4655
:1036B00040464946FDF766F932463B46FDF738F885
:1036C00032463B46FCF782FE41EC100B03B0BDE8EE
:1036D000F08F00BFAFF300800000F03F09F7FD0D51
:1036E000E13D023F88B20175E0EF493F3B8F68B58D
:1036F0002882A43F5544880E55C1C93F7D6FEB0316
:1037000012D6D43F555555555555C53F82922EB1C9
:10371000C5B8B33F59018D1B6C06E63FC88A599C5A
:10372000E52A00404B2D8A1C273A03400000000088
:1037300051EC110B43422DE9F047034321F00048BF
:103740006B4F48EAD373BB4255EC104B45D86342EC
:10375000234325F0004A4AEAD373BB42A9463CD82A
:1037600001F1404303F5801303438E464CD08E177E
:1037700006F0020654EA0A0346EAD57635D050EA46
:1037800008033AD0B84553D0BA4536D0AAEB08085A
:103790004FEA2858B8F13C0F3EDC002964DB0246B2
:1037A0000B4620462946FDF7EDF841EC100B22F0C0
:1037B000F1FEFEF7A9F951EC100B012E51D0022EAB
:1037C00042D076B138A3D3E90023FCF7FDFD38A33E
:1037D000D3E90023FCF7F8FD03E022462B46FCF773
:1037E000F5FD41EC100BBDE8F087022E18D0032E3A
:1037F0000ED131A1D1E90001F3E7B9F1000F13DBDC
:103800002FA1D1E90001ECE7BDE8F047FEF77CB954
:1038100010EE100A2946E4E729A1D1E90001CCE71E
:1038200023A1D1E90001DCE727A1D1E90001D8E714
:10383000C2451FD0022EF3D0032EDAD0012E4FF056
:10384000000021D00021CCE717A3D3E90023FCF727
:10385000BBFD02460B4616A1D1E90001FCF7B4FD01
:10386000BFE701F10041BCE718F13C0F97DA0020F7
:103870000021A2E7022E12D0032E0CD0012E06D07A
:1038800013A1D1E90001ACE74FF00041A9E712A173
:10389000D1E90001A5E712A1D1E90001A1E712A138
:1038A000D1E900019DE700BF075C143326A6A13CC7
:1038B000182D4454FB210940182D4454FB2109C004
:1038C000182D4454FB21F93F182D4454FB21F9BF16
:1038D000182D4454FB21E93F182D4454FB21E9BF26
:1038E000D221337F7CD902C0D221337F7CD90240E0
:1038F0000000F07F000000002DE9F04755EC104B70
:103900006342234325F00046454A46EAD373934277
:1039100019D8964252D0434B9E42AA4622DC3EA37F
:10392000D3E9002310EE100A2946FCF74FFD0022D0
:103930000023FDF78DF900284BD02046294641ECA5
:10394000100BBDE8F08710EE102A2B4620462946C2
:10395000FCF73AFD02460B46FDF714F841EC100B5C
:10396000BDE8F087304B9E42354633DD3346224674
:1039700031462046FCF72AFD224606460F462B46D6
:1039800000202749FCF720FD02460B463046394609
:10399000FCF7F8FF41EC100BFEF7EEFB0022234B87
:1039A00051EC100BFCF7C4FEBAF1000FD6DA01F1AE
:1039B0000043194641EC100BBDE8F08710EE100AE9
:1039C000294600220023FCF7DDFF41EC100BBDE887
:1039D000F087354622462B4620462946FCF7F6FC62
:1039E00022462B4606460F46FCF7A2FE224680469C
:1039F00089462B4600200A49FCF7E6FC02460B46A6
:103A000040464946FCF7BEFF32463B46FCF7DEFC2B
:103A1000C0E700BFAFF300809C7500883CE4377EB0
:103A20000000F03FFFFF2F3EFFFFDF3F0000E03FC1
:103A30002DE9F84353EC102B4F4923F000448C42FE
:103A400011DC4E498C4218DD4D498C4263DD4D49F5
:103A50008C427EDD4C498C423FDD01318C4239D0B5
:103A600043A3D3E9002310461946FCF761FE06463E
:103A70000F4647EC106BBDE8F88322F08BFD02F097
:103A800073FD59EC108B0022404B10EE100A494692
:103A9000FCF79CFCB4F1725F06460F46E9DB424638
:103AA0004B4640464946FCF743FE32463B460446F9
:103AB0000D4630463946FCF789FC02460B46204647
:103AC0002946FCF75FFF0022304BFCF77FFC0646DF
:103AD0000F46CEE72E498A42C2D843EC102B22F083
:103AE00059FD00222B4B51EC100BFCF721FE41EC51
:103AF000100B00F051F855EC104B0022254B10EE46
:103B0000100A2946FCF714FE22462B46FCF710FE4D
:103B100006460F46ADE722F03DFD00F03DF855ECBE
:103B2000104B10EE100A00221A4B2946FCF700FE3B
:103B3000224606460F462B4600201649FCF722FF78
:103B400002460B4630463946FCF740FC06460F4617
:103B50008FE722F01FFD00F01FF800220D4B51EC03
:103B6000100BFCF7E5FD06460F4682E7AFF3008039
:103B70009C7500883CE4377EFFFFEF7F422ED63FE6
:103B8000FFFF3540412E8640CD3386400000F03F98
:103B90007DF8B98F0000E03F2DE9F04F55EC104B58
:103BA000BD4925F000428A4283B04FEAD5770DD94E
:103BB000BA498A422AD9C5F31303234340F0FA8055
:103BC0000FB19FED9D0B03B0BDE8F08FB44B9A424F
:103BD00000F2D580B34B9A4200F2EA8098A3D3E971
:103BE000002310EE100A2946FCF7F0FB0022AE4B32
:103BF000FDF72EF8002800F01C81204629460022FF
:103C0000A94BFCF7E3FB41EC100BDCE78EA3D3E9F7
:103C1000002310EE100A2946FDF71AF8002840F09C
:103C2000D3808BA3D3E9002320462946FCF7F2FF7B
:103C30000028C6D19D4E88A3D3E9002306EBC70612
:103C400020462946FCF774FDD6E90023FCF7BEFBAD
:103C5000FDF71EF80646FCF705FD81A3D3E9002316
:103C600080468946FCF764FD02460B4620462946FD
:103C7000FCF7AAFB7CA3D3E90023CDE90001404671
:103C80004946FCF755FD82468B4652465B46DDE9C8
:103C90000001FCF799FB04460D4622462B462046C0
:103CA0002946FCF745FD72A3D3E9002380468946E7
:103CB000FCF73EFD70A3D3E90023FCF785FB4246E9
:103CC0004B46FCF735FD6EA3D3E90023FCF77EFBE2
:103CD00042464B46FCF72CFD6BA3D3E90023FCF7CF
:103CE00073FB42464B46FCF723FD69A3D3E900234F
:103CF000FCF76CFB42464B46FCF71AFD02460B46AE
:103D000020462946FCF760FB80468946002E65D098
:103D10002046294642464B46FCF70AFD42460446E9
:103D20000D464B4600204FF08041FCF74DFB02460C
:103D30000B4620462946FCF725FE02460B46504618
:103D40005946FCF741FBDDE90023FCF73DFB0B4640
:103D5000024655490020FCF737FB6FF47F739E4203
:103D600060DA06F57A7601EB065100224FF0B8735F
:103D7000FCF7DEFC41EC100B03B0BDE8F08F4C4BC0
:103D80009A423FF657AF4B4B4FEAC7084344D3E93B
:103D9000002310EE100A2946FCF716FB464BC7F12C
:103DA00001064344CDE90001D3E900ABF61B6CE703
:103DB000002672E710EE102A2B4620462946FCF713
:103DC00005FB41EC100BFEE61DA3D3E900231046D2
:103DD0001946FCF7ADFC41EC100BF4E602460B462D
:103DE00020462946FCF7A4FC002206460F464FF069
:103DF000804340464946FCF7E7FA02460B46304608
:103E00003946FCF7BFFD22462B46FCF7DDFA024699
:103E10000B4600202449FCF7D7FA41EC100B03B005
:103E2000BDE8F08F01EB065141EC100B03B0BDE88B
:103E3000F08F064631E700BF0000000000000000E0
:103E40009C7500883CE4377EEF39FAFE422E8640AE
:103E500051302DD5104987C0FE822B654715F73F9D
:103E60000000E0FE422EE63F763C7935EF39EA3D30
:103E7000D0A4BE726937663EF16BD2C541BDBB3E70
:103E80002CDE25AF6A56113F93BDBE166CC1663F4E
:103E90003E5555555555C53F412E8640FFFFEF7F96
:103EA000422ED63FFFFF2F3E0000F03F08B1020830
:103EB000B1A2F03F18B1020828B1020800000000CA
:103EC0002DE9F04F51EC100BB1F5801F85B00B467A
:103ED00059DA10EE102A21F00044224300F0F88055
:103EE0000029C0F280810022DD4BFCF721FCDD4A75
:103EF0000B4693426FF035074ADCC3F3130505F513
:103F0000152606F6647606F4801686F07F5282F453
:103F1000401242EA05011C150022D34BFCF754FA6B
:103F2000AB1CA4F2FF34C3F313033C44022B04EB99
:103F3000165482468B464FF0000232DC0023FCF719
:103F40005FFE002800F0CF80002C00F05881204652
:103F5000FCF788FBACA3D3E9002306460F46FCF729
:103F6000E7FBABA3D3E9002304460D4630463946B0
:103F7000FCF7DEFB02460B4620462946FCF726FAF4
:103F800041EC100B0AE0B74A93424FF00007B4DD52
:103F900002460B46FCF71AFA41EC100B05B0BDE8DF
:103FA000F08F4FF08043FCF711FA02460B46504663
:103FB0005946FCF7E7FC064620460F46FCF752FB45
:103FC0003246CDE900013B4630463946CDE902672D
:103FD000FCF7AEFB02460B4680468946FCF7A8FB81
:103FE0008DA3D3E9002306460F46FCF7A1FB8CA363
:103FF000D3E90023FCF7EAF932463B46FCF798FB8D
:1040000089A3D3E90023FCF7E1F932463B46FCF7EC
:104010008FFB87A3D3E90023FCF7D8F942464B4630
:10402000FCF786FB84A3D3E900238046894630460B
:104030003946FCF77DFB82A3D3E90023FCF7C6F9E0
:1040400032463B46FCF774FB7FA3D3E90023FCF721
:10405000BDF932463B46FCF76BFB0B460246494630
:104060004046FCF7B3F9A5F5C223C5F5D725A3F261
:104070007A4351351D43002D804689465CDD002280
:104080007A4B50465946FCF753FB52465B46FCF7C9
:104090004FFB06460F46002C6ED132463B4640464B
:1040A0004946FCF793F9DDE90223FCF741FB0246A0
:1040B0000B4630463946FCF787F902460B46504618
:1040C0005946FCF781F941EC100B05B0BDE8F08FC3
:1040D0000022002300206649FCF754FC41EC100B41
:1040E00005B0BDE8F08F5AA3D3E9002350465946E6
:1040F000FCF71EFB02460B4600205C49FCF764F906
:10410000524606460F465B4650465946FCF710FBA2
:1041100002460B4630463946FCF70AFB06460F4678
:10412000002C40F0A78002460B4650465946FCF74B
:104130004BF941EC100B31E7002C00F0AF8032A3BB
:10414000D3E90023DDE90001FCF7F2FA42464B46D1
:1041500004460D4650465946FCF736F9DDE9022380
:10416000FCF7E6FA2AA3D3E9002306460F46DDE969
:104170000001FCF7DDFA21E023A3D3E90023DDE908
:104180000001FCF7D5FA32463B4604460D46404650
:104190004946FCF71BF9DDE90223FCF7C9FA1CA329
:1041A000D3E9002380468946DDE90001FCF7C0FA27
:1041B00002460B4640464946FCF708F902460B46C4
:1041C00030463946FCF700F952465B46FCF7FCF8EE
:1041D00002460B4620462946FCF7F6F841EC100B48
:1041E00005B0BDE8F08F10EE102A0B46FCF7ECF896
:1041F00000220023FCF7C6FB41EC100BCEE69FED3E
:10420000160BCBE6AFF300800000E0FE422EE63F47
:10421000763C7935EF39EA3D44523EDF12F1C23F38
:10422000DE03CB966446C73F599322942449D23F7C
:10423000935555555555E53F9FC678D0099AC33FCC
:10424000AF788E1DC571CC3F04FA97999999D93FE3
:10425000555555555555D53F00000000000000004C
:1042600000005043FFFFEF7F0000F03F0000E03F01
:10427000000050C32046FCF7F5F90FA3D3E9002353
:1042800080468946FCF754FA0DA3D3E9002304467F
:104290000D4640464946FCF74BFA8FE702460B466F
:1042A00050465946FCF790F8DDE90223FCF740FA46
:1042B00003E700BFAFF300800000E0FE422EE63FC0
:1042C000763C7935EF39EA3D2DE9F04355EC104B5A
:1042D000B5F5801F83B02B4621DA10EE102A25F0A9
:1042E00000410A4364D0002D6DDB29460022444B77
:1042F00010EE100AFCF71CFA424A0D462B46934278
:1043000004466FF035010FDD22462B462046294634
:10431000FCF75CF841EC100B03B0BDE8F083394AC0
:1043200093424FF00001EFDC1815A0F2FF30084473
:104330004FEAD0794844C3F31308FCF793F9C9F561
:104340007F73033348EA035545EC104B06460F468E
:10435000FFF7B6FD3046394623A3D3E900238DEDA0
:10436000000BFCF7E5F99DED000B04460D4620A37C
:10437000D3E9002351EC100BFCF7DAF902460B46A7
:1043800020462946FCF722F81BA3D3E90023044664
:104390000D4630463946FCF7CBF902460B4620461F
:1043A0002946FCF713F841EC100B03B0BDE8F0838D
:1043B0000022002300201449FCF7E4FA41EC100B22
:1043C00003B0BDE8F08310EE102A2B4620462946A4
:1043D000FBF7FAFF00220023FCF7D4FA41EC100BA4
:1043E0009AE700BFAFF30080362BF111F3FE593D81
:1043F0000EE526157BCBDB3F00609F501344D33F77
:1044000000005043FFFFEF7F000050C3000000009A
:104410002DE9F04F51EC110B21F0004858EA00044F
:1044200093B03ED053EC102B714E23F00044B442B5
:1044300010EE10AA1D462DDC894611EE10EA28D098
:10444000B04527DC6A4EB04500F08380002D16464B
:104450001F46CDE90001C0F281804FF0000BBEF194
:10446000000F2FD1624B984500F09580614B984525
:1044700068D0B9F1804F00F0D1835F4B994521D1CD
:10448000002D1FDB47EC106B13B0BDE8F04F22F09E
:104490002DBF6AB104F1404404F5801454EA0A03C4
:1044A00008D15449002041EC100B13B0BDE8F08F47
:1044B000A045C7DD514813B0BDE8F04F02F0BCBACB
:1044C0004FF0000B47EC106B22F064F851EC100B2E
:1044D000BAF1000F1AD124B1464B25F040429A425E
:1044E00014D1B9F1000FC0F2D383002DDBDA04F14F
:1044F000404404F5801454EA0B0300F0AF84BBF190
:10450000010FD0D101F100431946CCE7ED0F05F1C1
:10451000FF3A5BEA0A0353D0394B984576DD03F145
:104520000473984540F30684364B9C4253DDB9F141
:10453000000F53DD2CA3D3E9002310461946FCF7E6
:10454000F7F8B0E7B9F1000FC0F25A8430463946A7
:10455000A9E7BEF1000F3FF479AF9BE72A4B9845DE
:104560002BDCA3F1547398457FF777AF4FEA2853BC
:10457000A3F2FF33142B40F35984C3F134032EFA12
:1045800003F202FA03F39E457FF467AF02F00102E3
:10459000C2F1020B63E704F1404303F5801353EAD1
:1045A0000A033FF47EAF174B9C4240F33E83B9F1C0
:1045B000000F13DBDDE9000175E74FF0020B4EE75A
:1045C00032463B4610461946FBF7FEFE02460B46B6
:1045D000FCF7D8F967E7B9F1000FABDB0020002149
:1045E00061E700BFAFF300809C7500883CE4377E34
:1045F0000000F07F0000F03F0000E03F80B80208BC
:104600000000E041FFFFEF3FFFFF3F43B4F5801F95
:104610004FF0000205DAD64BFCF78AF86FF034024F
:104620000C462315D34EC4F31304A3F2FF331344F3
:1046300044F07F55B4421A460D9345F4401540F3BB
:104640002E83CD4B9C4240F30D849FEDB37B8DEDCB
:10465000087B8DED0E7B9FEDB27B13468DED067BC7
:1046600001330D93A5F580154FF00008DDE9062311
:104670002946CDE90A01FBF7A7FEDDE90623064638
:104680000F46DDE90A01FBF7A1FE02460B460020BA
:10469000BA49FCF777F903460C46CDE910340246D7
:1046A0000B4630463946FCF743F86B1043F0005395
:1046B00003F5002303EB08050A4600230146CDE974
:1046C00002120293DDE902890024CDE904122B468F
:1046D000224640464946FCF72BF802460B46304638
:1046E0003946FBF771FEDDE9062306460F462046F4
:1046F0002946FBF769FE02460B46DDE90A01FBF796
:1047000063FE42464B46FCF713F802460B46304622
:104710003946FBF759FEDDE91023FCF709F8DDE91E
:104720000445CDE9060122462B4620462946FBF7E3
:10473000FFFF7DA3D3E9002304460D46FBF7F8FFF6
:104740007BA3D3E90023FBF741FE22462B46FBF770
:10475000EFFF79A3D3E90023FBF738FE22462B466F
:10476000FBF7E6FF76A3D3E90023FBF72FFE2246F3
:104770002B46FBF7DDFF74A3D3E90023FBF726FEEE
:1047800022462B46FBF7D4FF71A3D3E90023FBF7A6
:104790001DFE224606460F462B4620462946FBF7BD
:1047A000C7FF02460B4630463946FBF7C1FF42467B
:1047B00004460D464B46DDE90401FBF707FEDDE943
:1047C0000623FBF7B5FF22462B46FBF7FFFD4246CB
:1047D00006460F464B4640464946FBF7A9FF0022D6
:1047E000674BCDE90A01FBF7F1FD32463B46FBF78B
:1047F000EDFD02980D46044622462B4640464946AA
:10480000FBF796FF0022804689465D4B20462946ED
:10481000FBF7DAFDDDE90A23FBF7D6FD02460B467E
:1048200030463946FBF7D0FDDDE90423FBF780FF76
:10483000224606460F462B46DDE90601FBF778FFC8
:1048400002460B4630463946FBF7C0FD06460F468A
:1048500002460B4640464946CDE90489FBF7B6FDC2
:1048600002983DA3D3E9002304460D46FBF760FF01
:10487000DDE904238046894620462946FBF7A4FD4E
:1048800002460B4630463946FBF79EFD34A3D3E97A
:104890000023FBF74DFF34A3D3E9002306460F4660
:1048A00020462946FBF744FF02460B463046394670
:1048B000FBF78CFDDDE90E23FBF788FD06460D981E
:1048C0000F46FBF7CFFE324604460D463B464046B8
:1048D0004946FBF77BFDDDE90823FBF777FD224620
:1048E0002B46FBF773FD029822462B46CDE90201C9
:1048F000FBF76AFDDDE90823FBF766FD42464B4600
:10490000FBF762FD02460B4630463946FBF75CFD7D
:104910008046894636E000BF00000000000000002D
:10492000000000000000F03FEF4E454A287ECA3FDD
:1049300065DBC9934A86CD3F01411DA96074D13F13
:104940004D268F515555D53FFFAB6FDBB66DDB3F25
:10495000033333333333E33F000000E009C7EE3F56
:10496000FD033ADC09C7EE3FF5015B14E02F3EBEC4
:10497000000040438E98030079B60B000000F03F22
:10498000000008400BF1FF3353EA0A0300F07B817B
:104990009FEDC97B8DED067BDDE900AB53465C46A0
:1049A000CDE9003400230093DDE90045504622465E
:1049B0002B465946FBF708FDDDE90223FBF7B8FE5D
:1049C000524606460F465B4640464946FBF7B0FE58
:1049D00002460B4630463946FBF7F8FC2246804635
:1049E00089462B46DDE90201CDE90489FBF7A0FEEB
:1049F0000B46024606460F4640464946FBF7E6FC94
:104A0000C74B994204460D468A4640F3188101F18E
:104A10003F4303F5E003034340F0FA81A8A3D3E941
:104A20000023DDE90401FBF7D1FC324680468946CC
:104A30003B4620462946FBF7C7FC02460B4640464C
:104A40004946FCF705F9002840F0E281A8464FEA04
:104A500028534FF48012A3F2FE3342FA03F3534477
:104A6000C3F30A52AF4DA2F2FF321541C3F3130450
:104A700023EA05010020C2F1140B44F48014BAF1BA
:104A8000000F02460B4644FA0BFB30463946B8BFCE
:104A9000CBF1000BFBF798FC02460B4606460F468F
:104AA000DDE90401FBF792FC4FEA0B5A0D460024A6
:104AB00085A3D3E9002320462946FBF739FE324679
:104AC000804689463B4620462946FBF77DFC024648
:104AD0000B46DDE90401FBF777FC7DA3D3E9002356
:104AE000FBF726FE7CA3D3E9002306460F462046AB
:104AF0002946FBF71DFE02460B4630463946FBF7BA
:104B000065FC06460F4602460B4640464946FBF703
:104B10005DFC42464B4604460D46FBF755FC0246FB
:104B20000B4630463946FBF74FFC22468046894605
:104B30002B4620462946FBF7FBFD69A3D3E900235A
:104B400006460F46FBF7F4FD67A3D3E90023FBF706
:104B50003BFC32463B46FBF7EBFD65A3D3E9002364
:104B6000FBF734FC32463B46FBF7E2FD62A3D3E998
:104B70000023FBF729FC32463B46FBF7D9FD60A337
:104B8000D3E90023FBF722FC32463B46FBF7D0FD7E
:104B900002460B4620462946FBF716FC06460F4602
:104BA00002460B4620462946FBF7C2FD0022CDE90E
:104BB00000014FF0804330463946FBF705FC0246C2
:104BC0000B46DDE90001FBF7DDFE424606460F46D7
:104BD0004B4620462946FBF7ABFD42464B46FBF7CA
:104BE000F5FB02460B4630463946FBF7EDFB224605
:104BF0002B46FBF7E9FB02460B4600204A49FBF730
:104C0000E3FB8A44BAF5801F02460B46C0F23A81A4
:104C10005146DDE90623FBF78BFD44E432463B4673
:104C200030463946FBF784FD3DE4B9F1000FBFF68D
:104C3000D5ACDDE90034184604F1004133E43B4BC8
:104C400021F00048984540F30081394B0B44034361
:104C50000CD132463B46FBF7B7FB02460B46DDE97B
:104C60000401FBF7E1FF00283FF4F1AEDDE90601A6
:104C700025A3D3E90023FBF75BFD23A3D3E900239E
:104C8000FBF756FD0FE49FED227B8DED067B83E65F
:104C900002460B4600202449FBF774FE25E49FEDF5
:104CA0001E7B8DED087B8DED0E7B9FED037B4FF022
:104CB00000088DED067BD9E4000000000000F03F05
:104CC000FE822B654715973C00000000432EE63F0F
:104CD000EF39FAFE422EE63F396CA80C615C20BE2B
:104CE000D0A4BE726937663EF16BD2C541BDBB3EF2
:104CF0002CDE25AF6A56113F93BDBE166CC1663FD0
:104D00003E5555555555C53F59F3F8C21F6EA5017F
:104D1000000000000000F0BF0000000000000000E4
:104D2000FFFF8F40FFFF0F000000F03FFFCB9040E0
:104D300000346F3F6A4B9C427FF74DAC694B9C42FD
:104D40003FF7F5AB0022674BFBF73EFB54A3D3E9DB
:104D5000002304460D46FBF7EBFC53A3D3E90023E5
:104D60008046894620462946FBF7E2FC0022CDE931
:104D700002015D4B20462946FBF7DAFC02460B4652
:104D80004BA1D1E90001FBF71FFB22462B46FBF7A5
:104D9000CFFC02460B4600205449FBF715FB224688
:104DA0002B4606460F4620462946FBF7C1FC024625
:104DB0000B4630463946FBF7BBFC3FA3D3E9002343
:104DC000FBF7B6FC02460B46DDE90201FBF7FCFAF5
:104DD00002460B4604460D4640464946FBF7F6FAA6
:104DE00042464B460020CDE90201FBF7EDFA0246B0
:104DF0000B4620462946FBF7E7FA80468946C1E57F
:104E000032463B4600203749FBF7BCFDFFF74BBB62
:104E1000DDE906012AA3D3E90023FBF789FC28A3D7
:104E2000D3E90023FBF784FCFFF73DBBBEF1000F85
:104E30007FF446ABC3F1140348FA03F202FA03F31A
:104E4000984527D0F346FFF711BB284B98453FF70D
:104E5000FEADDDE900239246934628E602460B4666
:104E6000FFF7B0BB9FED187B8DED087B9FED187BA6
:104E70008DED0E7B9FED187B4FF480288DED067B2A
:104E8000FFF7F4BB584643EC102B01F0DDFD51EC6D
:104E9000100BBEE602F00102C2F1020BFFF7E6BA08
:104EA000000000604715F73F44DF5DF80BAE543E4D
:104EB000555555555555D53FFE822B654715F73F3E
:104EC0009C7500883CE4377E0000004003B8E23F58
:104ED00006D0CF43EBFD4C3E000000000000F83F41
:104EE000FEFFEF3F0000F03F0000D03F0000E03F3A
:104EF0002DE9F04753EC102B9D4923F000478F42DA
:104F000090B040F391809B498F421C46824629DC39
:104F1000002C194610EE100A8BA3D3E9002340F3AE
:104F2000B181FBF751FA944B9F4204460D4600F0C5
:104F3000918087A3D3E90023FBF746FA02460B468C
:104F4000CAE9002320462946FBF73EFA80A3D3E9AD
:104F50000023FBF739FA0125CAE90201284610B0FF
:104F6000BDE8F08785498F4240F3918084498F42A4
:104F700065DC3D15A5F21645A7EB05511046164612
:104F80000F46FBF785FEFBF76DFB804689464246E0
:104F90004B4630463946CDE90A89FBF715FA00221F
:104FA000784BFBF7C5FB89468046FBF771FEFBF7A4
:104FB00059FB06460F4632463B4640464946CDE938
:104FC0000C67FBF701FA00226E4BFBF7B1FB0022E6
:104FD0000023CDE90E01FBF713FE002800F07081DD
:104FE0000023304639460022FBF70AFE002814BF92
:104FF00001230223644A019202212A4600910AA851
:10500000514600F0C5FB002C054614DADAF80420FE
:10501000DAF80C3002F1004203F100434542CAF8CD
:105020000420CAF80C3006E080ED000B00250024B7
:10503000C0E902450025284610B0BDE8F08710EE13
:10504000100A1946FBF7C0F90025CAE90201CAE9AE
:105050000001F0E740A3D3E90023FBF7B5F940A333
:10506000D3E900230D460446FBF7AEF902460B4692
:10507000CAE9002329462046FBF7A6F938A3D3E95D
:105080000023FBF7A1F90125CAE90201D3E721F0CA
:1050900081FA59EC108B10EE100A33A3D3E90023E8
:1050A0004946FBF745FB0022384BFBF78FF9FBF72E
:1050B000EFFD0546FBF7D6FA23A3D3E90023CDE99C
:1050C0000601FBF735FB02460B4640464946FBF717
:1050D0007BF91FA3D3E90023CDE90201DDE9060135
:1050E000FBF726FB1F2D80468946CDE9048951DC5C
:1050F000274B6A1E53F822309F424BD002460B4684
:10510000DDE90201FBF760F980468946CAE90089BA
:1051100042464B46DDE90201FBF756F9DDE904237F
:10512000FBF752F9002CCAE9020184DA09F10044C4
:1051300001F100436D42CAF80080CAF80440CAF881
:105140000800CAF80C3076E700004054FB21F93F14
:105150003163621A61B4D03D0000601A61B4D03D81
:105160007370032E8A19A33B83C8C96D305FE43F77
:10517000FB21E93F7BD90240FB21F93FFB2139416B
:10518000FFFFEF7F0000704160D002080000E03FA9
:10519000E0CF0208DDE90423DDE90201FBF714F9A1
:1051A0003F15C1F30A53FB1A80468946102BCAE902
:1051B0000089ADDD58A3D3E90023DDE90601FBF743
:1051C000B7FA8046894602460B46DDE90201FBF745
:1051D000FBF802460B46DDE90201CDE90823FBF7A7
:1051E000F3F842464B46FBF7EFF84DA3D3E9002313
:1051F00080468946DDE90601FBF79AFA42464B46AE
:10520000FBF7E2F80B46CDE904010246DDE90801AF
:10521000FBF7DAF8C1F30A53FF1A80468946312FAB
:10522000CAE900896CDD41A3D3E90023DDE9060169
:10523000FBF77EFADDE9088906460F4602460B4673
:1052400040464946FBF7C0F802460B4640464946F1
:10525000CDE90223FBF7B8F832463B46FBF7B4F83A
:1052600034A3D3E9002306460F46DDE90601FBF728
:105270005FFA32463B46FBF7A7F802460B46CDE9FC
:1052800004233DE7FBF7A2F8274B9F4204460D4657
:1052900018D01FA3D3E90023FBF798F802460B466A
:1052A000CAE9002329462046FBF78EF818A3D3E964
:1052B0000023FBF78BF84FF0FF35CAE90201BAE68D
:1052C000032397E614A3D3E90023FBF77FF814A385
:1052D000D3E900230D460446FBF778F802460B4657
:1052E000CAE9002329462046FBF76EF80CA3D3E950
:1052F0000023FBF76BF84FF0FF35CAE902019AE68D
:105300009DED087B8DED027B02E700BFAFF30080CF
:105310003163621A61B4D03D0000601A61B4D03DBF
:105320007370032E8A19A33BFB21F93F0000002E66
:105330008A19A33BC14920259A837B3900000000CC
:105340002DE9F84F57EC106B654A27F0004890455F
:1053500032DC644B002FB4BF634D644D98454FF071
:10536000000414DC624B984500F385805AA3D3E90E
:10537000002310EE100A3946FBF728F800225D4B97
:10538000FBF766FC18B347EC106BBDE8F88F5A4B7F
:10539000984540F39280594B98454DDD013398452F
:1053A00047D0304639464CA3D3E90023FBF7C0F978
:1053B00041EC100BBDE8F88F10EE102A3B4630464A
:1053C0003946FBF703F841EC100BBDE8F88F47ECCA
:1053D000106B21F0DFF801F0C7F857EC106B324684
:1053E0003B4630463946FAF7F1FF324682468B4655
:1053F0003B4630463946FBF79BF9002280468946FA
:105400003C4B30463946FAF7E1FF02460B46404630
:105410004946FBF7B7FA02460B4650465946FAF79B
:10542000D3FF22462B46FBF783F941EC100BBDE876
:10543000F88F334B9E42B4D847EC106B21F0AAF89A
:1054400000222A4B51EC100BFBF772F941EC100BC8
:10545000FEF7A2FB57EC106B10EE102A3B462046DD
:105460002946FBF765F932463B46FBF761F941EC0B
:10547000100BBDE8F88F21F08DF801F075F8214B85
:10548000984557EC106BAADD10EE100A0022194B5C
:105490003946FAF79BFF02460B4630463946FBF782
:1054A00071FA32463B46FAF791FF22462B46FBF74C
:1054B0003FF941EC100BBDE8F88F21F06BF8FEF7D7
:1054C0006BFB204653EC102B2946FBF731F941ECDE
:1054D000100BBDE8F88F00BF3374AC3C1F7BAC7F72
:1054E000FFFFEF7FFFFF35400000E0BF0000E03F1F
:1054F000FFFF2F3E0000F03F412E8640CD33864017
:105500007DF8B98FFFFFEF3F2DE9F04F57EC106B9F
:105510002DED028BB0EE418AF0EE618A27F0004952
:10552000B9F1795F83B072DA10EE100A3946FBF7F1
:10553000AFFB002800F0F68032463B463046394645
:10554000FBF7F6F87CA3D3E9002304460D46FBF7EE
:10555000EFF87BA3D3E90023FAF738FF22462B4666
:10556000FBF7E6F878A3D3E90023FAF72DFF2246EC
:105570002B46FBF7DDF876A3D3E90023FAF726FFE5
:1055800022462B46FBF7D4F873A3D3E90023FAF79E
:105590001BFF22462B46FBF7CBF871A3D3E9002370
:1055A000FAF714FF22462B46FBF7C2F882468B46D9
:1055B0000022714B20462946FBF7BAF85246804636
:1055C00089465B4620462946FBF7B2F853EC182B78
:1055D00004460D4630463946FBF7AAF802460B460C
:1055E00020462946FAF7F0FE02460B464046494659
:1055F000FAF7EAFE02460B4600206049FAF7E4FE9D
:1056000041EC100B03B0BDEC028BBDE8F08F10EE47
:10561000102A10EE100A3B463946FBF789F846A3DC
:10562000D3E9002304460D46FBF782F844A3D3E9EF
:105630000023FAF7CBFE22462B46FBF779F842A36C
:10564000D3E90023FAF7C0FE22462B46FBF770F899
:105650003FA3D3E90023FAF7B9FE22462B46FBF716
:1056600067F83DA3D3E90023FAF7AEFE22462B46A6
:10567000FBF75EF83AA3D3E90023FAF7A7FE2B461F
:105680002246FBF755F83E4B994582468B468FDD07
:105690003C4B99453DDC0022A9F500130020374919
:1056A00090469946FAF790FECDE900010022324B70
:1056B00020462946FBF73CF842464B46FAF784FE63
:1056C0005246804689465B4620462946FBF730F81D
:1056D00053EC182B04460D4630463946FBF728F8A4
:1056E00002460B4620462946FAF76EFE02460B4656
:1056F00040464946FAF768FE02460B46DDE90001DE
:10570000FAF762FE41EC100B03B0BDEC028BBDE872
:10571000F08F9FED157B4FF000088DED007BDFF8DB
:105720006890C3E79FED120B03B0BDEC028BBDE8A0
:10573000F08F00BFAFF30080D43888BEE9FAA8BD6F
:10574000C4B1B4BD9EEE213EAD529C804F7E923ED0
:105750009015CB19A001FA3E7751C1166CC1563F86
:105760004C5555555555A53F000000000000E73F3A
:10577000000000000000F03F0000E03F0000F03FAC
:105780003233D33F0000E93F0000D23F0000000069
:105790002DE9F04FADF51B7DA34CA49EA34D54F80D
:1057A000264007942646D41E85FB0475E417C4EBF7
:1057B000A50424EAE4741D460A93631CA3EB830347
:1057C000013D02EBC30306932B460B940395651B27
:1057D000F418049008911AD42C44002600270134B0
:1057E0000DF18808DDF8949208E059F82500FAF7E1
:1057F00039FF0135A542E8E8020108D0002DF4DAAE
:10580000013530463946A542E8E80201F6D1079B4A
:10581000002BC0F2EB83079B03F1010B0A9B22A92B
:10582000DB001A4601EB03090093049B0DF5E47AB3
:1058300019460AEBCB0B01EB0208039B002BC0F2CD
:105840000183049C4D460026002775E90223F4E8F5
:105850000201FAF76DFF02460B4630463946FAF769
:10586000B5FD444506460F46EFD1EAE80267DA4542
:1058700009F10809E1D107990098049C009101F110
:105880008043013B9B0020441A1F83460EA802441C
:1058900003440C920D93009A9AA901EBC203002ACB
:1058A00053E9284529DD0DF5E47A0AEBC2080DF12C
:1058B000340900225E4B20462946FAF739FFFBF7F0
:1058C000E7F9FAF7CFFE00225A4B06460F46FAF7E1
:1058D0002FFF02460B4620462946FAF775FDFBF7D7
:1058E000D7F978E9022349F8040F39463046FAF728
:1058F0006DFDD04504460D46DBD1DDF8189045EC32
:10590000104B484601F0A0F855EC104B00224FF028
:105910007F5310EE100A2946FAF70AFF41EC100BEC
:10592000FCF79AFB002251EC100B434BFAF700FFF7
:1059300002460B4620462946FAF746FD0D46044628
:10594000FBF7A6F98046FAF78DFE0B46024629467C
:105950002046FAF739FD4B46002B06460F4640F32A
:10596000FA80009A0EA9013AC9F1180351F82250A1
:1059700045FA03F101FA03F30EA8EB1A40F82230BE
:10598000C9F11705884443FA05F5002D6EDD009B2B
:10599000002B08F1010840F374820E9C002C40F0AB
:1059A0001B83009B012B40F394820EAA012352F823
:1059B000044F002C00F08882581C0EAAC4F1807499
:1059C00042F82340009A824219DD0EAA0EAC52F82A
:1059D00020106FF07F42511A44F8201000990233D2
:1059E00099420CDD1046009A0EA901EB830301EBEE
:1059F00082011A68821A43F8042B8B42F9D1069B64
:105A0000002B1BDD069B012B4FF0010440F041826F
:105A1000009B5A1E0EAB0EA953F82230C3F3160397
:105A200041F8223041E200BF00D50208ABAAAA2A01
:105A30000000703E0000704100002040022D15D192
:105A400032463B4600209449FAF7BEFC06460F4614
:105A500006989FED8D0B00F0F7FF3046394653EC6A
:105A6000102BFAF7B1FC022506460F460022002350
:105A700030463946FBF7C4F8002800F03B82009A14
:105A8000079B501E83420FDC02F18043013B0EAAAC
:105A90000D9C02EB8303002253F80419A34242EA4F
:105AA0000102F9D1002A67D1079B0EAA013B52F8E7
:105AB0002330002B40F01C820C9A012352F8041969
:105AC00001330029FAD0009AD31802F1010A9A454D
:105AD00009933DDC009B0A990B9A0B4409990AEB48
