:020000040800F2
:100000000080012055D5000879F80008A9F70008FC
:10001000ADF70008B1F70008B5F7000800000000D0
:100020000000000000000000000000007DF8000853
:1000300081F800080000000085F800088DF800082D
:10004000B9F70008BDF70008C1F70008C5F70008B8
:10005000C9F70008CDF70008499301084993010842
:10006000499301084993010849930108D1F7000811
:10007000D5F70008D9F70008DDF70008E1F7000818
:10008000E5F70008E9F70008EDF70008F1F70008C8
:10009000F5F70008F9F70008FDF700084993010893
:1000A00049930108F1E300084993010849930108C5
:1000B000F9E3000801E4000809E4000881360108BA
:1000C0008D36010899360108A536010801F80008A7
:1000D00005F800084993010849930108499301086C
:1000E0004993010809F800080DF8000811F8000804
:1000F0004993010815F800084993010819F8000808
:100100001DF8000821F8000811E4000825F800088F
:10011000499301084993010849930108499301084B
:1001200029F800082DF8000831F8000835F8000813
:1001300039F800083DF8000841F8000845F80008C3
:1001400049F800084DF8000851F80008655E0108FC
:1001500055F8000859F80008499301085DF80008AF
:10016000B1360108BD36010861F8000865F80008DD
:1001700069F800086DF800080000000000000000A9
:0801800071F8000875F8000891
:1001900001F0FF01102A2BDB10F0070F08D010F838
:1001A000013B013A8B422DD010F0070F42B3F6D13C
:1001B000F0B441EA012141EA014122F007047FF055
:1001C00000070023F0E80256083C85EA010586EAAC
:1001D000010685FA47F5A3FA87F586FA47F6A5FAE8
:1001E00087F68EB9EED1F0BC01F0FF0102F00702F4
:1001F00032B110F8013B013A83EA010313B1F8D19F
:100200000020704701387047002D06BF354603387F
:10021000073815F0010F07D1013015F4807F02BFB8
:10022000013015F4C03F0130F0BC0138704700BF09
:1002300010B5054C237833B9044B13B10448AFF320
:1002400000800123237010BD08040020000000007E
:100250007C9A010808B5034B1BB103490348AFF36F
:10026000008008BD000000000C0400207C9A0108FA
:10027000002815D0006041608260C3600461456160
:100280008661C761444604624C46446254468462B7
:100290005C46C462644604636E4646637446846387
:1002A000002906D0C46B043C043925680D60B442B3
:1002B000F9D1946BA646566BB546002B06D0D46B8D
:1002C000043C043B1D682560B442F9D1146BA4467C
:1002D000D46AA346946AA246546AA146146AA04608
:1002E000D769966955691469D3685168106892682E
:1002F0007047006041608260C3600461456186614F
:10030000C761444604624C464462544684625C467B
:10031000C462644604636E46466374468463C46B79
:10032000043C043925680D60B442F9D1C769866977
:10033000456904697047006041608260C360046180
:1003400045618661C761444604624C464462544636
:1003500084625C46C462644604636C4644637446CB
:10036000846304697047846BA646446BA546046B9E
:10037000A446C46AA346846AA246446AA146046AA3
:10038000A046C769866945690469C36882680068D0
:100390004168704781F0004102E000BF83F00043F4
:1003A00030B54FEA41044FEA430594EA050F08BF10
:1003B00090EA020F1FBF54EA000C55EA020C7FEAD4
:1003C000645C7FEA655C00F0E2804FEA5454D4EB51
:1003D0005555B8BF6D420CDD2C4480EA020281EA1B
:1003E000030382EA000083EA010180EA020281EA53
:1003F0000303362D88BF30BD11F0004F4FEA0131A5
:100400004FF4801C4CEA113102D0404261EB4101B3
:1004100013F0004F4FEA03334CEA133302D0524239
:1004200063EB430394EA050F00F0A780A4F10104F5
:10043000D5F1200E0DDB02FA0EFC22FA05F280182F
:1004400041F1000103FA0EF2801843FA05F3594115
:100450000EE0A5F120050EF1200E012A03FA0EFC94
:1004600028BF4CF0020C43FA05F3C01851EBE371BE
:1004700001F0004507D54FF0000EDCF1000C7EEBDB
:1004800000006EEB0101B1F5801F1BD3B1F5001F19
:100490000CD349085FEA30004FEA3C0C04F1010438
:1004A0004FEA445212F5800F80F09A80BCF1004F61
:1004B00008BF5FEA500C50F1000041EB045141EAE3
:1004C000050130BD5FEA4C0C404141EB0101013CAC
:1004D00028BFB1F5801FE9D291F0000F04BF01469B
:1004E0000020B1FA81F308BF2033A3F10B03B3F16D
:1004F00020020CDA0C3208DD02F1140CC2F10C02FD
:1005000001FA0CF021FA02F10CE002F11402D8BF5A
:10051000C2F1200C01FA02F120FA0CFCDCBF41EA26
:100520000C019040E41AA2BF01EB0451294330BDF5
:100530006FEA04041F3C1CDA0C340EDC04F11404D2
:10054000C4F1200220FA04F001FA02F340EA0300A9
:1005500021FA04F345EA030130BDC4F10C04C4F1EF
:10056000200220FA02F001FA04F340EA03002946CF
:1005700030BD21FA04F0294630BD94F0000F83F419
:10058000801306BF81F480110134013D4EE77FEAFC
:10059000645C18BF7FEA655C29D094EA050F08BF48
:1005A00090EA020F05D054EA000C04BF1946104629
:1005B00030BD91EA030F1EBF0021002030BD5FEA6D
:1005C000545C05D14000494128BF41F0004130BD95
:1005D00014F580043CBF01F5801130BD01F00045E9
:1005E00045F0FE4141F470014FF0000030BD7FEA5C
:1005F000645C1ABF194610467FEA655C1CBF0B4657
:10060000024650EA013406BF52EA033591EA030F6D
:1006100041F4002130BD00BF90F0000F04BF002165
:10062000704730B54FF4806404F132044FF0000598
:100630004FF0000150E700BF90F0000F04BF002111
:10064000704730B54FF4806404F1320410F0004577
:1006500048BF40424FF000013EE700BF42004FEA72
:10066000E2014FEA31014FEA02701FBF12F07F43EF
:1006700093F07F4F81F06051704732F07F4208BFA6
:10068000704793F07F4F04BF41F40021704730B5AD
:100690004FF4607401F0004521F000411CE700BFF9
:1006A00050EA010208BF704730B54FF000050AE07C
:1006B00050EA010208BF704730B511F0004502D57D
:1006C000404261EB41014FF4806404F132045FEA7F
:1006D000915C3FF4D8AE4FF003025FEADC0C18BF28
:1006E00003325FEADC0C18BF033202EBDC02C2F11A
:1006F000200300FA03FC20FA02F001FA03FE40EAAC
:100700000E0021FA02F11444BDE600BF70B54FF0AF
:10071000FF0C4CF4E06C1CEA11541DBF1CEA13558D
:1007200094EA0C0F95EA0C0F00F0DEF82C4481EAF5
:10073000030621EA4C5123EA4C5350EA013518BF15
:1007400052EA033541F4801143F4801338D0A0FB02
:1007500002CE4FF00005E1FB02E506F00042E0FBAF
:1007600003E54FF00006E1FB03569CF0000F18BFB5
:100770004EF0010EA4F1FF04B6F5007F64F540745D
:1007800004D25FEA4E0E6D4146EB060642EAC621F0
:1007900041EA55514FEAC52040EA5E504FEACE2E5D
:1007A000B4F1FD0C88BFBCF5E06F1ED8BEF1004F60
:1007B00008BF5FEA500E50F1000041EB045170BDDC
:1007C00006F0004646EA010140EA020081EA030120
:1007D000B4EB5C04C2BFD4EB0C0541EA045170BD1C
:1007E00041F480114FF0000E013C00F3AB8014F196
:1007F000360FDEBF002001F0004170BDC4F10004DF
:10080000203C35DA0C341BDC04F11404C4F120055F
:1008100000FA05F320FA04F001FA05F240EA0200BA
:1008200001F0004221F0004110EBD37021FA04F6F0
:1008300042EB06015EEA430E08BF20EAD37070BDAA
:10084000C4F10C04C4F1200500FA04F320FA05F009
:1008500001FA04F240EA020001F0004110EBD3700B
:1008600041F100015EEA430E08BF20EAD37070BD7B
:10087000C4F1200500FA05F24EEA020E20FA04F354
:1008800001FA05F243EA020321FA04F001F0004103
:1008900021FA04F220EA020000EBD3705EEA430E74
:1008A00008BF20EAD37070BD94F0000F0FD101F0A3
:1008B0000046400041EB010111F4801F08BF013CDC
:1008C000F7D041EA060195F0000F18BF704703F01A
:1008D0000046520043EB030313F4801F08BF013DA1
:1008E000F7D043EA0603704794EA0C0F0CEA13555D
:1008F00018BF95EA0C0F0CD050EA410618BF52EA17
:100900004306D1D181EA030101F000414FF000001C
:1009100070BD50EA410606BF1046194652EA43062A
:1009200019D094EA0C0F02D150EA013613D195EA9E
:100930000C0F05D152EA03361CBF104619460AD1E6
:1009400081EA030101F0004141F0FE4141F47001F0
:100950004FF0000070BD41F0FE4141F4780170BDE0
:1009600070B54FF0FF0C4CF4E06C1CEA11541DBF45
:100970001CEA135594EA0C0F95EA0C0F00F0A7F847
:10098000A4EB050481EA030E52EA03354FEA013174
:1009900000F088804FEA03334FF0805545EA131387
:1009A00043EA12634FEA022245EA111545EA10654F
:1009B0004FEA00260EF000419D4208BF964244F1E6
:1009C000FD0404F5407402D25B084FEA3202B61A05
:1009D00065EB03055B084FEA32024FF480104FF4D9
:1009E000002CB6EB020E75EB030E22BFB61A75464D
:1009F00040EA0C005B084FEA3202B6EB020E75EBE0
:100A0000030E22BFB61A754640EA5C005B084FEA47
:100A10003202B6EB020E75EB030E22BFB61A754614
:100A200040EA9C005B084FEA3202B6EB020E75EB1F
:100A3000030E22BFB61A754640EADC0055EA060EE0
:100A400018D04FEA051545EA16754FEA06164FEA23
:100A5000C30343EA52734FEAC2025FEA1C1CC0D1CF
:100A600011F4801F0BD141EA00014FF000004FF05C
:100A7000004CB6E711F4801F04BF01430020B4F11D
:100A8000FD0C88BFBCF5E06F3FF6AFAEB5EB030CD5
:100A900004BFB6EB020C5FEA500C50F1000041EBD2
:100AA000045170BD0EF0004E4EEA113114EB5C049F
:100AB000C2BFD4EB0C0541EA045170BD41F4801172
:100AC0004FF0000E013C90E645EA060E8DE60CEA7A
:100AD000135594EA0C0F08BF95EA0C0F3FF43BAF97
:100AE00094EA0C0F0AD150EA01347FF434AF95EA4E
:100AF0000C0F7FF425AF104619462CE795EA0C0F32
:100B000006D152EA03353FF4FDAE1046194622E7FE
:100B100050EA410618BF52EA43067FF4C5AE50EAD8
:100B200041047FF40DAF52EA43057FF4EBAE12E7C8
:100B30004FF0FF3C06E000BF4FF0010C02E000BFA9
:100B40004FF0010C4DF804CD4FEA410C7FEA6C5C8C
:100B50004FEA430C18BF7FEA6C5C1BD001B050EA2F
:100B6000410C0CBF52EA430C91EA030F02BF90EA1A
:100B7000020F0020704710F1000F91EA030F58BFD9
:100B8000994208BF90422CBFD8176FEAE37040F03B
:100B9000010070474FEA410C7FEA6C5C02D150EAD9
:100BA000013C07D14FEA430C7FEA6C5CD6D152EA94
:100BB000033CD3D05DF8040B704700BF8446104659
:100BC00062468C461946634600E000BF01B5FFF758
:100BD000B7FF002848BF10F1000F01BD4DF808ED28
:100BE000FFF7F4FF0CBF012000205DF808FB00BFF9
:100BF0004DF808EDFFF7EAFF34BF012000205DF853
:100C000008FB00BF4DF808EDFFF7E0FF94BF01209F
:100C100000205DF808FB00BF4DF808EDFFF7CEFFA0
:100C200094BF012000205DF808FB00BF4DF808EDDF
:100C3000FFF7C4FF34BF012000205DF808FB00BFB0
:100C40004FEA410C7FEA6C5C02D150EA013C0AD1C8
:100C50004FEA430C7FEA6C5C02D152EA033C02D1BA
:100C60004FF0000070474FF0010070474FEA41021B
:100C700012F5001215D211D56FF47873B3EB6252EE
:100C800012D94FEAC12343F0004343EA505311F015
:100C9000004F23FA02F018BF404270474FF00000A7
:100CA000704750EA013005D111F0004008BF6FF0E5
:100CB000004070474FF00000704700BF4A0011D25B
:100CC00012F5001211D20DD56FF47873B3EB6252A6
:100CD0000ED44FEAC12343F0004343EA505323FAB2
:100CE00002F070474FF00000704750EA013002D127
:100CF0004FF0FF3070474FF0000070474FEA41025D
:100D0000B2F1E04324BFB3F5001CDCF1FE5C0DD969
:100D100001F0004C4FEAC0024CEA5070B2F1004FB3
:100D200040EB830008BF20F00100704711F0804FB6
:100D300021D113F13872BCBF01F00040704741F47B
:100D400080114FEA5252C2F11802C2F1200C10FA7F
:100D50000CF320FA02F018BF40F001004FEAC12363
:100D60004FEAD32303FA0CFC40EA0C0023FA02F307
:100D70004FEA4303CCE77FEA625307D150EA0133DD
:100D80001EBF4FF0FE4040F44000704701F00040AD
:100D900040F0FE4040F40000704700BF53B94AB92C
:100DA000002908BF00281CBF4FF0FF314FF0FF3073
:100DB00000F0CCB9ADF1080C6DE904CE00F05EF89E
:100DC000DDF804E0DDE9022304B070472DE9F843C3
:100DD00080EAE076A6EBE076F30755EC104B58BFBF
:100DE000DFF85890074652BF4FF00008A046A946CA
:100DF000760814D022462B4620462946FFF786FC6B
:100E000016F0010F04460D464046494622462B4641
:100E1000EED0FFF77BFC760880468946EAD1002FAA
:100E200007DA42464B4605490020FFF799FD804608
:100E3000894649EC108BBDE8F88300BF0000F03F05
:100E4000D0B50C4B002206460F46FFF75FFCFFF7BC
:100E500035FF0446FFF7E0FB074B0022FFF756FC87
:100E600002460B4630463946FFF798FAFFF726FF51
:100E70002146D0BD0000F03D0000F0412DE9F047D3
:100E8000089D04468E46002B4DD18A42944669D96E
:100E9000B2FA82F252B101FA02F3C2F1200120FA51
:100EA00001F10CFA02FC41EA030E94404FEA1C489F
:100EB000210CBEFBF8F61FFA8CF708FB16E341EA9B
:100EC000034306FB07F199420AD91CEB030306F121
:100ED000FF3080F01F81994240F21C81023E634442
:100EE0005B1AA4B2B3FBF8F008FB103344EA0344E6
:100EF00000FB07F7A7420AD91CEB040400F1FF33FB
:100F000080F00A81A74240F207816444023840EA37
:100F10000640E41B00261DB1D4400023C5E9004370
:100F20003146BDE8F0878B4209D9002D00F0EF80F3
:100F30000026C5E9000130463146BDE8F087B3FA26
:100F400083F6002E4AD18B4202D3824200F2F9800E
:100F5000841A61EB030301209E46002DE0D0C5E911
:100F6000004EDDE702B9FFDEB2FA82F2002A40F05D
:100F70009280A1EB0C014FEA1C471FFA8CFE012660
:100F8000200CB1FBF7F307FB131140EA01410EFB04
:100F900003F0884208D91CEB010103F1FF3802D2AB
:100FA000884200F2CB804346091AA4B2B1FBF7F0A5
:100FB00007FB101144EA01440EFB00FEA64508D9C8
:100FC0001CEB040400F1FF3102D2A64500F2BB8005
:100FD0000846A4EB0E0440EA03409CE7C6F1200754
:100FE000B34022FA07FC4CEA030C20FA07F401FA9A
:100FF00006F31C43F9404FEA1C4900FA06F3B1FB23
:10100000F9F8200C1FFA8CFE09FB181140EA014187
:1010100008FB0EF0884202FA06F20BD91CEB010124
:1010200008F1FF3A80F08880884240F28580A8F17C
:1010300002086144091AA4B2B1FBF9F009FB1011CE
:1010400044EA014100FB0EFE8E4508D91CEB01016C
:1010500000F1FF346CD28E456AD90238614440EA0F
:101060000840A0FB0294A1EB0E01A142C846A6468F
:1010700056D353D05DB1B3EB080261EB0E0101FA18
:1010800007F722FA06F3F1401F43C5E90071002675
:101090003146BDE8F087C2F12003D8400CFA02FCCB
:1010A00021FA03F3914001434FEA1C471FFA8CFEDB
:1010B000B3FBF7F007FB10360B0C43EA064300FBCB
:1010C0000EF69E4204FA02F408D91CEB030300F169
:1010D000FF382FD29E422DD9023863449B1B89B220
:1010E000B3FBF7F607FB163341EA034106FB0EF3A9
:1010F0008B4208D91CEB010106F1FF3816D28B4256
:1011000014D9023E6144C91A46EA004638E72E4621
:10111000284605E70646E3E61846F8E64B45A9D219
:10112000B9EB020864EB0C0E0138A3E74646EAE788
:10113000204694E74046D1E7D0467BE7023B614436
:1011400032E7304609E76444023842E7704700BF9F
:10115000034613F8012B002AFBD1181A01387047F7
:101160002DE9F04F2DED028B85B003910478A4F1A9
:101170000903042B054604F07F0200F10100F5D9B4
:10118000202AF3D02B2C04BF6C7805462D2C7DD063
:101190009FED477BB0EE478AF0EE678A002C00F0A7
:1011A00081804FF0000CDFF82891002600274FF0D7
:1011B0000008E246AB461DE0FFF7A8FA02460B46E0
:1011C0002846CDE90023FFF737FADDE90023FFF7D2
:1011D000E7F8424606460F464B4651EC180BBAF16B
:1011E000000F26D0FFF7BCFB41EC180BD4461BF8D0
:1011F000014F94B1A4F13005092D42464B463046CB
:101200003946D9D9BAF1000F16D12E2C14D11BF8BA
:10121000014F4FF0010A002CECD15D4651EC180B48
:1012200032463B46FFF772FA41EC180B039B1D60F8
:1012300023E04FF0010CDAE75D46BCF1000F2ED041
:1012400051EC180B32463B46FFF760FA04F0DF041E
:10125000452C41EC180BE9D103990A22681C17F0C0
:10126000D3F89FED150BFFF7B1FD51EC180B53ECC4
:10127000102BFFF74BFA41EC180BB0EE480AF0EEDA
:10128000680A05B0BDEC028BBDE8F08F9FED0C7BCA
:101290006C78B0EE478AF0EE678A01357EE79FED05
:1012A0000A8BEAE700260027B8E700BFAFF300800B
:1012B000000000000000F03F00000000000024409B
:1012C000000000000000F0BF000000000000F87FF8
:1012D000000024400000000000B52DED028B83B01B
:1012E00006F046FA01A9FFF73BFF002251EC100B74
:1012F000B0EE408AF0EE608A0023FFF76FFC40B941
:10130000B0EE480AF0EE680A06F0CEFD08B99FED8F
:10131000068BB0EE480AF0EE680A07F047F803B013
:10132000BDEC028B5DF804FB000000000000F87FBC
:101330002DE9F84F57EC106B0546002210EE100A0D
:1013400000233946FFF754FC28B12D2305F8013B53
:1013500007F100431F460022002330463946FFF7BD
:101360003DFC28B1302200232A706B70BDE8F88F55
:1013700047EC106B01F0DCF951EC100BFFF776FC39
:1013800084A3D3E90023814639463046FFF730FC79
:1013900048B982A3D3E9002330463946FFF746FC1B
:1013A0008346002875D0B9F1000F9FED750BC0F290
:1013B00097804846FFF70AFD304653EC102B39461C
:1013C000FFF7CEFA77A3D3E90023FFF79FF96E4B1F
:1013D0000022FEF7E5FFFFF733FD4FF0FF3704462D
:1013E0000E464FF001084FF0000A6848684B012193
:1013F00045F6F32E4FF02E0C9C4276EB0E024FF08A
:10140000300209D3E41A66EB0E069C4276EB0E0B13
:1014100002F10102F6D2D2B2AB4654EA06030BF84F
:10142000012B0AD1414512DA013110290FD050F8B1
:10143000083D5D46D0F804E0DEE7414501F10101D9
:1014400004BF85F801C005F1020B1029EFD1BAF1F4
:10145000000F08D027EAE7740134584622463021AD
:1014600017F0E0FFA344B9F1010F34D0B9F1000F38
:101470004FF065038BF80030C5BF2B238BF801308C
:101480000BF101010BF102014846BDE8F84F0AF0EB
:10149000D1B9B9F10E0F9FED3A0B09F101083DDD0D
:1014A000A9F10E0A5046FFF791FC304653EC102B81
:1014B0003946FFF755FA344B0022FEF771FFFFF76C
:1014C000BFFCB8F1000F04460E4614DDA9F10F076A
:1014D0004FF0010989E700238BF80030BDE8F88F51
:1014E000C9F10000FFF772FC324651EC100B3B468D
:1014F000FFF70CF966E72846302300F8023B6FEA55
:1015000009022E236B70013AA9F10F070132302135
:1015100085184FF0010917F085FF66E7C9F10E0045
:10152000FFF754FC304653EC102B3946FFF7EEF82A
:10153000154B0022FEF734FFFFF782FCB8F1000FD5
:1015400004460E4616DC2846302300F8023B6FEABC
:10155000090A2E236B700AF1FF32BAF1000F03D093
:10156000DA464FF0FF37D1E705464FF0FF374FF02F
:1015700001093AE7DA464FF0FF374FF0010934E747
:1015800000000000000024400000E03FC89E010869
:1015900000407A108DEDB5A0F7C6B03E50EFE2D610
:1015A000E41A4B440000901EC4BCD6420000000068
:1015B00070B54FF0FF3006F0F7FD04466FF07F4046
:1015C00006F0F2FD06462046FFF726F80E4B0022F5
:1015D000FFF79CF8044630460D46FFF71DF808A3B8
:1015E000D3E90023FFF7BCF902460B462046294603
:1015F000FEF7D6FE41EC100B70BD00BFAFF30080CC
:101600000000E0DFFFFF6F430000F03D000000003E
:101610000E2827D010B5044670B91BE007F096F8E5
:101620000346022B204618D0032B13D1FFF754FE9C
:101630000E2804460ED06CB1204606F079F8034619
:101640002046002BEAD007F0A7F8FEF7F5FF41ECA3
:10165000100B10BD9FED060B10BD94ED010AD4EDEB
:10166000020A10BD9FED020B704700BFAFF3008070
:10167000000000000000F87F38B52DED028B044615
:1016800006F052FC28B1204606F06EFCBDEC028B41
:1016900038BD204606F052FC30B1BDEC028BA309E8
:1016A00014BF0120002038BD14B32046FFF7B0FF5F
:1016B000B0EE408AF0EE608A06F0F6FBC0B1B0EE04
:1016C000480AF0EE680A15F095FD9FED111B15F024
:1016D000D5FE55EC104B10EE100A002200232946CF
:1016E000FFF786FA40B920462946FFF7E7FACDE72B
:1016F000BDEC028B002038BD20462946064B002257
:10170000FEF74EFE04460D46EDE700BFAFF3008046
:10171000000000000000F0410000F0410000000067
:101720002DE9704355EC104B574A25F00043934286
:1017300000F38280554A93422E4646DC4EA3D3E9FD
:10174000002310EE100A2946FEF72AFE504B002215
:10175000FFF76CFA002840F0888022462B4620468E
:101760002946FEF7D3FF45EC104B04460D4615F015
:1017700037FD474B00222046294659EC108BFEF7D7
:101780000FFE41EC100B16F02DF8414B51EC100BF5
:101790000022FEF705FE02460B4620462946FFF7CB
:1017A000DFF842464B46FEF7FBFD41EC100B00F024
:1017B0005FFB002E49DC10EE901A10EE102A01F1AA
:1017C000004343EC102BBDE87083324A93423EDC69
:1017D000B3F1804FC1DD15F003FD22462B462046B4
:1017E000294659EC108BFEF791FF294B0022FEF79A
:1017F000D7FD41EC100B15F0F5FF424651EC100BF4
:101800004B46FEF7CDFD02460B4600202049FFF770
:10181000A7F8424604460D464B4640464946FEF769
:10182000BFFD02460B4620462946FEF7B9FD41ECB6
:10183000100B02F065FABCE710EE102A2B4620468A
:101840002946FEF7ADFD41EC100BBDE8708315F0A5
:10185000C7FC02F055FA0AA3D3E9002351EC100BA0
:10186000FEF79EFD41EC100BA3E745EC104BBDE8E5
:10187000708300BFAFF300809C7500883CE4377E26
:10188000EF39FAFE422EE63FFFFFEF7FFFFF2F3ECC
:101890000000F03F0000B0412DE9F84F55EC104B2F
:1018A000C34B25F000469E42AA4617DDC14B9E421F
:1018B0000ADC07D0BAF1000F40F3CB809FEDA00BFC
:1018C000BDE8F88F002CF5D022462B46204629464D
:1018D000FEF766FD41EC100BBDE8F88FB64B9E425B
:1018E00000F3BB80A3F1DE739E4240F3A0804FF073
:1018F000FF3B22462B4620462946FEF707FF0246BD
:101900000B4680468946FEF701FF8FA3D3E90023EB
:1019100006460F46FEF7FAFE8DA3D3E90023FEF735
:101920003FFD32463B46FEF7F1FE8BA3D3E9002391
:10193000FEF736FD32463B46FEF7E8FE88A3D3E9C4
:101940000023FEF72DFD32463B46FEF7DFFE86A361
:10195000D3E90023FEF724FD32463B46FEF7D6FED0
:1019600083A3D3E90023FEF71BFD42464B46FEF757
:10197000CDFE81A3D3E9002380468946304639460F
:10198000FEF7C4FE7EA3D3E90023FEF707FD32462F
:101990003B46FEF7BBFE7CA3D3E90023FEF7FEFC2B
:1019A00032463B46FEF7B2FE79A3D3E90023FEF7A9
:1019B000F5FC32463B46FEF7A9FE77A3D3E90023A8
:1019C000FEF7ECFC32463B46FEF7A0FEBBF1FF3FC4
:1019D00002460B464046494662D0FEF7E1FC774E90
:1019E00022462B46FEF792FE754B06EBCB064FEADE
:1019F000CB0B9B44DBE90023FEF7D0FC22462B46B1
:101A0000FEF7CCFC02460B46D6E90001FEF7C6FC09
:101A1000BAF1000F41EC100BBFF65EAF10EE901A5A
:101A2000024601F1004343EC102BBDE8F88F5CA3A4
:101A3000D3E9002310EE100A2946FEF7B1FC614BF2
:101A40000022FFF7F3F800283FF451AF45EC104BAC
:101A500042E79FED550BBDE8F88F15F0C1FB5A4BDF
:101A60009E4255EC104B2BDCA3F550239E4256DCD6
:101A700010EE102A2B4610EE100A2946FEF790FCB5
:101A8000504B0022FEF78AFC02460B4620462946B0
:101A900014461D464FF0000B00224FF0804327E014
:101AA000FEF77EFC22462B46FEF730FE02460B4632
:101AB00020462946FEF772FC41EC100BBDE8F88F7A
:101AC000424B9E421FDA424B0022294610EE100A7A
:101AD000FEF764FC02460B462046294614461D4686
:101AE00000223B4B4FF0020BFEF710FE354B00225D
:101AF000FEF756FC02460B4620462946FEF730FF0D
:101B000004460D46F5E62B46324910EE102A002019
:101B1000FEF726FF4FF0030B04460D46E9E6294B7E
:101B20000022294610EE100AFEF738FC02460B464A
:101B3000204629464FF0010B14461D46D6E700BF4C
:101B4000182D4454FB21F93F11DA22E33AAD903FBE
:101B5000EB0D76244B7BA93F513DD0A0660DB13FE4
:101B60006E204CC5CD45B73FFF8300922449C23F4C
:101B70000D5555555555D53F2F6C6A2C44B4A2BF11
:101B80009AFDDE522DDEAD3F6D9A74AFF2B0B33FD9
:101B9000711623FEC671BC3FC4EB98999999C93F51
:101BA0009C7500883CE4377E182D4454FB21F9BF16
:101BB000FFFF0F440000F07FFFFFDB3FD09E0108D6
:101BC000F09E01080000F03FFFFFF23F008003405D
:101BD0000000F83F0000F0BF51EC100BF8B5C1F366
:101BE0000A53A3F2FF35132D10EE106A0C4632DCB7
:101BF000002D1EDB364F2F4101EA070303432FD090
:101C000031A3D3E90023FEF7CBFB00220023FFF72B
:101C10000DF848B1002C04DD4FF4801343FA05F5AC
:101C20002C4424EA070400262346324643EC102BBA
:101C3000F8BD25A3D3E90023FEF7B2FB0022002361
:101C4000FEF7F4FF0028EFD0002C39DB264333D019
:101C5000204C0026E8E7332D05DDB5F5806F23D055
:101C600041EC100BF8BDA3F213434FF0FF37DF40F8
:101C70000742F5D014A3D3E90023FEF791FB00221D
:101C80000023FEF7D3FF0028CED0002C09DD142D51
:101C900014D00123C5F1340503FA05F5AE1928BFA8
:101CA000E41826EA0706BFE710EE102A0B46FEF7F7
:101CB00077FB41EC100BF8BD3446B5E70134F0E793
:101CC00000264FF00044AFE79C7500883CE4377E67
:101CD000FFFF0F000000F03F51EC100B204A21F0F5
:101CE0000043934220DD00B51E4A934285B009DDD2
:101CF00010EE102A0B46FEF751FB41EC100B05B01D
:101D00005DF804FB684603F04BF800F0030001287F
:101D10009DED021B9DED000B0AD0022816D090B15C
:101D2000012004F0B5F8EAE79FED0B1B03F044BB7C
:101D300004F0AEF853EC102B03F1004300EE903AA0
:101D400005B05DF804FB03F037FBD8E703F034FB84
:101D5000F0E700BFAFF300800000000000000000CB
:101D6000FB21E93FFFFFEF7F51EC100BF8B5C1F30A
:101D70000A53A3F2FF35132D10EE106A0C4630DC27
:101D8000002D1EDB384F2F4101EA070303432DD0FE
:101D900033A3D3E90023FEF703FB00220023FEF761
:101DA00045FF48B1002C04DA4FF4801343FA05F5DF
:101DB0002C4424EA070400262346324643EC102B29
:101DC000F8BD27A3D3E90023FEF7EAFA0022002397
:101DD000FEF72CFF0028EFD0002C29DB002634462C
:101DE000EAE7332D05DDB5F5806F19D041EC100B16
:101DF000F8BDA3F213434FF0FF37DF400742F5D0A1
:101E000017A3D3E90023FEF7CBFA00220023FEF745
:101E10000DFF0028D0D0002C13DB26EA0706CBE705
:101E200010EE102A0B46FEF7BBFA41EC100BF8BD82
:101E300024F000430D4A1E43002E18BF144600260E
:101E4000BAE7142D08D00123C5F1340503FA05F5CE
:101E5000AE1928BFE418E0E70134DEE7AFF30080F5
:101E60009C7500883CE4377EFFFF0F000000F0BF48
:101E70002DE9F04FDA4B2DED028B5BEC10AB9B455F
:101E800083B06DDDD74B9B455C465ADCD64B9B45FA
:101E900040F3BE819FEDBE7B8DED007B251510EEDE
:101EA000106AA5F2FF35D14BC4F313049C4244F0F1
:101EB0007F5700F3618147F4401730463946CC4BD9
:101EC0000022FEF76BFACB4B06460F460022FEF7C8
:101ED0001DFC32463B46FEF719FC8046894649EC1C
:101EE000188BB246BB46002C69D100220023304635
:101EF0003946FEF773FE002800F0A981002D00F09E
:101F0000C3812846FEF798FBA3A3D3E90023064626
:101F10000F46FEF7FBFBDDE90023FEF741FAA0A325
:101F2000D3E9002304460D4630463946FEF7EEFB62
:101F300002460B4620462946FEF732FA41EC100BCA
:101F400009E010EE102A10EE100A5B462146FEF75B
:101F500027FA41EC100B03B0BDEC028BBDE8F08F0B
:101F6000A54B2BF000449C425A4611DDA34B10EECA
:101F7000100A00225946FEF731FE002800F0928038
:101F8000012003B0BDEC028BBDE8F04F15F022BD7F
:101F90009B4B9C4240F38F809A4B1A449A4240F2EA
:101FA0003781944B10EE100A00225946FEF7AEFB23
:101FB00052465B46FEF7AAFB41EC180B00250022B7
:101FC0004FF0804350465946FEF7EAF902460B4669
:101FD00050465946FEF7C4FC02460B4680468946E9
:101FE000FEF794FB70A3D3E9002306460F46FEF7E5
:101FF0008DFB6FA3D3E90023FEF7D2F932463B46AF
:10200000FEF784FB6CA3D3E90023FEF7C9F932463F
:102010003B46FEF77BFB6AA3D3E90023FEF7C0F93A
:1020200032463B46FEF772FB67A3D3E90023FEF777
:10203000B7F932463B46FEF769FB65A3D3E90023B7
:10204000FEF7AEF932463B46FEF760FB62A3D3E9EA
:102050000023FEF7A5F932463B46FEF757FB06463E
:102060000F46002D44D155EC184B18EE102A2B4684
:10207000FEF796F942464B46FEF748FB02460B46F2
:1020800018EE100A2946FEF789F902460B4650461B
:102090005946FEF783F941EC100B03B0BDEC028BFF
:1020A000BDE8F08F4BEC10AB03B0BDEC028BBDE88C
:1020B000F04F15F0ABBC544B002210EE100A5946FD
:1020C000FEF76EF900220023FEF7B0FD28B14F4B5A
:1020D0009C4202DC4BEC10AB3DE752465B4650465F
:1020E0005946FEF713FB434B0022FEF70FFBCCE7EC
:1020F0002846FEF7A1FA2AA3D3E9002304460D4699
:10210000FEF704FB02460B463046394616461F468C
:1021100053EC182BFEF744F942464B46FEF7F6FA0D
:1021200002460B462046294614461D461AA3D3E90B
:102130000023FEF7EBFADDE90023FEF731F9024652
:102140000B4620462946FEF72BF902460B4651EC7A
:10215000180BFEF723F952465B46FEF71FF90246BD
:102160000B4630463946FEF719F941EC100B03B027
:10217000BDEC028BBDE8F08F47F40017C4F5801466
:10218000304639460135A41099E600BFAFF3008010
:102190000000000000000000763C7935EF39EA3D90
:1021A0000000E0FE422EE63F44523EDF12F1C23F05
:1021B0009FC678D0099AC33FDE03CB966446C73FDB
:1021C000AF788E1DC571CC3F599322942449D23FDC
:1021D00004FA97999999D93F935555555555E53F27
:1021E0007982DA3FFFFFEF7FFFFF3F439DA00600AC
:1021F0000000F03F0000E03FFFFFEF3F0000F0BFB6
:10220000FFFF1F3E3C412D4000005043FFFF8F3C2D
:10221000414B002250465946FEF7C2F80D15A5F273
:10222000FF35002D06460F460C465ADD52465B46EA
:10223000FEF7B4F802460B4600203749FEF7AEF829
:1022400032463B46FEF78CFBCDE900012BE62AA384
:10225000D3E9002330463946FEF758FA02460B46CA
:1022600000202D49FEF79AF842464B46FEF74EFAFB
:10227000804689465DB902460B4630463946FEF730
:102280008DF841EC100B66E69FED1D0B63E62846CA
:10229000FEF7D2F91CA3D3E9002382468B46FEF752
:1022A00035FA1BA3D3E9002304460D465046594690
:1022B000FEF72CFADDE90023FEF772F802460B4622
:1022C00040464946FEF76AF832463B46FEF766F856
:1022D00002460B4620462946FEF760F841EC100BFB
:1022E00039E60D4B0022FEF759F802460B465046E0
:1022F0005946FEF753F8A3E7555555555555E53F53
:1023000000000000000000000000E0FE422EE63F5A
:10231000763C7935EF39EA3D0000F03F00000000DF
:1023200008B500F0BDF906A3D3E9002351EC100B6A
:10233000FEF716FB41EC100B08BD00BFAFF30080A9
:10234000EF39FAFE422EE63F51EC100B204A21F005
:102350000043934227DD00B51E4A934285B009DD54
:1023600010EE102A0B46FEF719F841EC100B05B0E1
:102370005DF804FB684602F013FD00F0030001283D
:102380009DED021B9DED000B12D0022817D090B1DD
:1023900003F012F853EC102B03F1004300EE903AD7
:1023A00005B05DF804FB9FED081B002003F070BD35
:1023B00003F002F8DBE7012003F06AFDD7E7012014
:1023C00003F066FDE6E700BF00000000000000002B
:1023D000FB21E93FFFFFEF7F51EC100B164A21F084
:1023E000004393421FDD00B5144A934285B009DDD6
:1023F00010EE102A0B46FDF7D1FF41EC100B05B093
:102400005DF804FB684602F0CBFC400000F00200DF
:102410009DED021B9DED000BC0F1010003F0F8FDE6
:1024200005B05DF804FB9FED021B012003F0F0BD39
:102430000000000000000000FB21E93FFFFFEF7FEC
:1024400070B555EC104B464A25F0004393422E469A
:1024500010DD002D10EE102A42492B464FF00000EF
:1024600042DBFEF77DFA3F4B0022FDF799FF41EC7E
:10247000100B70BD3C4A93420CDD9FED370B002ED4
:10248000F7DA10EE901A10EE102A01F1004343EC37
:10249000102B70BDB3F1725F2FDB344A93423ADDEB
:1024A00014F09EFE53EC102B10EE100A1946FDF7A7
:1024B00077FF41EC100B03F09BFF002251EC100B57
:1024C0004FF08043FDF76CFF02460B4600204FF0B3
:1024D0008041FEF745FA02460B4600202149FDF7F0
:1024E0005DFF41EC100BCAE7FEF73AFA1D4B0022E4
:1024F000FDF754FF41EC100B70BD10EE100A194BA4
:1025000000222946FDF74CFF22462B46FEF7FEF837
:1025100041EC100B70BD14F063FE00224FF04043FD
:1025200051EC100BFEF7F2F841EC100B03F060FFDA
:1025300051EC100B00224FF0804310EE104A01F1D5
:102540000045FDF72DFF02460B4620462946FEF7C3
:1025500007FA41EC100B92E7000000000000F03F8A
:10256000FFFFEF7F0000F03FFFFF3540FFFFEF3F31
:1025700038B52DED028B55EC104B01F021F91C4BB9
:10258000B0EE408AF0EE608A93F90030013312D049
:1025900022462B4620462946FEF752FB58B945EC09
:1025A000104B14F01DFE0EA3D3E9002351EC100BC9
:1025B000FEF73CFB30B9B0EE480AF0EE680ABDEC1D
:1025C000028B38BD9FED088B15F0FCFAB0EE480A7F
:1025D000F0EE680ABDEC028B2223036038BD00BF19
:1025E0007DF8B98FCE338640000000000000F07FF8
:1025F000010400200000000008B52DED048BB0EEB2
:10260000408AF0EE608A01F093F9234BB0EE409AD5
:10261000F0EE609A93F90030013316D0B0EE480A1C
:10262000F0EE680A15F01AFA78B113A3D3E9002383
:1026300051EC180BFEF7FAFAA8B911A3D3E900235D
:1026400051EC180BFEF7D4FA30B9B0EE490AF0EEAF
:10265000690ABDEC048B08BD15F0B4FA22239FED86
:102660000A9B0360F1E715F0ADFA22239FED089B6A
:102670000360EAE7AFF30080EF39FAFE422E8640AE
:1026800051302DD5104987C0000000000000000027
:10269000000000000000F07F0104002000000000A6
:1026A00038B52DED028B55EC104B01F029FB1E4B7C
:1026B000B0EE408AF0EE608A93F9003001331AD010
:1026C00022462B4620462946FEF7BAFA98B9002240
:1026D000002320462946FEF7A9FA60B9002200230C
:1026E00020462946FEF77AFA60B115F06BFA9FEDA5
:1026F0000C8B22230360B0EE480AF0EE680ABDECB2
:10270000028B38BD15F05EFABDEC028B0346212228
:102710001A600648BDE8384004F0CAB8AFF300803C
:10272000000000000000F0FF01040020D0A6010816
:1027300038B52DED028B55EC104B01F0FDFC1E4B16
:10274000B0EE408AF0EE608A93F9003001331AD07F
:1027500022462B4620462946FEF772FA98B90022F7
:10276000002320462946FEF74DFA60B100220023DF
:1027700020462946FEF732FA60B115F023FA9FEDA4
:102780000C8B22230360B0EE480AF0EE680ABDEC21
:10279000028B38BD15F016FABDEC028B03462122E0
:1027A0001A600648BDE8384004F082B8AFF30080F4
:1027B000000000000000F0FF01040020D0A6010886
:1027C000F8B52DED028B57EC106B55EC114B01F069
:1027D0004BFD634BB0EE408AF0EE608A93F9003017
:1027E00001332AD022462B4620462946FEF728FAF6
:1027F00018BB32463B4630463946FEF721FA0028E0
:1028000044D10022002330463946FEF7E7F9D8B11B
:102810000022002320462946FEF7E0F900283DD19A
:1028200045EC104B15F01AF938B120462946002224
:102830000023FEF7DDF900285CD1B0EE480AF0EE87
:10284000680ABDEC028BF8BDB0EE480AF0EE680AEB
:1028500015F004F958B351EC180B00220023FEF7D1
:10286000BDF90028E9D047EC106B15F0F7F8002807
:10287000E3D045EC104B15F0F1F80028DDD015F051
:10288000A1F922239FED2E8B0360D6E7204629462F
:1028900000220023FEF7A2F90028CED09FED2A8B5C
:1028A000B0EE480AF0EE680ABDEC028BF8BD47ECCA
:1028B000106B15F0D3F80028CDD045EC104B15F077
:1028C000CDF80028C7D053EC182B18EE100A194683
:1028D000FEF7B6F920BB15F075F9034622221A60FF
:1028E0003046394600220023FEF782F948B99FEDB1
:1028F000188BA2E715F066F921239FED178B036073
:102900009BE745EC104B15F0B5F8224651EC100B47
:102910002B46FEF763F90028E9D19FED0F8B8CE77A
:1029200015F050F9002200232121016010461946BC
:10293000FEF716F841EC180B7FE700BFAFF30080FD
:102940000000000000000000000000000000F03F58
:10295000000000000000F07F000000000000F0FF19
:10296000010400200000000008B52DED048BB0EE3E
:10297000409AF0EE609A02F03BFC1B4BB0EE408AAE
:10298000F0EE608A93F90030013302D015F066F85A
:1029900030B1B0EE480AF0EE680ABDEC048B08BD19
:1029A000B0EE490AF0EE690A15F058F80028F0D0A8
:1029B00015F008F922210160002251EC190B0023C7
:1029C000FEF734F910B19FED048BE2E79FED048B25
:1029D000DFE700BFAFF30080000000000000F07FE1
:1029E000000000000000F0FF0104002000000000D3
:1029F0002DE9F84F55EC104BCD4925F000438B42A3
:102A00000DDD03F1404303F58013234340F0BD8007
:102A1000002D40F3C9809FEDAA0BBDE8F88FC54992
:102A20008B4207DCC44A934200F3C2809FEDA60BA1
:102A3000BDE8F88F002DC0F2858110EE102A2B46DC
:102A4000BE490020FDF7AAFCBD4B0022FDF75EFE4B
:102A500004460D4645EC104B14F0C4FE9CA3D3E98C
:102A600000232046294659EC108BFDF74FFE9AA310
:102A7000D3E90023FDF794FC22462B46FDF746FEE2
:102A800097A3D3E90023FDF789FC22462B46FDF7E7
:102A90003DFE95A3D3E90023FDF782FC22462B4699
:102AA000FDF734FE92A3D3E90023FDF777FC22461D
:102AB0002B46FDF72BFE90A3D3E90023FDF770FC16
:102AC00022462B46FDF722FE8DA3D3E90023824642
:102AD0008B4620462946FDF719FE8BA3D3E9002338
:102AE000FDF75CFC22462B46FDF710FE88A3D3E9D8
:102AF0000023FDF755FC22462B46FDF707FE86A373
:102B0000D3E90023FDF74AFC22462B46FDF7FEFDE4
:102B10008A4B0022FDF744FC02460B4650465946BC
:102B2000FDF71EFF42464B46FDF7F0FD00268246AC
:102B30008B4632464B4630464946FDF7E7FD024696
:102B40000B4620462946FDF729FC324604460D4631
:102B50004B4640464946FDF723FC02460B462046BD
:102B60002946FDF7FDFE02460B4650465946FDF745
:102B700017FC32464B46FDF713FC02460B46FDF7A9
:102B80000FFC41EC100BBDE8F88F10EE102A2B461D
:102B900020462946FDF702FC02460B46FDF7E0FE03
:102BA00041EC100BBDE8F88F9FED5D0BBDE8F88F91
:102BB00010EE102A10EE100A2B462946FDF7A6FD4E
:102BC00043A3D3E9002306460F46FDF79FFD42A32A
:102BD000D3E90023FDF7E4FB32463B46FDF796FDC3
:102BE0003FA3D3E90023FDF7D9FB32463B46FDF76F
:102BF0008DFD3DA3D3E90023FDF7D2FB32463B46D2
:102C0000FDF784FD3AA3D3E90023FDF7C7FB324665
:102C10003B46FDF77BFD38A3D3E90023FDF7C0FB5E
:102C200032463B46FDF772FD35A3D3E900238046CB
:102C3000894630463946FDF769FD33A3D3E90023C1
:102C4000FDF7ACFB32463B46FDF760FD30A3D3E910
:102C50000023FDF7A5FB32463B46FDF757FD2EA3AB
:102C6000D3E90023FDF79AFB32463B46FDF74EFDC4
:102C7000324B0022FDF794FB02460B464046494684
:102C8000FDF76EFE22462B46FDF740FD02460B4641
:102C900025A1D1E90001FDF781FB02460B46204644
:102CA0002946FDF77BFB02460B4607A1D1E900014F
:102CB000FDF774FB41EC100BBDE8F88FAFF300801B
:102CC0000000000000000000182D4454FB21F93FD3
:102CD00009F7FD0DE13D023F88B20175E0EF493F84
:102CE0003B8F68B52882A43F5544880E55C1C93F23
:102CF0007D6FEB0312D6D43F555555555555C53FFD
:102D000082922EB1C5B8B33F59018D1B6C06E63FC8
:102D1000C88A599CE52A00404B2D8A1C273A03405B
:102D2000182D4454FB210940075C143326A6913C1E
:102D3000FFFFEF3FFFFFDF3F0000603C0000F03F80
:102D40000000E03F10EE100A5F4B00222946FDF71D
:102D500027FB5E4B0022FDF7D9FC43A3D3E90023F8
:102D600004460D46FDF7D2FC41A3D3E90023FDF74D
:102D700017FB22462B46FDF7C9FC3FA3D3E90023EE
:102D8000FDF70CFB22462B46FDF7C0FC3CA3D3E924
:102D90000023FDF705FB22462B46FDF7B7FC3AA3BF
:102DA000D3E90023FDF7FAFA22462B46FDF7AEFCE5
:102DB00037A3D3E90023FDF7F3FA22462B46FDF7AC
:102DC000A5FC45EC104B8046894614F00BFD32A360
:102DD000D3E900232046294657EC106BFDF796FCFB
:102DE0002FA3D3E90023FDF7D9FA22462B46FDF79E
:102DF0008DFC2DA3D3E90023FDF7D2FA22462B4602
:102E0000FDF784FC2AA3D3E90023FDF7C7FA224685
:102E10002B46FDF77BFC2C4B0022FDF7C1FA024646
:102E20000B4640464946FDF79BFD32463B46FDF7C3
:102E30006DFC21A3D3E90023FDF7B0FA32463B46EF
:102E4000FDF7AEFA02460B46FDF7AAFA02460B461C
:102E50001BA1D1E90001FDF7A1FA41EC100BBDE87F
:102E6000F88F00BFAFF3008009F7FD0DE13D023F91
:102E700088B20175E0EF493F3B8F68B52882A43FD7
:102E80005544880E55C1C93F7D6FEB0312D6D43F20
:102E9000555555555555C53F82922EB1C5B8B33FCE
:102EA00059018D1B6C06E63FC88A599CE52A0040F3
:102EB0004B2D8A1C273A0340075C143326A6913C0D
:102EC000182D4454FB2109400000F03F0000E03F72
:102ED0002DE9F843524A55EC104B95424CDD514ACE
:102EE00095422B460EDD02F17952954240F38280E5
:102EF00010EE102A20462946FDF752FA41EC100B3D
:102F0000BDE8F88305F1404202F5801222436DD0FE
:102F1000B5F1804F3FDD10EE102A10EE100A294661
:102F2000FDF7F4FB404B0022FDF738FA41EC100BA3
:102F300014F058FC22462B462046294659EC108BAB
:102F4000FDF72EFA224606460F462B4640464946D6
:102F5000FDF726FA02460B4600203349FDF700FD37
:102F60000B46024639463046FDF718FABDE8F843ED
:102F700041EC100B00F0C4BE10EE102A2B46204688
:102F80002946FDF70BFA02460B46FDF7E9FC41EC3A
:102F9000100BBDE8F88310EE100A234B00222946DF
:102FA000FDF7FCF902460B4604460D46FDF7F8F91D
:102FB000224606460F462B4620462946FDF7A6FB2D
:102FC00002460B4630463946FDF7EAF941EC100B54
:102FD00014F008FC224651EC100B2B46FDF7E0F9EB
:102FE000BDE8F84341EC100BFEF742BF9FED080B24
:102FF000BDE8F88300F084FE07A3D3E9002351EC79
:10300000100BFDF7CDF941EC100BBDE8F88300BFC4
:103010000000000000000000EF39FAFE422EE63FFB
:10302000FFFFEF3FFFFFAF410000F03F0000000057
:103030002DE9F84F55EC104BCF4B25F000479F4240
:103040002DED048B37DD10EE103A07F1404707F500
:1030500080173B4310D010EE102A2B4620462946FD
:10306000FDF79CF902460B46FDF77AFC41EC100B8C
:10307000BDEC048BBDE8F88F10EE100AA2A3D3E9D3
:1030800000232946FDF742FB02460B46204629460F
:1030900014461D469EA3D3E90023FDF737FB0246E5
:1030A0000B4620462946FDF77BF9BDEC048B41EC2D
:1030B000100BBDE8F88FB14B9F422E4612DCB7F1E2
:1030C000795F80F2638194A3D3E9002310EE100AA4
:1030D0002946FDF765F9AA4B0022FDF7A7FD002858
:1030E00040F00C8145EC104B14F07AF8A44953ECF5
:1030F000102B0020FDF752F9A24B0022FDF706FB32
:1031000087A3D3E9002304460D46FDF7FFFA86A303
:10311000D3E90023FDF744F922462B46FDF7F6FAE2
:1031200083A3D3E90023FDF739F922462B46FDF7A7
:10313000EDFA81A3D3E90023FDF732F922462B46AD
:10314000FDF7E4FA7EA3D3E90023FDF727F9224631
:103150002B46FDF7DBFA7CA3D3E90023FDF720F92A
:1031600022462B46FDF7D2FA79A3D3E9002341EC9E
:10317000180B41EC190B20462946FDF7C7FA76A338
:10318000D3E90023FDF70AF922462B46FDF7BEFAE4
:1031900073A3D3E90023FDF703F922462B46FDF77D
:1031A000B5FA71A3D3E90023FDF7F8F822462B46C0
:1031B000FDF7ACFA724B0022FDF7F2F845EC104B2C
:1031C0008046894614F00EFB6F4B9F425BEC10ABC0
:1031D00073DC5B46002210EE100A43EC182B5946B4
:1031E00010EE102AFDF7DCF842464B468046894631
:1031F00051EC190BFDF7B4FB02460B46404649461D
:10320000FDF784FA53EC182B8046894651EC180BD5
:10321000FDF77CFA02460B4620462946FDF7BEF82C
:1032200053EC182B04460D4650465946FDF7B8F8A6
:1032300002460B4620462946FDF792FB02460B4606
:10324000FDF7AEF802460B4631A1D1E90001FDF7CA
:10325000A5F802460B4640464946FDF79FF853EC59
:10326000182B04460D4618EE100A1946FDF798F87B
:1032700002460B463EA1D1E90001FDF78FF8024658
:103280000B4620462946FDF789F802460B4638A131
:10329000D1E90001FDF782F841EC100B002E3FF759
:1032A000E7AEBDEC048B10EE901A10EE102A01F17F
:1032B000004343EC102BBDE8F88F42464B4651ECDF
:1032C000180BFDF74DFB52465B46FDF71FFA5246C1
:1032D0005B46FDF765F802460B46FDF761F80CA367
:1032E000D3E90023FDF75AF802460B4606A1D1E9BF
:1032F0000001FDF753F841EC100BCFE745EC104B04
:10330000B6E600BFAFF30080182D4454FB21F93F0F
:10331000075C143326A6913C9C7500883CE4377EFC
:1033200009F7FD0DE13D023F88B20175E0EF493F2D
:103330003B8F68B52882A43F5544880E55C1C93FCC
:103340007D6FEB0312D6D43F555555555555C53FA6
:1033500082922EB1C5B8B33F59018D1B6C06E63F72
:10336000C88A599CE52A00404B2D8A1C273A034005
:10337000182D4454FB21E93FFFFFEF3FFFFFDF3FE4
:103380000000F03F0000E03F3233EF3F10EE102A24
:1033900010EE100A2B462946FDF7B8F939A3D3E9F8
:1033A000002306460F46FDF7B1F938A3D3E9002301
:1033B000FCF7F6FF32463B46FDF7A8F935A3D3E903
:1033C0000023FCF7EBFF32463B46FDF79FF933A3A2
:1033D000D3E90023FCF7E4FF32463B46FDF796F9BC
:1033E00030A3D3E90023FCF7D9FF32463B46FDF773
:1033F0008DF92EA3D3E90023FCF7D2FF32463B46DA
:10340000FDF784F92BA3D3E9002380468946304693
:103410003946FDF77BF929A3D3E90023FCF7BEFF6A
:1034200032463B46FDF772F926A3D3E90023FCF7A9
:10343000B7FF32463B46FDF769F924A3D3E90023E1
:10344000FCF7ACFF32463B46FDF760F90C4B00221F
:10345000FCF7A6FF02460B4640464946FDF780FAB8
:1034600022462B46FDF752F922462B46FCF798FFE1
:10347000BDEC048B41EC100BBDE8F88FAFF300807E
:103480000000F03F09F7FD0DE13D023F88B20175F4
:10349000E0EF493F3B8F68B52882A43F5544880E32
:1034A00055C1C93F7D6FEB0312D6D43F55555555D5
:1034B0005555C53F82922EB1C5B8B33F59018D1BFA
:1034C0006C06E63FC88A599CE52A00404B2D8A1CB1
:1034D000273A03400000000051EC110B43422DE954
:1034E000F0470343644E21F0004E4EEAD373B342DB
:1034F00055EC104B3ED86342234325F0004A4AEA7C
:10350000D373B342A94635D801F1404303F5801384
:1035100003433ED08F1707F002075AEA040347EA35
:10352000D5772FD05EEA000337D0B64544D0B245F8
:1035300033D0AAEB0E0EBEF1747F4FEA2E5338DA69
:10354000002945DA3C3343DA9FED3D0B012F5DD076
:10355000022F4AD0A7B151EC100B3BA3D3E90023B3
:10356000FCF71CFF3AA3D3E90023FCF717FF41EC5B
:10357000100B05E022462B46FCF712FF41EC100B26
:10358000BDE8F087022F0ED0032FF9D19FED320B4B
:10359000F6E7BDE8F047FEF77FB9B9F1000F05DBAC
:1035A0009FED2F0BECE79FED2A0BE9E79FED2E0B2C
:1035B000E6E79FED2B0BC9E7F24507F1FF372ED069
:1035C000022F34D82D4B03EBC70797ED000BD7E73D
:1035D00002460B4620462946FDF7C2F941EC100B86
:1035E00013F0FEFDFEF758F9B0E717A3D3E9002367
:1035F00051EC100BFCF7D2FE02460B4614A1D1E9A8
:103600000001FCF7CBFE41EC100BB9E710EE901A6D
:1036100053EC102B01F1004343EC102BB0E7022FC9
:1036200008D8174B03EBC70797ED000BA8E79FEDF2
:10363000040BA5E79FED0E0BA2E700BFAFF30080E0
:103640000000000000000000075C143326A6A13C27
:10365000182D4454FB210940182D4454FB2109C066
:10366000182D4454FB21F93F182D4454FB21F9BF78
:10367000182D4454FB21E93F0000F07F289F0108EA
:10368000109F0108000000002DE9F84355EC104B95
:103690006342474A25F00047234347EAD3739342E6
:1036A00061D8974272D0434B9F422E462EDD424B4B
:1036B0009F423D4638DD22463B4620463946FCF7D0
:1036C0006FFE22463B4604460D4600203849FCF773
:1036D00065FE02460B4620462946FDF741F941ECBE
:1036E000100BFEF7C5FB354B51EC100B0022FDF71C
:1036F0000DF8002E41EC100B06DA10EE901A02467F
:1037000001F1004343EC102BBDE8F88326A3D3E975
:10371000002310EE100A2946FCF742FE0022002387
:10372000FDF784FA70BB3D4622462B4620462946CB
:10373000FCF736FE22462B4680468946FCF7E6FF1C
:1037400022462B4604460D4600201949FCF726FE6A
:1037500002460B4620462946FDF702F942464B46F3
:10376000FCF71EFEBBE710EE102A2B46204629462A
:10377000FCF714FE02460B46FDF7F2F841EC100B85
:10378000BDE8F88345EC104BBDE8F88310EE100A55
:10379000002200232946FDF7E3F841EC100BBDE8B9
:1037A000F88300BFAFF300809C7500883CE4377E4F
:1037B0000000F03FFFFF2F3EFFFFDF3F0000E03F34
:1037C000D0B553EC102B524923F000448C4282B008
:1037D00012DC50498C4217DD4F498C4268DD4F495D
:1037E0008C4240F383804E498C4243DD01318C4250
:1037F0003DD045A3D3E9002310461946FCF786FFC8
:1038000041EC100B02B0D0BD13F0EAFC02F0F0FD69
:1038100057EC106B10EE100A424B00223946FCF7B1
:10382000BFFDB4F1725F41EC100BEBDBCDE90001A1
:1038300032463B4630463946FCF768FF9DED000BAB
:1038400053EC102B06460F4610EE100A1946FCF7F3
:10385000A7FD02460B4630463946FDF781F8314B4D
:103860000022FCF79DFD41EC100B02B0D0BD2E49AB
:103870008A42BED843EC102B13F0B2FC2B4B002233
:1038800051EC100BFCF742FF41EC100B00F050F82C
:1038900057EC106B10EE100A244B00223946FCF74F
:1038A00035FF32463B46FCF731FF41EC100BA9E7F0
:1038B00013F096FC00F03CF857EC106B10EE100A79
:1038C0001A4B00223946FCF721FF32463B4606469A
:1038D0000F4600201549FDF743F802460B463046D7
:1038E0003946FCF75DFD41EC100B8BE713F078FCDB
:1038F00000F01EF80D4B51EC100B0022FCF706FFF8
:1039000041EC100B7EE700BF9C7500883CE4377EDD
:10391000FFFFEF7F422ED63FFFFF3540412E86400E
:10392000CD3386400000F03F7DF8B98F0000E03FC6
:103930002DE9F04F55EC104B2DED028BDC4925F0B5
:1039400000428A4283B04FEAD57613D9D9498A42D8
:103950002FD9C5F31303234310EE102A40F06281E0
:10396000002E00F0F9809FEDBA0B03B0BDEC028B86
:10397000BDE8F08FD04B9A425BD8D04B9A4200F210
:10398000F080B5A3D3E9002310EE100A2946FCF716
:1039900007FDCB4B0022FDF749F9002800F0E1803C
:1039A000C74B002220462946FCF7FAFC41EC100BDD
:1039B000D2E0ABA3D3E9002310EE100A2946FDF7AD
:1039C00035F9002840F03A81A7A3D3E90023204627
:1039D0002946FDF70DF90028C5D1BA4B204603EB67
:1039E000C6062946A2A3D3E90023FCF78FFED6E939
:1039F0000023FCF7D5FCFDF739F90190FCF71CFE1C
:103A00009DA3D3E9002306460F46FCF77FFE02463E
:103A10000B4620462946FCF7C1FC99A3D3E90023B5
:103A20008046894630463946FCF770FE41EC180B5B
:103A30001CE0A54B9A42D0D8A44B03EBC603D3E9B4
:103A4000002310EE100A2946FCF7A8FCA04BF40056
:103A5000234493ED007BC6F1010AAAEB06038046DE
:103A600089460193B0EE478AF0EE678A53EC182B33
:103A700040464946FCF792FC02460B4682468B467E
:103A8000FCF744FE80A3D3E9002304460D46FCF76F
:103A90003DFE7FA3D3E90023FCF780FC22462B46A2
:103AA000FCF734FE7CA3D3E90023FCF779FC224623
:103AB0002B46FCF72BFE7AA3D3E90023FCF76EFC20
:103AC00022462B46FCF722FE77A3D3E90023FCF71E
:103AD00067FC22462B46FCF719FE02460B46504671
:103AE0005946FCF75BFC019B0F46064654465D4673
:103AF00001463A46002B6DD032463B465046594669
:103B0000FCF704FE324604463B460D4600204FF0CB
:103B10008041FCF743FC02460B4620462946FCF751
:103B20001FFF02460B4651EC180BFCF737FC4246D0
:103B30004B46FCF733FC02460B4600206049FCF77D
:103B40002DFC019C6FF47F739C420246C0F2C28040
:103B500001EB045343EC102B03B0BDEC028BBDE82A
:103B6000F08F22462B4620462946FCF7CFFD46A380
:103B7000D3E9002306460F46FCF7C8FD44A3D3E96A
:103B80000023FCF70BFC32463B46FCF7BFFD42A38B
:103B9000D3E90023FCF704FC32463B46FCF7B6FDB4
:103BA0003FA3D3E90023FCF7F9FB32463B46FCF781
:103BB000ADFD3DA3D3E90023FCF7F2FB32463B46C3
:103BC000FCF7A4FD02460B4620462946FCF7E6FB1F
:103BD0000A460146914688460A464B4620462946F3
:103BE000FCF794FD002206460F46404649464FF03A
:103BF0008043FCF7D3FB02460B4630463946FCF7C0
:103C0000AFFE22462B46FCF7C9FB02460B460020BE
:103C10002B49FCF7C3FB41EC100B03B0BDEC028B4E
:103C2000BDE8F08F2B4620462946FCF7B9FB41EC56
:103C3000100B03B0BDEC028BBDE8F08F06A3D3E9F7
:103C4000002310461946FCF761FD41EC100B83E799
:103C500000000000000000009C7500883CE4377EF6
:103C6000EF39FAFE422E864051302DD5104987C0DB
:103C7000FE822B654715F73F0000E0FE422EE63F2F
:103C8000763C7935EF39EA3DD0A4BE726937663E9D
:103C9000F16BD2C541BDBB3E2CDE25AF6A56113F4C
:103CA00093BDBE166CC1663F3E5555555555C53F33
:103CB000412E8640FFFFEF7F422ED63FFFFF2F3E73
:103CC0000000F03F409F0108B1A2F03F509F010863
:103CD000609F0108019800F57A7A01EB0A531046BB
:103CE000194600224FF0B873FCF710FD41EC100BA1
:103CF00003B0BDEC028BBDE8F08F00BF00000000F8
:103D00002DE9F04F51EC100B2DED028BB1F5801F1A
:103D100085B00F4658DA21F00043034310EE102A15
:103D200000F0FC800029C0F23C81E14B0022FCF74E
:103D3000EDFCE04B0F469F426FF0350249DC3E152B
:103D4000C7F3130707F51523A6F2FF3603F66473CE
:103D5000164403F4801306EB135683F07F5383F469
:103D6000401343EA07010022D34BFCF717FBBB1CAF
:103D7000C3F31303022B82468B4635DC002200235B
:103D8000FCF72CFF002800F0D680002E00F06081A8
:103D90003046FCF751FCB0A3D3E9002306460F469A
:103DA000FCF7B4FCAEA3D3E9002304460D4630462D
:103DB0003946FCF7ABFC02460B4620462946FCF789
:103DC000EFFA41EC100B0AE0BA4B9F424FF00002B1
:103DD000B5DD02460B46FCF7E3FA41EC100B05B0EB
:103DE000BDEC028BBDE8F08FA7F5C223A3F27A43A6
:103DF000019300224FF08043FCF7D2FA02460B46B3
:103E000050465946FCF7ACFD41EC180B3046FCF728
:103E100013FC53EC182BCDE9020151EC180BFCF705
:103E200075FC02460B4680468946FCF76FFC8EA364
:103E3000D3E9002304460D46FCF768FC8CA3D3E9C4
:103E40000023FCF7ADFA22462B46FCF75FFC8AA361
:103E5000D3E90023FCF7A4FA22462B46FCF756FCD4
:103E600087A3D3E90023FCF79BFA42464B46FCF7B5
:103E70004DFC85A3D3E90023804689462046294688
:103E8000FCF744FC82A3D3E90023FCF789FA22461D
:103E90002B46FCF73BFC80A3D3E90023FCF780FA18
:103EA00022462B46FCF732FC0B460246494640466A
:103EB000FCF776FAC7F5D727019B51371F43002F30
:103EC000804689465FDD7D4B002250465946FCF70F
:103ED0001DFC52465B46FCF719FC04460D46002EBD
:103EE00069D122462B4640464946FCF759FA53EC25
:103EF000182BFCF70BFC02460B4620462946FCF724
:103F00004DFA02460B4650465946FCF747FA41EC3B
:103F1000100B05B0BDEC028BBDE8F08F0022002332
:103F200067490020FCF71CFD41EC100B05B0BDEC0F
:103F3000028BBDE8F08F5AA3D3E9002350465946BF
:103F4000FCF7E4FB02460B4600205C49FCF726FA2E
:103F5000524604460D465B4650465946FCF7D6FB92
:103F600002460B4620462946FCF7D0FB04460D4688
:103F7000002E59D102460B4650465946FCF70EFA20
:103F800041EC100B2BE7002E40F09C8002460B46C4
:103F900050465946FCF702FA53EC182BFCF7B6FBD7
:103FA000AFE70B46FCF7FAF900220023FCF7D8FC38
:103FB00041EC100B13E728A3D3E90023DDE902014C
:103FC000FCF7A4FB22462B4606460F4640464946D0
:103FD000FCF7E6F953EC182BFCF798FB20A3D3E988
:103FE000002380468946DDE90201FCF78FFB02468B
:103FF0000B4640464946FCF7D3F902460B4620469D
:104000002946FCF7CBF952465B46FCF7C7F9024656
:104010000B4630463946FCF7C1F941EC100B05B0B0
:10402000BDEC028BBDE8F08F3046FCF705FB0AA320
:10403000D3E9002380468946FCF768FB08A3D3E94F
:10404000002306460F4640464946FCF75FFBD4E78F
:104050009FED150BC3E600BF0000E0FE422EE63FD9
:10406000763C7935EF39EA3D44523EDF12F1C23FEA
:10407000DE03CB966446C73F599322942449D23F2E
:10408000935555555555E53F9FC678D0099AC33F7E
:10409000AF788E1DC571CC3F04FA97999999D93F95
:1040A000555555555555D53F0000000000000000FE
:1040B00000005043FFFFEF7F0000F03F0000E03FB3
:1040C000000050C318A3D3E90023DDE90201FCF787
:1040D0001DFB42464B4604460D4650465946FCF7EA
:1040E0005DF953EC182BFCF711FB11A3D3E9002366
:1040F00006460F46DDE90201FCF708FB02460B46C7
:1041000030463946FCF74AF952465B46FCF746F919
:1041100002460B4620462946FCF740F941EC100BBD
:104120005DE600BFAFF300800000E0FE422EE63FF8
:10413000763C7935EF39EA3D2DE9F84355EC104BE3
:10414000B5F5801F2B461EDA25F00042224360D0D1
:10415000002D68DB404B2946002210EE100AFCF7C8
:10416000D5FA3E4A0D462B46934204466FF0350180
:104170000EDD22462B4620462946FCF711F941EC7C
:10418000100BBDE8F883354A93424FF00001F0DC94
:104190001815A0F2FF300844C70F00EBD070C3F32E
:1041A0001306FCF749FAC7F57F73033346EA035554
:1041B00045EC104B06460F46FFF7A2FD20A3D3E9BE
:1041C00000233046394659EC108BFCF79FFA1EA3AA
:1041D000D3E9002304460D4640464946FCF796FACB
:1041E00002460B4620462946FCF7DAF818A3D3E925
:1041F000002304460D4630463946FCF787FA02464E
:104200000B4620462946FCF7CBF841EC100BBDE8E5
:10421000F8830022002312490020FCF7A1FB41ECA7
:10422000100BBDE8F88310EE102A20462946FCF753
:10423000B5F800220023FCF793FB41EC100BA0E73C
:10424000362BF111F3FE593D0EE526157BCBDB3FF6
:1042500000609F501344D33F00005043FFFFEF7FA7
:10426000000050C3000000002DE9F04F57EC116B27
:104270002DED0C8B27F0004A5AEA060287B03DD09C
:1042800055EC104B724925F00048884510EE102A75
:10429000A9462CDC11EE103ABB4636D08A4526DC06
:1042A0006B498A4521D0B9F1000F39DB002100911B
:1042B000002B51D1664B9A4500F0A280654B9A4580
:1042C00000F0B080BBF1804F00F0C084624B9B4592
:1042D00042D1B9F1000F3FDB45EC104B07B0BDEC0C
:1042E0000C8BBDE8F04F13F07DBA002BDBD008F14A
:1042F000404808F5801858EA020309D19FED500B99
:1043000007B0BDEC0C8BBDE8F08F0CB9C245C7DD22
:10431000524807B0BDEC0C8BBDE8F04F02F0C8BAB4
:104320004F498A4500F38580A1F154718A450FDD1C
:104330004FEA2A51A1F2FF31142940F39B84C1F1C5
:10434000340123FA01F000FA01F1994200F0ED8402
:1043500000210091002BB1D045EC104B029212F0DD
:104360003FFF029A5ABBB8F1000F04D0394B29F035
:1043700040429A4223D1BBF1000F07DA53EC102BD5
:1043800034490020FCF7ECFA41EC100BB9F1000FB6
:10439000B6DA009B08F1404808F5801858EA030394
:1043A00040F08D8453EC102B10461946FBF7F6FFB6
:1043B00002460B46FCF7D4FA41EC100BA0E7009A3A
:1043C0004FEAD973013B0493134335D0254B9A45EB
:1043D0004CDD03F104739A45234B40F3DB8398458E
:1043E00040F36083BBF1000F40F3608316A3D3E971
:1043F000002310461946FCF789F941EC100B7FE7C2
:1044000008F1404303F5801313433FF477AF164B95
:10441000984540F37A83BBF1000FC0F2478347EC25
:10442000106B6DE7BBF1000FC0F21A8445EC104B26
:1044300066E7022100913BE722462B46B4E700BF26
:10444000000000000000F03F9C7500883CE4377ECF
:104450000000F07F0000F03F0000E03FD0A6010820
:10446000FFFF3F430000E041FFFFEF3FE44B09EA5D
:104470000303002253B951EC100BE24BFCF746F951
:1044800041EC100B10EE908A6FF034024FEA285383
:10449000A3F2FF339A18DC4B0592C8F3130848F0D7
:1044A0007F54984544F4401407DDD84B984540F3B9
:1044B000148401320592A4F580149FEDB96B9FED31
:1044C000BA7B53EC162BB0EE47CAF0EE67CA002554
:1044D000B0EE47DAF0EE67DA5BEC10ABA34650467D
:1044E000594643EC1A2BFBF759FF53EC1A2B804625
:1044F000894650465946FBF753FF02460B460020BB
:10450000C349FCF72DFA41EC1B0B404653EC1B2B27
:104510004946FCF7FBF841EC180B0A460146CDE989
:1045200002120021029164104BEC19AB44F00054CC
:10453000DDE902AB04F500230020591904460D46BD
:1045400002460B4650465946FCF7E0F802460B4639
:1045500040464946FBF722FF53EC1A2B804689461A
:1045600020462946FBF71AFF02460B4651EC190B71
:10457000FBF714FF52465B46FCF7C8F802460B46B1
:1045800040464946FBF70AFF53EC1B2BFCF7BEF8ED
:1045900053EC182B41EC190B51EC180BFCF7B6F847
:1045A00083A3D3E9002304460D46FCF7AFF882A3AA
:1045B000D3E90023FBF7F4FE22462B46FCF7A6F8CE
:1045C0007FA3D3E90023FBF7EBFE22462B46FCF743
:1045D0009DF87DA3D3E90023FBF7E2FE22462B469C
:1045E000FCF794F87AA3D3E90023FBF7D9FE22461F
:1045F0002B46FCF78BF878A3D3E90023FBF7D0FE1A
:104600002246804689462B4620462946FCF77EF8FE
:1046100002460B4640464946FCF778F852460446A7
:104620000D465B4651EC180BFBF7BAFE53EC192B09
:10463000FCF76CF822462B46FBF7B2FE524680464A
:1046400089465B4650465946FCF760F802460B46E1
:1046500043EC1A2B6F4B0022FBF7A2FE42464B465F
:10466000FBF79EFE00240D4622462B465046594637
:10467000FCF74CF8674B82468B46002220462946C1
:10468000FBF78CFE53EC1A2BFBF788FE02460B4619
:1046900040464946FBF782FE53EC182BFCF736F8F0
:1046A00022462B4604460D4651EC190BFCF72EF81A
:1046B00002460B4620462946FBF772FE8046894695
:1046C00042464B4650465946FBF76AFE44A3D3E99F
:1046D0000023002004460D46FCF718F8524641EC32
:1046E000190B5B4620462946FBF758FE02460B464F
:1046F00040464946FBF752FE3BA3D3E90023FCF7B3
:1047000005F802460B462046294614461D4638A3A6
:10471000D3E90023FBF7FAFF02460B462046294661
:10472000FBF73EFE53EC1D2BFBF73AFE8046059847
:104730008946FBF781FF424682468B464B4651EC49
:10474000190BFBF72DFE53EC1C2BFBF729FE5246F1
:104750005B46FBF725FE52465B46002004460D46AD
:10476000FBF71CFE53EC1C2BFBF718FE53EC192B2C
:10477000FBF714FE02460B4640464946FBF70EFE89
:10478000009B049A013B134382468B4640F0B6815E
:104790009FED197BB0EE478AF0EE678A3CE000BFE0
:1047A000000000000000F03F0000000000000000DA
:1047B000EF4E454A287ECA3F65DBC9934A86CD3F06
:1047C00001411DA96074D13F4D268F515555D53FEC
:1047D000FFAB6FDBB66DDB3F033333333333E33F84
:1047E000000000E009C7EE3FFD033ADC09C7EE3FD9
:1047F000F5015B14E02F3EBE000000000000F0BF9A
:104800000000F07F000040438E98030079B60B0053
:104810000000F03F000008400023CDE9006700934E
:10482000DDE90089304642464B463946FBF7B6FD86
:1048300022462B46FBF76AFF32463B4606460F46AA
:1048400050465946FBF762FF02460B463046394652
:10485000FBF7A6FD42464B4606460F462046294634
:10486000FBF754FF04460D462B4630463946224698
:10487000FBF796FDC24B9942804689468A4640F333
:10488000188101F13F4303F5E003034340F0078241
:10489000A3A3D3E9002330463946FBF781FD024646
:1048A0000B46404649469046994622462B46FBF722
:1048B00075FD02460B4640464946FCF7B7F900280D
:1048C00040F0ED81CAF30A534FF48012A3F2FE3395
:1048D00042FA03F35344AB49C3F30A52A2F2FF3244
:1048E00041FA02FCC3F3130141F48011C2F1140236
:1048F00041FA02F2002023EA0C01BAF1000F009203
:104900000B46024602DA00994942009120462946A8
:10491000FBF744FD009B1B05029302460B46044631
:104920000D4630463946FBF73BFD89464FF00008FF
:104930007DA3D3E9002340464946FBF7E7FE224624
:104940002B4682468B4640464946FBF727FD0246EA
:104950000B4630463946FBF721FD75A3D3E900230A
:10496000FBF7D4FE74A3D3E9002304460D4640466A
:104970004946FBF7CBFE02460B4620462946FBF78D
:104980000FFD06460F4632463B4650465946FBF75A
:1049900007FD52465B4604460D46FBF7FFFC024608
:1049A0000B4630463946FBF7F9FC224680468946DD
:1049B0002B4620462946FBF7A9FE61A3D3E9002335
:1049C00006460F46FBF7A2FE5FA3D3E90023FBF7E1
:1049D000E5FC32463B46FBF799FE5DA3D3E9002395
:1049E000FBF7DEFC32463B46FBF790FE5AA3D3E9C9
:1049F0000023FBF7D3FC32463B46FBF787FE58A368
:104A0000D3E90023FBF7CCFC32463B46FBF77EFEA6
:104A100002460B4620462946FBF7C0FC06460F46D9
:104A200032463B4620462946FBF770FE02460B46BF
:104A30003046394616461F4600224FF08043FBF7AA
:104A4000ADFC02460B4630463946FBF789FF42462D
:104A500006460F464B4620462946FBF757FE424680
:104A60004B46FBF79DFC02460B4630463946FBF7AA
:104A700095FC22462B46FBF791FC02460B46002094
:104A80004149FBF78BFC029A0B461344B3F5801F98
:104A9000C0F24381194653EC182BFBF737FE41EC6B
:104AA000100B2DE4BBF1000FFFF6A0AC9FED2E0B19
:104AB00026E4DFF8DCC021F00043634540F3E780E3
:104AC000324B0B4403430AD122462B46FBF766FCCC
:104AD00032463B46FCF7A0F800283FF4F3AE24A38F
:104AE000D3E9002351EC180BFBF710FE20A3D3E908
:104AF0000023FBF70BFE41EC100B01E49FED1E7B46
:104B0000B0EE478AF0EE678A86E6BBF1000FCDDA99
:104B100007F1004300EE106A00EE903AFFF7F0BB99
:104B2000FE822B654715973C00000000432EE63FB0
:104B3000EF39FAFE422EE63F396CA80C615C20BECC
:104B4000D0A4BE726937663EF16BD2C541BDBB3E93
:104B50002CDE25AF6A56113F93BDBE166CC1663F71
:104B60003E5555555555C53F00000000000000005A
:104B700059F3F8C21F6EA501000000000000F03FCD
:104B8000FFFF8F40FFFF0F000000F03F00346F3F3A
:104B9000FFCB9040984585DB7D4B98453FF722AC95
:104BA00051EC100B7A4B0022FBF7F8FB68A3D3E91A
:104BB000002304460D46FBF7A9FD67A3D3E90023B4
:104BC00082468B4620462946FBF7A0FD714B41ECFF
:104BD000180B002220462946FBF798FD02460B469B
:104BE0005FA1D1E90001FBF7D9FB22462B46FBF779
:104BF0008DFD02460B4600206749FBF7CFFB22469E
:104C0000804689462B4620462946FBF77FFD024613
:104C10000B4640464946FBF779FD53A3D3E90023F1
:104C2000FBF774FD02460B4651EC180BFBF7B6FB85
:104C30008046894642464B4650465946FBF7B0FBF4
:104C4000002052465B4604460D4691E522462B461F
:104C500020462946FBF75AFD41EC100BFFF750BBED
:104C60004B49002022462B46FBF77AFE41EC100B05
:104C7000FFF746BB002B44D1C1F114014AFA01F001
:104C800000FA01F151455AD00093FFF717BB424A91
:104C900093425BDCDDE900120291009146E634A309
:104CA000D3E9002351EC180BFBF730FD30A3D3E917
:104CB0000023FBF72BFD41EC100BFFF721BB009B02
:104CC000012B7FF41DAB10EE901A10EE102A01F1AB
:104CD000004343EC102BFFF713BB9FED277BB0EE97
:104CE00047CAF0EE67CA9FED267BB0EE47DAF0EEDA
:104CF00067DA9FED257B4FF4802553EC172BFFF7E8
:104D0000EBBB45EC104B009212F06AFA009A002AB5
:104D10007FF492AB0092FFF726BB41EC100B00989A
:104D200001F0CEFD51EC100BB5E600F00100C0F132
:104D300002010091002B3FF4C1AAFFF70DBB00F068
:104D40000100C0F102030093FFF7B8BA1B15BBE5E1
:104D5000000000604715F73F44DF5DF80BAE543E9E
:104D6000555555555555D53FFE822B654715F73F8F
:104D70009C7500883CE4377E0000004003B8E23FA9
:104D800006D0CF43EBFD4C3E000000000000F83F92
:104D90000000F03F0000D03F0000E03F00000000B6
:104DA0002DE9F04F53EC102B2DED048B904923F09F
:104DB00000458D428BB0044640F38C808D498D4276
:104DC0001F462BDC002F194610EE100A7EA3D3E9F4
:104DD000002340F3B681FBF7E1FA874B9D42804602
:104DE000894600F08F807AA3D3E90023FBF7D6FA37
:104DF00002460B46C4E9002340464946FBF7CEFA7B
:104E000073A3D3E90023FBF7C9FAC4E90201012621
:104E100030460BB0BDEC048BBDE8F08F77498D4276
:104E200040F3928076498D4261DC2E15A6F216463B
:104E300010EE100AA5EB065190468946FBF716FFC7
:104E4000FBF7FAFB02460B4640464946CDE90423F0
:104E5000FBF7A4FA6B4B0022FBF758FC894680460F
:104E6000FBF704FF0546FBF7E7FB02460B4640460F
:104E70004946CDE90623FBF791FA624B0022FBF786
:104E800045FC02460B46CDE9082300220023FBF730
:104E9000A5FE002800F05381002D0CBF0123022342
:104EA000594A0192022200922146324604A800F09B
:104EB000C3FB002F0646ABDA6168226801F10043AC
:104EC000E168C4E90023A26801F10043C4E90223B8
:104ED00046429DE7002000210026C4E90201304639
:104EE00084ED000B0BB0BDEC048BBDE8F08F10EE31
:104EF000100A1946FBF752FA0026C4E90201C4E978
:104F0000000185E734A3D3E90023FBF747FA34A374
:104F1000D3E9002380468946FBF740FA02460B4658
:104F2000C4E9002340464946FBF738FA2CA3D3E9ED
:104F30000023FBF733FA0126C4E9020130460BB027
:104F4000BDEC048BBDE8F08F12F04AF959EC108BE0
:104F500010EE100A24A3D3E900234946FBF7D6FB41
:104F60002A4B0022FBF71CFAFBF780FE0646FBF7F4
:104F700063FB02460B4643EC182B13A3D3E9002333
:104F8000B0EE489AF0EE689AFBF7C0FB02460B467B
:104F900040464946FBF702FA0DA3D3E900238246B7
:104FA0008B4651EC180BFBF7B1FB1F2E41EC180B95
:104FB00030DC174B721E53F82230AB422AD0024627
:104FC0000B469BE0AFF3008000004054FB21F93F0B
:104FD0003163621A61B4D03D0000601A61B4D03D03
:104FE0007370032E8A19A33B83C8C96D305FE43FF9
:104FF000FB21E93F7BD90240FB21F93FFB213941ED
:10500000FFFFEF7F00007041C4B401080000E03FE3
:1050100044B401082B150393504653EC182B594602
:10502000FBF7BCF9C1F30A53C3EB1555102D8046AD
:10503000894669DD64A3D3E9002351EC190BFBF722
:1050400065FB8046894642464B4650465946FBF72B
:10505000A5F902460B465046594692469B46FBF739
:105060009DF942464B46FBF799F959A3D3E9002332
:105070008046894651EC190BFBF748FB42464B46EC
:10508000FBF78CF902460B465046594643EC182B69
:10509000FBF784F9039AC1F30A53D31A312B8046E4
:1050A000894631DD4DA3D3E9002351EC190BFBF701
:1050B0002DFB8046894642464B4650465946FBF7F3
:1050C0006DF902460B465046594692469B46FBF701
:1050D00065F942464B46FBF761F942A3D3E9002349
:1050E0008046894651EC190BFBF710FB42464B46B4
:1050F000FBF754F902460B4643EC182B5046594631
:10510000FBF74CF98046894642464B46C4E9008984
:1051100050465946FBF742F953EC182BFBF73EF982
:10512000002FC4E90201BFF673AE09F10043C4E9E0
:10513000008301F10043C4E90203764268E60323D9
:10514000AEE6FBF72DF9244B9D428046894616D0EA
:105150001BA3D3E90023FBF723F902460B46C4E95E
:10516000002340464946FBF719F915A3D3E900236C
:10517000FBF716F94FF0FF36C4E9020148E612A327
:10518000D3E90023FBF70CF911A3D3E900238046F0
:105190008946FBF705F902460B46C4E90023404661
:1051A0004946FBF7FBF80AA3D3E90023FBF7F8F81D
:1051B0004FF0FF36C4E902012AE600BFAFF30080DA
:1051C0003163621A61B4D03D0000601A61B4D03D11
:1051D0007370032E8A19A33BFB21F93F0000002EB8
:1051E0008A19A33BC14920259A837B39000000001E
:1051F0002DE9F84355EC104B654A25F000469642E0
:1052000063DC644B002DB4BFDFF8A891DFF89C91FC
:105210009E424FF0000814DD5F4B9E4240F3A68093
:105220005E4B9E4262DD01339E425CD056A3D3E9C1
:10523000002320462946FBF769FA41EC100BBDE834
:10524000F883574B9E426FDC4FA3D3E9002310EE47
:10525000100A2946FBF7A4F8524B0022FBF7E6FCA4
:10526000F0BB45EC104B11F0BBFF01F0C1F855EC61
:10527000104B22462B4620462946FBF791F8224642
:1052800006460F462B4620462946FBF73FFA0246C4
:105290000B462046294614461D460022414BFBF78B
:1052A0007FF802460B4620462946FBF759FB02468B
:1052B0000B4630463946FBF771F842464B46FBF742
:1052C00025FA41EC100BBDE8F88310EE102A2B46AE
:1052D00020462946FBF764F841EC100BBDE8F88343
:1052E00045EC104BFAE7304A94429FD845EC104BFE
:1052F00011F076FF2D4B002251EC100BFBF706FA54
:1053000041EC100BFEF714FB55EC104B10EE102A7D
:105310002B4640464946FBF7F9F922462B46FBF758
:10532000F5F941EC100BD9E711F05AFF01F060F8E4
:105330001F4B9E4255EC104B9BDD10EE100A194B93
:1053400000222946FBF72CF802460B462046294648
:10535000FBF706FB22462B46FBF722F842464B465C
:10536000FBF7D4F941EC100BBDE8F88311F038FFDE
:10537000FEF7DEFA424651EC100B4B46FBF7C6F93E
:1053800041EC100BAAE700BF3374AC3C1F7BAC7F31
:10539000FFFFEF7FFFFF3540412E8640CD33864033
:1053A000FFFF2F3E0000F03F7DF8B98F0000E03F87
:1053B000FFFFEF3F0000E0BF2DE9F84F57EC106B07
:1053C00027F00049B9F1795F2DED048B5BEC11AB4F
:1053D00071DA10EE100A3946FBF748FC002800F09D
:1053E000F68032463B4630463946FBF78FF97CA3C0
:1053F000D3E9002304460D46FBF788F97AA3D3E9E5
:105400000023FAF7CDFF22462B46FBF77FF978A35E
:10541000D3E90023FAF7C2FF22462B46FBF776F9C1
:1054200075A3D3E90023FAF7BBFF22462B46FBF70F
:105430006DF973A3D3E90023FAF7B0FF22462B4698
:10544000FBF764F970A3D3E90023FAF7A9FF22461A
:105450002B46FBF75BF941EC180B714B0022204601
:105460002946FBF753F953EC182B80468946204612
:105470002946FBF74BF952465B4604460D4630463B
:105480003946FBF743F902460B4620462946FAF710
:1054900085FF02460B4640464946FAF77FFF024623
:1054A0000B4600205F49FAF779FFBDEC048B41EC15
:1054B000100BBDE8F88F10EE102A10EE100A3B46D4
:1054C0003946FBF723F946A3D3E9002304460D46EA
:1054D000FBF71CF944A3D3E90023FAF761FF224646
:1054E0002B46FBF713F942A3D3E90023FAF756FF43
:1054F00022462B46FBF70AF93FA3D3E90023FAF72C
:105500004FFF22462B46FBF701F93DA3D3E90023C9
:10551000FAF744FF22462B46FBF7F8F83AA3D3E903
:105520000023FAF73DFF2B462246FBF7EFF83E4BF0
:10553000994541EC180B90DD3C4B99453CDC002231
:10554000A9F500133749002090469946FAF726FF3F
:1055500041EC190B324B002220462946FBF7D6F8C6
:1055600042464B46FAF71AFF53EC182B8046894601
:1055700020462946FBF7CAF852465B4604460D46CC
:1055800030463946FBF7C2F802460B46204629460C
:10559000FAF704FF02460B4640464946FAF7FEFE7C
:1055A00002460B4651EC190BFAF7F8FEBDEC048BE2
:1055B00041EC100BBDE8F88F9FED157BDFF8709084
:1055C000B0EE479AF0EE679A4FF00008C2E7BDECE4
:1055D000048B9FED110BBDE8F88F00BFAFF3008087
:1055E000D43888BEE9FAA8BDC4B1B4BD9EEE213E50
:1055F000AD529C804F7E923E9015CB19A001FA3E91
:105600007751C1166CC1563F4C5555555555A53F60
:10561000000000000000E73F000000000000F03F35
:105620000000E03F0000F03F3233D33F0000E93F8D
:105630000000D23F000000002DE9F04FADF5197DCC
:105640001C4608930B91BB4BA299049053F8211070
:105650000591631E12F1140F0393C0F24B83B649F8
:10566000D31E81FB0301DB17C3EBA10307930133B7
:10567000A3EB8303DB00D3180693079A039BD41A8A
:10568000059AD6181AD40136A39F264420AD4FF0B0
:1056900000084FF0000908E057F82400FAF7CCFFA3
:1056A0000134B442E5E8020108D0002CF4DA0134F8
:1056B00040464946B442E5E80201F6D1059B002B7D
:1056C000C0F2C883089BDDF80C90DA000292059ABC
:1056D0001A440192049A20A901EBC30A0DF5E07B5C
:1056E00002EBC308039B002BC0F2A981049E57461E
:1056F0000024002577E90223F6E80201FBF706F80B
:1057000002460B4620462946FAF74AFE464504461D
:105710000D46EFD1019B09F101099945EBE80245DE
:105720000AF1080ADED1049A029B13449B46059BAA
:105730000BA901EB83020CA90A921A4601EB830321
:10574000083B09930192019A98A901EBC203002A30
:1057500053E9284529DD0DF5E07A0AEBC2080DF181
:105760003009764B002220462946FAF7CFFFFBF797
:105770007DFAFAF761FF724B002206460F46FAF7F0
:10578000C5FF02460B4620462946FAF707FEFBF7FF
:105790006DFA78E9022349F8040B39463046FAF7E6
:1057A000FFFDD04504460D46DBD1DDF8189045ECF1
:1057B000104B484601F084F855EC104B00224FF096
:1057C0007F5310EE100A2946FAF7A0FF41EC100BA8
:1057D000FCF7CAFA5B4B51EC100B0022FAF796FF6C
:1057E00002460B4620462946FAF7D8FD0D460446E8
:1057F000FBF73CFA8046FAF71FFF0B4602462946A4
:105800002046FAF7CBFD4B46002B06460F4640F3E9
:105810009B80019A511E0CAAC9F1180352F821204D
:1058200042FA03F000FA03F3D31AC9F117050CAAE0
:1058300043FA05F5002D42F82130804400F38E80B4
:105840000022002330463946FBF7C8F9002800F053
:105850005882019B059A03F1FF3A524510DC03F18F
:1058600080430CAA013B0A9802EB8303002253F801
:105870000419834242EA0102F9D1002A40F0E28091
:10588000059B0CAA013B52F82330002B40F0D2803C
:10589000099A012352F8041901330029FAD0019A18
:1058A000D3180293531C9946019A08990A449046CA
:1058B000079A02EB030A0AF1804AA39A0AF1FF3A17
:1058C00002EB8A0A20AA02EBC80870AA02EBC30303
:1058D00001935AF8040FFAF7AFFE0B4603990246FC
:1058E0000029C8E90023474608F108081EDB049E8A
:1058F0000024002501E077E90223F6E80201FAF727
:1059000005FF02460B4620462946FAF749FD5E454B
:1059100004460D46EFD1019BE3E802450193029B4B
:1059200009F101099945D4DD01930CE70024002514
:10593000F1E700BFCCB50108ABAAAA2A0000703E6F
:1059400000007041000020406BD1019B0CAA013B7C
:1059500052F82350ED15002D7FF772AF019B002BFD
:1059600008F1010840F3CB810C9C002C51D1019B24
:10597000012B20D00CAB012253F8044F002C4BD04C
:10598000531C0CA9C4F1807441F82240019999423A
:1059900010DD0CAA0CA852F8232000EB830300EBC7
:1059A00081006FF07F4100E01A688A1A43F8042BE7
:1059B0008342F9D10124069B002B0EDD012B00F060
:1059C0006C81022B09D1019B5A1E0CAB0CA953F818
:1059D0002230C3F3150341F82230022D7FF430AF9B
:1059E00032463B46B6490020FAF7D8FC06460F4639
:1059F000002C3FF425AF06989FEDAD0B00F060FF43
:105A00003046394653EC102BFAF7C8FC06460F46D1
:105A100016E701230022B4E7019901328A42ABD193
:105A2000C9E7A84B0022FBF7F7F8002840F05081A7
:105A3000054605E7019B01339946029334E70024AC
:105A4000002567E6069B0395A3F118020CABCDF881
:105A50001C8053F82A30069273B9019B03F18043EE
:105A6000023B0CA901EB830353F804190AF1FF3A36
:105A7000183A0029F8D006929FED8D0B069800F099
:105A80001FFFBAF1000F55EC104BC0F2D98170AB7B
:105A900003EBCA0B0CAA0AF10103069302EB83067F
:105AA000DFF824924FEACA0304930BF108074FF082
:105AB000000856F8040DFAF7BFFD22462B46FAF708
:105AC00025FE4B4667E90201424620462946FAF781
:105AD0001DFE0CAB9E4204460D46EAD148ABCDE913
